:020000040800F2
:1000000000000824811D0008AD1C0008B31C000876
:10001000B91C0008BF1C0008C51C00080000000037
:10002000000000000000000000000000A1E4000843
:10003000CB1C000800000000F1E60008C1B8000871
:10004000D11D0008D11D0008D11D0008D11D0008D8
:10005000D11D0008D11D0008D11D0008D11D0008C8
:10006000D11D0008D11D0008D11D0008D91C0008B1
:10007000D11D0008D11D0008D11D0008D11D0008A8
:10008000D11D0008D11D0008D11D0008D11D000898
:10009000D11D0008D11D0008D11D0008D11D000888
:1000A000D11D0008ED1C0008D11D0008D11D00085D
:1000B000D11D0008D11D0008D11D0008D11D000868
:1000C000D11D0008D11D0008D11D0008D11D000858
:1000D000D11D0008D11D0008D11D0008011D000818
:1000E000D11D0008D11D000800000000D11D00082E
:1000F000D11D0008D11D0008D11D0008D11D000828
:10010000D11D0008D11D0008D11D0008D11D000817
:10011000D11D0008D11D0008D11D0008D11D000807
:10012000D11D0008D11D0008D11D0008D11D0008F7
:10013000D11D0008D11D0008D11D0008D11D0008E7
:10014000D11D0008D11D00080000000000000000C3
:10015000D11D0008D11D0008D11D0008D11D0008C7
:10016000D11D0008D11D0008D11D0008D11D0008B7
:10017000D11D0008D11D0008D11D0008000000009D
:10018000D11D0008D11D0008D11D0008D11D000897
:10019000D11D0008D11D0008D11D0008D11D000887
:1001A000D11D0008D11D0008D11D0008D11D000877
:1001B000D11D0008D11D0008D11D0008D11D000867
:1001C000D11D0008D11D0008D11D0008D11D000857
:1001D000D11D0008D11D0008D11D0008D11D000847
:1001E000D11D0008D11D0008D11D0008D11D000837
:1001F000D11D0008D11D0008D11D0008D11D000827
:10020000D11D0008D11D0008D11D0008D11D000816
:10021000D11D0008D11D0008D11D0008D11D000806
:10022000D11D0008D11D0008D11D000800000000EC
:10023000D11D0008D11D0008D11D0008D11D0008E6
:10024000D11D0008D11D0008D11D0008D11D0008D6
:10025000D11D0008D11D0008D11D0008D11D0008C6
:10026000D11D0008D11D0008D11D0008D11D0008B6
:10027000D11D0008D11D0008D11D0008D11D0008A6
:10028000D11D0008D11D0008D11D0008000000008C
:08029000D11D0008D11D00087A
:1002A00010B5054C237833B9044B13B10448AFF3B0
:1002B00000800123237010BD2401002400000000F1
:1002C00084F6000808B5034B1BB103490348AFF39C
:1002D000008008BD000000002801002484F600080A
:1002E000034613F8012B002AFBD1181A0138704776
:1002F00001F0FF01102A2BDB10F0070F08D010F8D7
:10030000013B013A8B422DD010F0070F42B3F6D1DA
:10031000F0B441EA012141EA014122F007047FF0F3
:1003200000070023F0E80256083C85EA010586EA4A
:10033000010685FA47F5A3FA87F586FA47F6A5FA86
:1003400087F68EB9EED1F0BC01F0FF0102F0070292
:1003500032B110F8013B013A83EA010313B1F8D13D
:100360000020704701387047002D06BF354603381E
:10037000073815F0010F07D1013015F4807F02BF57
:10038000013015F4C03F0130F0BC0138704700BFA8
:1003900053B94AB9002908BF00281CBF4FF0FF31EC
:1003A0004FF0FF3000F070B9ADF1080C6DE904CEEC
:1003B00000F006F8DDF804E0DDE9022304B0704740
:1003C0002DE9F047089E0D4604460F46002B4AD102
:1003D0008A42944665D9B2FA82F343B102FA03FC29
:1003E000C3F120029F4020FA02F217439C404FEADB
:1003F0001C4E1FFA8CF5B7FBFEF1220C0EFB117799
:1004000042EA074201FB05F090420AD91CEB0202C6
:1004100001F1FF3780F01C81904240F219810239CE
:100420006244121AA4B2B2FBFEF00EFB102244EAA0
:10043000024400FB05F5A5420AD91CEB040400F1B7
:10044000FF3280F00781A54240F204816444023803
:1004500040EA0140641B00211EB1DC400023C6E9D4
:100460000043BDE8F0878B4208D9002E00F0ED80F4
:100470000021C6E900050846BDE8F087B3FA83F11C
:10048000002949D1AB4202D3824200F2F880841A9B
:1004900065EB030201201746002EE2D0C6E90047B3
:1004A000DFE702B9FFDEB2FA82F3002B40F0908062
:1004B0008A1A4FEA1C471FFA8CFE0121B2FBF7F59E
:1004C00007FB1520220C42EA00420EFB05F0904289
:1004D00008D91CEB020205F1FF3802D2904200F26B
:1004E000CB804546121AA4B2B2FBF7F007FB1022EC
:1004F00044EA02440EFB00FEA64508D91CEB0404A6
:1005000000F1FF3202D2A64500F2BB801046A4EBF8
:100510000E0440EA05409FE7C1F120078B4022FA14
:1005200007FC4CEA030C05FA01F420FA07F3FD403E
:100530004FEA1C492343B5FBF9F81FFA8CFE09FB6F
:1005400018551C0C44EA054408FB0EF5A54202FAB6
:1005500001F200FA01F00BD91CEB040408F1FF3A98
:1005600080F08880A54240F28580A8F102086444AA
:10057000641B9DB2B4FBF9F309FB134445EA044440
:1005800003FB0EFEA64508D91CEB040403F1FF355E
:100590006CD2A6456AD9023B644443EA0843A3FBF4
:1005A0000295A4EB0E04AC42C846AE4656D353D0D7
:1005B00056B1B0EB080264EB0E0404FA07F7CA4028
:1005C000CC401743C6E9007418460021BDE8F08707
:1005D000C3F1200102FA03FC20FA01F225FA01F12D
:1005E0009D402A434FEA1C471FFA8CFEB1FBF7F0EF
:1005F00007FB1015110C41EA054100FB0EF58D4279
:1006000004FA03F408D91CEB010100F1FF382FD2E2
:100610008D422DD902386144491B92B2B1FBF7F5E6
:1006200007FB151142EA014205FB0EF1914208D980
:100630001CEB020205F1FF3816D2914214D9023D9B
:100640006244521A45EA004138E73146304608E72D
:100650003946E6E61046FBE64845A9D2B9EB020862
:1006600065EB0C0E013BA3E74546EAE72B4694E712
:100670004046D1E7D0467BE7023D624432E7084678
:100680000AE76444023842E7704700BF80B400AF15
:100690003D4BD3F888303C4A43F47003C2F88830AD
:1006A000394B1B69384A43F010031361374B1B6801
:1006B00003F00F03062B07D8344B1B6823F00F03FE
:1006C000324A43F007031360314B1B68304A43F052
:1006D000010313602E4B00221A612D4B1A682C491E
:1006E0002C4B13400B60294B1B6803F00803002BB5
:1006F00007D0264B1B6823F00F03244A43F007035F
:100700001360234B00229A61214B0022DA61204BB7
:1007100000221A621E4B204A9A621D4B1F4ADA625F
:100720001B4B1F4A1A631A4B00225A63184B1C4A70
:100730009A63174B0022DA63154B194A1A64144B5B
:1007400000225A64124B1B68114A23F48023136061
:100750000F4B00221A66134B5B6A124A43F4804324
:100760005362114B1A68114B1340B3F1005F02D270
:100770000F4B01221A600F4B43F2D2021A6000BFE6
:10078000BD465DF8047B704700ED00E0002000529C
:10079000004402587FEDF6EA000202020000FF0169
:1007A00080020101C00000580010005C0000FFFF43
:1007B000088100510040005280B582B000AF7860DF
:1007C0007868FFF78DFD03469AB264237968034881
:1007D00008F0F2FF00BF0837BD4680BD600300246B
:1007E00080B592B000AF3B48FFF7E6FF002387F8E3
:1007F0004730002387F846300123A7F8443024E02F
:10080000B7F844305B0099B20A230322324805F05E
:1008100081F8034687F8413097F84130002B0FD11B
:10082000B7F844203B462D4918460EF00FFA3B46D8
:100830001846FFF7C1FF97F84730013387F8473074
:10084000B7F844300133A7F84430B7F844307F2B71
:10085000D6D90123A7F8423024E0B7F842305B0034
:1008600099B20A2303221E4805F054F8034687F87C
:10087000413097F84130002B0FD1B7F842203B466A
:10088000184918460EF0E2F93B461846FFF794FF68
:1008900097F84630013387F84630B7F842300133D5
:1008A000A7F84230B7F842307F2BD6D997F84730B7
:1008B000002B07D197F84630002B03D10A48FFF7E9
:1008C0007BFF03E00948FFF777FF00BF00BF483711
:1008D000BD4680BD9CF60008B8020024D0F6000892
:1008E0000C030024FCF6000828F7000860F7000855
:1008F00080B500AF962001F0C9FA0E48FFF75CFF03
:100900000D48FFF759FF0D48FFF756FF0C48FFF75A
:1009100053FF0C48FFF750FFFFF762FF0A490B48EF
:1009200000F02AFD00F0C2F80948FFF745FF00BFBC
:1009300080BD00BF90F70008C0F70008F0F700087E
:1009400020F8000850F80008400100240C0300249F
:1009500088F8000880B58AB002AF03463960FB71A1
:10096000FB7923F00F03FB77FB791B01BB773B6817
:100970005AB297F91F3013435BB243F00C035BB2DA
:10098000DBB27B7707F11D020A23009301234E217E
:10099000374804F079FC0023BB6102E0BB690133F6
:1009A000BB61BB6942F20F729342F7DD3B685AB2FA
:1009B00097F91F3013435BB243F008035BB2DBB21D
:1009C0007B7707F11D020A23009301234E2128485B
:1009D00004F05AFC00237B6102E07B6901337B61F8
:1009E0007B6942F20F729342F7DD3B685AB297F986
:1009F0001E3013435BB243F00C035BB2DBB27B7778
:100A000007F11D020A23009301234E21184804F028
:100A10003BFC00233B6102E03B6901333B613B69E6
:100A200042F20F729342F7DD3B685AB297F91E30DB
:100A300013435BB243F008035BB2DBB27B7707F191
:100A40001D020A23009301234E21094804F01CFCD7
:100A50000023FB6002E0FB680133FB60FB6842F2AD
:100A60000F729342F7DD00BF00BF2037BD4680BD47
:100A7000B802002480B582B000AF0346FB71FB7959
:100A800000211846FFF766FF00BF0837BD4680BD4E
:100A900080B582B000AF0346FB71FB790121184697
:100AA000FFF758FF00BF0837BD4680BD80B500AFD7
:100AB000642001F0EBF93320FFF7DCFF052001F0A3
:100AC000E5F93220FFF7D6FF052001F0DFF92820F5
:100AD000FFF7D0FF052001F0D9F90C20FFF7CAFF7E
:100AE000052001F0D3F90620FFF7C4FF052001F02F
:100AF000CDF900F051F80A2001F0C8F900210020DA
:100B000000F02BF8074800F013F80021012000F056
:100B100024F8054800F00CF80448FFF74DFE00BF2C
:100B200080BD00BFB4F80008C4F80008D0F8000881
:100B300080B582B000AF786006E07B685A1C7A60AE
:100B40001B781846FFF7A4FF7B681B78002BF4D1B5
:100B500000BF00BF0837BD4680BD80B582B000AF82
:100B6000786039607B68002B03D07B68012B05D04F
:100B700009E03B6843F080033B6004E03B6843F0DE
:100B8000C0033B6000BF3B68DBB21846FFF772FF53
:100B900000BF0837BD4680BD80B500AF0120FFF71C
:100BA00069FF022001F072F900BF80BD80B582B0FC
:100BB00000AF7860134B93F82430002B1ED0124BFB
:100BC0001B684FF0FF3118460BF011F80346002B5D
:100BD00014D10C490D4800F089FC0346002B05D0C8
:100BE000084B1B6B0133074A136302E0054B0022DD
:100BF0001A63054B1B6818460BF044F814200AF0E2
:100C000055FFD7E740010024600900240C030024AD
:100C100080B588B000AF78600023FB833A4B93F82F
:100C20002430002B6CD0384B1B68BB61364B5B68A3
:100C30007B61354B9B683B61D7ED067A27EEA77A3F
:100C4000D7ED057A67EEA77A37EE277AD7ED047AE3
:100C500067EEA77A77EE277AB0EE670A0EF0F0FC1F
:100C600087ED030AD7ED037AB7EE087AF4EEC77A78
:100C7000F1EE10FA08DCD7ED037AB6EE007AF4EE66
:100C8000C77AF1EE10FA13D51F4B012283F82D20FD
:100C900001224FF480411D4804F026FA28200AF072
:100CA00005FF00224FF48041184804F01DFA03E0CC
:100CB000154B002283F82D20D7ED047A9FED147A8E
:100CC000F4EEC77AF1EE10FA0FD5FB8B0133FB83FC
:100CD000FB8B0A2B14D90C4B012283F82C20012208
:100CE00001210A4804F000FA0AE00023FB83064BC6
:100CF000002283F82C2000220121044804F0F4F99A
:100D000032200AF0D3FE89E7400100240004025893
:100D10006666263F80B582B000AF7860064B93F8D8
:100D20002430002B03D00221044804F0F6F94FF4DC
:100D3000FA700AF0BBFEF1E74001002400100258EF
:100D400080B500AF01F046F800F058F800F03EFA28
:100D500000F01CFA00F09CF900F0E6F900F018F938
:100D600000F056F900F0C8F8FFF7C2FD0AF0C2FD26
:100D700014480AF0B6FE0346134A1360134A0021D2
:100D800013480AF001FE0346124A1360124A00217A
:100D900012480AF0F9FD0346114A1360114A002176
:100DA00011480AF0F1FD0346104A1360104A002171
:100DB00010480AF0E9FD03460F4A13600AF0BEFD31
:100DC000FEE700BF54FA000860090024C4F90008D7
:100DD000AD0B000850090024E8F90008110C0008C8
:100DE000540900240CFA0008150D000858090024C5
:100DF00030FA0008391300085C09002480B59CB063
:100E000000AF07F124034C22002118460DF03EFFED
:100E10003B1D2022002118460DF038FF042005F06C
:100E2000EFFA00233B60324BDB6A314A23F00103C7
:100E3000D3622F4BDB6A03F001033B602D4B9B69B0
:100E400023F440432B4A43F480439361294B9B692D
:100E500003F440433B603B6800BF264B9B6903F4AF
:100E60000053B3F5005FF8D101237B624FF4A02358
:100E7000BB620223BB640223FB6401233B65122394
:100E80007B650223BB650223FB6502233B660C23C3
:100E90007B660223BB664FF4C053FB6607F1240355
:100EA000184605F017FB0346002B01D000F05EFA50
:100EB0003F237B600323BB600023FB6000233B6177
:100EC00040237B614023BB614FF48063FB6140237F
:100ED0003B623B1D0121184605F056FF0346002BDF
:100EE00001D000F043FA00BF7037BD4680BD00BF9F
:100EF000000400580048025880B500AF1E4B1F4A3E
:100F00001A601F4B00221A701D4B80225A701C4B16
:100F1000E1229A701A4B0022DA70194B00221A71E2
:100F2000174B00225A71144B154A5A60124B01227A
:100F30001A72114B134ADA600F4B134A1A610E4BA7
:100F400040F2F4525A610C4803F0EAFA0346002BCF
:100F500001D000F00BFA382200210C480DF096FE6B
:100F60000A4B21221A60094B4FF440325A61074B59
:100F700000221A6100BF80BD0802002400800240E8
:100F800064090024C400002464000024D00100246B
:100F900080B500AF1B4B1C4A1A601A4B1B4A5A60A3
:100FA000184B00229A60174B0122DA60154B002281
:100FB0001A61144B00225A61124B00229A61114BA4
:100FC0000022DA610F4B00221A620E4804F0C0F8CA
:100FD0000346002B01D000F0C9F90021094805F0B3
:100FE00047F80346002B01D000F0C0F90021054866
:100FF00005F089F80346002B01D000F0B7F900BFD7
:1010000080BD00BFB802002400540040CE9F900075
:1010100080B500AF1B4B1C4A1A601A4B1B4A5A6022
:10102000184B00229A60174B0122DA60154B002200
:101030001A61144B00225A61124B00229A61114B23
:101040000022DA610F4B00221A620E4804F080F889
:101050000346002B01D000F089F90021094805F072
:1010600007F80346002B01D000F080F90021054865
:1010700005F049F80346002B01D000F077F900BFD6
:1010800080BD00BF0C03002400580040CE9F90009C
:1010900080B500AF224B234A1A60214B4FF4E13256
:1010A0005A601F4B00229A601D4B0022DA601C4BD5
:1010B00000221A611A4B0C225A61194B00229A61C4
:1010C000174B0022DA61164B00221A62144B0022E1
:1010D0005A62134B00229A62114808F01DFB034626
:1010E000002B01D000F042F900210D4809F0ECFF7F
:1010F0000346002B01D000F039F9002108480AF01E
:1011000021F80346002B01D000F030F9044809F023
:10111000A2FF0346002B01D000F028F900BF80BDDC
:10112000600300240048004080B500AF154B164A0C
:101130001A60144B09221A71124B0222DA71114BF8
:1011400000229A710F4B02225A720E4B00229A72A1
:101150000C4B0022DA720B4B00221A73094B01224E
:101160005A73084B01229A73064B0022DA73054822
:1011700005F015F80346002B01D000F0F7F800BF8A
:1011800080BD00BF6C0400240000084080B582B020
:1011900000AF0D4BD3F8D8300B4A43F00103C2F82F
:1011A000D830094BD3F8D83003F001037B607B685B
:1011B000002205210B2000F065FF0B2000F07CFFD2
:1011C00000BF0837BD4680BD0044025880B58CB0D2
:1011D00000AF07F11C0300221A605A609A60DA60BF
:1011E0001A61514BD3F8E0304F4A43F00403C2F880
:1011F000E0304D4BD3F8E03003F00403BB61BB6932
:10120000494BD3F8E030484A43F08003C2F8E0305D
:10121000454BD3F8E03003F080037B617B69424BA0
:10122000D3F8E030404A43F00103C2F8E0303E4BCF
:10123000D3F8E03003F001033B613B693A4BD3F84C
:10124000E030394A43F00203C2F8E030364BD3F8BD
:10125000E03003F00203FB60FB68334BD3F8E0306F
:10126000314A43F00803C2F8E0302F4BD3F8E030A6
:1012700003F00803BB60BB682B4BD3F8E0302A4A6D
:1012800043F04003C2F8E030274BD3F8E03003F0DE
:1012900040037B607B68244BD3F8E030224A43F064
:1012A0001003C2F8E030204BD3F8E03003F0100315
:1012B0003B603B68002244F201011C4803F014FF2C
:1012C000002202211A4803F00FFF4FF40053FB6184
:1012D00000233B6200237B6207F11C03194615487B
:1012E00003F052FD44F20103FB6101233B62002342
:1012F0007B620023BB6207F11C0319460B4803F015
:1013000043FD0223FB6101233B6200237B62002338
:10131000BB6207F11C031946054803F035FD00BF09
:101320003037BD4680BD00BF00440258000402585B
:10133000001002580008025880B582B000AF7860F3
:1013400001200AF0B3FBFBE780B582B000AF786004
:101350007B681B68044A934201D100F077FD00BF0F
:101360000837BD4680BD00BF0000014080B400AF1B
:1013700072B600BFFEE7000080B582B000AF7860B3
:1013800039603B68002B01D1012329E01648FFF7A3
:1013900013FA786800F030F80346002B0DD13B6853
:1013A000012283F824201148FFF706FA01220121C7
:1013B0000F4803F099FE002312E03B68002283F8F7
:1013C00024203B689B6A5A1C3B689A620948FFF7D5
:1013D000F3F901224FF48041054803F085FE012313
:1013E00018460837BD4680BD40F9000868F9000876
:1013F0000004025884F9000880B588B004AF786012
:10140000642302930123019307F10E030093012348
:101410007522D021786804F063F90346FB73FB7BE7
:10142000002B01D001235CE0BB7B682B02D0BB7B8F
:10143000702B55D100237B73642302930123019306
:1014400007F10D03009301236B22D021786804F08B
:1014500033F80346FB73FB7B002B01D0012340E0F4
:101460000A2000F013FD03237B73642302930123FE
:10147000019307F10D03009301231A22D02178680C
:1014800004F01AF800237B73642302930123019371
:1014900007F10D03009301231C22D021786804F08A
:1014A0000BF80346FB73FB7B002B01D0012318E0F4
:1014B00000237B73642302930123019307F10D033F
:1014C000009301231B22D021786803F0F5FF034627
:1014D000FB73FB7B002B01D0012302E0002300E023
:1014E000012318461037BD4680BD000080B58AB084
:1014F00004AF78603960642302930E23019307F1EF
:101500000803009301233B22D021786804F0E8F817
:101510000346002B40F086803B7A1B021AB27B7A8E
:101520001BB213431BB207EE903AB8EEE77ADFED39
:10153000406AC7EE267A3B68C3ED007ABB7A1B028D
:101540001AB2FB7A1BB213431BB207EE903AB8EE05
:10155000E77ADFED376AC7EE267A3B68C3ED017A9A
:101560003B7B1B021AB27B7B1BB213431BB207EE01
:10157000903AB8EEE77ADFED2E6AC7EE267A3B683E
:10158000C3ED027ABB7B1B021AB2FB7B1BB2134377
:10159000FB82B7F9163007EE903AB8EEE77ADFED46
:1015A000256AC7EE267A9FED247A77EE877A3B6824
:1015B000C3ED067A3B7C1B021AB27B7C1BB2134341
:1015C0001BB207EE903AB8EEE77ADFED1C6AC7EE81
:1015D000267A3B68C3ED037ABB7C1B021AB2FB7C04
:1015E0001BB213431BB207EE903AB8EEE77ADFED79
:1015F000136AC7EE267A3B68C3ED047A3B7D1B0273
:101600001AB27B7D1BB213431BB207EE903AB8EEC1
:10161000E77ADFED0A6AC7EE267A3B68C3ED057A02
:10162000002300E0012318461837BD4680BD00BFE7
:10163000000080460000AA43B81E12420000034387
:1016400080B582B000AF0C4BD3F8F4300A4A43F0B7
:101650000203C2F8F430084BD3F8F43003F002036D
:101660007B607B6800220F216FF0010000F00AFD13
:1016700000BF0837BD4680BD0044025880B58EB01B
:1016800000AF786007F1240300221A605A609A6064
:10169000DA601A617B681B68594A934240F0AB805C
:1016A000584BD3F8D830574A43F40043C2F8D830E7
:1016B000544BD3F8D83003F400433B623B6A514BA0
:1016C000D3F8D8304F4A43F48033C2F8D8304D4B6A
:1016D000D3F8D83003F48033FB61FB69494BD3F86E
:1016E000D830484A43F40033C2F8D830454BD3F8D9
:1016F000D83003F40033BB61BB69424BD3F8E03010
:10170000404A43F00403C2F8E0303E4BD3F8E030E7
:1017100003F004037B617B693A4BD3F8E030394A2C
:1017200043F00103C2F8E030364BD3F8E03003F069
:1017300001033B613B69334BD3F8E030314A43F05E
:101740000203C2F8E0302F4BD3F8E03003F002037D
:10175000FB60FB682B4BD3F8E0302A4A43F0400390
:10176000C2F8E030274BD3F8E03003F04003BB6011
:10177000BB6832237B620223BB620023FB6200232F
:101780003B630B237B6307F1240319461E4803F0D8
:10179000FBFA86237B620223BB620023FB620023E9
:1017A0003B630B237B6307F124031946174803F0BF
:1017B000EBFA4FF400537B620223BB620023FB620F
:1017C00000233B630B237B6307F124031946104876
:1017D00003F0DAFA4FF420537B620223BB6200234A
:1017E000FB6200233B630B237B6307F12403194651
:1017F000084803F0C9FA00BF3837BD4680BD00BFB6
:1018000000800240004402580008025800000258BC
:10181000000402580018025880B5BCB000AF7860D0
:1018200007F1DC0300221A605A609A60DA601A61DC
:1018300007F11803C022002118460DF027FA7B6833
:101840001B684D4A934247D14FF008024FF0000306
:10185000C7E906230023C7F89C3007F11803184690
:1018600005F060FE0346002B01D0FFF77FFD434BE0
:10187000D3F8E030414A43F00203C2F8E0303F4B76
:10188000D3F8E03003F002037B617B694FF44073CF
:10189000C7F8DC301223C7F8E0300023C7F8E43083
:1018A0000023C7F8E8300423C7F8EC3007F1DC0365
:1018B0001946334803F068FA304BD3F8E8302F4A22
:1018C00043F40013C2F8E8302C4BD3F8E83003F4AB
:1018D00000133B613B694BE07B681B68294A9342DC
:1018E00046D14FF008024FF00003C7E9062300235A
:1018F000C7F89C3007F11803184605F013FE03469D
:10190000002B01D0FFF732FD1C4BD3F8E0301B4A0F
:1019100043F00203C2F8E030184BD3F8E03003F094
:101920000203FB60FB684FF44063C7F8DC3012230E
:10193000C7F8E0300023C7F8E4300023C7F8E830E8
:101940000423C7F8EC3007F1DC0319460C4803F018
:101950001BFA0A4BD3F8E830084A43F48003C2F874
:10196000E830064BD3F8E83003F48003BB60BB6873
:1019700000BFF037BD4680BD00540040004402580F
:10198000000402580058004080B5BAB000AF78603B
:1019900007F1D40300221A605A609A60DA601A6173
:1019A00007F11003C022002118460DF06FF97B6883
:1019B0001B68424A93427DD14FF002024FF0000370
:1019C000C7E904230023C7F8883007F1100318463D
:1019D00005F0A8FD0346002B01D0FFF7C7FC384BEC
:1019E000D3F8E830364A43F48023C2F8E830344B69
:1019F000D3F8E83003F48023FB60FB68304BD3F866
:101A0000E0302F4A43F00803C2F8E0302C4BD3F803
:101A1000E03003F00803BB60BB684FF44073C7F8C5
:101A2000D4300223C7F8D8300023C7F8DC300023B5
:101A3000C7F8E0300723C7F8E43007F1D4031946AC
:101A4000204803F0A1F9204B204A1A601E4B2D229A
:101A50005A601D4B00229A601B4B0022DA601A4B21
:101A60004FF480621A61184B00225A61164B002213
:101A70009A61154B4FF48072DA61134B00221A629F
:101A8000114B00225A62104800F024FB0346002B41
:101A900001D0FFF76BFC7B680B4AC3F880200A4A31
:101AA0007B68936300220521272000F0EBFA2720B2
:101AB00000F002FB00BFE837BD4680BD0048004093
:101AC00000440258000C0258F403002410000240A5
:101AD00080B5BAB000AF786007F1D40300221A6075
:101AE0005A609A60DA601A6107F11003C02200217F
:101AF00018460DF0CBF87B681B68384A934269D1D1
:101B00004FF480224FF00003C7E904230123BB6395
:101B10001223FB6302233B6403237B640223BB6425
:101B20004FF44063FB644FF4C0537B654FF40013E4
:101B3000C7F8983007F11003184605F0F3FC034688
:101B4000002B01D0FFF712FC04F0B4FC244BD3F8B7
:101B5000E030234A43F00103C2F8E030204BD3F8D1
:101B6000E03003F00103FB60FB684FF4C853C7F893
:101B7000D4300223C7F8D8300023C7F8DC30002364
:101B8000C7F8E0300A23C7F8E43007F1D403194658
:101B9000144803F0F9F84FF40073C7F8D430002369
:101BA000C7F8D8300023C7F8DC3007F1D403194652
:101BB0000C4803F0E9F80A4BD3F8D830084A43F050
:101BC0000063C2F8D830064BD3F8D83003F0006376
:101BD000BB60BB6800BFE837BD4680BD0000084061
:101BE000004402580000025880B58EB000AF786003
:101BF0007B680F2B44D800227968192000F042FA44
:101C0000192000F059FA244A7B681360234BD3F85B
:101C1000F030224A43F00103C2F8F0301F4BD3F8F2
:101C2000F03003F00103BB60BB6807F10C0207F161
:101C300010031146184605F033FC05F01BFC034663
:101C40005B007B637B6B164AA2FB03239B0C013B6F
:101C50003B63144B144A1A60124B40F2E732DA60CD
:101C6000104A3B6B53600F4B00221A610D4B002250
:101C70009A600C4807F082FA0346002B07D101E076
:101C8000012305E0074807F0DBFA034600E00123E3
:101C900018463837BD4680BD08000024004402586D
:101CA00083DE1B436C0900240000014080B400AFB8
:101CB000FEE780B400AFFEE780B400AFFEE780B47B
:101CC00000AFFEE780B400AFFEE780B400AF00BF16
:101CD000BD465DF8047B704780B500AF024801F057
:101CE000B9FA00BF80BD00BFF403002480B500AF87
:101CF000024807F01DFB00BF80BD00BF6C09002437
:101D000080B500AF024807F0E5FD00BF80BD00BF11
:101D10006003002480B586B000AF7860144A154B8C
:101D2000D31A7B617B693B61134B1B68002B02D18B
:101D3000114B124A1A60104B1A687B6813443A69B7
:101D40009A4207D20DF000F803460C221A604FF0B9
:101D5000FF3309E0084B1B68FB60074B1A687B6880
:101D60001344054A1360FB6818461837BD4680BD0A
:101D70000000082400040000B8090024F0540024E6
:101D8000DFF834D0FEF782FC0C480D490D4A0023E1
:101D900002E0D458C4500433C4188C42F9D30A4A20
:101DA0000A4C002301E013600432A242FBD30CF082
:101DB000D1FFFEF7C5FF7047000008240000002493
:101DC00064000024D8FA000824010024F054002400
:101DD000FEE7000080B582B000AF032000F047F9B5
:101DE00005F088F90246154B9B691B0A03F00F03A7
:101DF0001349CB5C03F01F0322FA03F37B600F4B04
:101E00009B6903F00F030E4AD35C03F01F037A684B
:101E100022FA03F30B4A13600B4A7B6813600F200E
:101E2000FFF7E2FE0346002B01D0012302E0FFF79B
:101E300007FC002318460837BD4680BD0044025801
:101E4000B4F90008040000240000002480B400AFAE
:101E5000064B1B781A46064B1B681344044A136052
:101E600000BFBD465DF8047B704700BF0C00002436
:101E7000BC09002480B400AF034B1B681846BD4664
:101E80005DF8047B704700BFBC09002480B584B0B6
:101E900000AF7860FFF7EEFFB8607B68FB60FB681F
:101EA000B3F1FF3F05D00A4B1B781A46FB68134479
:101EB000FB6000BFFFF7DEFF0246BB68D31AFA687B
:101EC0009A42F7D800BF00BF1037BD4680BD00BFA3
:101ED0000C00002480B400AF034B1B681B0C184699
:101EE000BD465DF8047B70470010005C80B483B091
:101EF00000AF7860064B5B6823F4600204497B689E
:101F000013434B6000BF0C37BD465DF8047B704740
:101F10000004005880B485B000AF78607B6803F09F
:101F20000703FB600B4BDB68BB60BA684FF6FF032F
:101F30001340BB60FB681A02BB681A43064B13438D
:101F4000BB60044ABB68D36000BF1437BD465DF870
:101F5000047B704700ED00E00000FA0580B400AF9C
:101F6000044BDB681B0A03F007031846BD465DF807
:101F7000047B704700ED00E080B483B000AF0346FF
:101F8000FB80B7F90630002B0BDBFB8803F01F0248
:101F90000749B7F906305B09012000FA02F241F85F
:101FA000232000BF0C37BD465DF8047B704700BF9F
:101FB00000E100E080B483B000AF03463960FB80ED
:101FC000B7F90630002B0ADB3B68DAB20C49B7F9E7
:101FD00006301201D2B20B4483F800230AE03B68BA
:101FE000DAB20849FB8803F00F03043B1201D2B2B6
:101FF0000B441A7600BF0C37BD465DF8047B704772
:1020000000E100E000ED00E080B489B000AFF860CE
:10201000B9607A60FB6803F00703FB61FB69C3F1F9
:102020000703042B28BF0423BB61FB690433062B81
:1020300002D9FB69033B00E000237B614FF0FF32D4
:10204000BB6902FA03F3DA43BB681A407B699A4022
:102050004FF0FF317B6901FA03F3D9437B680B40F2
:10206000134318462437BD465DF8047B704780B59E
:1020700082B000AF78607868FFF74CFF00BF083788
:10208000BD4680BD80B586B000AF0346B9607A60BA
:10209000FB81FFF763FF78617A68B9687869FFF7B9
:1020A000B3FF0246B7F90E3011461846FFF782FF1C
:1020B00000BF1837BD4680BD80B582B000AF034673
:1020C000FB80B7F906301846FFF756FF00BF083708
:1020D000BD4680BD80B586B000AF7860FFF7CAFE10
:1020E00038617B68002B01D1012316E37B681B68F4
:1020F000664A93424AD07B681B68654A934245D042
:102100007B681B68634A934240D07B681B68624AC5
:1021100093423BD07B681B68604A934236D07B6811
:102120001B685F4A934231D07B681B685D4A9342CB
:102130002CD07B681B685C4A934227D07B681B6865
:102140005A4A934222D07B681B68594A93421DD059
:102150007B681B68574A934218D07B681B68564AB5
:10216000934213D07B681B68544A93420ED07B681D
:102170001B68534A934209D07B681B68514A9342BB
:1021800004D07B681B68504A934201D1012300E0D0
:102190000023002B00F03B817B68022283F835206E
:1021A0007B68002283F834207B681B68374A93429F
:1021B0004AD07B681B68364A934245D07B681B68CF
:1021C000344A934240D07B681B68334A93423BD0E9
:1021D0007B681B68314A934236D07B681B68304A63
:1021E000934231D07B681B682E4A93422CD07B6887
:1021F0001B682D4A934227D07B681B682B4A934269
:1022000022D07B681B682A4A93421DD07B681B68DA
:10221000284A934218D07B681B68274A934213D000
:102220007B681B68254A93420ED07B681B68244A52
:10223000934209D07B681B68224A934204D07B6892
:102240001B68214A934208D17B681B681A687B6827
:102250001B6822F001021A6007E07B681B681A689D
:102260007B681B6822F001021A602FE0FFF702FE74
:1022700002463B69D31A052B28D97B6820225A6570
:102280007B68032283F83520012346E210000240D8
:102290002800024040000240580002407000024006
:1022A00088000240A0000240B80002401004024032
:1022B00028040240400402405804024070040240D6
:1022C00088040240A0040240B80402407B681B68F6
:1022D0001B6803F00103002BC8D17B681B681B68D7
:1022E0007B617A69834B13407B617B689A687B686A
:1022F000DB681A437B681B691A437B685B691A4376
:102300007B689B691A437B68DB691A437B681B6A9D
:1023100013437A6913437B617B685B6A042B07D1A3
:102320007B68DA6A7B681B6B13437A6913437B61B2
:10233000714B1A68714B1340B3F1005F28D37B686F
:102340005B68282B03D97B685B682E2B17D97B68C9
:102350005B683E2B03D97B685B68422B0FD97B6897
:102360005B68462B03D97B685B68482B07D97B6881
:102370005B684E2B05D97B685B68522B01D8012323
:1023800000E00023002B03D07B6943F480137B61C2
:102390007B681B687A691A607B681B685B697B6174
:1023A0007B6923F007037B617B685B6A7A6913436F
:1023B0007B617B685B6A042B17D17B689B6A7A69B7
:1023C00013437B617B68DB6A002B0ED0786801F0D9
:1023D0001DFF0346002B08D07B6840225A657B68AE
:1023E000012283F83520012397E17B681B687A6915
:1023F0005A61786801F058FE0346BB607B68DB6D6C
:1024000003F01F033F229A40BB689A60CDE07B68CF
:102410001B683B4A934222D07B681B68394A93422F
:102420001DD07B681B68384A934218D07B681B68B4
:10243000364A934213D07B681B68354A93420ED0CC
:102440007B681B68334A934209D07B681B68324A19
:10245000934204D07B681B68304A934201D1012328
:1024600000E00023002B00F097807B681B68244A63
:10247000934221D07B681B68224A93421CD07B6820
:102480001B68214A934217D07B681B681F4A9342FE
:1024900012D07B681B681E4A93420DD07B681B6874
:1024A0001C4A934208D07B681B681B4A934203D0A6
:1024B0007B681B68194A93427B68022283F83520A7
:1024C0007B68002283F834207B681B681B687B6173
:1024D0007A69134B13407B617B689B68402B21D04A
:1024E0007B689B68802B02D14FF480431BE0002364
:1024F00019E000BF3F8010FE0010005C0000FFFFED
:10250000085402581C54025830540258445402587B
:10251000585402586C54025880540258945402582B
:102520000F00FEFF10237A68D268D2081A437B6836
:102530001B69DB081A437B685B69DB081A437B680D
:102540009B69DB081A437B68DB69DB081A437B68FD
:102550001B6A1B0913437A6913437B617B681B6801
:102560007A691A607B681B681A466E4B13446E4A80
:10257000A2FB03231B099A007B68DA65786801F0E7
:1025800093FD0346FB607B68DB6D03F01F030122B4
:102590009A40FB685A6008E07B6840225A657B6875
:1025A000032283F835200123B7E07B681B685F4A6C
:1025B000934272D07B681B685D4A93426DD07B6802
:1025C0001B685C4A934268D07B681B685A4A9342F6
:1025D00063D07B681B68594A93425ED07B681B6856
:1025E000574A934259D07B681B68564A934254D04D
:1025F0007B681B68544A93424FD07B681B68534AE0
:1026000093424AD07B681B68514A934245D07B680D
:102610001B68504A934240D07B681B684E4A9342E5
:102620003BD07B681B684D4A934236D07B681B6861
:102630004B4A934231D07B681B684A4A93422CD064
:102640007B681B68484A934227D07B681B68474ACF
:10265000934222D07B681B68454A93421DD07B6819
:102660001B68444A934218D07B681B68424A9342D5
:1026700013D07B681B68414A93420ED07B681B686D
:102680003F4A934209D07B681B683E4A934204D07C
:102690007B681B683C4A934201D1012300E0002380
:1026A000002B32D0786801F02DFE7B689B68802B70
:1026B00002D17B6800225A607B685A687B681B6E77
:1026C000D2B21A607B685B6E7A68926E5A607B68E1
:1026D0005B68002B10D07B685B68082B0CD878688F
:1026E00001F0AAFE7B68DB6E00221A607B681B6F1C
:1026F0007A68526F5A6008E07B680022DA667B686D
:1027000000221A677B6800225A677B6800225A659C
:102710007B68012283F83520002318461837BD4610
:1027200080BD00BFF8ABFDA7CDCCCCCC10000240E3
:102730002800024040000240580002407000024061
:1027400088000240A0000240B8000240100402408D
:102750002804024040040240580402407004024031
:1027600088040240A0040240B80402400854025801
:102770001C540258305402584454025858540258B9
:102780006C540258805402589454025880B586B054
:1027900000AF7860FFF76EFB38617B68002B01D1DA
:1027A0000123DCE27B6893F83530DBB2022B08D0E2
:1027B0007B6880225A657B68002283F834200123DD
:1027C000CDE27B681B68764A93424AD07B681B68DF
:1027D000744A934245D07B681B68734A934240D049
:1027E0007B681B68714A93423BD07B681B68704AC8
:1027F000934236D07B681B686E4A934231D07B6827
:102800001B686D4A93422CD07B681B686B4A9342CD
:1028100027D07B681B686A4A934222D07B681B687A
:10282000684A93421DD07B681B68674A934218D060
:102830007B681B68654A934213D07B681B68644AB7
:1028400093420ED07B681B68624A934209D07B6832
:102850001B68614A934204D07B681B685F4A9342BD
:1028600001D1012300E00023002B13D07B681B68FB
:102870001A687B681B6822F01E021A607B681B685E
:102880005A697B681B6822F080025A617B681B686A
:102890007B610AE07B681B681A687B681B6822F012
:1028A0000E021A607B681B687B617B681B683C4A70
:1028B000934272D07B681B683A4A93426DD07B6822
:1028C0001B68394A934268D07B681B68374A934239
:1028D00063D07B681B68364A93425ED07B681B6876
:1028E000344A934259D07B681B68334A934254D090
:1028F0007B681B68314A93424FD07B681B68304A23
:1029000093424AD07B681B682E4A934245D07B682D
:102910001B682D4A934240D07B681B682B4A934228
:102920003BD07B681B682A4A934236D07B681B6881
:10293000284A934231D07B681B68274A93422CD0A7
:102940007B681B68254A934227D07B681B68244A12
:10295000934222D07B681B68224A93421DD07B6839
:102960001B68214A934218D07B681B681F4A934218
:1029700013D07B681B681E4A93420ED07B681B688D
:102980001C4A934209D07B681B681B4A934204D0BF
:102990007B681B68194A934232D1012331E000BFA2
:1029A000100002402800024040000240580002404F
:1029B0007000024088000240A0000240B8000240BF
:1029C000100402402804024040040240580402401F
:1029D0007004024088040240A0040240B80402408F
:1029E000085402581C540258305402584454025897
:1029F000585402586C540258805402589454025847
:102A00000023002B07D07B681B6E1A687B681B6E47
:102A100022F480721A607B681B686D4A93424AD028
:102A20007B681B686B4A934245D07B681B686A4A87
:102A3000934240D07B681B68684A93423BD07B68D6
:102A40001B68674A934236D07B681B68654A93428D
:102A500031D07B681B68644A93422CD07B681B682A
:102A6000624A934227D07B681B68614A934222D016
:102A70007B681B685F4A93421DD07B681B685E4A77
:102A8000934218D07B681B685C4A934213D07B68E2
:102A90001B685B4A93420ED07B681B68594A93427D
:102AA00009D07B681B68584A934204D07B681B6836
:102AB000564A934208D17B681B681A687B681B687A
:102AC00022F001021A6007E07B681B681A687B68C5
:102AD0001B6822F001021A6013E0FFF7CBF90246EF
:102AE0003B69D31A052B0CD97B6820225A657B6879
:102AF000032283F835207B68002283F834200123E9
:102B00002DE17B691B6803F00103002BE5D17B6895
:102B10001B682F4A93424AD07B681B682D4A934218
:102B200045D07B681B682C4A934240D07B681B6869
:102B30002A4A93423BD07B681B68294A934236D08D
:102B40007B681B68274A934231D07B681B68264A02
:102B500093422CD07B681B68244A934227D07B6821
:102B60001B68234A934222D07B681B68214A934208
:102B70001DD07B681B68204A934218D07B681B6875
:102B80001E4A934213D07B681B681D4A93420ED0A5
:102B90007B681B681B4A934209D07B681B681A4AF2
:102BA000934204D07B681B68184A934201D10123E9
:102BB00000E00023002B2BD07B689B6DBB607B6803
:102BC000DB6D03F01F033F229A40BB689A602AE046
:102BD000100002402800024040000240580002401D
:102BE0007000024088000240A0000240B80002408D
:102BF00010040240280402404004024058040240ED
:102C00007004024088040240A0040240B80402405C
:102C10007B689B6DFB607B68DB6D03F01F0301220B
:102C20009A40FB685A607B681B684F4A934272D097
:102C30007B681B684D4A93426DD07B681B684C4A89
:102C4000934268D07B681B684A4A934263D07B6892
:102C50001B68494A93425ED07B681B68474A93428F
:102C600059D07B681B68464A934254D07B681B68E6
:102C7000444A93424FD07B681B68434A93424AD0F0
:102C80007B681B68414A934245D07B681B68404A79
:102C9000934240D07B681B683E4A93423BD07B689E
:102CA0001B683D4A934236D07B681B683B4A93427F
:102CB00031D07B681B683A4A93422CD07B681B68F2
:102CC000384A934227D07B681B68374A934222D008
:102CD0007B681B68354A93421DD07B681B68344A69
:102CE000934218D07B681B68324A934213D07B68AA
:102CF0001B68314A93420ED07B681B682F4A93426F
:102D000009D07B681B682E4A934204D07B681B68FD
:102D10002C4A934201D1012300E00023002B15D05F
:102D20007B685B6E7A68926E5A607B68DB6E002B04
:102D30000CD07B68DB6E1A687B68DB6E22F48072D5
:102D40001A607B681B6F7A68526F5A607B68012239
:102D500083F835207B68002283F83420002318464E
:102D60001837BD4680BD00BF100002402800024059
:102D700040000240580002407000024088000240BB
:102D8000A0000240B80002401004024028040240A3
:102D9000400402405804024070040240880402408B
:102DA000A0040240B8040240085402581C540258BF
:102DB0003054025844540258585402586C54025823
:102DC000805402589454025880B584B000AF7860A3
:102DD0007B68002B01D1012337E27B6893F8353003
:102DE000DBB2022B04D07B6880225A6501232CE2DF
:102DF0007B681B685C4A93424AD07B681B685B4ACD
:102E0000934245D07B681B68594A934240D07B6807
:102E10001B68584A93423BD07B681B68564A9342D2
:102E200036D07B681B68554A934231D07B681B685B
:102E3000534A93422CD07B681B68524A934227D056
:102E40007B681B68504A934222D07B681B684F4ABC
:102E500093421DD07B681B684D4A934218D07B6813
:102E60001B684C4A934213D07B681B684A4A9342C2
:102E70000ED07B681B68494A934209D07B681B6867
:102E8000474A934204D07B681B68464A934201D16B
:102E9000012300E00023002B00F086807B680422E1
:102EA00083F835207B681B682F4A93424AD07B68A1
:102EB0001B682E4A934245D07B681B682C4A93427C
:102EC00040D07B681B682B4A93423BD07B681B68D1
:102ED000294A934236D07B681B68284A934231D0F6
:102EE0007B681B68264A93422CD07B681B68254A66
:102EF000934227D07B681B68234A934222D07B6889
:102F00001B68224A93421DD07B681B68204A93426B
:102F100018D07B681B681F4A934213D07B681B68DC
:102F20001D4A93420ED07B681B681C4A934209D00D
:102F30007B681B681A4A934204D07B681B68194A55
:102F4000934208D17B681B681A687B681B6822F073
:102F500001021A6078E17B681B681A687B681B684D
:102F600022F001021A606FE11000024028000240C6
:102F700040000240580002407000024088000240B9
:102F8000A0000240B80002401004024028040240A1
:102F90004004024058040240700402408804024089
:102FA000A0040240B80402407B681B681A687B6872
:102FB0001B6822F00E021A607B681B686C4A934201
:102FC0004AD07B681B686B4A934245D07B681B687C
:102FD000694A934240D07B681B68684A93423BD061
:102FE0007B681B68664A934236D07B681B68654ADB
:102FF000934231D07B681B68634A93422CD07B6834
:103000001B68624A934227D07B681B68604A9342E0
:1030100022D07B681B685F4A93421DD07B681B6887
:103020005D4A934218D07B681B685C4A934213D078
:103030007B681B685A4A93420ED07B681B68594ACA
:10304000934209D07B681B68574A934204D07B683F
:103050001B68564A934208D17B681B681A687B68D4
:103060001B6822F001021A6007E07B681B681A687F
:103070007B681B6822F001021A607B681B683C4A6F
:10308000934272D07B681B683A4A93426DD07B684A
:103090001B68394A934268D07B681B68374A934261
:1030A00063D07B681B68364A93425ED07B681B689E
:1030B000344A934259D07B681B68334A934254D0B8
:1030C0007B681B68314A93424FD07B681B68304A4B
:1030D00093424AD07B681B682E4A934245D07B6856
:1030E0001B682D4A934240D07B681B682B4A934251
:1030F0003BD07B681B682A4A934236D07B681B68AA
:10310000284A934231D07B681B68274A93422CD0CF
:103110007B681B68254A934227D07B681B68244A3A
:10312000934222D07B681B68224A93421DD07B6861
:103130001B68214A934218D07B681B681F4A934240
:1031400013D07B681B681E4A93420ED07B681B68B5
:103150001C4A934209D07B681B681B4A934204D0E7
:103160007B681B68194A934232D1012331E000BFCA
:103170001000024028000240400002405800024077
:103180007000024088000240A0000240B8000240E7
:103190001004024028040240400402405804024047
:1031A0007004024088040240A0040240B8040240B7
:1031B000085402581C5402583054025844540258BF
:1031C000585402586C54025880540258945402586F
:1031D0000023002B28D07B681B6E1A687B681B6E4F
:1031E00022F480721A607B689B6DFB607B68DB6DEC
:1031F00003F01F0301229A40FB685A607B685B6EF4
:103200007A68926E5A607B68DB6E002B0CD07B680C
:10321000DB6E1A687B68DB6E22F480721A607B6852
:103220001B6F7A68526F5A607B68012283F83520E1
:103230007B68002283F834207B681B6D002B03D051
:103240007B681B6D78689847002318461037BD4689
:1032500080BD00BF80B58AB000AF78600023FB60FE
:10326000674B1B68674AA2FB03239B0A7B627B6850
:103270009B6D3B627B689B6DFB613B6A1B68BB611E
:10328000FB691B687B617B681B685F4A93424AD07D
:103290007B681B685D4A934245D07B681B685C4A2B
:1032A000934240D07B681B685A4A93423BD07B686C
:1032B0001B68594A934236D07B681B68574A934231
:1032C00031D07B681B68564A93422CD07B681B68C0
:1032D000544A934227D07B681B68534A934222D0BA
:1032E0007B681B68514A93421DD07B681B68504A1B
:1032F000934218D07B681B684E4A934213D07B6878
:103300001B684D4A93420ED07B681B684B4A934220
:1033100009D07B681B684A4A934204D07B681B68CB
:10332000484A934201D1012300E00023002B00F022
:103330002B847B68DB6D03F01F0308229A40BB6976
:103340001340002B00F0A2807B681B682E4A93423A
:103350004AD07B681B682D4A934245D07B681B6826
:103360002B4A934240D07B681B682A4A93423BD049
:103370007B681B68284A934236D07B681B68274AC3
:10338000934231D07B681B68254A93422CD07B68DE
:103390001B68244A934227D07B681B68224A9342C9
:1033A00022D07B681B68214A93421DD07B681B6832
:1033B0001F4A934218D07B681B681E4A934213D061
:1033C0007B681B681C4A93420ED07B681B681B4AB3
:1033D000934209D07B681B68194A934204D07B68EA
:1033E0001B68184A93422FD17B681B681B6803F047
:1033F0000403002B14BF01230023DBB22EE000BF27
:1034000000000024B5814E1B10000240280002403D
:103410004000024058000240700002408800024014
:10342000A0000240B80002401004024028040240FC
:1034300040040240580402407004024088040240E4
:10344000A0040240B80402407B681B681B6803F0BC
:103450000803002B14BF01230023DBB2002B15D07F
:103460007B681B681A687B681B6822F004021A607C
:103470007B68DB6D03F01F0308229A403B6A9A6069
:103480007B685B6D43F001027B685A657B68DB6D8E
:1034900003F01F03BA6922FA03F303F00103002BC0
:1034A0006ED07B681B68694A93424AD07B681B6870
:1034B000674A934245D07B681B68664A934240D076
:1034C0007B681B68644A93423BD07B681B68634AF5
:1034D000934236D07B681B68614A934231D07B6847
:1034E0001B68604A93422CD07B681B685E4A9342FB
:1034F00027D07B681B685D4A934222D07B681B689B
:103500005B4A93421DD07B681B685A4A934218D08D
:103510007B681B68584A934213D07B681B68574AE4
:1035200093420ED07B681B68554A934209D07B6852
:103530001B68544A934204D07B681B68524A9342EA
:103540000AD17B681B685B6903F08003002B14BF02
:1035500001230023DBB203E07B681B681B680023A8
:10356000002B0DD07B68DB6D03F01F0301229A4016
:103570003B6A9A607B685B6D43F002027B685A6528
:103580007B68DB6D03F01F0304229A40BB69134084
:10359000002B00F08F807B681B682C4A93424AD036
:1035A0007B681B682A4A934245D07B681B68294A7E
:1035B000934240D07B681B68274A93423BD07B688C
:1035C0001B68264A934236D07B681B68244A934284
:1035D00031D07B681B68234A93422CD07B681B68E0
:1035E000214A934227D07B681B68204A934222D00D
:1035F0007B681B681E4A93421DD07B681B681D4A6E
:10360000934218D07B681B681B4A934213D07B6897
:103610001B681A4A93420ED07B681B68184A934273
:1036200009D07B681B68174A934204D07B681B68EB
:10363000154A93422AD17B681B681B6803F002037A
:10364000002B14BF01230023DBB223E01000024053
:103650002800024040000240580002407000024032
:1036600088000240A0000240B8000240100402405E
:103670002804024040040240580402407004024002
:1036800088040240A0040240B80402407B681B6822
:103690001B680023002B0DD07B68DB6D03F01F033C
:1036A00004229A403B6A9A607B685B6D43F0040297
:1036B0007B685A657B68DB6D03F01F0310229A401C
:1036C000BB691340002B00F0A6807B681B68854A0D
:1036D00093424AD07B681B68834A934245D07B68FB
:1036E0001B68824A934240D07B681B68804A9342A1
:1036F0003BD07B681B687F4A934236D07B681B684F
:103700007D4A934231D07B681B687C4A93422CD01F
:103710007B681B687A4A934227D07B681B68794A8A
:10372000934222D07B681B68774A93421DD07B6806
:103730001B68764A934218D07B681B68744A934290
:1037400013D07B681B68734A93420ED07B681B685A
:10375000714A934209D07B681B68704A934204D037
:103760007B681B686E4A93420AD17B681B681B68A2
:1037700003F00803002B14BF01230023DBB209E090
:103780007B681B681B6803F00403002B14BF012334
:103790000023DBB2002B3ED07B68DB6D03F01F0300
:1037A00010229A403B6A9A607B681B681B6803F48E
:1037B0008023002B18D07B681B681B6803F4002350
:1037C000002B08D17B681B6C002B24D07B681B6C02
:1037D000786898471FE07B689B6C002B1BD07B6848
:1037E0009B6C7868984716E07B681B681B6803F43D
:1037F0008073002B07D17B681B681A687B681B6885
:1038000022F008021A607B681B6C002B03D07B68D7
:103810001B6C786898477B68DB6D03F01F032022E0
:103820009A40BB691340002B00F010817B681B6835
:103830002C4A93424AD07B681B682B4A934245D05E
:103840007B681B68294A934240D07B681B68284AE2
:1038500093423BD07B681B68264A934236D07B68F4
:103860001B68254A934231D07B681B68234A9342E8
:103870002CD07B681B68224A934227D07B681B6848
:10388000204A934222D07B681B681F4A93421DD076
:103890007B681B681D4A934218D07B681B681C4AD2
:1038A000934213D07B681B681A4A93420ED07B6800
:1038B0001B68194A934209D07B681B68174A9342D8
:1038C00004D07B681B68164A93422BD17B681B6827
:1038D0001B6803F01003002B14BF01230023DBB28D
:1038E0002AE000BF100002402800024040000240D1
:1038F000580002407000024088000240A0000240D0
:10390000B800024010040240280402404004024073
:10391000580402407004024088040240A00402409F
:10392000B80402407B681B681B6803F00203002B8D
:1039300014BF01230023DBB2002B00F087807B68DB
:10394000DB6D03F01F0320229A403B6A9A607B687C
:1039500093F83530DBB2042B39D17B681B681A68C9
:103960007B681B6822F016021A607B681B685A6924
:103970007B681B6822F080025A617B681B6C002BFD
:1039800003D17B689B6C002B07D07B681B681A688F
:103990007B681B6822F008021A607B68DB6D03F00D
:1039A0001F033F229A403B6A9A607B68012283F89A
:1039B00035207B68002283F834207B681B6D002B48
:1039C00000F04A837B681B6D7868984744E37B6806
:1039D0001B681B6803F48023002B18D07B681B68CE
:1039E0001B6803F40023002B08D17B685B6C002B61
:1039F0002CD07B685B6C7868984727E07B68DB6B32
:103A0000002B23D07B68DB6B786898471EE07B68CF
:103A10001B681B6803F48073002B0FD17B681B6845
:103A20001A687B681B6822F010021A607B6801220A
:103A300083F835207B68002283F834207B68DB6BB9
:103A4000002B03D07B68DB6B786898477B685B6DE5
:103A5000002B00F006837B685B6D03F00103002BF5
:103A600000F088807B68042283F835207B681B681F
:103A70007A4A93424AD07B681B68794A934245D080
:103A80007B681B68774A934240D07B681B68764A04
:103A900093423BD07B681B68744A934236D07B6864
:103AA0001B68734A934231D07B681B68714A93420A
:103AB0002CD07B681B68704A934227D07B681B68B8
:103AC0006E4A934222D07B681B686D4A93421DD098
:103AD0007B681B686B4A934218D07B681B686A4AF4
:103AE000934213D07B681B68684A93420ED07B6870
:103AF0001B68674A934209D07B681B68654A9342FA
:103B000004D07B681B68644A934208D17B681B68B9
:103B10001A687B681B6822F001021A6007E07B6864
:103B20001B681A687B681B6822F001021A60FB6838
:103B30000133FB607A6A9A4207D37B681B681B6873
:103B400003F00103002BF2D100E000BF7B681B688B
:103B50001B6803F00103002B04D07B68032283F869
:103B6000352003E07B68012283F835207B68002242
:103B700083F834207B68DB6C002B00F072827B685A
:103B8000DB6C786898476CE27B681B68434A934219
:103B900022D07B681B68424A93421DD07B681B6819
:103BA000404A934218D07B681B683F4A934213D027
:103BB0007B681B683D4A93420ED07B681B683C4A79
:103BC000934209D07B681B683A4A934204D07B68D1
:103BD0001B68394A934201D1012300E00023002BE6
:103BE00000F03F827B681B681B683B617B68DB6D74
:103BF00003F01F0304229A407B691340002B00F05E
:103C0000CD803B6903F00403002B00F0C7807B6884
:103C1000DB6D03F01F0304229A40FB695A603B6985
:103C200003F40043002B49D03B6903F48033002B9D
:103C300009D17B689B6C002B00F010827B689B6C29
:103C4000786898470AE27B681B6C002B00F00682BC
:103C50007B681B6C7868984700E200BF1000024048
:103C6000280002404000024058000240700002401C
:103C700088000240A0000240B80002401004024048
:103C800028040240400402405804024070040240EC
:103C900088040240A0040240B804024008540258BC
:103CA0001C54025830540258445402585854025874
:103CB0006C54025880540258945402583B6903F0E3
:103CC0002003002B60D17B681B687F4A93424AD057
:103CD0007B681B687D4A934245D07B681B687C4AA1
:103CE000934240D07B681B687A4A93423BD07B6802
:103CF0001B68794A934236D07B681B68774A9342A7
:103D000031D07B681B68764A93422CD07B681B6855
:103D1000744A934227D07B681B68734A934222D02F
:103D20007B681B68714A93421DD07B681B68704A90
:103D3000934218D07B681B686E4A934213D07B680D
:103D40001B686D4A93420ED07B681B686B4A934296
:103D500009D07B681B686A4A934204D07B681B6861
:103D6000684A934208D17B681B681A687B681B68A5
:103D700022F008021A6007E07B681B681A687B68FB
:103D80001B6822F004021A607B681B6C002B00F099
:103D900065817B681B6C786898475FE17B68DB6DA9
:103DA00003F01F0302229A407B691340002B00F0AE
:103DB000C5803B6903F00203002B00F0BF807B68E5
:103DC000DB6D03F01F0302229A40FB695A603B69D6
:103DD00003F40043002B18D03B6903F48033002B1D
:103DE00009D17B685B6C002B00F03A817B685B6CCF
:103DF0007868984734E17B68DB6B002B00F03081FA
:103E00007B68DB6B786898472AE13B6903F0200305
:103E1000002B40F089807B681B682B4A93424AD074
:103E20007B681B68294A934245D07B681B68284AF7
:103E3000934240D07B681B68264A93423BD07B6804
:103E40001B68254A934236D07B681B68234A9342FD
:103E500031D07B681B68224A93422CD07B681B6858
:103E6000204A934227D07B681B681F4A934222D086
:103E70007B681B681D4A93421DD07B681B681C4AE7
:103E8000934218D07B681B681A4A934213D07B6810
:103E90001B68194A93420ED07B681B68174A9342ED
:103EA00009D07B681B68164A934204D07B681B6864
:103EB000144A934228D17B681B681A687B681B6888
:103EC00022F014021A6027E010000240280002408D
:103ED000400002405800024070000240880002404A
:103EE000A0000240B8000240100402402804024032
:103EF000400402405804024070040240880402401A
:103F0000A0040240B80402407B681B681A687B6802
:103F10001B6822F00A021A607B68012283F83520B0
:103F20007B68002283F834207B68DB6B002B00F079
:103F300097807B68DB6B7868984791E07B68DB6DE6
:103F400003F01F0308229A407B691340002B00F006
:103F500088803B6903F00803002B00F082807B68B7
:103F60001B68414A93424AD07B681B683F4A934290
:103F700045D07B681B683E4A934240D07B681B68F3
:103F80003C4A93423BD07B681B683B4A934236D005
:103F90007B681B68394A934231D07B681B68384A7A
:103FA00093422CD07B681B68364A934227D07B68AB
:103FB0001B68354A934222D07B681B68334A934280
:103FC0001DD07B681B68324A934218D07B681B68FF
:103FD000304A934213D07B681B682F4A93420ED01D
:103FE0007B681B682D4A934209D07B681B682C4A6A
:103FF000934204D07B681B682A4A934208D17B68AD
:104000001B681A687B681B6822F01C021A6007E0B4
:104010007B681B681A687B681B6822F00E021A60B6
:104020007B68DB6D03F01F0301229A40FB695A6035
:104030007B6801225A657B68012283F835207B6802
:10404000002283F834207B68DB6C002B09D07B686E
:10405000DB6C7868984704E000BF02E000BF00E036
:1040600000BF2837BD4680BD100002402800024036
:1040700040000240580002407000024088000240A8
:10408000A0000240B8000240100402402804024090
:104090004004024058040240700402408804024078
:1040A000A0040240B804024080B485B000AF78603C
:1040B0007B681B68424A93424AD07B681B68414A2E
:1040C000934245D07B681B683F4A934240D07B684F
:1040D0001B683E4A93423BD07B681B683C4A934234
:1040E00036D07B681B683B4A934231D07B681B68A3
:1040F000394A93422CD07B681B68384A934227D0B8
:104100007B681B68364A934222D07B681B68354A1D
:1041100093421DD07B681B68334A934218D07B685A
:104120001B68324A934213D07B681B68304A934223
:104130000ED07B681B682F4A934209D07B681B68AE
:104140002D4A934204D07B681B682C4A934201D1CC
:10415000012300E00023002B24D07B681B68DBB226
:10416000103B274AA2FB03231B09FB60FB6803F0FB
:104170000703244AD35C1A467B68DA65FB68032B85
:1041800008D97B681B681A461F4B13401A1D7B68B1
:104190009A650DE07B681B681A461B4B13407A68D2
:1041A000936505E07B681B6823F0FF027B689A65D6
:1041B0007B689B6D18461437BD465DF8047B7047DD
:1041C0001000024028000240400002405800024017
:1041D0007000024088000240A0000240B800024087
:1041E00010040240280402404004024058040240E7
:1041F0007004024088040240A0040240B804024057
:10420000ABAAAAAA64FA000800FCFFFF80B485B03C
:1042100000AF78600023FB737B689B69002B20D183
:104220007B689B6A032B58D801A252F823F000BF89
:10423000414200085342000841420008DB420008A6
:104240007B68DB6A03F08073002B48D00123FB738B
:1042500045E07B68DB6AB3F1C07F42D10123FB7389
:104260003FE07B689B69B3F5005F23D17B689B6A65
:10427000032B38D801A252F823F000BF8D4200086A
:10428000934200088D420008A54200080123FB73F9
:1042900030E07B68DB6A03F08073002B25D00123BC
:1042A000FB7322E07B68DB6AB3F1C07F1FD101237F
:1042B000FB731CE07B689B6A022B02D9032B03D0A3
:1042C00018E00123FB7315E07B68DB6A03F0807361
:1042D000002B0ED00123FB730BE000BF0AE000BFF0
:1042E00008E000BF06E000BF04E000BF02E000BF3E
:1042F00000E000BFFB7B18461437BD465DF8047B29
:10430000704700BF80B485B000AF78607B681B68E1
:10431000BB607B681B68384A934222D07B681B686D
:10432000364A93421DD07B681B68354A934218D0A9
:104330007B681B68334A934213D07B681B68324A00
:1043400093420ED07B681B68304A934209D07B6849
:104350001B682F4A934204D07B681B682D4A934206
:1043600001D1012300E00023002B1AD07B681B68D9
:10437000DBB2083B284AA2FB03231B09FB60FA6857
:10438000264B13449B001A467B681A667B68244AB6
:104390005A66FB6803F01F0301229A407B689A6605
:1043A00024E07B681B68DBB2103B1E4AA2FB0323A0
:1043B0001B09FB60BB681C4A934206D8BB681B4ABA
:1043C000934202D9FB680833FB60FA68184B134428
:1043D0009B001A467B681A667B68164A5A66FB6819
:1043E00003F01F0301229A407B689A6600BF1437CE
:1043F000BD465DF8047B7047085402581C540258AF
:104400003054025844540258585402586C540258BC
:104410008054025894540258CDCCCCCC009600164F
:1044200080580258ABAAAAAAB80402400F0402405E
:10443000008200108008024080B485B000AF786030
:104440007B685B68DBB2FB60FB68002B4AD0FB68D3
:10445000082B47D87B681B68254A934222D07B688B
:104460001B68244A93421DD07B681B68224A9342F2
:1044700018D07B681B68214A934213D07B681B6865
:104480001F4A93420ED07B681B681E4A934209D094
:104490007B681B681C4A934204D07B681B681B4ADC
:1044A000934201D1012300E00023002B0AD0FA68D7
:1044B000174B13449B001A467B68DA667B68154AE3
:1044C0001A6709E0FA68144B13449B001A467B688C
:1044D000DA667B68114A1A67FB68013B01229A4041
:1044E0007B685A6700BF1437BD465DF8047B704790
:1044F000085402581C54025830540258445402586C
:10450000585402586C54025880540258945402581B
:104510003F960016405902583F8200104009024061
:1045200080B584B000AF78607B68002B01D1012397
:10453000E3E07B68D3F88430002B06D17B6823222C
:10454000C3F884207868FDF799F86E4BD3F8F430FF
:104550006C4A43F00203C2F8F4306A4BD3F8F430EB
:1045600003F00203BB60BB687B681B7A002B03D19E
:104570000020FDF7BBFC03E04FF40000FDF7B6FCA4
:10458000614B5B687B681B6803F580531B687A6826
:10459000126843F0010302F580521360FDF76AFCD4
:1045A000F86011E0FDF766FC0246FB68D31AB3F52C
:1045B000FA7F09D97B680422C3F888207B68E0224F
:1045C000C3F88420012398E07B681B6803F58053BF
:1045D0001B6803F00103002BE4D1786800F09EF81B
:1045E00002F002FF0346494AA2FB03239A0C7B68B0
:1045F0001B68013AC3F8DC20786800F081FA7B6818
:104600001B6803F58053D3F8003123F4E0137A6874
:10461000126843F4002302F58052C2F800317B682F
:104620005B6903F00303002B09D07B680122C3F808
:1046300088207B68E022C3F8842001235DE07B684A
:104640001B6803F58053D3F80821314B13407A6877
:10465000526951007A6812680B4302F58052C2F821
:104660000831786800F0E9FA786800F02FFB7B6881
:104670005B6805331B781A027B685B6804331B7820
:1046800019467B681B680A43C3F800237B685B6894
:1046900003331B781A067B685B6802331B781B04A4
:1046A0001A437B685B6801331B781B021A437B68E3
:1046B0005B681B7819467B681B680A43C3F80423B0
:1046C0007B681B68D3F80C177B681A68114B0B4387
:1046D000C2F80C377B681B68D3F810177B681A6820
:1046E0000D4B0B43C2F810377B680022C3F88820BB
:1046F0007B681022C3F88420002318461037BD467B
:1047000080BD00BF004402580004005883DE1B43F4
:104710000180FFFF6000020C00C0200C80B584B057
:1047200000AF78607B681B68D3F80032FB60FB68E1
:1047300023F47063FB6002F057FEB860BB681A4A4E
:10474000934204D8FB6843F40073FB6022E0BB682B
:10475000164A934204D2FB6843F44073FB6019E0AD
:10476000BB68134A934215D9BB68124A934204D8D6
:10477000FB6843F48073FB600CE0BB680E4A934215
:1047800004D8FB6843F48063FB6003E0FB6843F4F8
:10479000A063FB607B681B68FA68C3F8002200BF57
:1047A0001037BD4680BD00BFBF0E160200879303C1
:1047B000FFE0F5057FD1F0087FB2E60E80B485B04A
:1047C00000AF786039603B689A683B681B681A43A1
:1047D0003B681B79DB061A433B681B7BDB051A43EE
:1047E0003B685B7B9B051A433B689B7B5B051A43DD
:1047F0003B68DB7B1B0513433A68127C002A02D11D
:104800004FF4002200E0002213433A68527C002A51
:1048100002D14FF4003200E000221A433B689B7C37
:104820001B041A433B685B691A433B689B691A4344
:104830003B681B7F1B031A433B685B7FDB02134310
:104840003A68927F002A02D14FF4806200E0002291
:104850001A433B68DB7F5B0213433A6892F82020DF
:10486000002A02D14FF4807200E000221A433B6814
:104870005B6A1A433B6893F828301B011A433B6874
:10488000DB6A1343FB607B681B681A68564B134056
:104890007A681268F9680B4313603B68DB6B5A0651
:1048A0003B6893F838301B061A433B6893F8303066
:1048B0009B041A433B6893F831305B0413433A6816
:1048C00092F83220002A02D14FF4803200E0002218
:1048D0001A433B685B6B1343FB607B681B685A6839
:1048E000424B13407A681268F9680B4353603B6887
:1048F00093F840301A023B685B6C1343FB607B68A3
:104900001B68DA683A4B13407A681268F9680B43FF
:10491000D3603B6893F854305A003B681B6D1343D7
:104920003A6892F84C20002A01D1802200E000224F
:104930001A433B689B6C1B041343FB607B681B683A
:104940001A6F4FF60D7313407A681268F9680B43BB
:1049500013673B6893F856301A463B6893F8553016
:104960005B001343FB607B681B68D3F8903023F037
:1049700003017B681B68FA680A43C3F890207B68D0
:104980001B68D3F8003D23F072013B689A6D7B6889
:104990001B680A43C3F8002D3B68DB6D3A6892F848
:1049A0006020002A01D1402200E000221A433B6827
:1049B00093F861301B011A433B6893F86230DB00C7
:1049C0001343FB607B681B68D3F8303D23F07B0109
:1049D0007B681B68FA680A43C3F8302D00BF1437A0
:1049E000BD465DF8047B7047838004000080F8C0FA
:1049F000F0FEFFFF80B485B000AF786039607B685F
:104A00001B6803F580531A68384B13403A681168E5
:104A10007A6812680B4302F5805213603B681B7979
:104A20001A033B689B681A433B681B7BDB031343F9
:104A3000FB607B681B6803F580535A682C4B13405E
:104A40007A681268F9680B4302F5805253603B683C
:104A50005B7B1A043B681B6A1343FB607B681B6823
:104A600003F58053D3F80021224B13407A68126873
:104A7000F9680B4302F58052C2F800313B681A69AD
:104A80003B681B7D1B011A433B685B7F1B03134381
:104A9000FB607B681B6803F58053D3F80421164B39
:104AA00013407A681268F9680B4302F58052C2F825
:104AB00004313B681B7FDA073B689B691343FB604B
:104AC0007B681B6803F58053D3F808210B4B134018
:104AD0007A681268F9680B4302F58052C2F808310F
:104AE00000BF1437BD465DF8047B7047FD87FFFFAC
:104AF000FE2FFFFF00C0FEFFEFEFC0FFFFFFC07FF4
:104B000080B5A4B000AF7860012387F83B30002364
:104B10003B65002387F84930002387F84B30012399
:104B200087F83030012387F85E30012387F83A3068
:104B3000002387F85430012387F88C304FF400535A
:104B40007B64002387F864300023BB66002387F86A
:104B50008D30002387F88E304FF4C3633B6600230B
:104B600087F8383000237B63012387F83D3000232A
:104B700087F83E30002387F848300023FB67002386
:104B80007B670023BB65002387F86C30002387F820
:104B90008230012387F84A302023C7F88830012368
:104BA00087F84C30002387F85D304FF04053FB62AC
:104BB0004FF480433B64002387F839300223C7F861
:104BC0008430002387F88030002387F88130002369
:104BD00087F85C30012387F83C3000233B670123D2
:104BE00087F8783007F12C0319467868FFF7E6FD5F
:104BF00001233B7301233B610023BB60002387F843
:104C0000243000237B7500233B754FF400133B6277
:104C100000233B774FF40013BB61002387F8253056
:104C20004FF40673BB6207F1080319467868FFF773
:104C3000E1FE00BF9037BD4680BD80B485B000AFB7
:104C400078600023FB601DE07B68D968FA68134632
:104C50005B001344DB000B44BB60BB6800221A609E
:104C6000BB6800225A60BB6800229A60BB680022C1
:104C7000DA60B9687B68FA68063243F82210FB688C
:104C80000133FB60FB68032BDED97B6800229A624C
:104C90007B681B6803F580531A460323C2F82C3146
:104CA0007B68DA687B681B6803F58053C3F81421BE
:104CB0007B68DA687B681B6803F58053C3F82021A2
:104CC00000BF1437BD465DF8047B704780B485B0E3
:104CD00000AF78600023FB6023E07B681969FA6805
:104CE00013465B001344DB000B44BB60BB6800222F
:104CF0001A60BB6800225A60BB6800229A60BB68D9
:104D00000022DA60BB6800221A61BB6800225A6187
:104D1000B9687B68FA68123243F82210FB680133E5
:104D2000FB60FB68032BD8D97B680022DA657B68BF
:104D300000221A667B6800229A667B680022DA6687
:104D40007B6800229A657B681B6803F580531A46CE
:104D50000323C2F830317B681A697B681B6803F54E
:104D60008053C3F81C217B681B6903F148027B68F0
:104D70001B6803F58053C3F8282100BF1437BD46D4
:104D80005DF8047B7047000080B489B000AF7860A4
:104D900039600023FB61894B7B6194E13B681A68B1
:104DA0000121FB6901FA03F313403B613B69002BCE
:104DB00000F086813B685B6803F00303012B05D09C
:104DC0003B685B6803F00303022B30D17B689B6870
:104DD000BB61FB695B00032202FA03F3DB43BA69A0
:104DE0001340BB613B68DA68FB695B0002FA03F3BE
:104DF000BA691343BB617B68BA699A607B685B6878
:104E0000BB610122FB6902FA03F3DB43BA69134079
:104E1000BB613B685B681B0903F00102FB6902FA96
:104E200003F3BA691343BB617B68BA695A603B6894
:104E30005B6803F00303032B17D07B68DB68BB615F
:104E4000FB695B00032202FA03F3DB43BA691340F8
:104E5000BB613B689A68FB695B0002FA03F3BA69BD
:104E60001343BB617B68BA69DA603B685B6803F037
:104E70000303022B23D1FB69DA087B68083253F85D
:104E80002230BB61FB6903F007039B000F2202FA8B
:104E900003F3DB43BA691340BB613B681A69FB69E2
:104EA00003F007039B0002FA03F3BA691343BB61E3
:104EB000FB69DA087B680832B96943F822107B681D
:104EC0001B68BB61FB695B00032202FA03F3DB434F
:104ED000BA691340BB613B685B6803F00302FB697E
:104EE0005B0002FA03F3BA691343BB617B68BA69DA
:104EF0001A603B685B6803F44033002B00F0E080ED
:104F00002F4BD3F8F4302E4A43F00203C2F8F430AA
:104F10002B4BD3F8F43003F00203FB60FB68294A03
:104F2000FB699B08023352F82330BB61FB6903F035
:104F300003039B000F2202FA03F3DB43BA69134019
:104F4000BB617B68204A934252D07B681F4A9342E0
:104F500031D07B681E4A93422BD07B681D4A934216
:104F600025D07B681C4A93421FD07B681B4A934222
:104F700019D07B681A4A934213D07B68194A93422E
:104F80000DD07B68184A934207D07B68174A93423A
:104F900001D109232DE00A232BE0082329E0072370
:104FA00027E0062325E0052323E0042321E0032353
:104FB0001FE002231DE001231BE000BF800000581A
:104FC000004402580004005800000258000402582F
:104FD00000080258000C0258001002580014025831
:104FE00000180258001C02580020025800240258E1
:104FF0000023FA6902F0030292009340BA69134356
:10500000BB613849FB699B080233BA6941F8232028
:105010004FF0B0431B68BB613B69DB43BA69134087
:10502000BB613B685B6803F48013002B03D0BA6953
:105030003B691343BB614FF0B042BB6913604FF053
:10504000B0435B68BB613B69DB43BA691340BB613A
:105050003B685B6803F40013002B03D0BA693B691B
:105060001343BB614FF0B042BB6953607B695B681F
:10507000BB613B69DB43BA691340BB613B685B685A
:1050800003F40033002B03D0BA693B691343BB61BF
:105090007B69BA695A607B691B68BB613B69DB430A
:1050A000BA691340BB613B685B6803F48033002B33
:1050B00003D0BA693B691343BB617B69BA691A6063
:1050C000FB690133FB613B681A68FB6922FA03F351
:1050D000002B7FF463AE00BF00BF2437BD465DF8F0
:1050E000047B70470004005880B483B000AF786040
:1050F0000B467B8013467B707B78002B03D07A882D
:105100007B689A6103E07B881A047B689A6100BF20
:105110000C37BD465DF8047B704780B485B000AFA6
:1051200078600B467B807B685B69FB607A88FB68F4
:1051300013401A04FB68D9437B880B401A437B68F1
:105140009A6100BF1437BD465DF8047B70470000CC
:1051500080B582B000AF78607B68002B01D101235D
:105160008BE07B6893F84130DBB2002B06D17B6883
:10517000002283F840207868FCF74EFB7B682422ED
:1051800083F841207B681B681A687B681B6822F0E3
:1051900001021A607B685A687B681B6822F07062A3
:1051A0001A617B681B689A687B681B6822F400425E
:1051B0009A607B68DB68012B07D17B689A687B6803
:1051C0001B6842F400429A6006E07B689A687B683C
:1051D0001B6842F404429A607B68DB68022B08D1AA
:1051E0007B681B685A687B681B6842F400625A60DF
:1051F00007E07B681B685A687B681B6822F40062C2
:105200005A607B681B6859687B681A681D4B0B43A2
:1052100053607B681B68DA687B681B6822F4004275
:10522000DA607B681A697B685B6942EA03017B6824
:105230009B691A027B681B680A43DA607B68D9693C
:105240007B681A6A7B681B680A431A607B681B6864
:105250001A687B681B6842F001021A607B680022B2
:105260005A647B68202283F841207B6800221A63FD
:105270007B68002283F84220002318460837BD4689
:1052800080BD00BF0080000280B588B002AFF8602A
:105290007A601A460B467B8113463B81FB6893F884
:1052A0004130DBB2202B40F0FD80FB6893F84030AA
:1052B000012B01D10223F6E0FB68012283F8402094
:1052C000FCF7D8FD38613B690093192301224FF4A4
:1052D0000041F86800F0D6FC0346002B01D0012302
:1052E000E1E0FB68212283F84120FB68102283F86B
:1052F0004220FB6800225A64FB687A685A62FB68A5
:105300003A895A85FB6800225A63FB685B8D9BB221
:10531000FF2B06D9FB68FF221A854FF080737B6153
:1053200007E0FB685B8D9AB2FB681A854FF000734B
:105330007B61FB681B8D002B24D0FB685B6A1A78AD
:10534000FB681B689A62FB685B6A5A1CFB685A62BE
:10535000FB685B8D9BB2013B9AB2FB685A85FB6888
:105360001B8D013B9AB2FB681A85FB681B8DDBB273
:105370000133DAB279894E4B00937B69F86800F00B
:1053800045FE66E0FB681B8DDAB27989484B0093D5
:105390007B69F86800F03AFE5BE03A69396AF868C0
:1053A00000F0C9FC0346002B01D001237BE0FB6821
:1053B0005B6A1A78FB681B689A62FB685B6A5A1C16
:1053C000FB685A62FB685B8D9BB2013B9AB2FB683B
:1053D0005A85FB681B8D013B9AB2FB681A85FB68F6
:1053E0005B8D9BB2002B34D0FB681B8D002B30D122
:1053F0003B6900933B6A00228021F86800F042FC80
:105400000346002B01D001234DE0FB685B8D9BB26E
:10541000FF2B0ED9FB68FF221A85FB681B8DDAB2C1
:105420007989002300934FF08073F86800F0EEFD57
:105430000FE0FB685B8D9AB2FB681A85FB681B8DD9
:10544000DAB27989002300934FF00073F86800F016
:10545000DDFDFB685B8D9BB2002B9ED13A69396AFA
:10546000F86800F0AFFC0346002B01D001231AE0DE
:10547000FB681B682022DA61FB681B685968FB68BF
:105480001A680C4B0B405360FB68202283F84120C4
:10549000FB68002283F84220FB68002283F840204A
:1054A000002300E0022318461837BD4680BD00BF28
:1054B0000020008000E800FE80B588B002AFF860F0
:1054C000084611461A4603467B810B463B8113462C
:1054D000FB80FB6893F84130DBB2202B40F0F98071
:1054E0003B6A002B02D0BB8C002B05D1FB684FF42C
:1054F00000725A640123EDE0FB6893F84030012B01
:1055000001D10223E6E0FB68012283F84020FCF78A
:10551000B1FC78617B690093192301224FF40041AB
:10552000F86800F0AFFB0346002B01D00123D1E067
:10553000FB68212283F84120FB68402283F8422047
:10554000FB6800225A64FB683A6A5A62FB68BA8CAC
:105550005A85FB6800225A63F8883A8979897B6901
:105560000193BB6A00930346F86800F0BFFA034654
:10557000002B05D0FB68002283F840200123A9E01E
:10558000FB685B8D9BB2FF2B0ED9FB68FF221A854F
:10559000FB681B8DDAB27989002300934FF080738A
:1055A000F86800F033FD0FE0FB685B8D9AB2FB6892
:1055B0001A85FB681B8DDAB27989002300934FF0BE
:1055C0000073F86800F022FD7A69B96AF86800F0A3
:1055D000B2FB0346002B01D001237BE0FB685B6A32
:1055E0001A78FB681B689A62FB685B6A5A1CFB6846
:1055F0005A62FB685B8D9BB2013B9AB2FB685A858D
:10560000FB681B8D013B9AB2FB681A85FB685B8DBA
:105610009BB2002B34D0FB681B8D002B30D17B69F3
:105620000093BB6A00228021F86800F02BFB034640
:10563000002B01D001234DE0FB685B8D9BB2FF2B5B
:105640000ED9FB68FF221A85FB681B8DDAB27989B7
:10565000002300934FF08073F86800F0D7FC0FE050
:10566000FB685B8D9AB2FB681A85FB681B8DDAB20A
:105670007989002300934FF00073F86800F0C6FCAE
:10568000FB685B8D9BB2002B9ED17A69B96AF86882
:1056900000F098FB0346002B01D001231AE0FB68C1
:1056A0001B682022DA61FB681B685968FB681A686E
:1056B0000A4B0B405360FB68202283F84120FB68B3
:1056C000002283F84220FB68002283F84020002358
:1056D00000E0022318461837BD4680BD00E800FEF2
:1056E00080B588B002AFF860084611461A460346F6
:1056F0007B810B463B811346FB80FB6893F841306E
:10570000DBB2202B40F0FD803B6A002B02D0BB8C2B
:10571000002B05D1FB684FF400725A640123F1E0BD
:10572000FB6893F84030012B01D10223EAE0FB68CB
:10573000012283F84020FCF79DFB78617B69009390
:10574000192301224FF40041F86800F09BFA034648
:10575000002B01D00123D5E0FB68222283F84120F1
:10576000FB68402283F84220FB6800225A64FB68F1
:105770003A6A5A62FB68BA8C5A85FB6800225A63FF
:10578000F8883A8979897B690193BB6A009303465B
:10579000F86800F0FFF90346002B05D0FB680022F3
:1057A00083F840200123ADE0FB685B8D9BB2FF2BAB
:1057B0000ED9FB68FF221A85FB681B8DDAB2798946
:1057C000524B00934FF08073F86800F01FFC0FE01D
:1057D000FB685B8D9AB2FB681A85FB681B8DDAB299
:1057E00079894A4B00934FF00073F86800F00EFC83
:1057F0007B690093BB6A00220421F86800F042FA3A
:105800000346002B01D001237CE0FB681B685A6A29
:10581000FB685B6AD2B21A70FB685B6A5A1CFB6851
:105820005A62FB681B8D013B9AB2FB681A85FB68C4
:105830005B8D9BB2013B9AB2FB685A85FB685B8D1E
:105840009BB2002B34D0FB681B8D002B30D17B69C1
:105850000093BB6A00228021F86800F013FA034627
:10586000002B01D001234DE0FB685B8D9BB2FF2B29
:105870000ED9FB68FF221A85FB681B8DDAB2798985
:10588000002300934FF08073F86800F0BFFB0FE037
:10589000FB685B8D9AB2FB681A85FB681B8DDAB2D8
:1058A0007989002300934FF00073F86800F0AEFB95
:1058B000FB685B8D9BB2002B9AD17A69B96AF86854
:1058C00000F080FA0346002B01D001231AE0FB68A8
:1058D0001B682022DA61FB681B685968FB681A683C
:1058E0000B4B0B405360FB68202283F84120FB6880
:1058F000002283F84220FB68002283F84020002326
:1059000000E0022318461837BD4680BD0024008001
:1059100000E800FE80B58AB002AFF8607A603B60B4
:105920000B467B8100237B61FB6893F84130DBB23F
:10593000202B40F0D280FB681B689B6903F4004376
:10594000B3F5004F01D10223C8E0FB6893F8403063
:10595000012B01D10223C1E0FB68012283F8402022
:10596000FB68242283F84120FB6800225A64FB680C
:10597000DB68012B05D17B89C3F30902594B134323
:1059800004E07B89C3F30902574B1343FA6812689A
:105990005360FCF76FFAB861FB681B689B6903F002
:1059A0002003202B0CBF01230023DBB2FB77FB6815
:1059B0001B689B6903F01003102B0CBF012300230D
:1059C000DBB2BB7734E03B68B3F1FF3F1AD0FCF7A2
:1059D00051FA0246BB69D31A3A689A4202D33B682D
:1059E000002B0FD1FB68202283F84120FB685B6C01
:1059F00043F02002FB685A64FB68002283F84020D1
:105A000001236BE0FB681B689B6903F02003202BDC
:105A10000CBF01230023DBB2FB77FB681B689B698B
:105A200003F01003102B0CBF01230023DBB2BB7764
:105A3000FB7F002B02D1BB7F002BC4D0FB681B680F
:105A40009B6903F01003102B1AD0BB6900933B68CD
:105A500000222021F86800F015F90346002B01D040
:105A600001233BE0FB681B682022DA61FB682022EF
:105A700083F84120FB68002283F8402000232DE0BA
:105A8000BB6900933B6800222021F86800F0FAF817
:105A90000346002B01D0012320E0FB681B68102285
:105AA000DA61FB681B682022DA617B6901337B6164
:105AB0007B697A689A423FF65AAFFB68202283F8E6
:105AC0004120FB685B6C43F02002FB685A64FB6872
:105AD000002283F84020012300E0022318462037EB
