:020000040800F2
:1000000000000824992F0008B52D0008BB2D00081A
:10001000C12D0008C72D0008CD2D000800000000EC
:100020000000000000000000000000005136010840
:10003000D32D000800000000A1380108790A01084A
:10004000E92F0008E92F0008E92F0008E92F000830
:10005000E92F0008E92F0008E92F0008E92F000820
:10006000E92F0008E92F0008E92F0008E12D00081A
:10007000F52D0008E92F0008E92F0008E92F0008F6
:10008000E92F0008E92F0008E92F0008E92F0008F0
:10009000E92F0008E92F0008E92F0008E92F0008E0
:1000A000E92F0008092E0008E92F0008E92F0008B1
:1000B000E92F0008E92F0008E92F0008E92F0008C0
:1000C000E92F0008E92F0008E92F0008E92F0008B0
:1000D000E92F0008E92F0008E92F00081D2E00086D
:1000E000E92F0008E92F000800000000E92F0008B0
:1000F000E92F0008E92F0008E92F0008E92F000880
:10010000E92F0008E92F0008E92F0008E92F00086F
:10011000E92F0008E92F0008E92F0008E92F00085F
:10012000E92F0008E92F0008E92F0008E92F00084F
:10013000E92F0008E92F0008E92F0008E92F00083F
:10014000E92F0008E92F000800000000000000006F
:10015000E92F0008E92F0008E92F0008E92F00081F
:10016000E92F0008E92F0008E92F0008E92F00080F
:10017000E92F0008E92F0008E92F0008000000001F
:10018000E92F0008E92F0008E92F0008E92F0008EF
:10019000E92F0008E92F0008E92F0008E92F0008DF
:1001A000E92F0008E92F0008E92F0008E92F0008CF
:1001B000E92F0008E92F0008E92F0008E92F0008BF
:1001C000E92F0008E92F0008E92F0008E92F0008AF
:1001D000E92F0008E92F0008E92F0008E92F00089F
:1001E000E92F0008E92F0008E92F0008E92F00088F
:1001F000E92F0008E92F0008E92F0008E92F00087F
:10020000E92F0008E92F0008E92F0008E92F00086E
:10021000E92F0008E92F0008E92F0008E92F00085E
:10022000E92F0008E92F0008E92F0008000000006E
:10023000E92F0008E92F0008E92F0008E92F00083E
:10024000E92F0008E92F0008E92F0008E92F00082E
:10025000E92F0008E92F0008E92F0008E92F00081E
:10026000E92F0008E92F0008E92F0008E92F00080E
:10027000E92F0008E92F0008E92F0008E92F0008FE
:10028000E92F0008E92F0008E92F0008000000000E
:08029000E92F0008E92F000826
:1002A00010B5054C237833B9044B13B10448AFF3B0
:1002B00000800123237010BD3001002400000000E5
:1002C0000C51010808B5034B1BB103490348AFF3B8
:1002D000008008BD00000000340100240C5101081A
:1002E000034613F8012B002AFBD1181A0138704776
:1002F00001F0FF01102A2BDB10F0070F08D010F8D7
:10030000013B013A8B422DD010F0070F42B3F6D1DA
:10031000F0B441EA012141EA014122F007047FF0F3
:1003200000070023F0E80256083C85EA010586EA4A
:10033000010685FA47F5A3FA87F586FA47F6A5FA86
:1003400087F68EB9EED1F0BC01F0FF0102F0070292
:1003500032B110F8013B013A83EA010313B1F8D13D
:100360000020704701387047002D06BF354603381E
:10037000073815F0010F07D1013015F4807F02BF57
:10038000013015F4C03F0130F0BC0138704700BFA8
:1003900053B94AB9002908BF00281CBF4FF0FF31EC
:1003A0004FF0FF3000F070B9ADF1080C6DE904CEEC
:1003B00000F006F8DDF804E0DDE9022304B0704740
:1003C0002DE9F047089E0D4604460F46002B4AD102
:1003D0008A42944665D9B2FA82F343B102FA03FC29
:1003E000C3F120029F4020FA02F217439C404FEADB
:1003F0001C4E1FFA8CF5B7FBFEF1220C0EFB117799
:1004000042EA074201FB05F090420AD91CEB0202C6
:1004100001F1FF3780F01C81904240F219810239CE
:100420006244121AA4B2B2FBFEF00EFB102244EAA0
:10043000024400FB05F5A5420AD91CEB040400F1B7
:10044000FF3280F00781A54240F204816444023803
:1004500040EA0140641B00211EB1DC400023C6E9D4
:100460000043BDE8F0878B4208D9002E00F0ED80F4
:100470000021C6E900050846BDE8F087B3FA83F11C
:10048000002949D1AB4202D3824200F2F880841A9B
:1004900065EB030201201746002EE2D0C6E90047B3
:1004A000DFE702B9FFDEB2FA82F3002B40F0908062
:1004B0008A1A4FEA1C471FFA8CFE0121B2FBF7F59E
:1004C00007FB1520220C42EA00420EFB05F0904289
:1004D00008D91CEB020205F1FF3802D2904200F26B
:1004E000CB804546121AA4B2B2FBF7F007FB1022EC
:1004F00044EA02440EFB00FEA64508D91CEB0404A6
:1005000000F1FF3202D2A64500F2BB801046A4EBF8
:100510000E0440EA05409FE7C1F120078B4022FA14
:1005200007FC4CEA030C05FA01F420FA07F3FD403E
:100530004FEA1C492343B5FBF9F81FFA8CFE09FB6F
:1005400018551C0C44EA054408FB0EF5A54202FAB6
:1005500001F200FA01F00BD91CEB040408F1FF3A98
:1005600080F08880A54240F28580A8F102086444AA
:10057000641B9DB2B4FBF9F309FB134445EA044440
:1005800003FB0EFEA64508D91CEB040403F1FF355E
:100590006CD2A6456AD9023B644443EA0843A3FBF4
:1005A0000295A4EB0E04AC42C846AE4656D353D0D7
:1005B00056B1B0EB080264EB0E0404FA07F7CA4028
:1005C000CC401743C6E9007418460021BDE8F08707
:1005D000C3F1200102FA03FC20FA01F225FA01F12D
:1005E0009D402A434FEA1C471FFA8CFEB1FBF7F0EF
:1005F00007FB1015110C41EA054100FB0EF58D4279
:1006000004FA03F408D91CEB010100F1FF382FD2E2
:100610008D422DD902386144491B92B2B1FBF7F5E6
:1006200007FB151142EA014205FB0EF1914208D980
:100630001CEB020205F1FF3816D2914214D9023D9B
:100640006244521A45EA004138E73146304608E72D
:100650003946E6E61046FBE64845A9D2B9EB020862
:1006600065EB0C0E013BA3E74546EAE72B4694E712
:100670004046D1E7D0467BE7023D624432E7084678
:100680000AE76444023842E7704700BF80B400AF15
:100690003D4BD3F888303C4A43F47003C2F88830AD
:1006A000394B1B69384A43F010031361374B1B6801
:1006B00003F00F03062B07D8344B1B6823F00F03FE
:1006C000324A43F007031360314B1B68304A43F052
:1006D000010313602E4B00221A612D4B1A682C491E
:1006E0002C4B13400B60294B1B6803F00803002BB5
:1006F00007D0264B1B6823F00F03244A43F007035F
:100700001360234B00229A61214B0022DA61204BB7
:1007100000221A621E4B204A9A621D4B1F4ADA625F
:100720001B4B1F4A1A631A4B00225A63184B1C4A70
:100730009A63174B0022DA63154B194A1A64144B5B
:1007400000225A64124B1B68114A23F48023136061
:100750000F4B00221A66134B5B6A124A43F4804324
:100760005362114B1A68114B1340B3F1005F02D270
:100770000F4B01221A600F4B43F2D2021A6000BFE6
:10078000BD465DF8047B704700ED00E0002000529C
:10079000004402587FEDF6EA000202020000FF0169
:1007A00080020101C00000580010005C0000FFFF43
:1007B000088100510040005280B582B000AF7860DF
:1007C0007868FFF78DFD03469AB264237968034881
:1007D0000DF092FE00BF0837BD4680BDEC0400243A
:1007E00080B592B000AF3B48FFF7E6FF002387F8E3
:1007F0004730002387F846300123A7F8443024E02F
:10080000B7F844305B0099B20A230322324808F05B
:10081000B5F8034687F8413097F84130002B0FD1E7
:10082000B7F844203B462D49184613F0BBFB3B4626
:100830001846FFF7C1FF97F84730013387F8473074
:10084000B7F844300133A7F84430B7F844307F2B71
:10085000D6D90123A7F8423024E0B7F842305B0034
:1008600099B20A2303221E4808F088F8034687F845
:10087000413097F84130002B0FD1B7F842203B466A
:100880001849184613F08EFB3B461846FFF794FFB5
:1008900097F84630013387F84630B7F842300133D5
:1008A000A7F84230B7F842307F2BD6D997F84730B7
:1008B000002B07D197F84630002B03D10A48FFF7E9
:1008C0007BFF03E00948FFF777FF00BF00BF483711
:1008D000BD4680BD24510108F80300245851010889
:1008E0004C04002484510108B0510108E85101086A
:1008F00080B584B000AF03460A46FB711346BB7156
:100900000323BB730023FB731AE0FA7B10491346E1
:100910005B0013449B000B441B78FA799A420CD17C
:10092000FA7B0B4913465B0013449B000B440433D2
:100930001B68BA791046984706E0FB7B0133FB73CE
:10094000FA7BBB7B9A42E0D31037BD4680BD00BF27
:10095000F457010880B584B000AF78607B68002B45
:1009600046D07B681B68002B42D07B681B68FB600D
:10097000FB681B78992B33D1FB6801331B78AA2BBA
:100980002ED1FB689B78FB72FB68DB78BB72FB683F
:100990001B797B72FA7ABB7A1344DBB27A7A9A4279
:1009A00015D102F073FB0346134AC2F8C430124B50
:1009B000012283F8C820BA7AFB7A11461846FFF75D
:1009C00097FFFB7A19460D4813F0DAFA08E07B68C6
:1009D0005B68002B04D07B685B681A6801321A6080
:1009E0007B681B6805220021184613F03EFB00E0DF
:1009F00000BF1037BD4680BD6001002418520108B9
:100A000080B582B000AF7860134A7B6813601348EA
:100A1000FFF7D2FE104B1B68002118460CF0E6FBD6
:100A20000346002B0FD10C4B1B68042118460CF019
:100A3000DDFB0346002B06D10948FFF7BDFE094840
:100A4000FFF7BAFE03E00848FFF7B6FE00BF00BF9D
:100A50000837BD4680BD00BF4C0100248852010804
:100A6000C0520108F45201082853010880B487B02D
:100A700000AF0346FB710B46BB7113467B717B795C
:100A8000814A12681268D26A02FB03F37F4AA2FB12
:100A900003235B097B61FB79002B01D1002300E07C
:100AA00008233B61FB79002B01D1042300E00C23D8
:100AB000FB60BB79012B02D0022B65D0C9E03B69FA
:100AC000002B05D1704B1B681B687A695A6328E0BC
:100AD0003B69042B05D16C4B1B681A687B699363D7
:100AE0001FE03B69082B05D1674B1B681A687B69BF
:100AF000D36316E03B690C2B05D1634B1B681A6866
:100B00007B6913640DE03B69102B05D15E4B1B68BC
:100B10001A687B69936504E05B4B1B681A687B6904
:100B2000D365FB68002B05D1574B1B681B6800225F
:100B30005A63F7E0FB68042B05D1534B1B681A6816
:100B400000239363EEE0FB68082B05D14E4B1B6836
:100B50001A680023D363E5E0FB680C2B05D14A4BF0
:100B60001B681A6800231364DCE0FB68102B05D1B6
:100B7000454B1B681A6800239365D3E0424B1B6802
:100B80001A680023D365CDE03B69002B05D13E4BAD
:100B90001B681B6800225A6328E03B69042B05D1BF
:100BA000394B1B681A68002393631FE03B69082BCD
:100BB00005D1354B1B681A680023D36316E03B69E7
:100BC0000C2B05D1304B1B681A68002313640DE011
:100BD0003B69102B05D12C4B1B681A6800239365C9
:100BE00004E0294B1B681A680023D365FB68002BBF
:100BF00005D1254B1B681B687A695A6392E0FB6834
:100C0000042B05D1204B1B681A687B69936389E02C
:100C1000FB68082B05D11C4B1B681A687B69D363E2
:100C200080E0FB680C2B05D1174B1B681A687B69A9
:100C3000136477E0FB68102B05D1134B1B681A680F
:100C40007B6993656EE0104B1B681A687B69D365FE
:100C500068E03B69002B05D10B4B1B681B68002229
:100C60005A632CE03B69042B05D1074B1B681A68BB
:100C70000023936323E03B69082B09D1024B1B68D7
:100C80001A680023D3631AE04C0100241F85EB513E
:100C90003B690C2B05D1264B1B681A680023136493
:100CA0000DE03B69102B05D1214B1B681A6800230E
:100CB000936504E01E4B1B681A680023D365FB682C
:100CC000002B05D11A4B1B681B6800225A6328E0D1
:100CD000FB68042B05D1164B1B681A68002393632D
:100CE0001FE0FB68082B05D1114B1B681A68002315
:100CF000D36316E0FB680C2B05D10D4B1B681A68FB
:100D0000002313640DE0FB68102B05D1084B1B6812
:100D10001A680023936504E0054B1B681A680023DA
:100D2000D36500BF00BF1C37BD465DF8047B70472C
:100D30004C01002480B500AF962002F0B3F91748AB
:100D4000FFF73AFD1648FFF737FD1648FFF734FD69
:100D50001548FFF731FD1548FFF72EFDFFF740FD61
:100D60001349144801F066FA00F044F91248FFF7FD
:100D700047FE124B1B681A68104B1B6842F01002AA
:100D80001A6001220E490F4802F05AFD00F01EF8C9
:100D90000D48FFF711FD00BF80BD00BF585301088B
:100DA00088530108B8530108E85301081854010892
:100DB000940100244C040024A0040024EC0400242A
:100DC000600100246C0200245054010880B5A4B0D6
:100DD00000AF2B4BC7F884304FF00003C7F88C30BE
:100DE000284B4FF00002DA602748FFF7E5FC0023AC
:100DF000C7F8883018E0234B1B889BB207EE903A67
:100E0000B8EE677AD7ED217A67EE277A97ED237AE5
:100E100077EE277AC7ED237A0A2002F043F9D7F854
:100E200088300133C7F88830D7F88830312BE2DDBD
:100E300097ED237ADFED156AC7EE267A114BC3EDE5
:100E4000047A104BD3ED047A9FED117A67EE877A1E
:100E5000FDEEE77A3B4617EE902A0E49184613F04E
:100E6000A1F8C7F88000D7F880309AB2394632230B
:100E700009480DF041FB00BF9037BD4680BD00BF63
:100E800006345338600100247C54010800004842B5
:100E900000007A44B4540108EC04002480B58AB000
:100EA00002AF03463960FB71FB7923F00F03FB7738
:100EB000FB791B01BB773B685AB297F91F3013438C
:100EC0005BB243F00C035BB2DBB27B7707F11D0230
:100ED0000A23009301234E21374807F009FA002323
:100EE000BB6102E0BB690133BB61BB6942F20F72B7
:100EF0009342F7DD3B685AB297F91F3013435BB258
:100F000043F008035BB2DBB27B7707F11D020A23D3
:100F1000009301234E21284807F0EAF900237B6162
:100F200002E07B6901337B617B6942F20F7293427D
:100F3000F7DD3B685AB297F91E3013435BB243F0BA
:100F40000C035BB2DBB27B7707F11D020A2300932F
:100F500001234E21184807F0CBF900233B6102E042
:100F60003B6901333B613B6942F20F729342F7DD0B
:100F70003B685AB297F91E3013435BB243F0080343
:100F80005BB2DBB27B7707F11D020A2300930123DA
:100F90004E21094807F0ACF90023FB6002E0FB6832
:100FA0000133FB60FB6842F20F729342F7DD00BF32
:100FB00000BF2037BD4680BDF803002480B582B055
:100FC00000AF0346FB71FB7900211846FFF766FF6F
:100FD00000BF0837BD4680BD80B582B000AF034674
:100FE000FB71FB7901211846FFF758FF00BF083756
:100FF000BD4680BD80B500AF642002F053F83320B9
:10100000FFF7DCFF052002F04DF83220FFF7D6FF96
:10101000052002F047F82820FFF7D0FF052002F056
:1010200041F80C20FFF7CAFF052002F03BF806202C
:10103000FFF7C4FF052002F035F800F067F80A203A
:1010400002F030F80021002000F02CF8074800F0F2
:1010500013F80021012000F025F8054800F00CF8F5
:101060000448FFF7A9FB00BF80BD00BFFC54010886
:101070000C5501081855010880B582B000AF7860A2
:1010800006E07B685A1C7A601B781846FFF7A4FFBD
:101090007B681B78002BF4D100BF00BF0837BD462A
:1010A00080BD000080B584B000AF786039607B6897
:1010B000032B1FD801A252F823F000BFCD10000867
:1010C000D7100008E1100008EB1000083B68DBB205
:1010D000803BFB7311E03B68DBB2403BFB730CE0F1
:1010E0003B68DBB26C3BFB7307E03B68DBB22C3B3D
:1010F000FB7302E08023FB7300BFFB7B1846FFF706
:101100005DFF00BF1037BD4680BD00BF80B500AF9A
:101110000120FFF753FF022001F0C4FF00BF80BD94
:1011200080B582B000AF7860134B93F85830002B35
:101130001ED0124B1B684FF0FF3118460FF033FEE4
:101140000346002B14D10E490E4801F02DF9034639
:10115000002B05D0084B5B6E0133074A536602E053
:10116000054B00225A66054B1B6818460FF066FEB9
:1011700014200FF077FDD7E760010024F40A002463
:10118000940100244C04002480B588B000AF78603E
:101190000023FB833A4B93F85830002B6CD0384B2C
:1011A0005B6BBB61364B9B6B7B61354BDB6B3B6198
:1011B000D7ED067A27EEA77AD7ED057A67EEA77AFC
:1011C00037EE277AD7ED047A67EEA77A77EE277A9B
:1011D000B0EE670A13F078FF87ED030AD7ED037AC4
:1011E000B7EE087AF4EEC77AF1EE10FA08DCD7ED24
:1011F000037AB6EE007AF4EEC77AF1EE10FA13D560
:101200001F4B012283F8612001224FF480411D48C9
:1012100006F09EFF0A200FF025FD00224FF48041CA
:10122000184806F095FF03E0154B002283F8612073
:10123000D7ED047A9FED147AF4EEC77AF1EE10FA46
:101240000FD5FB8B0133FB83FB8B052B14D90C4B88
:10125000012283F86020012201210A4806F078FF6C
:101260000AE00023FB83064B002283F86020002263
:101270000121044806F06CFF14200FF0F3FC89E70D
:1012800060010024000402586666263F80B582B0E3
:1012900000AF7860064B93F85830002B03D0022142
:1012A000044806F06EFF4FF4FA700FF0DBFCF1E734
:1012B000600100240010025880B590B002AF786041
:1012C00000237B6300233B630023FB62754A07F125
:1012D000080392E8030083E803000522724973487B
:1012E0000DF098F9FFF712FF64200FF0BBFC01F03E
:1012F000CDFEB8626E4B93F8BC30012B10D107F1D4
:1013000008031846FFF726FB694ABB6AC2F8C430D7
:10131000674B012283F8C820654B002283F8BC206C
:10132000BB6A644AA2FB03239A09634BA3FB021323
:1013300059090B461B015B1A9B00D31A7B63BB6ADE
:101340005E4AA2FB03239A0B5B4BA3FB02135909D2
:101350000B461B015B1A9B00D31A3B63BB6A584ABE
:10136000A2FB03235B0DFB6207F110007B6B009374
:101370003B6BFA6A534912F015FE00210020FFF77B
:1013800091FE07F110031846FFF776FE00210120B9
:10139000FFF788FE464B93F8C830012B14D1444B1D
:1013A000D3F8C430BA6AD31A40F6B732934203D89E
:1013B0004548FFF761FE0AE03D4B002283F8C82054
:1013C0004248FFF759FE02E04048FFF755FE002172
:1013D0000220FFF767FE364B93F86030002B03D0F6
:1013E0003B48FFF749FE0BE0314B93F86130002B8F
:1013F00003D03848FFF740FE02E03748FFF73CFED5
:1014000000210320FFF74EFE294B93F82030012BDB
:1014100012D1274BD3ED037AFDEEE77A07F11003E3
:1014200017EE902A2D49184612F0BCFD07F1100363
:101430001846FFF721FE31E01D4B93F86030002B7A
:1014400004D11B4B93F8CD30002B12D0184BD3EDA9
:10145000037AFDEEE77A07F1100317EE902A204990
:10146000184612F09FFD07F110031846FFF704FE1F
:1014700014E00F4B93F8CC301A460D4BD3ED037AA2
:10148000FDEEE77A07F1100017EE903A154912F0D9
:1014900089FD07F110031846FFF7EEFDC8200FF095
:1014A000E1FB24E724560108CC010024EC040024CD
:1014B00060010024D34D62108988888873B2E745A3
:1014C000B17C219544550108645501087C550108FB
:1014D00094550108AC550108C4550108DC550108B4
:1014E000F45501080C56010880B582B000AF786051
:1014F000114B322283F8CC200F4B002283F8CD20F1
:101500000D4B93F86030002B04D10B4B93F8CD308A
:10151000002B05D0002200210020FFF7A7FA07E0EA
:10152000054B93F8CC301A4601210020FFF79EFAB4
:1015300032200FF097FBE3E76001002480B5C6B0CE
:1015400002AF07F58873A3F586731860CA4BC7F816
:10155000E830CA4BC7F8E430C94BC7F8E030C94B94
:101560001B69C94A13604FF4FA700FF07BFB07F157
:10157000880340220021184612F077FD002387F8E7
:101580000F314FF00003C7F80831C04BC7F8DC300B
:101590000023C7F8043113E0BA4B1B889BB21946ED
:1015A00007F58873A3F58273D7F8042143F8221056
:1015B00001200FF057FBD7F804310133C7F804318D
:1015C000D7F804310E2BE7DD0023C7F8003149E0DE
:1015D000D7F800310133C7F8FC303AE007F58873DB
:1015E000A3F58273D7F8002153F8222007F58873FA
:1015F000A3F58273D7F8FC1053F821309A4223D90F
:1016000007F58873A3F58273D7F8002153F82230C9
:10161000C7F8C83007F58873A3F58273D7F8FC20A4
:1016200053F8221007F58873A3F58273D7F80021C9
:1016300043F8221007F58873A3F58273D7F8FC20CE
:10164000D7F8C81043F82210D7F8FC300133C7F898
:10165000FC30D7F8FC300E2BC0DDD7F80031013359
:10166000C7F80031D7F800310D2BB1DD07F58873CD
:10167000A3F58273DB6907EE903AF8EE677AC7ED5F
:10168000367A97ED367AD7ED3A7A67EE277AC7ED54
:10169000357A7C4B93F86030012B35D17C4B1B782D
:1016A000002B34D14FF00003C7F8F8300023C7F8FF
:1016B000F43018E0734B1B889BB207EE903AB8EEFB
:1016C000677AD7ED3A7A67EE277A97ED3E7A77EE2A
:1016D000277AC7ED3E7A05200FF0C4FAD7F8F43028
:1016E0000133C7F8F430D7F8F4301D2BE2DD97ED65
:1016F0003E7AF3EE0E6AC7EE267A634BC3ED007AAC
:10170000634B01221A7002E0614B00221A705E4B9B
:1017100093ED007AD7ED357A77EE677AC7ED3C7AAC
:10172000D7ED3C7AF5EEC07AF1EE10FA05D5D7ED9B
:101730003C7AF1EE677AC7ED3C7AD7ED3C6A97EDDB
:10174000397AC6EE877A9FED537A67EE877A97EDFE
:10175000387A67EE277AC7ED3B7A4A4B93F86030C8
:10176000002B04D1474B93F8CD30002B04D04FF021
:101770000003C7F8EC300CE0D7ED3B7A9FED467ADA
:10178000F4EEC77AF1EE10FA03D54FF00003C7F874
:10179000EC3097F80F319B0003F588733B44883B8E
:1017A000D3ED007A97ED427A77EE677AC7ED427A09
:1017B00097F80F319B0003F588733B44883BD7F8BB
:1017C000EC201A6097F80F319B0003F588733B44B7
:1017D000883BD3ED007A97ED427A77EE277AC7ED12
:1017E000427A97F80F310133DBB203F00F0387F829
:1017F0000F3197ED427AF3EE006AC7EE267AC7ED15
:10180000347A97ED377AD7ED347A27EE277AF7EEE8
:10181000006AD7ED377A76EEE76A204BD3ED007A8F
:1018200066EEA77A77EE277A1C4BC3ED007A154B4C
:1018300093F86030002B04D1124B93F8CD30002B7D
:1018400003D0164B4FF000021A60144B1B680D4A70
:10185000D3600D4B1B680B4A13610A4BD3ED037A1F
:101860009FED0F7AF4EEC77AF1EE10FA1ADD054B10
:10187000012283F8202019E006345338A4703D3E3D
:10188000333313406001002450010024295C8F3D54
:101890005401002400007A4400003442580100241E
:1018A0000080BB441D4B002283F820201C4B1B787A
:1018B0000133DAB21A4B1A70194B1B78132B28D943
:1018C000164BD3ED037AFDEEE76A164BD3ED007AA3
:1018D0009FED157A67EE877AFDEEE77A0F4B93F866
:1018E000603007F14800009317EE903A16EE902A08
:1018F0000E4912F057FBC7F8CC00D7F8CC309AB29B
:1019000007F148010A230A480CF0F6FD044B0022B7
:101910001A7032200FF0A6F93AE600BF60010024E9
:101920005C0100245001002400007A442C56010878
:10193000EC04002480B500AF01F058FB00F078F80B
:1019400000F062FB00F038FB00F0B8FA00F002FB98
:1019500000F0B2F900F0F0F900F062F900F02CFAB2
:1019600000F0E4F8FFF7E6F90FF0A0F81C480FF0DC
:1019700094F903461B4A13601B4A00211B480FF0D1
:10198000DFF803461A4A13601A4A00211A480FF07A
:10199000D7F80346194A1360194A002119480FF075
:1019A000CFF80346184A1360184A002118480FF070
:1019B000C7F80346174A1360174A002117480FF06B
:1019C000BFF80346164A1360164A002116480FF066
:1019D000B7F80346154A13600FF08CF8FEE700BF16
:1019E000F0580108F40A00241858010821110008D1
:1019F000DC0A00243C58010889110008E00A002490
:101A0000605801088D120008E40A00248458010877
:101A1000B9120008E80A0024A8580108E9140008CF
:101A2000EC0A0024CC5801083D150008F00A0024F7
:101A300080B59CB000AF07F124034C22002118466A
:101A400012F013FB3B1D20220021184612F00DFB63
:101A5000042007F009FD00233B60324BDB6A314A6A
:101A600023F00103D3622F4BDB6A03F001033B60D9
:101A70002D4B9B6923F440432B4A43F480439361ED
:101A8000294B9B6903F440433B603B6800BF264BF6
:101A90009B6903F40053B3F5005FF8D101237B6227
:101AA0004FF4A023BB620223BB640223FB64012327
:101AB0003B6512237B650223BB650223FB65022382
:101AC0003B660C237B660223BB664FF4C053FB6668
:101AD00007F12403184607F031FD0346002B01D01F
:101AE00000F0A2FB3F237B600323BB600023FB606D
:101AF00000233B6140237B614023BB614FF4806343
:101B0000FB6140233B623B1D0121184608F070F940
:101B10000346002B01D000F087FB00BF7037BD46A5
:101B200080BD00BF000400580048025880B58AB04C
:101B300000AF07F11C0300221A605A609A603B460E
:101B400000221A605A609A60DA601A615A619A61DA
:101B5000304B314A1A602F4B4FF420125A602D4BF4
:101B600000229A602B4B0022DA602A4B04221A6171
:101B7000284B00221A75274B01225A75254B01224A
:101B80009A61244B00221A77224B00225A62214B81
:101B900000229A621F4B0322DA621E4B00221A6354
:101BA0001C4B00225A631B4B002283F83820194833
:101BB00001F0A4FC0346002B01D000F035FB00230C
:101BC000FB6107F11C031946124802F0C7FC0346EB
:101BD000002B01D000F028FB104B3B6006237B60FC
:101BE0000723BB6040F2FF73FB6004233B610023CB
:101BF0007B6100237B763B461946064801F002FFD5
:101C00000346002B01D000F00FFB00BF2837BD4674
:101C100080BD00BF6C020024002002400080F03E26
:101C200080B500AF1E4B1F4A1A601F4B00221A706E
:101C30001D4B80225A701C4BE1229A701A4B0022D5
:101C4000DA70194B00221A71174B00225A71144B8B
:101C5000154A5A60124B01221A72114B134ADA606C
:101C60000F4B134A1A610E4B40F2F4525A610C4862
:101C700005F08AFC0346002B01D000F0D5FA38228B
:101C800000210C4812F0F1F90A4B21221A60094B8D
:101C90004FF440325A61074B00221A6100BF80BDE9
:101CA0004803002400800240F80A0024D0000024E9
:101CB000700000243402002480B500AF1B4B1C4A86
:101CC0001A601A4B1B4A5A60184B00229A60174B35
:101CD0000122DA60154B00221A61144B00225A616E
:101CE000124B00229A61114B0022DA610F4B002245
:101CF0001A620E4806F060FA0346002B01D000F08D
:101D000093FA0021094807F0E7F90346002B01D0B8
:101D100000F08AFA0021054807F029FA0346002B53
:101D200001D000F081FA00BF80BD00BFF80300249D
:101D300000540040CE9F900080B500AF1B4B1C4A62
:101D40001A601A4B1B4A5A60184B00229A60174BB4
:101D50000122DA60154B00221A61144B00225A61ED
:101D6000124B00229A61114B0022DA610F4B0022C4
:101D70001A620E4806F020FA0346002B01D000F04C
:101D800053FA0021094807F0A7F90346002B01D0B8
:101D900000F04AFA0021054807F0E9F90346002B54
:101DA00001D000F041FA00BF80BD00BF4C04002408
:101DB00000580040CE9F900080B58EB000AF07F174
:101DC000280300221A605A609A60DA6007F11C0347
:101DD00000221A605A609A603B4600221A605A60DC
:101DE0009A60DA601A615A619A61324B324A1A601B
:101DF000304B00225A602F4B00229A602D4B4FF639
:101E0000FF72DA602B4B00221A612A4B00229A6182
:101E100028480BF0B9F80346002B01D000F004FA73
:101E20004FF48053BB6207F12803194621480BF099
:101E300007FD0346002B01D000F0F6F91D480BF01A
:101E400073F90346002B01D000F0EEF90023FB618B
:101E500000237B6207F11C03194616480CF050FA68
:101E60000346002B01D000F0DFF960233B60002324
:101E70007B600023BB6000233B613B460022194688
:101E80000C480BF0C9FB0346002B01D000F0CCF945
:101E90003B460422194607480BF0BEFB0346002BC5
:101EA00001D000F0C1F9034800F096FD00BF3837BB
:101EB000BD4680BDA00400240004004080B500AFF2
:101EC000224B234A1A60214B4FF4E1325A601F4BD8
:101ED00000229A601D4B0022DA601C4B00221A611E
:101EE0001A4B0C225A61194B00229A61174B00229F
:101EF000DA61164B00221A62144B00225A62134B0D
:101F000000229A6211480CF0A7FA0346002B01D078
:101F100000F08AF900210D480EF0B1F90346002BBC
:101F200001D000F081F9002108480EF0E6F90346DF
:101F3000002B01D000F078F904480EF067F9034651
:101F4000002B01D000F070F900BF80BDEC0400242C
:101F50000048004080B500AF154B164A1A60144B7C
:101F600009221A71124B0222DA71114B00229A7166
:101F70000F4B02225A720E4B00229A720C4B002217
:101F8000DA720B4B00221A73094B01225A73084B69
:101F900001229A73064B0022DA73054807F033F9E1
:101FA0000346002B01D000F03FF900BF80BD00BF09
:101FB000F80500240000084080B582B000AF114B46
:101FC000D3F8D8300F4A43F00103C2F8D8300D4B94
:101FD000D3F8D83003F001037B607B680022052131
:101FE0000B2002F068FC0B2002F07FFC0022052190
:101FF0000C2002F060FC0C2002F077FC00BF0837D8
:10200000BD4680BD0044025880B58CB000AF07F1DA
:102010001C0300221A605A609A60DA601A61514B00
:10202000D3F8E0304F4A43F00403C2F8E0304D4BA0
:10203000D3F8E03003F00403BB61BB69494BD3F82C
:10204000E030484A43F08003C2F8E030454BD3F813
:10205000E03003F080037B617B69424BD3F8E030D2
:10206000404A43F00103C2F8E0303E4BD3F8E03081
:1020700003F001033B613B693A4BD3F8E030394A46
:1020800043F00203C2F8E030364BD3F8E03003F0FF
:102090000203FB60FB68334BD3F8E030314A43F076
:1020A0000803C2F8E0302F4BD3F8E03003F0080308
:1020B000BB60BB682B4BD3F8E0302A4A43F04003A7
:1020C000C2F8E030274BD3F8E03003F040037B60E8
:1020D0007B68244BD3F8E030224A43F01003C2F867
:1020E000E030204BD3F8E03003F010033B603B6856
:1020F000002244F201011C4806F02AF800220221C5
:102100001A4806F025F84FF40053FB6100233B62A8
:1021100000237B6207F11C031946154805F068FE91
:1021200044F20103FB6101233B6200237B62002335
:10213000BB6207F11C0319460B4805F059FE022348
:10214000FB6101233B6200237B620023BB6207F13A
:102150001C031946054805F04BFE00BF3037BD464D
:1021600080BD00BF0044025800040258001002580D
:102170000008025880B582B000AF0346FB71FB79BE
:102180001946064811F0FCFEFB79012B01D102F043
:10219000BAFB00BF0837BD4680BD00BFA05601088E
:1021A00080B582B000AF0346FB71FB79642B09D880
:1021B000094AFB7982F8CC30FB791946074811F0BF
:1021C000DFFE04E0FB791946054811F0D9FE00BF97
:1021D0000837BD4680BD00BF60010024D456010809
:1021E0000857010880B582B000AF0346FB71FB7948
:1021F0001946034811F0C4FE00BF0837BD4680BD34
:102200004457010880B582B000AF78607B681B68D6
:10221000044A934201D100F025FF00BF0837BD46B4
:1022200080BD00BF0000014080B400AF72B600BFA7
:10223000FEE7000080B582B000AF786039603B688F
:10224000002B01D1012329E01648FEF7B5FA786882
:1022500000F030F80346002B0DD13B68012283F8D3
:1022600024201148FEF7A8FA012201210F4805F0A9
:102270006FFF002312E03B68002283F824203B68B4
:102280009B6A5A1C3B689A620948FEF795FA01223C
:102290004FF48041054805F05BFF012318460837DD
:1022A000BD4680BD705701089857010800040258C8
:1022B000B457010880B588B004AF786064230293F6
:1022C0000123019307F10E03009301237522D0210E
:1022D000786806F039FA0346FB73FB7B002B01D0CC
:1022E00001235CE0BB7B682B02D0BB7B702B55D1FC
:1022F00000237B73642302930123019307F10D03F1
:10230000009301236B22D021786806F009F9034677
:10231000FB73FB7B002B01D0012340E00A2000F07F
:10232000C1FE03237B73642302930123019307F10E
:102330000D03009301231A22D021786806F0F0F8EB
:1023400000237B73642302930123019307F10D03A0
:10235000009301231C22D021786806F0E1F803469F
:10236000FB73FB7B002B01D0012318E000237B7360
:10237000642302930123019307F10D0300930123CA
:102380001B22D021786806F0CBF80346FB73FB7B59
:10239000002B01D0012302E0002300E001231846B6
:1023A0001037BD4680BD000080B58AB004AF7860AC
:1023B0003960642302930E23019307F1080300930D
:1023C00001233B22D021786806F0BEF90346002B9A
:1023D00040F086803B7A1B021AB27B7A1BB2134311
:1023E0001BB207EE903AB8EEE77ADFED406AC7EE2F
:1023F000267A3B68C3ED007ABB7A1B021AB2FB7ADD
:102400001BB213431BB207EE903AB8EEE77ADFED4A
:10241000376AC7EE267A3B68C3ED017A3B7B1B0225
:102420001AB27B7B1BB213431BB207EE903AB8EE95
:10243000E77ADFED2E6AC7EE267A3B68C3ED027AB3
:10244000BB7B1B021AB2FB7B1BB21343FB82B7F9A7
:10245000163007EE903AB8EEE77ADFED256AC7EE60
:10246000267A9FED247A77EE877A3B68C3ED067A69
:102470003B7C1B021AB27B7C1BB213431BB207EEE0
:10248000903AB8EEE77ADFED1C6AC7EE267A3B6831
:10249000C3ED037ABB7C1B021AB2FB7C1BB2134355
:1024A0001BB207EE903AB8EEE77ADFED136AC7EE9B
:1024B000267A3B68C3ED047A3B7D1B021AB27B7D12
:1024C0001BB213431BB207EE903AB8EEE77ADFED8A
:1024D0000A6AC7EE267A3B68C3ED057A002300E05E
:1024E000012318461837BD4680BD00BF0000804656
:1024F0000000AA43B81E12420000034380B582B018
:1025000000AF0C4BD3F8F4300A4A43F00203C2F890
:10251000F430084BD3F8F43003F002037B607B689F
:1025200000220F216FF0010002F0C5F900BF08374B
:10253000BD4680BD0044025880B5BAB000AF786097
:1025400007F1D40300221A605A609A60DA601A61B7
:1025500007F11003C0220021184611F086FD7B68A8
:102560001B68444A934240F081804FF400224FF0B0
:102570000003C7E904230123BB611223FB6102238B
:102580003B6202237B620223BB62C023FB622023E7
:102590003B634FF4C0537B630023C7F8B43007F1AB
:1025A0001003184607F0F2FF0346002B01D0FFF797
:1025B0003BFE314BD3F8D8302F4A43F02003C2F80A
:1025C000D8302D4BD3F8D83003F02003FB60FB68E4
:1025D000294BD3F8E030284A43F00103C2F8E03039
:1025E000254BD3F8E03003F00103BB60BB68082340
:1025F000C7F8D4300323C7F8D8300023C7F8DC303D
:1026000007F1D40319461D4805F0F2FB1C4B1D4A87
:102610001A601B4B09225A60194B00229A60184B12
:102620000022DA60164B4FF480621A61144B4FF4AB
:1026300000625A61124B4FF400529A61104B4FF4F2
:102640008072DA610E4B00221A620D4B00225A6230
:102650000B4802F05DF90346002B01D0FFF7E4FDC3
:102660007B68074ADA64064A7B68936300BFE837F1
:10267000BD4680BD002002400044025800000258C0
:10268000D00200242800024080B58EB000AF7860F0
:1026900007F1240300221A605A609A60DA601A6116
:1026A0007B681B68594A934240F0AB80584BD3F883
:1026B000D830574A43F40043C2F8D830544BD3F8CB
:1026C000D83003F400433B623B6A514BD3F8D83017
:1026D0004F4A43F48033C2F8D8304D4BD3F8D8304A
:1026E00003F48033FB61FB69494BD3F8D830484A87
:1026F00043F40033C2F8D830454BD3F8D83003F454
:102700000033BB61BB69424BD3F8E030404A43F031
:102710000403C2F8E0303E4BD3F8E03003F004038A
:102720007B617B693A4BD3F8E030394A43F00103CF
:10273000C2F8E030364BD3F8E03003F001033B61E0
:102740003B69334BD3F8E030314A43F00203C2F81F
:10275000E0302F4BD3F8E03003F00203FB60FB685E
:102760002B4BD3F8E0302A4A43F04003C2F8E03064
:10277000274BD3F8E03003F04003BB60BB68322343
:102780007B620223BB620023FB6200233B630B23BB
:102790007B6307F1240319461E4805F029FB8623B5
:1027A0007B620223BB620023FB6200233B630B239B
:1027B0007B6307F124031946174805F019FB4FF412
:1027C00000537B620223BB620023FB6200233B6356
:1027D0000B237B6307F124031946104805F008FB1F
:1027E0004FF420537B620223BB620023FB62002371
:1027F0003B630B237B6307F124031946084805F06C
:10280000F7FA00BF3837BD4680BD00BF00800240E8
:102810000044025800080258000002580004025800
:102820000018025880B5BCB000AF786007F1DC0337
:1028300000221A605A609A60DA601A6107F1180380
:10284000C0220021184611F010FC7B681B684D4A1D
:10285000934247D14FF008024FF00003C7E9062327
:102860000023C7F89C3007F11803184607F08EFEC6
:102870000346002B01D0FFF7D7FC434BD3F8E030E1
:10288000414A43F00203C2F8E0303F4BD3F8E03056
:1028900003F002037B617B694FF44073C7F8DC30BF
:1028A0001223C7F8E0300023C7F8E4300023C7F84C
:1028B000E8300423C7F8EC3007F1DC03194633484D
:1028C00005F096FA304BD3F8E8302F4A43F4001362
:1028D000C2F8E8302C4BD3F8E83003F400133B6126
:1028E0003B694BE07B681B68294A934246D14FF015
:1028F00008024FF00003C7E906230023C7F89C3005
:1029000007F11803184607F041FE0346002B01D0DB
:10291000FFF78AFC1C4BD3F8E0301B4A43F002035C
:10292000C2F8E030184BD3F8E03003F00203FB604C
:10293000FB684FF44063C7F8DC301223C7F8E0307F
:102940000023C7F8E4300023C7F8E8300423C7F8B1
:10295000EC3007F1DC0319460C4805F049FA0A4B44
:10296000D3F8E830084A43F48003C2F8E830064B55
:10297000D3F8E83003F48003BB60BB6800BFF037D6
:10298000BD4680BD00540040004402580004025877
:102990000058004080B485B000AF78607B681B6849
:1029A0000B4A93420ED10B4BD3F8E830094A43F05F
:1029B0000203C2F8E830074BD3F8E83003F0020313
:1029C000FB60FB6800BF1437BD465DF8047B7047B1
:1029D000000400400044025880B58AB000AF78601F
:1029E00007F1140300221A605A609A60DA601A61D3
:1029F0007B681B68224A93423DD1224BD3F8E030DA
:102A0000204A43F00403C2F8E0301E4BD3F8E03014
:102A100003F004033B613B691A4BD3F8E030194AD9
:102A200043F00203C2F8E030164BD3F8E03003F075
:102A30000203FB60FB6880237B610223BB610023F0
:102A4000FB6100233B6202237B6207F114031946FA
:102A50000D4805F0CDF910237B610223BB610023F3
:102A6000FB6100233B6202237B6207F114031946DA
:102A7000064805F0BDF900BF2837BD4680BD00BF40
:102A800000040040004402580008025800040258A4
:102A900080B5BAB000AF786007F1D40300221A60A5
:102AA0005A609A60DA601A6107F11003C0220021AF
:102AB000184611F0DAFA7B681B68424A93427DD1CE
:102AC0004FF002024FF00003C7E904230023C7F8C8
:102AD000883007F11003184607F058FD0346002B15
:102AE00001D0FFF7A1FB384BD3F8E830364A43F466
:102AF0008023C2F8E830344BD3F8E83003F4802365
:102B0000FB60FB68304BD3F8E0302F4A43F00803FA
:102B1000C2F8E0302C4BD3F8E03003F00803BB6080
:102B2000BB684FF44073C7F8D4300223C7F8D830DD
:102B30000023C7F8DC300023C7F8E0300723C7F8CC
:102B4000E43007F1D4031946204805F051F9204B31
:102B5000204A1A601E4B2D225A601D4B00229A609B
:102B60001B4B0022DA601A4B4FF480621A61184B3B
:102B700000225A61164B00229A61154B4FF4807265
:102B8000DA61134B00221A62114B00225A6210487C
:102B900001F0BEFE0346002B01D0FFF745FB7B682A
:102BA0000B4AC3F880200A4A7B6893630022052100
:102BB000272001F080FE272001F097FE00BFE837B4
:102BC000BD4680BD0048004000440258000C025839
:102BD000800500241000024080B5BAB000AF7860D4
:102BE00007F1D40300221A605A609A60DA601A6111
:102BF00007F11003C0220021184611F036FA7B6855
:102C00001B68384A934269D14FF480224FF0000389
:102C1000C7E904230123BB631223FB6302233B6444
:102C200003237B640223BB644FF44063FB644FF4D3
:102C3000C0537B654FF40013C7F8983007F11003B9
:102C4000184607F0A3FC0346002B01D0FFF7ECFA6F
:102C500006F064FC244BD3F8E030234A43F0010330
:102C6000C2F8E030204BD3F8E03003F00103FB6002
:102C7000FB684FF4C853C7F8D4300223C7F8D830E4
:102C80000023C7F8DC300023C7F8E0300A23C7F878
:102C9000E43007F1D4031946144805F0A9F84FF4BD
:102CA0000073C7F8D4300023C7F8D8300023C7F822
:102CB000DC3007F1D40319460C4805F099F80A4BAB
:102CC000D3F8D830084A43F00063C2F8D830064B36
:102CD000D3F8D83003F00063BB60BB6800BFE837AF
:102CE000BD4680BD00000840004402580000025864
:102CF00080B58EB000AF78607B680F2B44D800227F
:102D00007968192001F0D7FD192001F0EEFD244A61
:102D10007B681360234BD3F8F030224A43F0010361
:102D2000C2F8F0301F4BD3F8F03003F00103BB6062
:102D3000BB6807F10C0207F110031146184607F0B3
:102D4000E3FB07F0CBFB03465B007B637B6B164A20
:102D5000A2FB03239B0C013B3B63144B144A1A60F8
:102D6000124B40F2E732DA60104A3B6B53600F4B74
:102D700000221A610D4B00229A600C480AF004F9F7
:102D80000346002B07D101E0012305E007480AF0C4
:102D900053F9034600E0012318463837BD4680BD8D
:102DA000080000240044025883DE1B43000B00246B
:102DB0000000014080B400AFFEE780B400AFFEE742
:102DC00080B400AFFEE780B400AFFEE780B400AF90
:102DD000FEE780B400AF00BFBD465DF8047B7047DE
:102DE00080B500AF024803F0BDF800BF80BD00BF52
:102DF0008005002480B500AF024803F0B3F800BF9F
:102E000080BD00BFD002002480B500AF02480AF0A8
:102E1000FBFA00BF80BD00BF000B002480B500AFEF
:102E2000094B1B68DB6903F01003102B07D1064B1D
:102E30001B6810221A62054B012283F8BC2002484D
:102E40000BF034FC00BF80BDEC04002460010024C2
:102E500080B586B000AFF860B9607A6000237B610E
:102E60000AE0AFF300800146BB685A1CBA60CAB2E0
:102E70001A707B6901337B617A697B689A42F0DB67
:102E80007B6818461837BD4680BD80B586B000AF58
:102E9000F860B9607A6000237B6109E0BB685A1C66
:102EA000BA601B781846AFF300807B6901337B6101
:102EB0007A697B689A42F1DB7B6818461837BD4611
:102EC00080BD80B483B000AF78604FF0FF33184608
:102ED0000C37BD465DF8047B704780B483B000AF0B
:102EE000786039603B684FF400525A6000231846FE
:102EF0000C37BD465DF8047B704780B483B000AFEB
:102F00007860012318460C37BD465DF8047B704796
:102F100080B485B000AFF860B9607A6000231846CD
:102F20001437BD465DF8047B7047000080B586B05D
:102F300000AF7860144A154BD31A7B617B693B6103
:102F4000134B1B68002B02D1114B124A1A60104B15
:102F50001A687B6813443A699A4207D211F02AF939
:102F600003460C221A604FF0FF3309E0084B1B6840
:102F7000FB60074B1A687B681344054A1360FB68C3
:102F800018461837BD4680BD000008240004000024
:102F90004C0B002488560024DFF834D0FDF776FB74
:102FA0000C480D490D4A002302E0D458C4500433A4
:102FB000C4188C42F9D30A4A0A4C002301E013607A
:102FC0000432A242FBD311F0FBF8FEF7B3FC7047CA
:102FD0000000082400000024700000247459010837
:102FE0003001002488560024FEE7000080B582B03E
:102FF00000AF032001F054FC07F0B0F80246154B77
:103000009B691B0A03F00F031349CB5C03F01F03FA
:1030100022FA03F37B600F4B9B6903F00F030E4A08
:10302000D35C03F01F037A6822FA03F30B4A1360A0
:103030000B4A7B6813600F20FFF75AFE0346002BF4
:1030400001D0012302E0FFF759FA002318460837A0
:10305000BD4680BD00440258E45701080400002426
:103060000000002480B400AF064B1B781A46064BC4
:103070001B681344044A136000BFBD465DF8047B1F
:10308000704700BF0C000024500B002480B400AF38
:10309000034B1B681846BD465DF8047B704700BFB4
:1030A000500B002480B584B000AF7860FFF7EEFFCE
:1030B000B8607B68FB60FB68B3F1FF3F05D00A4B4B
:1030C0001B781A46FB681344FB6000BFFFF7DEFF66
:1030D0000246BB68D31AFA689A42F7D800BF00BF0D
:1030E0001037BD4680BD00BF0C00002480B400AF87
:1030F000034B1B681B0C1846BD465DF8047B7047EC
:103100000010005C80B483B000AF7860064B5B6851
:1031100023F4600204497B6813434B6000BF0C3703
:10312000BD465DF8047B70470004005880B483B04E
:1031300000AF786039607B689B6823F47C123B6841
:103140001A437B689A6000BF0C37BD465DF8047B6C
:10315000704780B483B000AF786039607B689B684B
:1031600023F0E0723B681A437B689A6000BF0C371B
:10317000BD465DF8047B704780B483B000AF7860D3
:103180007B689B6803F0E07318460C37BD465DF81A
:10319000047B704780B487B000AFF860B9607A6094
:1031A0003B60FB6860331A46BB689B0013447B613D
:1031B0007B691B6803F000427B6803F0F8413B68C1
:1031C0000B431A437B691A6000BF1C37BD465DF88C
:1031D000047B704780B485B000AFF860B9607A6056
:1031E000FB681B6923F4F042BB6803F01F03796896
:1031F00001FA03F31A43FB681A6100BF1437BD4696
:103200005DF8047B704780B487B000AFF860B960A8
:103210007A60FB6860331A46BB689B0013447B618D
:103220007B691B6823F000427B681A437B691A6044
:1032300000BF1C37BD465DF8047B704780B483B087
:1032400000AF78607B68DB6803F44063002B01D13A
:10325000012300E0002318460C37BD465DF8047BCF
:10326000704780B487B000AFF860B9607A60FB68DF
:1032700030331A46BB681B0A9B0003F00C0313444F
:103280007B617B691A68BB6803F01F031F2101FA89
:1032900003F3DB431A407B689B0E03F01F01BB68FE
:1032A00003F01F0301FA03F31A437B691A6000BF9E
:1032B0001C37BD465DF8047B704780B483B000AF17
:1032C000786039607B68DB6823F003023B681A434F
:1032D0007B68DA6000BF0C37BD465DF8047B704741
:1032E00080B487B000AFF860B9607A60FB681433CF
:1032F0001A46BB685B0E9B0003F0040313447B611A
:103300007B691A68BB681B0D03F01F03072101FAD4
:1033100003F3DB431A40BB681B0D03F01F037968FE
:1033200001FA03F31A437B691A6000BF1C37BD46DC
:103330005DF8047B7047000080B485B000AFF86092
:10334000B9607A60FB68D3F8C020BB68C3F313038D
:10335000DB431A407B6803F018030849D940BB6877
:103360000B40C3F313031A43FB68C3F8C02000BF2C
:103370001437BD465DF8047B704700BFFFFF0F00A8
:1033800080B483B000AF78607B689B6803F01F0354
:1033900018460C37BD465DF8047B704780B483B097
:1033A00000AF78607B689A68044B13407A6893603A
:1033B00000BF0C37BD465DF8047B7047C0FFFF5F60
:1033C00080B483B000AF78607B689B6803F00053E3
:1033D000B3F1005F01D1012300E0002318460C3750
:1033E000BD465DF8047B704780B483B000AF786061
:1033F0007B689A68054B134043F080527B689A6063
:1034000000BF0C37BD465DF8047B7047C0FFFF6FFF
:1034100080B483B000AF78607B689B6803F0805312
:10342000B3F1805F01D1012300E0002318460C377F
:10343000BD465DF8047B704780B483B000AF786010
:103440007B689A68054B134043F001027B689A60E1
:1034500000BF0C37BD465DF8047B7047C0FFFF7F9F
:1034600080B483B000AF78607B689B6803F0010391
:10347000012B01D1012300E0002318460C37BD4683
:103480005DF8047B7047000080B483B000AF7860C3
:103490007B689A68054B134043F004027B689A608E
:1034A00000BF0C37BD465DF8047B7047C0FFFF7F4F
:1034B00080B483B000AF78607B689B6803F004033E
:1034C000042B01D1012300E0002318460C37BD4630
:1034D0005DF8047B704780B483B000AF78607B6890
:1034E0009B6803F00803082B01D1012300E00023AF
:1034F00018460C37BD465DF8047B704790B589B01F
:1035000000AF78600023FB770023BB607B68002B53
:1035100001D101238FE17B68DB68002B7B685B6D49
:10352000002B09D17868FFF707F87B6800229A65BD
:103530007B68002283F850207B681B681846FFF7E1
:103540003FFF0346002B04D07B681B681846FFF73B
:1035500025FF7B681B681846FFF75AFF0346002BC0
:1035600014D17B681B681846FFF73EFF874B1B682A
:103570009B09874AA2FB03239B090133BB6002E03E
:10358000BB68013BBB60BB68002BF9D17B681B6843
:103590001846FFF73DFF0346002B0DD17B685B6D9E
:1035A00043F010027B685A657B689B6D43F0010213
:1035B0007B689A650123FB777B681B681846FFF7D9
:1035C00077FF78617B685B6D03F01003002B40F0A0
:1035D00029817B69002B40F025817B685B6D23F49A
:1035E000817343F002027B685A657B681B6818464A
:1035F000FFF736FF0346002B36D17B681B68654A10
:10360000934204D07B681B68634A93420ED16148A1
:10361000FFF726FF04466048FFF722FF03462343D7
:10362000002B0CBF01230023DBB208E05B48FFF74F
:1036300017FF0346002B0CBF01230023DBB2002B36
:1036400012D07B681B68534A934204D07B681B6886
:10365000514A934201D1524A00E0524A7B685B686A
:1036600019461046FFF762FDFFF740FD034641F2A1
:103670000302934214D97B689B68102B10D17B689E
:103680005B7D5A037B681B6B1A437B689B681A43FC
:103690007B681B7F1B04134343F00C03BB610DE0ED
:1036A0007B685B7D5A037B681B6B1A437B689B6856
:1036B0001A437B681B7F1B041343BB617B681B7F22
:1036C000012B06D17B681B6A013B5B04BA6913437B
:1036D000BB617B685B6A002B09D07B685B6A03F483
:1036E00078727B689B6A1343BA691343BB617B683A
:1036F0001B68DA682C4B13407A681268B9690B436F
:10370000D3607B681B681846FFF7D2FE38617B6880
:103710001B681846FFF7DFFEF8603B69002B5FD19E
:10372000FB68002B5CD17B681B7D9A037B68DB6A9E
:103730001343BB617B681B68DA681C4B13407A68D3
:103740001268B9690B43D3607B6893F83830012B5A
:1037500030D17B685B6A002B7B681B681A69144B4D
:1037600013407A68D26B013A11047A68126C1143E3
:103770007A68526C11437A68926C0A431A437B68E8
:103780001B6842F001021A611CE000BF0000002427
:10379000632D3E05002002400021024000600258D7
:1037A000002302400063025803C0F0FFFCBFFFFF8C
:1037B0001EF800FC7B681B681A697B681B6822F096
:1037C00001021A617B681B681B6923F070417B68EA
:1037D0005A6B7B681B680A431A61786800F08CFD9D
:1037E0007B68DB68012B0CD17B681B681B6B23F0AB
:1037F0000F017B689B695A1E7B681B680A431A632A
:1038000007E07B681B681A6B7B681B6822F00F025D
:103810001A637B685B6D23F0030343F001027B684E
:103820005A6507E07B685B6D43F010027B685A6560
:103830000123FB77FB7F18462437BD4690BD00BFB0
:1038400080B586B000AFF860B9607A60FB681B682D
:10385000554A934204D0FB681B68544A934201D1F5
:10386000534B00E0534B1846FFF78AFD3861FB6865
:103870001B681846FFF71CFE0346002B40F08C80A7
:10388000FB6893F85030012B01D1022387E0FB68DD
:10389000012283F850203B69002B05D03B69052BA2
:1038A00002D03B69092B70D1F86800F007FC034691
:1038B000FB75FB7D002B63D1FB685A6D3E4B1340BB
:1038C00043F48072FB685A65FB681B68374A934271
:1038D00002D0FB681B6800E0334BFA681268934221
:1038E00002D03B69002B05D1FB685B6D23F480128D
:1038F000FB685A65FB685B6D03F48053002B06D0B0
:10390000FB689B6D23F00602FB689A6502E0FB688A
:1039100000229A65FB68DB6C284ADA63FB68DB6C83
:10392000274A1A64FB68DB6C264ADA64FB681B686A
:103930001C221A60FB68002283F85020FB681B6879
:103940005A68FB681B6842F010025A60FB681A68EC
:10395000FB68DB6A19461046FFF7AFFCFB68D86CC2
:10396000FB681B6840331946BA687B6801F02CFB82
:103970000346FB75FB681B681846FFF785FD0DE0E5
:10398000FB68002283F8502008E00123FB75FB68E8
:10399000002283F8502001E00223FB75FB7D1846CE
:1039A0001837BD4680BD00BF002002400021024004
:1039B0000023024000630258FEF0FFFFD1410008DF
:1039C000A9420008C542000880B483B000AF786007
:1039D00000BF0C37BD465DF8047B704780B483B0F0
:1039E00000AF786000BF0C37BD465DF8047B7047C0
:1039F00080B483B000AF786000BF0C37BD465DF87F
:103A0000047B704790B5A1B000AF786039600023A7
:103A100087F87F300023BB603B68DB68654A9342D0
:103A20007B6893F85030012B01D102232EE37B6891
:103A3000012283F850207B681B681846FFF738FD89
:103A40000346002B40F013833B681B68002B2CDBE4
:103A50003B681B68C3F31303002B08D13B681B684A
:103A60009B0E03F01F03012202FA03F316E03B68EA
:103A70001B687B667B6E93FAA3F33B663B6EBB666B
:103A8000BB6E002B01D1202303E0BB6EB3FA83F39E
:103A9000DBB203F01F03012202FA03F37A68126813
:103AA000D1697A6812680B43D3617B6818683B68F8
:103AB00059683B681B681A46FFF7D3FB7B681B6895
:103AC0001846FFF7F5FCB8677B681B681846FFF7D8
:103AD00002FD7867BB6F002B40F0B8807B6F002B36
:103AE00040F0B4807B6818683B6819683B689B6845
:103AF0001A46FFF7F5FB304B1B6803F07043B3F138
:103B0000805F0BD13B685A697B681B68DB689B0848
:103B100003F007035B0002FA03F31DE07B681B68F8
:103B2000DB6803F01003002B0BD13B685A697B68FC
:103B30001B68DB689B0803F007035B0002FA03F3D2
:103B40000AE03B685A697B681B68DB689B0803F0E6
:103B500004035B0002FA03F33B673B681B69042B19
:103B60002CD07B6818683B6819693B681A683B6F02
:103B7000FFF710FB7B6818683B6819693B685B7E40
:103B8000012B02D14FF0004300E000231A46FFF75B
:103B90003AFB7B6818683B6819693B681B7E012B00
:103BA00002D14FF4006300E000231A46FFF712FB36
:103BB0004CE000BF0000FF470010005C7B681B6802
:103BC0001B6E03F0F8423B681B689B069A4207D1C4
:103BD0007B681B681A6E7B681B6822F000421A66BD
:103BE0007B681B685B6E03F0F8423B681B689B06B2
:103BF0009A4207D17B681B685A6E7B681B6822F06B
:103C000000425A667B681B689B6E03F0F8423B6873
:103C10001B689B069A4207D17B681B689A6E7B687B
:103C20001B6822F000429A667B681B68DB6E03F01B
:103C3000F8423B681B689B069A4207D17B681B6869
:103C4000DA6E7B681B6822F00042DA667B681B68CC
:103C50001846FFF705FC0346002B40F011827B68F5
:103C600018683B6819683B68DB681A46FFF764FB15
:103C70003B68DB68A14A934240F02E817B6818685C
:103C80003B681B68C3F31303002B0BD13B681B6815
:103C90009B0E013303F01F03092B94BF0123002364
:103CA000DBB219E03B681B68BB65BB6D93FAA3F3FD
:103CB0007B657B6DFB65FB6D002B01D1202303E051
:103CC000FB6DB3FA83F3DBB2013303F01F03092B5F
:103CD00094BF01230023DBB2002B79D03B681B6823
:103CE000C3F31303002B07D13B681B689B0E013302
:103CF0009B0603F0F84215E03B681B68FB64FB6C15
:103D000093FAA3F3BB64BB6C3B653B6D002B01D105
:103D1000202303E03B6DB3FA83F3DBB201339B0650
:103D200003F0F8423B681B68C3F31303002B09D16F
:103D30003B681B689B0E013303F01F03012101FA4E
:103D400003F317E03B681B683B643B6C93FAA3F3F7
:103D5000FB63FB6B7B647B6C002B01D1202303E0B6
:103D60007B6CB3FA83F3DBB2013303F01F03012151
:103D700001FA03F342EA03013B681B68C3F3130330
:103D8000002B0AD13B681B689B0E013303F01F0216
:103D900013465B0013441B0518E03B681B687B63FC
:103DA0007B6B93FAA3F33B633B6BBB63BB6B002B57
:103DB00001D1202303E0BB6BB3FA83F3DBB2013301
:103DC00003F01F0213465B0013441B050B437EE008
:103DD0003B681B68C3F31303002B07D13B681B68C8
:103DE0009B0E01339B0603F0F84215E03B681B680D
:103DF000BB62BB6A93FAA3F37B627B6AFB62FB6ADA
:103E0000002B01D1202303E0FB6AB3FA83F3DBB27A
:103E100001339B0603F0F8423B681B68C3F31303AE
:103E2000002B09D13B681B689B0E013303F01F0375
:103E3000012101FA03F317E03B681B68FB61FB6992
:103E400093FAA3F3BB61BB693B623B6A002B01D1D0
:103E5000202303E03B6AB3FA83F3DBB2013303F0C0
:103E60001F03012101FA03F342EA03013B681B68C7
:103E7000C3F31303002B0DD13B681B689B0E01336A
:103E800003F01F0213465B0013441E3B1B0543F067
:103E900000731BE03B681B683B613B6993FAA3F32B
:103EA000FB60FB687B617B69002B01D1202303E071
:103EB0007B69B3FA83F3DBB2013303F01F021346CD
:103EC0005B0013441E3B1B0543F000730B433A6831
:103ED00092681946FFF704FA3B681B68002B80F2D2
:103EE000CF807B681B68064A934204D07B681B68BE
:103EF000044A93420AD1044B09E000BF0000FF4787
:103F0000002002400021024000230240614B18467D
:103F1000FFF732F9F8667B681B685F4A934204D06A
:103F20007B681B685D4A93420ED15B48FFF798FAA5
:103F300004465A48FFF794FA03462343002B0CBF6C
:103F400001230023DBB208E05548FFF789FA034656
:103F5000002B0CBF01230023DBB2002B7DD03B687C
:103F60001B68504A934230D1FB6E03F40003002BD0
:103F70002BD17B681B684A4A934240F081807B6862
:103F80001B68454A934204D07B681B68434A9342AE
:103F900001D1454A00E03F4AFB6E43F40003194655
:103FA0001046FFF7D6F8414B1B689B09404AA2FB1D
:103FB00003239B0901335B00BB6002E0BB68013B4C
:103FC000BB60BB68002BF9D15AE03B681B68394ADB
:103FD00093421ED1FB6E03F08073002B19D17B68D6
:103FE0001B682F4A93424BD17B681B682A4A934235
:103FF00004D07B681B68294A934201D12A4A00E019
:10400000244AFB6E43F0807319461046FFF7A1F86F
:1040100036E03B681B68284A934231D1FB6E03F4BB
:104020008003002B2CD17B681B681D4A934227D14B
:104030007B681B68184A934204D07B681B68174A48
:10404000934201D1184A00E0124AFB6E43F4800308
:1040500019461046FFF77DF812E07B685B6D43F070
:1040600020027B685A65012387F87F3008E07B686F
:104070005B6D43F020027B685A65012387F87F302F
:104080007B68002283F8502097F87F3018468437E9
:10409000BD4690BD0063025800200240002102404E
:1040A00000600258000084CB00230240000000247E
:1040B000632D3E05000052C70000B8CF80B584B024
:1040C00000AF78607B681B681846FFF7C9F90346A4
:1040D000002B6ED17B681B689A68384B1340002B0D
:1040E0000DD07B685B6D43F010027B685A657B687E
:1040F0009B6D43F001027B689A6501235AE07B685F
:104100001B681846FFF798F9FEF7C0FFF8607B6858
:104110001B682B4A934204D07B681B68294A934250
:1041200001D1294B00E0294B1846FFF729F9B86067
:104130007B681B68234A934202D07B681B6800E0BF
:104140001F4B7A68126893422CD0BB68002B30D189
:1041500028E07B681B681846FFF782F90346002BAE
:1041600004D17B681B681846FFF766F9FEF78EFFDF
:104170000246FB68D31A022B14D97B681B681B68A4
:1041800003F00103012B0DD07B685B6D43F010023F
:104190007B685A657B689B6D43F001027B689A657A
:1041A000012307E07B681B681B6803F00103012BF8
:1041B000CFD1002318461037BD4680BD3F00008098
:1041C0000020024000210240002302400063025808
:1041D00080B584B000AF78607B689B6BFB60FB6848
:1041E0005B6D03F05003002B4BD1FB685B6D43F418
:1041F0000072FB685A65FB681B681B6803F00803C4
:10420000002B21D0FB681B681846FFF717F8034600
:10421000002B32D0FB681B68DB6803F40053002BD3
:104220002BD1FB685B6D23F48072FB685A65FB68D9
:104230005B6D03F48053002B1FD1FB685B6D43F073
:104240000102FB685A6518E0FB681B68DB6803F035
:104250000303002B11D1FB685B6D23F48072FB68B4
:104260005A65FB685B6D03F48053002B05D1FB6836
:104270005B6D43F00102FB685A65F868FFF7A4FB29
:104280000EE0FB685B6D03F01003002B03D0F868B1
:10429000FFF7AEFB04E0FB68DB6CDB6C78689847EB
:1042A00000BF1037BD4680BD80B584B000AF7860D8
:1042B0007B689B6BFB60F868FFF790FB00BF1037D3
:1042C000BD4680BD80B584B000AF78607B689B6BD5
:1042D000FB60FB685B6D43F04002FB685A65FB685E
:1042E0009B6D43F00402FB689A65F868FFF780FB5A
:1042F00000BF1037BD4680BD80B584B000AF786088
:104300007B681B687A4A934204D07B681B68794AB1
:10431000934209D1784B9B6803F44033002B14BFC0
:1043200001230023DBB208E0744B9B6803F44033A5
:10433000002B14BF01230023DBB2002B1CD006F09E
:1043400087F8F8607B685B68B3F5403F10D0B3F541
:10435000403F73D8B3F5803F02D0B3F5003F6DD135
:104360007B685B681B0CFA68B2FBF3F3FB6068E0E8
:10437000FB689B08FB6064E04FF400204FF00001F5
:1043800007F00EFBF8607B685B68B3F5301F51D017
:10439000B3F5301F54D8B3F5201F47D0B3F5201F15
:1043A0004ED8B3F5101F3DD0B3F5101F48D8B3F564
:1043B000001F33D0B3F5001F42D8B3F5E01F29D05A
:1043C000B3F5E01F3CD8B3F5C01F1AD0B3F5C01F3A
:1043D00036D8B3F5A01F14D0B3F5A01F30D8B3F56D
:1043E000801F0ED0B3F5801F2AD8B3F5402F08D018
:1043F000B3F5402F24D8B3F5802F02D0B3F5002FAA
:104400001ED17B685B689B0C5B00FA68B2FBF3F320
:10441000FB6016E0FB681B09FB6012E0FB685B09B0
:10442000FB600EE0FB689B09FB600AE0FB68DB09B0
:10443000FB6006E0FB681B0AFB6002E000BF00E0D7
:1044400000BFFEF753FE034641F20302934215D824
:10445000FB682B4A934208D97B681B689A687B6883
:104460001B6842F480729A603EE07B681B689A6821
:104470007B681B6822F480729A6035E0FB685B08F9
:10448000FB60FB681F4A934208D87B681B689A68E8
:104490007B681B6822F440729A6025E0FB681A4A28
:1044A00093420AD87B681B689B6823F440727B6840
:1044B0001B6842F480729A6016E0FB68134A9342CC
:1044C0000AD87B681B689B6823F440727B681B6872
:1044D00042F400729A6007E07B681B689A687B6808
:1044E0001B6842F440729A6000BF1037BD4680BD21
:1044F00000200240002102400023024000630258D5
:10450000002D3101105E5F0020BCBE0040787D01AF
:1045100080B483B000AF78607B689B6803F00103D0
:10452000012B01D1012300E0002318460C37BD46C2
:104530005DF8047B704780B483B000AF78607B681F
:104540009B6803F00403042B01D1012300E0002346
:1045500018460C37BD465DF8047B704790B59FB098
:1045600000AF78603960002387F877307B6893F874
:104570005030012B01D10223BEE07B68012283F879
:1045800050200023FB6500233B667B681B685C4A68
:10459000934202D15B4BBB6001E00023BB60BB6870
:1045A000002B0BD17B685B6D43F020027B685A6562
:1045B0007B68002283F8502001239DE0BB681846E9
:1045C000FFF7B9FF38677B681B681846FFF7B3FF32
:1045D0000346002B7FD13B6F002B7CD17B681B688F
:1045E000474A934204D07B681B68464A934201D1F4
:1045F000454B00E0454BFB663B681B68002B39D000
:10460000FB6E9B6823F440423B685B681A43FB6E79
:104610009A607B681B683A4A934204D07B681B68A7
:10462000384A93420ED13648FFF772FF04463548A8
:10463000FFF76EFF03462343002B0CBF012300232B
:10464000DBB208E03248FFF763FF0346002B0CBFE4
:1046500001230023DBB2002B47D0FB6E9A682D4B61
:1046600013403A6811683A6892680A431A43FB6E2D
:104670009A603AE0FB6E9B6823F44042FB6E9A60BE
:104680007B681B681E4A934204D07B681B681D4AE6
:1046900093420ED11A48FFF73BFF04461948FFF733
:1046A00037FF03462343002B0CBF01230023DBB25B
:1046B00008E01748FFF72CFF0346002B0CBF01232F
:1046C0000023DBB2002B10D0FB6E9A68114B134015
:1046D000FA6E936009E07B685B6D43F020027B68B3
:1046E0005A65012387F8773000E000BF7B6800221D
:1046F00083F8502097F8773018467C37BD4690BD38
:1047000000200240002102400023024000630258C2
:1047100000600258E0F0FFFF80B485B000AF786021
:104720007B6803F00703FB600B4BDB68BB60BA6878
:104730004FF6FF031340BB60FB681A02BB681A43C5
:10474000064B1343BB60044ABB68D36000BF1437F9
:10475000BD465DF8047B704700ED00E00000FA05FF
:1047600080B400AF044BDB681B0A03F00703184654
:10477000BD465DF8047B704700ED00E080B483B077
:1047800000AF0346FB80B7F90630002B0BDBFB883C
:1047900003F01F020749B7F906305B09012000FA50
:1047A00002F241F8232000BF0C37BD465DF8047BC0
:1047B000704700BF00E100E080B483B000AF034663
:1047C0003960FB80B7F90630002B0ADB3B68DAB2B0
:1047D0000C49B7F906301201D2B20B4483F800231A
:1047E0000AE03B68DAB20849FB8803F00F03043B98
:1047F0001201D2B20B441A7600BF0C37BD465DF8E9
:10480000047B704700E100E000ED00E080B489B077
:1048100000AFF860B9607A60FB6803F00703FB61E2
:10482000FB69C3F10703042B28BF0423BB61FB69A9
:104830000433062B02D9FB69033B00E000237B61B4
:104840004FF0FF32BB6902FA03F3DA43BB681A4048
:104850007B699A404FF0FF317B6901FA03F3D9433A
:104860007B680B40134318462437BD465DF8047B34
:104870007047000080B400AFBFF34F8F00BF064BFE
:10488000DB6803F4E0620449044B1343CB60BFF3DD
:104890004F8F00BF00BFFDE700ED00E00400FA0508
:1048A00080B582B000AF78607868FFF735FF00BF51
:1048B0000837BD4680BD80B586B000AF0346B960FD
:1048C0007A60FB81FFF74CFF78617A68B968786994
:1048D000FFF79CFF0246B7F90E3011461846FFF766
:1048E0006BFF00BF1837BD4680BD80B582B000AFFA
:1048F0000346FB80B7F906301846FFF73FFF00BFBD
:104900000837BD4680BD80B500AFFFF7B3FF00009C
:1049100080B586B000AF7860FEF7B8FB38617B6881
:10492000002B01D1012316E37B681B68664A934282
:104930004AD07B681B68654A934245D07B681B68F8
:10494000634A934240D07B681B68624A93423BD0E3
:104950007B681B68604A934236D07B681B685F4A5D
:10496000934231D07B681B685D4A93422CD07B68B0
:104970001B685C4A934227D07B681B685A4A934263
:1049800022D07B681B68594A93421DD07B681B6804
:10499000574A934218D07B681B68564A934213D0FB
:1049A0007B681B68544A93420ED07B681B68534A4D
:1049B000934209D07B681B68514A934204D07B68BC
:1049C0001B68504A934201D1012300E00023002BD1
:1049D00000F03B817B68022283F835207B6800224F
:1049E00083F834207B681B68374A93424AD07B683F
:1049F0001B68364A934245D07B681B68344A934211
:104A000040D07B681B68334A93423BD07B681B686D
:104A1000314A934236D07B681B68304A934231D08A
:104A20007B681B682E4A93422CD07B681B682D4AFA
:104A3000934227D07B681B682B4A934222D07B6825
:104A40001B682A4A93421DD07B681B68284A934200
:104A500018D07B681B68274A934213D07B681B6879
:104A6000254A93420ED07B681B68244A934209D0A2
:104A70007B681B68224A934204D07B681B68214AEA
:104A8000934208D17B681B681A687B681B6822F018
:104A900001021A6007E07B681B681A687B681B6864
:104AA00022F001021A602FE0FEF7F0FA02463B699D
:104AB000D31A052B28D97B6820225A657B680322EC
:104AC00083F83520012346E210000240280002400E
:104AD000400002405800024070000240880002403E
:104AE000A0000240B8000240100402402804024026
:104AF000400402405804024070040240880402400E
:104B0000A0040240B80402407B681B681B6803F0E5
:104B10000103002BC8D17B681B681B687B617A6925
:104B2000834B13407B617B689A687B68DB681A4320
:104B30007B681B691A437B685B691A437B689B69C6
:104B40001A437B68DB691A437B681B6A13437A69E3
:104B500013437B617B685B6A042B07D17B68DA6A4D
:104B60007B681B6B13437A6913437B61714B1A6833
:104B7000714B1340B3F1005F28D37B685B68282B2F
:104B800003D97B685B682E2B17D97B685B683E2B4B
:104B900003D97B685B68422B0FD97B685B68462B27
:104BA00003D97B685B68482B07D97B685B684E2B11
:104BB00005D97B685B68522B01D8012300E00023F4
:104BC000002B03D07B6943F480137B617B681B68F7
:104BD0007A691A607B681B685B697B617B6923F07B
:104BE00007037B617B685B6A7A6913437B617B683F
:104BF0005B6A042B17D17B689B6A7A6913437B61DC
:104C00007B68DB6A002B0ED0786802F033FB03462A
:104C1000002B08D07B6840225A657B68012283F80C
:104C20003520012397E17B681B687A695A617868AF
:104C300002F06EFA0346BB607B68DB6D03F01F0376
:104C40003F229A40BB689A60CDE07B681B683B4A74
:104C5000934222D07B681B68394A93421DD07B68FF
:104C60001B68384A934218D07B681B68364A9342C7
:104C700013D07B681B68354A93420ED07B681B6853
:104C8000334A934209D07B681B68324A934204D06E
:104C90007B681B68304A934201D1012300E0002366
:104CA000002B00F097807B681B68244A934221D038
:104CB0007B681B68224A93421CD07B681B68214A90
:104CC000934217D07B681B681F4A934212D07B68BF
:104CD0001B681E4A93420DD07B681B681C4A934296
:104CE00008D07B681B681B4A934203D07B681B6813
:104CF000194A93427B68022283F835207B680022A0
:104D000083F834207B681B681B687B617A69134BCE
:104D100013407B617B689B68402B21D07B689B683C
:104D2000802B02D14FF480431BE0002319E000BF29
:104D30003F8010FE0010005C0000FFFF0854025886
:104D40001C540258305402584454025858540258C3
:104D50006C54025880540258945402580F00FEFFBD
:104D600010237A68D268D2081A437B681B69DB0873
:104D70001A437B685B69DB081A437B689B69DB0825
:104D80001A437B68DB69DB081A437B681B6A1B09D3
:104D900013437A6913437B617B681B687A691A60E5
:104DA0007B681B681A466E4B13446E4AA2FB0323B2
:104DB0001B099A007B68DA65786802F0A9F9034656
:104DC000FB607B68DB6D03F01F0301229A40FB68E8
:104DD0005A6008E07B6840225A657B68032283F8AA
:104DE00035200123B7E07B681B685F4A934272D08D
:104DF0007B681B685D4A93426DD07B681B685C4A88
:104E0000934268D07B681B685A4A934263D07B68A0
:104E10001B68594A93425ED07B681B68574A93428D
:104E200059D07B681B68564A934254D07B681B68F4
:104E3000544A93424FD07B681B68534A93424AD0EE
:104E40007B681B68514A934245D07B681B68504A77
:104E5000934240D07B681B684E4A93423BD07B68AC
:104E60001B684D4A934236D07B681B684B4A93427D
:104E700031D07B681B684A4A93422CD07B681B6800
:104E8000484A934227D07B681B68474A934222D006
:104E90007B681B68454A93421DD07B681B68444A67
:104EA000934218D07B681B68424A934213D07B68B8
:104EB0001B68414A93420ED07B681B683F4A93426D
:104EC00009D07B681B683E4A934204D07B681B680C
:104ED0003C4A934201D1012300E00023002B32D051
:104EE000786802F043FA7B689B68802B02D17B686C
:104EF00000225A607B685A687B681B6ED2B21A60C7
:104F00007B685B6E7A68926E5A607B685B68002B88
:104F100010D07B685B68082B0CD8786802F0C0FA68
:104F20007B68DB6E00221A607B681B6F7A68526FA9
:104F30005A6008E07B680022DA667B6800221A6704
:104F40007B6800225A677B6800225A657B680122D1
:104F500083F83520002318461837BD4680BD00BFB2
:104F6000F8ABFDA7CDCCCCCC10000240280002400D
:104F70004000024058000240700002408800024099
:104F8000A0000240B8000240100402402804024081
:104F90004004024058040240700402408804024069
:104FA000A0040240B8040240085402581C5402589D
:104FB0003054025844540258585402586C54025801
:104FC000805402589454025880B586B000AFF860FF
:104FD000B9607A603B600023FB75FB68002B01D150
:104FE000012326E2FB6893F83430012B01D1022320
:104FF0001FE2FB68012283F83420FB6893F8353008
:10500000DBB2012B40F00A82FB68022283F83520D4
:10501000FB6800225A65FB681B68684A93424AD0C5
:10502000FB681B68664A934245D0FB681B68654A6B
:10503000934240D0FB681B68634A93423BD0FB68B5
:105040001B68624A934236D0FB681B68604A9342F1
:1050500031D0FB681B685F4A93422CD0FB681B6809
:105060005D4A934227D0FB681B685C4A934222D07A
:10507000FB681B685A4A93421DD0FB681B68594A5B
:10508000934218D0FB681B68574A934213D0FB68C1
:105090001B68564A93420ED0FB681B68544A9342E1
:1050A00009D0FB681B68534A934204D0FB681B6815
:1050B000514A934208D1FB681B681A68FB681B6859
:1050C00022F001021A6007E0FB681B681A68FB689F
:1050D0001B6822F001021A603B687A68B968F868B8
:1050E00001F06AFEFB681B68344A93424AD0FB68B1
:1050F0001B68334A934245D0FB681B68314A934290
:1051000040D0FB681B68304A93423BD0FB681B6869
:105110002E4A934236D0FB681B682D4A934231D009
:10512000FB681B682B4A93422CD0FB681B682A4AF9
:10513000934227D0FB681B68284A934222D0FB6821
:105140001B68274A93421DD0FB681B68254A93427F
:1051500018D0FB681B68244A934213D0FB681B6875
:10516000224A93420ED0FB681B68214A934209D021
:10517000FB681B681F4A934204D0FB681B681E4AE9
:10518000934201D1012300E00023002B36D0FB68BD
:105190001B681B6823F01E02FB681B6842F01602A6
:1051A0001A60FB681B6C002B3ED0FB681B681A68FA
:1051B000FB681B6842F008021A6035E010000240EC
:1051C00028000240400002405800024070000240A7
:1051D00088000240A0000240B800024010040240D3
:1051E0002804024040040240580402407004024077
:1051F00088040240A0040240B8040240FB681B6817
:105200001B6823F00E02FB681B6842F00A021A605A
:10521000FB681B6C002B07D0FB681B681A68FB68D7
:105220001B6842F004021A60FB681B68834A9342C1
:1052300072D0FB681B68824A93426DD0FB681B6882
:10524000804A934268D0FB681B687F4A934263D0D0
:10525000FB681B687D4A93425ED0FB681B687C4AF2
:10526000934259D0FB681B687A4A934254D0FB683A
:105270001B68794A93424FD0FB681B68774A934278
:105280004AD0FB681B68764A934245D0FB681B688E
:10529000744A934240D0FB681B68734A93423BD0E8
:1052A000FB681B68714A934236D0FB681B68704AE2
:1052B000934231D0FB681B686E4A93422CD0FB6846
:1052C0001B686D4A934227D0FB681B686B4A934268
:1052D00022D0FB681B686A4A93421DD0FB681B689A
:1052E000684A934218D0FB681B68674A934213D000
:1052F000FB681B68654A93420ED0FB681B68644AD2
:10530000934209D0FB681B68624A934204D0FB6851
:105310001B68614A934201D1012300E00023002B66
:105320001AD0FB681B6E1B6803F48033002B07D078
:10533000FB681B6E1A68FB681B6E42F480721A6071
:10534000FB68DB6E002B07D0FB68DB6E1A68FB681E
:10535000DB6E42F480721A60FB681B68374A934226
:105360004AD0FB681B68364A934245D0FB681B68ED
:10537000344A934240D0FB681B68334A93423BD087
:10538000FB681B68314A934236D0FB681B68304A81
:10539000934231D0FB681B682E4A93422CD0FB68A5
:1053A0001B682D4A934227D0FB681B682B4A934207
:1053B00022D0FB681B682A4A93421DD0FB681B68F9
:1053C000284A934218D0FB681B68274A934213D09F
:1053D000FB681B68254A93420ED0FB681B68244A71
:1053E000934209D0FB681B68224A934204D0FB68B1
:1053F0001B68214A934208D1FB681B681A68FB6846
:105400001B6842F001021A6012E0FB681B681A6810
:10541000FB681B6842F001021A6009E0FB684FF468
:1054200000625A65FB68002283F834200123FB7573
:10543000FB7D18461837BD4680BD00BF10000240F6
:105440002800024040000240580002407000024024
:1054500088000240A0000240B80002401004024050
:1054600028040240400402405804024070040240F4
:1054700088040240A0040240B804024008540258C4
:105480001C5402583054025844540258585402587C
:105490006C540258805402589454025880B586B017
:1054A00000AF7860FDF7F2FD38617B68002B01D119
:1054B0000123DCE27B6893F83530DBB2022B08D0A5
:1054C0007B6880225A657B68002283F834200123A0
:1054D000CDE27B681B68764A93424AD07B681B68A2
:1054E000744A934245D07B681B68734A934240D00C
:1054F0007B681B68714A93423BD07B681B68704A8B
:10550000934236D07B681B686E4A934231D07B68E9
:105510001B686D4A93422CD07B681B686B4A934290
:1055200027D07B681B686A4A934222D07B681B683D
:10553000684A93421DD07B681B68674A934218D023
:105540007B681B68654A934213D07B681B68644A7A
:1055500093420ED07B681B68624A934209D07B68F5
:105560001B68614A934204D07B681B685F4A934280
:1055700001D1012300E00023002B13D07B681B68BE
:105580001A687B681B6822F01E021A607B681B6821
:105590005A697B681B6822F080025A617B681B682D
:1055A0007B610AE07B681B681A687B681B6822F0D5
:1055B0000E021A607B681B687B617B681B683C4A33
:1055C000934272D07B681B683A4A93426DD07B68E5
:1055D0001B68394A934268D07B681B68374A9342FC
:1055E00063D07B681B68364A93425ED07B681B6839
:1055F000344A934259D07B681B68334A934254D053
:105600007B681B68314A93424FD07B681B68304AE5
:1056100093424AD07B681B682E4A934245D07B68F0
:105620001B682D4A934240D07B681B682B4A9342EB
:105630003BD07B681B682A4A934236D07B681B6844
:10564000284A934231D07B681B68274A93422CD06A
:105650007B681B68254A934227D07B681B68244AD5
:10566000934222D07B681B68224A93421DD07B68FC
:105670001B68214A934218D07B681B681F4A9342DB
:1056800013D07B681B681E4A93420ED07B681B6850
:105690001C4A934209D07B681B681B4A934204D082
:1056A0007B681B68194A934232D1012331E000BF65
:1056B0001000024028000240400002405800024012
:1056C0007000024088000240A0000240B800024082
:1056D00010040240280402404004024058040240E2
:1056E0007004024088040240A0040240B804024052
:1056F000085402581C54025830540258445402585A
:10570000585402586C540258805402589454025809
:105710000023002B07D07B681B6E1A687B681B6E0A
:1057200022F480721A607B681B686D4A93424AD0EB
:105730007B681B686B4A934245D07B681B686A4A4A
:10574000934240D07B681B68684A93423BD07B6899
:105750001B68674A934236D07B681B68654A934250
:1057600031D07B681B68644A93422CD07B681B68ED
:10577000624A934227D07B681B68614A934222D0D9
:105780007B681B685F4A93421DD07B681B685E4A3A
:10579000934218D07B681B685C4A934213D07B68A5
:1057A0001B685B4A93420ED07B681B68594A934240
:1057B00009D07B681B68584A934204D07B681B68F9
:1057C000564A934208D17B681B681A687B681B683D
:1057D00022F001021A6007E07B681B681A687B6888
:1057E0001B6822F001021A6013E0FDF74FFC02462D
:1057F0003B69D31A052B0CD97B6820225A657B683C
:10580000032283F835207B68002283F834200123AB
:105810002DE17B691B6803F00103002BE5D17B6858
:105820001B682F4A93424AD07B681B682D4A9342DB
:1058300045D07B681B682C4A934240D07B681B682C
:105840002A4A93423BD07B681B68294A934236D050
:105850007B681B68274A934231D07B681B68264AC5
:1058600093422CD07B681B68244A934227D07B68E4
:105870001B68234A934222D07B681B68214A9342CB
:105880001DD07B681B68204A934218D07B681B6838
:105890001E4A934213D07B681B681D4A93420ED068
:1058A0007B681B681B4A934209D07B681B681A4AB5
:1058B000934204D07B681B68184A934201D10123AC
:1058C00000E00023002B2BD07B689B6DBB607B68C6
:1058D000DB6D03F01F033F229A40BB689A602AE009
:1058E00010000240280002404000024058000240E0
:1058F0007000024088000240A0000240B800024050
:1059000010040240280402404004024058040240AF
:105910007004024088040240A0040240B80402401F
:105920007B689B6DFB607B68DB6D03F01F030122CE
:105930009A40FB685A607B681B684F4A934272D05A
:105940007B681B684D4A93426DD07B681B684C4A4C
:10595000934268D07B681B684A4A934263D07B6855
:105960001B68494A93425ED07B681B68474A934252
:1059700059D07B681B68464A934254D07B681B68A9
:10598000444A93424FD07B681B68434A93424AD0B3
:105990007B681B68414A934245D07B681B68404A3C
:1059A000934240D07B681B683E4A93423BD07B6861
:1059B0001B683D4A934236D07B681B683B4A934242
:1059C00031D07B681B683A4A93422CD07B681B68B5
:1059D000384A934227D07B681B68374A934222D0CB
:1059E0007B681B68354A93421DD07B681B68344A2C
:1059F000934218D07B681B68324A934213D07B686D
:105A00001B68314A93420ED07B681B682F4A934231
:105A100009D07B681B682E4A934204D07B681B68C0
:105A20002C4A934201D1012300E00023002B15D022
:105A30007B685B6E7A68926E5A607B68DB6E002BC7
:105A40000CD07B68DB6E1A687B68DB6E22F4807298
:105A50001A607B681B6F7A68526F5A607B680122FC
:105A600083F835207B68002283F834200023184611
:105A70001837BD4680BD00BF10000240280002401C
:105A8000400002405800024070000240880002407E
:105A9000A0000240B8000240100402402804024066
:105AA000400402405804024070040240880402404E
:105AB000A0040240B8040240085402581C54025882
:105AC0003054025844540258585402586C540258E6
:105AD000805402589454025880B584B000AF786066
