:020000040800F2
:1000000000000824F53A0008FD380008033900080C
:10001000093900080F3900081539000800000000F0
:10002000000000000000000000000000813F010807
:100030001B39000800000000D141010849120108E5
:10004000453B0008453B0008453B0008453B000890
:10005000453B0008453B0008453B0008453B000880
:10006000453B0008453B0008453B0008293900088E
:100070003D390008453B0008453B0008453B00086A
:10008000453B0008453B0008453B0008453B000850
:10009000453B0008453B0008453B0008453B000840
:1000A000453B000851390008453B0008453B000826
:1000B000453B0008453B0008453B0008453B000820
:1000C000453B0008453B0008453B0008453B000810
:1000D000453B0008453B0008453B000865390008E2
:1000E000453B0008453B000800000000453B000878
:1000F000453B0008453B0008453B0008453B0008E0
:10010000453B0008453B000899390008453B00087D
:10011000453B0008453B0008453B0008453B0008BF
:10012000453B0008453B0008453B0008453B0008AF
:10013000453B0008453B0008453B0008453B00089F
:10014000453B0008453B000800000000000000009F
:10015000453B0008453B0008453B0008453B00087F
:10016000453B0008453B0008453B0008453B00086F
:10017000453B0008453B0008453B000800000000E7
:10018000453B0008453B0008453B0008453B00084F
:10019000453B0008453B0008453B0008453B00083F
:1001A000453B0008453B0008453B0008453B00082F
:1001B000453B0008453B0008453B0008453B00081F
:1001C000453B0008453B0008453B0008453B00080F
:1001D000453B0008453B0008453B0008453B0008FF
:1001E000453B0008453B0008453B0008453B0008EF
:1001F000453B0008453B0008453B0008453B0008DF
:10020000453B0008453B0008453B0008453B0008CE
:10021000453B0008453B0008453B0008453B0008BE
:10022000453B0008453B0008453B00080000000036
:10023000453B0008453B0008453B0008453B00089E
:10024000453B0008453B0008453B0008453B00088E
:10025000453B0008453B0008453B0008453B00087E
:10026000453B0008453B0008453B0008453B00086E
:10027000453B0008453B0008453B0008453B00085E
:10028000453B0008453B0008453B000800000000D6
:08029000453B0008453B000856
:1002A00010B5054C237833B9044B13B10448AFF3B0
:1002B00000800123237010BD4001002400000000D5
:1002C0003C5A010808B5034B1BB103490348AFF37F
:1002D000008008BD00000000440100243C5A0108D1
:1002E000034613F8012B002AFBD1181A0138704776
:1002F00001F0FF01102A2BDB10F0070F08D010F8D7
:10030000013B013A8B422DD010F0070F42B3F6D1DA
:10031000F0B441EA012141EA014122F007047FF0F3
:1003200000070023F0E80256083C85EA010586EA4A
:10033000010685FA47F5A3FA87F586FA47F6A5FA86
:1003400087F68EB9EED1F0BC01F0FF0102F0070292
:1003500032B110F8013B013A83EA010313B1F8D13D
:100360000020704701387047002D06BF354603381E
:10037000073815F0010F07D1013015F4807F02BF57
:10038000013015F4C03F0130F0BC0138704700BFA8
:1003900053B94AB9002908BF00281CBF4FF0FF31EC
:1003A0004FF0FF3000F070B9ADF1080C6DE904CEEC
:1003B00000F006F8DDF804E0DDE9022304B0704740
:1003C0002DE9F047089E0D4604460F46002B4AD102
:1003D0008A42944665D9B2FA82F343B102FA03FC29
:1003E000C3F120029F4020FA02F217439C404FEADB
:1003F0001C4E1FFA8CF5B7FBFEF1220C0EFB117799
:1004000042EA074201FB05F090420AD91CEB0202C6
:1004100001F1FF3780F01C81904240F219810239CE
:100420006244121AA4B2B2FBFEF00EFB102244EAA0
:10043000024400FB05F5A5420AD91CEB040400F1B7
:10044000FF3280F00781A54240F204816444023803
:1004500040EA0140641B00211EB1DC400023C6E9D4
:100460000043BDE8F0878B4208D9002E00F0ED80F4
:100470000021C6E900050846BDE8F087B3FA83F11C
:10048000002949D1AB4202D3824200F2F880841A9B
:1004900065EB030201201746002EE2D0C6E90047B3
:1004A000DFE702B9FFDEB2FA82F3002B40F0908062
:1004B0008A1A4FEA1C471FFA8CFE0121B2FBF7F59E
:1004C00007FB1520220C42EA00420EFB05F0904289
:1004D00008D91CEB020205F1FF3802D2904200F26B
:1004E000CB804546121AA4B2B2FBF7F007FB1022EC
:1004F00044EA02440EFB00FEA64508D91CEB0404A6
:1005000000F1FF3202D2A64500F2BB801046A4EBF8
:100510000E0440EA05409FE7C1F120078B4022FA14
:1005200007FC4CEA030C05FA01F420FA07F3FD403E
:100530004FEA1C492343B5FBF9F81FFA8CFE09FB6F
:1005400018551C0C44EA054408FB0EF5A54202FAB6
:1005500001F200FA01F00BD91CEB040408F1FF3A98
:1005600080F08880A54240F28580A8F102086444AA
:10057000641B9DB2B4FBF9F309FB134445EA044440
:1005800003FB0EFEA64508D91CEB040403F1FF355E
:100590006CD2A6456AD9023B644443EA0843A3FBF4
:1005A0000295A4EB0E04AC42C846AE4656D353D0D7
:1005B00056B1B0EB080264EB0E0404FA07F7CA4028
:1005C000CC401743C6E9007418460021BDE8F08707
:1005D000C3F1200102FA03FC20FA01F225FA01F12D
:1005E0009D402A434FEA1C471FFA8CFEB1FBF7F0EF
:1005F00007FB1015110C41EA054100FB0EF58D4279
:1006000004FA03F408D91CEB010100F1FF382FD2E2
:100610008D422DD902386144491B92B2B1FBF7F5E6
:1006200007FB151142EA014205FB0EF1914208D980
:100630001CEB020205F1FF3816D2914214D9023D9B
:100640006244521A45EA004138E73146304608E72D
:100650003946E6E61046FBE64845A9D2B9EB020862
:1006600065EB0C0E013BA3E74546EAE72B4694E712
:100670004046D1E7D0467BE7023D624432E7084678
:100680000AE76444023842E7704700BF80B400AF15
:100690003D4BD3F888303C4A43F47003C2F88830AD
:1006A000394B1B69384A43F010031361374B1B6801
:1006B00003F00F03062B07D8344B1B6823F00F03FE
:1006C000324A43F007031360314B1B68304A43F052
:1006D000010313602E4B00221A612D4B1A682C491E
:1006E0002C4B13400B60294B1B6803F00803002BB5
:1006F00007D0264B1B6823F00F03244A43F007035F
:100700001360234B00229A61214B0022DA61204BB7
:1007100000221A621E4B204A9A621D4B1F4ADA625F
:100720001B4B1F4A1A631A4B00225A63184B1C4A70
:100730009A63174B0022DA63154B194A1A64144B5B
:1007400000225A64124B1B68114A23F48023136061
:100750000F4B00221A66134B5B6A124A43F4804324
:100760005362114B1A68114B1340B3F1005F02D270
:100770000F4B01221A600F4B43F2D2021A6000BFE6
:10078000BD465DF8047B704700ED00E0002000529C
:10079000004402587FEDF6EA000202020000FF0169
:1007A00080020101C00000580010005C0000FFFF43
:1007B000088100510040005280B582B000AF7860DF
:1007C0007868FFF78DFD03469AB264237968034881
:1007D0000EF0B6FC00BF0837BD4680BDF80500240A
:1007E00080B592B000AF3B48FFF7E6FF002387F8E3
:1007F0004730002387F846300123A7F8443024E02F
:10080000B7F844305B0099B20A230322324808F05B
:100810007BFE034687F8413097F84130002B0FD11B
:10082000B7F844203B462D49184614F053F83B4690
:100830001846FFF7C1FF97F84730013387F8473074
:10084000B7F844300133A7F84430B7F844307F2B71
:10085000D6D90123A7F8423024E0B7F842305B0034
:1008600099B20A2303221E4808F04EFE034687F879
:10087000413097F84130002B0FD1B7F842203B466A
:100880001849184614F026F83B461846FFF794FF1F
:1008900097F84630013387F84630B7F842300133D5
:1008A000A7F84230B7F842307F2BD6D997F84730B7
:1008B000002B07D197F84630002B03D10A48FFF7E9
:1008C0007BFF03E00948FFF777FF00BF00BF483711
:1008D000BD4680BD545A01085C040024885A0108B2
:1008E000B0040024B45A0108E05A0108185B01085A
:1008F00080B584B000AF03460A46FB711346BB7156
:100900000323BB730023FB731AE0FA7B10491346E1
:100910005B0013449B000B441B78FA799A420CD17C
:10092000FA7B0B4913465B0013449B000B440433D2
:100930001B68BA791046984706E0FB7B0133FB73CE
:10094000FA7BBB7B9A42E0D31037BD4680BD00BF27
:10095000BC61010880B584B000AF78607B68002B73
:1009600046D07B681B68002B42D07B681B68FB600D
:10097000FB681B78992B33D1FB6801331B78AA2BBA
:100980002ED1FB689B78FB72FB68DB78BB72FB683F
:100990001B797B72FA7ABB7A1344DBB27A7A9A4279
:1009A00015D103F021F90346134AC2F81031124B56
:1009B000012283F81421BA7AFB7A11461846FFF710
:1009C00097FFFB7A19460D4813F072FF08E07B6829
:1009D0005B68002B04D07B685B681A6801321A6080
:1009E0007B681B6805220021184613F0D6FF00E043
:1009F00000BF1037BD4680BD78010024485B010868
:100A000080B582B000AF7860134A7B6813601348EA
:100A1000FFF7D2FE104B1B68002118460DF00AFAB2
:100A20000346002B0FD10C4B1B68042118460DF018
:100A300001FA0346002B06D10948FFF7BDFE09481D
:100A4000FFF7BAFE03E00848FFF7B6FE00BF00BF9D
:100A50000837BD4680BD00BF5C010024B85B0108BB
:100A6000F05B0108245C0108585C010880B487B081
:100A700000AF0346FB710B46BB7113467B717B795C
:100A8000814A12681268D26A02FB03F37F4AA2FB12
:100A900003235B097B61FB79002B01D1002300E07C
:100AA00008233B61FB79002B01D1042300E00C23D8
:100AB000FB60BB79012B02D0022B65D0C9E03B69FA
:100AC000002B05D1704B1B681B687A695A6328E0BC
:100AD0003B69042B05D16C4B1B681A687B699363D7
:100AE0001FE03B69082B05D1674B1B681A687B69BF
:100AF000D36316E03B690C2B05D1634B1B681A6866
:100B00007B6913640DE03B69102B05D15E4B1B68BC
:100B10001A687B69936504E05B4B1B681A687B6904
:100B2000D365FB68002B05D1574B1B681B6800225F
:100B30005A63F7E0FB68042B05D1534B1B681A6816
:100B400000239363EEE0FB68082B05D14E4B1B6836
:100B50001A680023D363E5E0FB680C2B05D14A4BF0
:100B60001B681A6800231364DCE0FB68102B05D1B6
:100B7000454B1B681A6800239365D3E0424B1B6802
:100B80001A680023D365CDE03B69002B05D13E4BAD
:100B90001B681B6800225A6328E03B69042B05D1BF
:100BA000394B1B681A68002393631FE03B69082BCD
:100BB00005D1354B1B681A680023D36316E03B69E7
:100BC0000C2B05D1304B1B681A68002313640DE011
:100BD0003B69102B05D12C4B1B681A6800239365C9
:100BE00004E0294B1B681A680023D365FB68002BBF
:100BF00005D1254B1B681B687A695A6392E0FB6834
:100C0000042B05D1204B1B681A687B69936389E02C
:100C1000FB68082B05D11C4B1B681A687B69D363E2
:100C200080E0FB680C2B05D1174B1B681A687B69A9
:100C3000136477E0FB68102B05D1134B1B681A680F
:100C40007B6993656EE0104B1B681A687B69D365FE
:100C500068E03B69002B05D10B4B1B681B68002229
:100C60005A632CE03B69042B05D1074B1B681A68BB
:100C70000023936323E03B69082B09D1024B1B68D7
:100C80001A680023D3631AE05C0100241F85EB512E
:100C90003B690C2B05D1264B1B681A680023136493
:100CA0000DE03B69102B05D1214B1B681A6800230E
:100CB000936504E01E4B1B681A680023D365FB682C
:100CC000002B05D11A4B1B681B6800225A6328E0D1
:100CD000FB68042B05D1164B1B681A68002393632D
:100CE0001FE0FB68082B05D1114B1B681A68002315
:100CF000D36316E0FB680C2B05D10D4B1B681A68FB
:100D0000002313640DE0FB68102B05D1084B1B6812
:100D10001A680023936504E0054B1B681A680023DA
:100D2000D36500BF00BF1C37BD465DF8047B70472C
:100D30005C01002480B500AF962002F061FF1748E7
:100D4000FFF73AFD1648FFF737FD1648FFF734FD69
:100D50001548FFF731FD1548FFF72EFDFFF740FD61
:100D60001349144801F0D8FF00F046F91248FFF784
:100D700047FE124B1B681A68104B1B6842F01002AA
:100D80001A6001220E490F4803F008FB00F01EF81C
:100D90000D48FFF711FD00BF80BD00BF885C010852
:100DA000B85C0108E85C0108185D0108485D0108AD
:100DB000F8010024B004002460050024F805002494
:100DC00060010024D0020024805D010880B5A4B039
:100DD00000AF2B4BC7F884304FF00003C7F88C30BE
:100DE000284B4FF00002DA652748FFF7E5FC0023A7
:100DF000C7F8883018E0254B1B889BB207EE903A65
:100E0000B8EE677AD7ED217A67EE277A97ED237AE5
:100E100077EE277AC7ED237A0A2002F0F1FED7F8A1
:100E200088300133C7F88830D7F88830312BE2DDBD
:100E300097ED237ADFED166AC7EE267A114BC3EDE4
:100E4000187A104BD3ED187A9FED127A67EE877AF5
:100E5000FDEEE77A3B4617EE902A0F49184613F04D
:100E600039FDC7F88000D7F880309AB2394632236E
:100E70000A480EF065F900BF9037BD4680BD00BF3F
:100E80000634533878010024AC5D01086001002469
:100E90000000484200007A44E45D0108F80500249F
:100EA00080B58AB002AF03463960FB71FB7923F04D
:100EB0000F03FB77FB791B01BB773B685AB297F9AD
:100EC0001F3013435BB243F00C035BB2DBB27B77A2
:100ED00007F11D020A23009301234E21374807F032
:100EE000CDFF0023BB6102E0BB690133BB61BB697D
:100EF00042F20F729342F7DD3B685AB297F91F3006
:100F000013435BB243F008035BB2DBB27B7707F1BC
:100F10001D020A23009301234E21284807F0AEFF4B
:100F200000237B6102E07B6901337B617B6942F2D4
:100F30000F729342F7DD3B685AB297F91E301343A4
:100F40005BB243F00C035BB2DBB27B7707F11D02AF
:100F50000A23009301234E21184807F08FFF002336
:100F60003B6102E03B6901333B613B6942F20F7236
:100F70009342F7DD3B685AB297F91E3013435BB2D8
:100F800043F008035BB2DBB27B7707F11D020A2353
:100F9000009301234E21094807F070FF0023FB60F6
:100FA00002E0FB680133FB60FB6842F20F72934280
:100FB000F7DD00BF00BF2037BD4680BD5C040024C4
:100FC00080B582B000AF0346FB71FB790021184663
:100FD000FFF766FF00BF0837BD4680BD80B582B011
:100FE00000AF0346FB71FB7901211846FFF758FF5C
:100FF00000BF0837BD4680BD80B500AF642002F059
:10100000FFFD3320FFF7DCFF052002F0F9FD322061
:10101000FFF7D6FF052002F0F3FD2820FFF7D0FFF1
:10102000052002F0EDFD0C20FFF7CAFF052002F0BD
:10103000E7FD0620FFF7C4FF052002F0E1FD00F008
:1010400067F80A2002F0DCFD0021002000F02CF8F7
:10105000074800F013F80021012000F025F80548AA
:1010600000F00CF80448FFF7A7FB00BF80BD00BFED
:101070002C5E01083C5E0108485E010880B582B024
:1010800000AF786006E07B685A1C7A601B781846CF
:10109000FFF7A4FF7B681B78002BF4D100BF00BFD3
:1010A0000837BD4680BD000080B584B000AF7860D1
:1010B00039607B68032B1FD801A252F823F000BFD0
:1010C000D1100008DB100008E5100008EF10000840
:1010D0003B68DBB2803BFB7311E03B68DBB2403B1B
:1010E000FB730CE03B68DBB26C3BFB7307E03B68D7
:1010F000DBB22C3BFB7302E08023FB7300BFFB7B66
:101100001846FFF75DFF00BF1037BD4680BD00BF2A
:1011100080B500AF0120FFF753FF022002F070FD01
:1011200000BF80BD80B400AF094BDB68084A43F0C4
:101130008073D360074B00225A60064B1B68054A38
:1011400043F00103136000BFBD465DF8047B7047A8
:10115000F0ED00E0001000E080B584B000AF7860F2
:101160000D4B5B68FB6009F01DFE03460B4AA2FBBA
:1011700003239A0C7B6802FB03F3BB6000BF064BA2
:101180005A68FB68D31ABA689A42F8D800BF00BF01
:101190001037BD4680BD00BF001000E083DE1B435A
:1011A00080B400AF0B4B1B680A4A23F003031360A3
:1011B000084BDB68074A23F00303D360054BDB6869
:1011C000044A43F00103D36000BFBD465DF8047BD1
:1011D000704700BF000C025880B400AF084B1B687A
:1011E000074A23F003031360054B1B68044A43F0CE
:1011F0000103136000BFBD465DF8047B704700BF6C
:10120000000C025880B584B000AF03463960FB7112
:10121000124B5B68FB6009F0C5FD0346104AA2FB58
:1012200003239A0C3B6802FB03F3BB6008E00B4B03
:101230005A68FB68D31ABA689A4201D8002309E0B9
:101240000121084807F032FD03461A46FB79934214
:10125000EDD1012318461037BD4680BD001000E0D7
:1012600083DE1B43000C025880B588B000AF786065
:1012700039600023BB6000233B730023BB61002364
:101280007B6109F08FFD0346644AA2FB03239B0C9C
:101290003B61634B1B6803F00103002B01D1FFF797
:1012A00041FFFFF799FF002201215E4807F016FD7C
:1012B00044F25060FFF750FF01220121594807F026
:1012C0000DFD1E20FFF748FFFFF76AFF6421002095
:1012D000FFF798FF0346002B01D100239AE0642119
:1012E0000120FFF78FFF0346002B01D1002391E07F
:1012F00064210020FFF786FF0346002B01D1002365
:1013000088E00023FB6145E064210120FFF77AFFBC
:101310000346002B01D100237CE0414B5B687B61DD
:1013200064210020FFF76EFF0346002B01D100234C
:1013300070E03B4B5A687B69D21A3B69B2FBF3F30E
:10134000BB61BB69282B22D9FB69002B00DA07336C
:10135000DB101A4602F120033B4413F8183C59B243
:10136000FB69584203F0070300F0070058BF4342EF
:10137000C3F10703012000FA03F35BB20B435BB236
:10138000D9B202F120033B440A4603F8182CFB694A
:101390000133FB61FB69272BB6DD3B7A1A467B7A6A
:1013A0001344BA7A1344FA7A1344DBB23A7B934279
:1013B0002FD13B7A002B04D1BB7A002B01D1002323
:1013C00028E03B7A07EE903AB8EE677A7B7A07EE30
:1013D000903AF8EE677ADFED146A67EEA67A77EE58
:1013E000277A3B68C3ED007ABB7A07EE903AB8EEF5
:1013F000677AFB7A07EE903AF8EE677ADFED0A6AD1
:1014000067EEA67A77EE277A7B68C3ED007A012330
:1014100000E0002318462037BD4680BD83DE1B4315
:10142000001000E0000C0258CDCCCC3D80B5C6B019
:1014300002AFBD4BC7F8F830BC4BC7F8F430BC4B1B
:10144000C7F8F030BB4BC7F8EC30BB4BC7F8E830FF
:10145000BA4BC7F8E4304FF00003C7F80C31B84B73
:10146000D3ED187AB7EE007AF4EEC77AF1EE10FAFF
:101470000DDDB34BD3ED187AB0EE047AF4EEC77AF3
:10148000F1EE10FA03D5AE4B1B6EAE4A1360AE4BB5
:10149000C7F8CC302023C7F8C830D7F8C830002BA5
:1014A00028DDD7F8CC3003F01F02D7F8C83013443A
:1014B000C7F8C430D7F8CC30C7F8C030BFF34F8F6F
:1014C00000BFA24AD7F8C030C2F85C32D7F8C030AB
:1014D0002033C7F8C030D7F8C430203BC7F8C43039
:1014E000D7F8C430002BECDCBFF34F8F00BFBFF345
:1014F0006F8F00BF00BF0023C7F8083111E0924B87
:101500001B889BB21A46D7F808319B0003F58873F5
:101510003B4443F88C2C00BFD7F808310133C7F89F
:101520000831D7F808310E2BE9DD0023C7F8043164
:1015300049E0D7F804310133C7F800313AE0D7F871
:1015400004319B0003F588733B4453F88C2CD7F887
:1015500000319B0003F588733B4453F88C3C9A425E
:1015600023D9D7F804319B0003F588733B4453F823
:101570008C3CC7F8D030D7F800319B0003F5887356
:101580003B4453F88C2CD7F804319B0003F5887347
:101590003B4443F88C2CD7F800319B0003F588734B
:1015A0003B44D7F8D02043F88C2CD7F800310133D6
:1015B000C7F80031D7F800310E2BC0DDD7F8043161
:1015C0000133C7F80431D7F804310D2BB1DDD7F85A
:1015D0009820D7F89C301A44D7F8A0301A44D7F88E
:1015E000A4301A44D7F8A830134407EE903AF8EE26
:1015F000677AC7ED387A97ED387AF1EE046AC7EE6C
:10160000267AC7ED377A97ED377AD7ED3E7A67EECF
:10161000277AC7ED367A4A4B93F8AC30012B04D0C9
:10162000474B93F81931012B28D1494B93ED007AA0
:10163000D7ED367A77EE277A454BC3ED007A454BE6
:101640001B680133434A1360424B1B68092B10D9B6
:101650003F4B93ED007AF2EE046AC7EE267A394BDF
:10166000C3ED007A3A4B4FF000021A60394B00226A
:101670001A604FF00003C7F80C3146E0344B4FF0CE
:1016800000021A60334B00221A602E4B93ED007A51
:10169000D7ED367A77EE677AC7ED3F7AD7ED3F7AA6
:1016A000F5EEC07AF1EE10FA05D5D7ED3F7AF1EEFE
:1016B000677AC7ED3F7AD7ED3F6A97ED3D7AC6EE80
:1016C000877A9FED257A67EE877A97ED3C7A67EE09
:1016D000277AC7ED437A97ED437AD7ED3B7AB4EE9C
:1016E000E77AF1EE10FA03D54FF00003C7F80C319A
:1016F00097ED437AD7ED397AB4EEE77AF1EE10FA46
:1017000003DDD7F8E430C7F80C310D4B93F8AC305B
:10171000002B04D10A4B93F81931002B20D00F4B2A
:101720004FF000021A603DE006345338A4703D3E8D
:101730009A99B93F000034420AD7A33D00007A4588
:1017400078010024080000246001002400ED00E07E
:10175000680100246C01002400007A447001002418
:1017600097ED3A7AD7ED437A27EE277AF7EE006ABB
:10177000D7ED3A7A76EEE76A3E4BD3ED007A66EE25
:10178000A77A77EE277A3B4BC3ED007A394BD3ED3E
:10179000007AF5EEC07AF1EE10FA03D5354B4FF032
:1017A00000021A60334B1B68334AD365334B1B6806
:1017B000314A1366304BD3ED177A9FED317AF4EE50
:1017C000C77AF1EE10FA04DD2B4B012283F87C205E
:1017D00003E0294B002283F87C202A4B1B7801333D
:1017E000DAB2284B1A70284B1B78DBB2012B3BD0A6
:1017F000244B1B78042B38D9D7ED377AFCEEE77AE7
:1018000017EE903A9BB21A46D7ED367A9FED1F7AC3
:1018100067EE877AFDEEE76A184BD3ED007A9FED0D
:101820001B7A67EE877AFDEEE77A17EE901A124B75
:10183000D3ED177AFDEEE77A17EE903A381D019353
:10184000009116EE903A124913F044F8C7F8D4000C
:10185000D7F8D4309AB2391D14230E480DF070FC1D
:10186000084B00221A7000E000BF07F58877BD46DC
:1018700080BD00BF7001002478010024080000240E
:101880000080BB44740100247501002400007A44E8
:10189000745E0108F805002480B500AF0322002122
:1018A000012010F0DBF80346214A93600322002157
:1018B000012010F0D3F803461D4AD3600322002113
:1018C000012010F0CBF80346194A136103220021CE
:1018D000012010F0C3F80346154A5361032200218A
:1018E000012010F0BBF80346114A93610322002146
:1018F000012010F0B3F803460D4AD3610322002102
:10190000012010F0ABF80346094A136203220021BC
:10191000012010F0A3F80346054A53620322002178
:10192000012010F09BF80346014A936200BF80BD7E
:101930007801002480B582B000AF7860034B9B68CB
:101940004FF0FF31184610F0A3FCF7E778010024B0
:1019500080B582B000AF7860034BDB684FF0FF3199
:10196000184610F095FCF7E77801002480B582B0A6
:1019700000AF7860034B1B694FF0FF31184610F041
:1019800087FCF7E77801002480B588B000AF786065
:101990000023FB83574B5B694FF0FF31184610F073
:1019A00077FC0346012BF5D1524BDB6A0133514AD8
:1019B000D362504B93F8A430002B21D04E4B1B68C0
:1019C0004FF0FF3118460FF0F8FD0346002B17D1FA
:1019D0004A494B4801F05AFA0346002B07D0454BC1
:1019E000D3F8B0300133434AC2F8B03003E0414B82
:1019F0000022C3F8B020404B1B6818460FF028FEA9
:101A00003C4B93F8A430002BC4D03A4BD3F8B03001
:101A1000002BBFD1374BD3F88030BB61354BD3F8A7
:101A200084307B61334BD3F888303B61D7ED067A45
:101A300027EEA77AD7ED057A67EEA77A37EE277AF1
:101A4000D7ED047A67EEA77A77EE277AB0EE670AC9
:101A500013F0D2FF87ED030AD7ED037AB7EE087AC9
:101A6000F4EEC77AF1EE10FA08DCD7ED037AB6EEA1
:101A7000007AF4EEC77AF1EE10FA0AD51D4B012276
:101A800083F8AD2001224FF480411E4807F026F96B
:101A900009E0184B002283F8AD2000224FF480416A
:101AA000184807F01BF9D7ED047A9FED177AF4EE8A
:101AB000C77AF1EE10FA10D5FB8B0133FB83FB8B59
:101AC000052B7FF667AF0B4B012283F8AC20012278
:101AD00001210C4807F002F95CE70023FB83054B6A
:101AE000002283F8AC2000220121064807F0F6F816
:101AF00050E700BF780100240C0C0024F8010024FA
:101B0000B0040024000402586666263F80B582B007
:101B100000AF7860174B322283F81821154B002252
:101B200083F81921134B9B694FF0FF31184610F0D1
:101B3000AFFB0346012BF5D10E4B1B6B01330D4A56
:101B400013630C4B93F8AC30002B04D1094B93F882
:101B50001931002B05D0002200210020FEF786FF5E
:101B600007E0044B93F818311A4601210020FEF7D4
:101B70007DFFD7E77801002480B598B002AF786088
:101B800000237B6500233B650023FB64A74A07F124
:101B90001C0392E8030083E80300FFF7B9FAA44BA3
:101BA0001B6A4FF0FF31184610F072FB0346012B01
:101BB000F5D19F4B9B6B01339D4A93639C4B1B68F4
:101BC000BB649B4B93F80831012B10D107F11C0328
:101BD0001846FEF7BFFE964ABB6CC2F81031944B14
:101BE000012283F81421924B002283F8082102215C
:101BF000904807F05BF80346012B04D18C4B01227F
:101C000083F87D2003E08A4B002283F87D208A4BF5
:101C10001B780133DAB2884B1A70874B1B78012B83
:101C2000BDD9BB6C854AA2FB03239A09844BA3FB55
:101C3000021359090B461B015B1A9B00D31A7B65E3
:101C4000BB6C804AA2FB03239A0B7D4BA3FB0213C0
:101C500059090B461B015B1A9B00D31A3B65BB6CF1
:101C6000794AA2FB03235B0DFB64714BD3ED197A18
:101C7000FDEEE77A17EE903A07F1240001937B6DB1
:101C800000933B6DFA6C714912F024FE0021002094
:101C9000FFF70AFA07F124031846FFF7EFF90021CE
:101CA0000120FFF701FA624B93F87D30012B01D13F
:101CB000674B00E0674B7B645D4B93F81431012B5D
:101CC0001CD15B4BD3F81031BA6CD31A40F6B73243
:101CD000934207D807F124007B6C5F4A5F4912F0FA
:101CE000F9FD12E0524B002283F8142107F1240081
:101CF0007B6C5B4A594912F0EDFD06E007F12400C8
:101D00007B6C574A554912F0E5FD07F1240318464C
:101D1000FFF7B4F900210220FFF7C6F9444B93F80E
:101D2000AC30002B0DD0424BD3ED1A7AFDEEE77AA2
:101D300007F1240017EE903A4A4A4B4912F0CAFDC7
:101D40001FE03B4B93F8AD30002B0DD0384BD3ED5B
:101D50001A7AFDEEE77A07F1240017EE903A434A2B
:101D6000414912F0B7FD0CE0314BD3ED1A7AFDEE8C
:101D7000E77A07F1240017EE903A3D4A3A4912F00B
:101D8000A9FD07F124031846FFF778F90021032085
:101D9000FFF78AF9264B93F87C30012B0DD1244BA9
:101DA000D3ED177AFDEEE77A07F1240017EE903AAB
:101DB000304A314912F08EFD2FE01D4B93F8AC30C4
:101DC000002B04D11A4B93F81931002B0DD0184B6E
:101DD000D3ED177AFDEEE77A07F1240017EE903A7B
:101DE000264A254912F076FD17E0114B93F8183179
:101DF0001A4607F10C032249184612F06BFD0C4BF2
:101E0000D3ED177AFDEEE77A07F10C0207F1240013
:101E100017EE903A184912F05DFD07F124031846B9
:101E2000FFF72CF9044B00221A70B8E67C5F01081A
:101E300078010024000C025876010024D34D621072
:101E40008988888873B2E745B17C2195B85E01081E
:101E5000D85E0108E05E0108E85E0108F85E01084E
:101E6000045F0108105F01081C5F0108305F010872
:101E70003C5F0108485F0108585F0108685F01087E
:101E8000705F010880B586B000AF78604FF0000346
:101E90003B614FF00003FB60284B5B6A4FF0FF3162
:101EA000184610F0F5F90346012BF5D1234BDB6BF7
:101EB0000133224AD363FFF7B9FA214B1B78013370
:101EC000DAB21F4B1A701E4B1B78042BE4D910F0AA
:101ED000CDFE07F10C0207F1100311461846FFF77B
:101EE000C3F90346FB7510F0CFFEFB7D012B20D11B
:101EF000D7ED047A9FED137AF4EEC77AF1EE10FA7B
:101F000017DDD7ED037A9FED0F7AF4EEC77AF1EE85
:101F100010FA0EDDD7ED047A9FED0B7AF4EEC77A56
:101F2000F1EE10FA05D53B69044A5366FB68034A93
:101F30009366034B00221A70AEE700BF78010024BD
:101F400077010024CDCCCC3D0000A04280B5AEB0DE
:101F500000AF78600023C7F8B030314B9B6A4FF078
:101F6000FF31184610F094F90346012BF5D12C4BA4
:101F70001B6C01332A4A1364294B93F8A430002BBD
:101F800003D00221274806F0C2FE274B1B78DBB2A4
:101F9000012B41D107F110032449184612F09AFC95
:101FA000C7F8B0000023C7F8B43014E0204B1B681A
:101FB000DB6903F08003002BF8D007F11002D7F89B
:101FC000B43013441A781A4B1B689A62D7F8B430AD
:101FD0000133C7F8B430D7F8B420D7F8B0309A42FC
:101FE000E4DBFFE7124B1B68DB6903F04003002BC7
:101FF000F8D0BFF34F8F00BFBFF36F8F00BF002338
:10200000FB6003E000BFFB680133FB60FB68094A2B
:102010009342F7D300BFFDE7074807F009FF9CE7AD
:10202000780100240010025875010024845F010823
:10203000F80500240024F4000405002480B500AF56
:1020400001F082FD00F0AEF800F054FC00F02AFC34
:1020500000F0AAFB00F0F4FB00F0EAF900F028FA27
:1020600000F09AF900F0D0FA00F01CF900F07EFAC6
:1020700000F04CFBFEF75EFE0FF000F92B480FF06E
:1020800016FA03462A4A1360FFF706FC294A002184
:1020900029480FF05FF90346284A1360284A0021B7
:1020A00028480FF057F90346274A1360274A0021B2
:1020B00027480FF04FF90346264A1360264A0021AD
:1020C00026480FF047F90346254A1360254A0021A8
:1020D00025480FF03FF90346244A1360244A0021A3
:1020E00024480FF037F90346234A1360234A00219E
:1020F00023480FF02FF90346224A1360224A002199
:1021000022480FF027F90346214A1360214A002193
:1021100021480FF01FF90346204A136020480BF0B6
:10212000AFFD00F005FA0FF0EFF8FEE724630108B9
:102130000C0C0024E061010835190008E80B0024AC
:102140000462010851190008EC0B00242862010800
:102150006D190008F00B00244C6201088919000871
:10216000F40B0024706201080D1B0008F80B00241A
:1021700094620108312B0008FC0B0024B8620108AE
:10218000791B0008000C0024DC620108851E000891
:10219000040C0024006301084D1F0008080C0024F3
:1021A000AC05002480B59CB000AF07F124034C229D
:1021B0000021184612F0F1FB3B1D20220021184699
:1021C00012F0EBFB042007F073FF00233B60334B5E
:1021D000DB6A324A23F00103D362304BDB6A03F03F
:1021E00001033B602E4B9B6923F440432C4A43F48C
:1021F000804393612A4B9B6903F440433B603B68F7
:1022000000BF274B9B6903F40053B3F5005FF8D17F
:1022100009237B624FF4A023BB620123BB6302232B
:10222000BB640223FB6401233B6512237B6502230D
:10223000BB650223FB6502233B660C237B660223FE
:10224000BB664FF4C053FB6607F12403184607F042
:1022500099FF0346002B01D000F058FD3F237B601F
:102260000323BB600023FB6000233B6140237B61B1
:102270004023BB614FF48063FB6140233B623B1D05
:102280000121184608F0D8FB0346002B01D000F0CE
:102290003DFD00BF7037BD4680BD00BF0004005843
:1022A0000048025880B58AB000AF07F11C03002235
:1022B0001A605A609A603B4600221A605A609A601F
:1022C000DA601A615A619A61304B314A1A602F4BB9
:1022D0004FF420125A602D4B00229A602B4B0022A3
:1022E000DA602A4B04221A61284B00221A75274B08
:1022F00001225A75254B01229A61244B00221A773C
:10230000224B00225A62214B00229A621F4B032269
:10231000DA621E4B00221A631C4B00225A631B4BCD
:10232000002283F83820194801F096FE0346002B5E
:1023300001D000F0EBFC0023FB6107F11C03194600
:10234000124802F0B9FE0346002B01D000F0DEFC7B
:10235000104B3B6006237B600723BB6040F2FF739A
:10236000FB6004233B6100237B6100237B763B46BB
:102370001946064802F0F4F80346002B01D000F09D
:10238000C5FC00BF2837BD4680BD00BFD002002479
:10239000002002400080F03E80B500AF1E4B1F4A77
:1023A0001A601F4B00221A701D4B80225A701C4B62
:1023B000E1229A701A4B0022DA70194B00221A712E
:1023C000174B00225A71144B154A5A60124B0122C6
:1023D0001A72114B134ADA600F4B134A1A610E4BF3
:1023E00040F2F4525A610C4805F07CFE0346002B83
:1023F00001D000F08BFC382200210C4812F0CDFAFD
:102400000A4B21221A60094B4FF440325A61074BA4
:1024100000221A6100BF80BDAC030024008002408E
:10242000100C0024D400002474000024980200241E
:1024300080B500AF1B4B1C4A1A601A4B1B4A5A60EE
:10244000184B00229A60174B0122DA60154B0022CC
:102450001A61144B00225A61124B00229A61114BEF
:102460000022DA610F4B00221A620E4806F06AFC65
:102470000346002B01D000F049FC0021094807F079
:10248000F1FB0346002B01D000F040FC0021054881
:1024900007F033FC0346002B01D000F037FC00BFEF
:1024A00080BD00BF5C04002400540040CE9F90001B
:1024B00080B500AF1B4B1C4A1A601A4B1B4A5A606E
:1024C000184B00229A60174B0122DA60154B00224C
:1024D0001A61144B00225A61124B00229A61114B6F
:1024E0000022DA610F4B00221A620E4806F02AFC25
:1024F0000346002B01D000F009FC0021094807F039
:10250000B1FB0346002B01D000F000FC0021054880
:1025100007F0F3FB0346002B01D000F0F7FB00BFF0
:1025200080BD00BFB004002400580040CE9F900042
:1025300080B500AF0B4B0C4A1A600A4B04225A605C
:10254000084B40F6FF72DA60064B40F2EE229A60CA
:10255000044807F01EFC0346002B01D000F0D6FB18
:1025600000BF80BD040500240048005880B588B035
:1025700000AF07F1100300221A605A609A60DA6017
:102580003B1D00221A605A609A601E4B4FF0804239
:102590001A601C4B4A225A601A4B00229A60194B4F
:1025A0004FF0FF32DA60174B00221A61154B802280
:1025B0009A6114480BF00CFB0346002B01D000F08D
:1025C000A5FB4FF480533B6107F1100319460D48FA
:1025D0000BF05AFF0346002B01D000F097FB0023BD
:1025E0007B600023FB603B1D194606480CF0ACFCE9
:1025F0000346002B01D000F089FB00BF2037BD4609
:1026000080BD00BF1405002480B58EB000AF07F177
:10261000280300221A605A609A60DA6007F11C03EE
:1026200000221A605A609A603B4600221A605A6083
:102630009A60DA601A615A619A61324B324A1A60C2
:10264000304B00225A602F4B00229A602D4B4FF6E0
:10265000FF72DA602B4B00221A612A4B00229A612A
:1026600028480BF0B5FA0346002B01D000F04EFBD2
:102670004FF48053BB6207F12803194621480BF041
:1026800003FF0346002B01D000F040FB1D480BF078
:102690006FFB0346002B01D000F038FB0023FB61E9
:1026A00000237B6207F11C03194616480CF04CFC12
:1026B0000346002B01D000F029FB60233B60002380
:1026C0007B600023BB6000233B613B460022194630
:1026D0000C480BF0C5FD0346002B01D000F016FBA3
:1026E0003B460422194607480BF0BAFD0346002B6F
:1026F00001D000F00BFB034800F012FF00BF383799
:10270000BD4680BD600500240004004080B588B04F
:1027100000AF07F1100300221A605A609A60DA6075
:102720003B1D00221A605A609A601D4B1D4A1A60B8
:102730001B4B4A225A601A4B00229A60184B40F2F7
:10274000E732DA60164B00221A61154B00229A61BB
:1027500013480BF03DFA0346002B01D000F0D6FAE7
:102760004FF480533B6107F1100319460C480BF0FE
:102770008BFE0346002B01D000F0C8FA00237B60DB
:102780000023FB603B1D194605480CF0DDFB0346AA
:10279000002B01D000F0BAFA00BF2037BD4680BD43
:1027A000AC050024000C004080B500AF224B234A4A
:1027B0001A60214B4FF4E1325A601F4B00229A609D
:1027C0001D4B0022DA601C4B00221A611A4B0C22AE
:1027D0005A61194B00229A61174B0022DA61164B9D
:1027E00000221A62144B00225A62134B00229A6292
:1027F00011480CF055FC0346002B01D000F086FA7E
:1028000000210D480EF024F90346002B01D000F002
:102810007DFA002108480EF059F90346002B01D03B
:1028200000F074FA04480EF0DAF80346002B01D0E9
:1028300000F06CFA00BF80BDF8050024004800409D
:1028400080B500AF154B164A1A60144B09221A7155
:10285000124B0222DA71114B00229A710F4B0222A5
:102860005A720E4B00229A720C4B0022DA720B4BFA
:1028700000221A73094B01225A73084B01229A73E2
:10288000064B0022DA73054807F0E2FA0346002BF4
:1028900001D000F03BFA00BF80BD00BF0407002458
:1028A0000000084080B582B000AF114BD3F8D8309B
:1028B0000F4A43F00103C2F8D8300D4BD3F8D8309B
:1028C00003F001037B607B68002205210B2002F0EE
:1028D000A0FD0B2002F0B7FD002205210C2002F024
:1028E00098FD0C2002F0AFFD00BF0837BD4680BD4B
:1028F0000044025880B58CB000AF07F11C030022E1
:102900001A605A609A60DA601A61604BD3F8E0305E
:102910005E4A43F00403C2F8E0305C4BD3F8E03089
:1029200003F00403BB61BB69584BD3F8E030574A4E
:1029300043F08003C2F8E030544BD3F8E03003F0AA
:1029400080037B617B69514BD3F8E0304F4A43F001
:102950000103C2F8E0304D4BD3F8E03003F001033F
:102960003B613B69494BD3F8E030484A43F00203EE
:10297000C2F8E030454BD3F8E03003F00203FB60CF
:10298000FB68424BD3F8E030404A43F00803C2F8FA
:10299000E0303E4BD3F8E03003F00803BB60BB6887
:1029A0003A4BD3F8E030394A43F04003C2F8E03004
:1029B000364BD3F8E03003F040037B607B68334B49
:1029C000D3F8E030314A43F01003C2F8E0302F4B27
:1029D000D3F8E03003F010033B603B68002244F280
:1029E00001012B4806F07AF901220121294806F05D
:1029F00075F900220221284806F070F94FF40053BF
:102A0000FB6100233B6200237B6207F11C03194634
:102A1000224805F09BFF44F20103FB6101233B6266
:102A200000237B620023BB6207F11C031946184890
:102A300005F08CFF0123FB6101233B6201237B62D4
:102A40000223BB6207F11C031946124805F07EFF02
:102A50000223FB6100233B6201237B6207F11C031D
:102A600019460C4805F072FF0223FB6101233B620B
:102A700000237B620023BB6207F11C031946064852
:102A800005F064FF00BF3037BD4680BD00440258EA
:102A900000040258000C02580010025800080258A6
:102AA00080B582B000AF0346FB71FB79194606483A
:102AB00011F0FEFEFB79012B01D102F0D2FC00BF28
:102AC0000837BD4680BD00BF6860010880B582B090
:102AD00000AF0346FB71FB79642B09D8094AFB79E7
:102AE00082F81831FB791946074811F0E1FE04E03D
:102AF000FB791946054811F0DBFE00BF0837BD46DB
:102B000080BD00BF780100249C600108D0600108EE
:102B100080B582B000AF0346FB71FB7919460348CC
:102B200011F0C6FE00BF0837BD4680BD0C6101082C
:102B300080B582B000AF786001200EF09DFCFBE70D
:102B400080B584B000AF78607B681B68674A9342A9
:102B500001D101F035F87B681B68654A934240F06B
:102B6000C2800EF0AFFB0346022B40F0BB80002377
:102B7000FB60604B1B6801335E4A13605D4B9B68D2
:102B800007F10C02114618460FF015FA594B1B6855
:102B900003F00103002B07D1564BDB6807F10C0251
:102BA000114618460FF007FA524B1B6803F0030357
:102BB000002B07D14F4B1B6907F10C021146184639
:102BC0000FF0F9F94B4B19684B4BA3FB0123DA08C3
:102BD00013469B0013445B00CA1A002A07D1454BD9
:102BE0005B6907F10C02114618460FF0E4F9414BFE
:102BF0001968414BA3FB01231A0913469B00134498
:102C00009B00CA1A002A07D13A4B9B6907F10C02B4
:102C1000114618460FF0CFF9364B1968364BA3FB17
:102C200001235A0913469B001344DB00CA1A002AE9
:102C300007D1304BDB6907F10C02114618460FF043
:102C4000BAF92C4B1A682D4BA3FB02135B096421C4
:102C500001FB03F3D31A002B07D1264B1B6A07F1A4
:102C60000C02114618460FF0A6F9224B1A68234BA6
:102C7000A3FB02139B09C82101FB03F3D31A002B0A
:102C800007D11C4B5B6A07F10C02114618460FF086
:102C900092F9184B1A681A4BA3FB02139B094FF4C5
:102CA0007A7101FB03F3D31A002B0FD1114B9B6AEE
:102CB00007F10C02114618460FF07DF90D4B1B6809
:102CC000104A934202D90B4B00221A60FB68002B7A
:102CD00009D00D4B4FF080521A60BFF34F8FBFF3F6
:102CE0006F8F00E000BF1037BD4680BD000001407F
:102CF000000C004078010024CDCCCCCC1F85EB51DA
:102D0000D34D6210FF276BEE04ED00E080B400AFFE
:102D100072B600BFFEE7000080B582B000AF7860F9
:102D200039603B68002B01D1012329E01648FDF7EB
:102D300043FD786800F030F80346002B0DD13B6866
:102D4000012283F824201148FDF736FD01220121DC
:102D50000F4805F0C3FF002312E03B68002283F810
:102D600024203B689B6A5A1C3B689A620948FDF71D
:102D700023FD01224FF48041054805F0AFFF0123F8
:102D800018460837BD4680BD3861010860610108FA
:102D9000000402587C61010880B588B004AF7860F7
:102DA000642302930123019307F10E03009301238F
:102DB0007522D021786806F08DFA0346FB73FB7B01
:102DC000002B01D001235CE0BB7B682B02D0BB7BD6
:102DD000702B55D100237B7364230293012301934D
:102DE00007F10D03009301236B22D021786806F0D0
:102DF0005DF90346FB73FB7B002B01D0012340E010
:102E00000A2000F0FDFE03237B7364230293012359
:102E1000019307F10D03009301231A22D021786852
:102E200006F044F900237B7364230293012301938A
:102E300007F10D03009301231C22D021786806F0CE
:102E400035F90346FB73FB7B002B01D0012318E00F
:102E500000237B73642302930123019307F10D0385
:102E6000009301231B22D021786806F01FF9034646
:102E7000FB73FB7B002B01D0012302E0002300E069
:102E8000012318461037BD4680BD000080B58AB0CA
:102E900004AF78603960642302930E23019307F135
:102EA0000803009301233B22D021786806F012FA30
:102EB0000346002B40F086803B7A1B021AB27B7AD5
:102EC0001BB213431BB207EE903AB8EEE77ADFED80
:102ED000406AC7EE267A3B68C3ED007ABB7A1B02D4
:102EE0001AB2FB7A1BB213431BB207EE903AB8EE4C
:102EF000E77ADFED376AC7EE267A3B68C3ED017AE1
:102F00003B7B1B021AB27B7B1BB213431BB207EE47
:102F1000903AB8EEE77ADFED2E6AC7EE267A3B6884
:102F2000C3ED027ABB7B1B021AB2FB7B1BB21343BD
:102F3000FB82B7F9163007EE903AB8EEE77ADFED8C
:102F4000256AC7EE267A9FED247A77EE877A3B686A
:102F5000C3ED067A3B7C1B021AB27B7C1BB2134387
:102F60001BB207EE903AB8EEE77ADFED1C6AC7EEC7
:102F7000267A3B68C3ED037ABB7C1B021AB2FB7C4A
:102F80001BB213431BB207EE903AB8EEE77ADFEDBF
:102F9000136AC7EE267A3B68C3ED047A3B7D1B02B9
:102FA0001AB27B7D1BB213431BB207EE903AB8EE08
:102FB000E77ADFED0A6AC7EE267A3B68C3ED057A49
:102FC000002300E0012318461837BD4680BD00BF2E
:102FD000000080460000AA43B81E124200000343CE
:102FE00080B582B000AF0C4BD3F8F4300A4A43F0FE
:102FF0000203C2F8F430084BD3F8F43003F00203B4
:103000007B607B6800220F216FF0010002F001FA63
:1030100000BF0837BD4680BD0044025880B5BAB035
:1030200000AF786007F1D40300221A605A609A60FA
:10303000DA601A6107F11003C0220021184611F06E
:10304000ACFC7B681B68444A934240F081804FF49B
:1030500000224FF00003C7E904230123BB611223C0
:10306000FB6102233B6202237B620223BB62C0231B
:10307000FB6220233B634FF4C0537B630023C7F8FC
:10308000B43007F11003184608F0A4F80346002BEB
:1030900001D0FFF73BFE314BD3F8D8302F4A43F035
:1030A0002003C2F8D8302D4BD3F8D83003F02003DA
:1030B000FB60FB68294BD3F8E030284A43F001035A
:1030C000C2F8E030254BD3F8E03003F00103BB60D9
:1030D000BB680823C7F8D4300323C7F8D8300023CF
:1030E000C7F8DC3007F1D40319461D4805F02EFC63
:1030F0001C4B1D4A1A601B4B09225A60194B0022B7
:103100009A60184B0022DA60164B4FF480621A6105
:10311000144B4FF400625A61124B4FF400529A6103
:10312000104B4FF48072DA610E4B00221A620D4B85
:1031300000225A620B4802F099F90346002B01D095
:10314000FFF7E4FD7B68074ADA64064A7B6893630D
:1031500000BFE837BD4680BD002002400044025851
:1031600000000258340300242800024080B58EB0CD
:1031700000AF786007F1240300221A605A609A6059
:10318000DA601A617B681B68594A934240F0AB8051
:10319000584BD3F8D830574A43F40043C2F8D830DC
:1031A000544BD3F8D83003F400433B623B6A514B95
:1031B000D3F8D8304F4A43F48033C2F8D8304D4B5F
:1031C000D3F8D83003F48033FB61FB69494BD3F863
:1031D000D830484A43F40033C2F8D830454BD3F8CE
:1031E000D83003F40033BB61BB69424BD3F8E03005
:1031F000404A43F00403C2F8E0303E4BD3F8E030DD
:1032000003F004037B617B693A4BD3F8E030394A21
:1032100043F00103C2F8E030364BD3F8E03003F05E
:1032200001033B613B69334BD3F8E030314A43F053
:103230000203C2F8E0302F4BD3F8E03003F0020372
:10324000FB60FB682B4BD3F8E0302A4A43F0400385
:10325000C2F8E030274BD3F8E03003F04003BB6006
:10326000BB6832237B620223BB620023FB62002324
:103270003B630B237B6307F1240319461E4805F0CB
:1032800065FB86237B620223BB620023FB62002373
:103290003B630B237B6307F124031946174805F0B2
:1032A00055FB4FF400537B620223BB620023FB6299
:1032B00000233B630B237B6307F12403194610486B
:1032C00005F044FB4FF420537B620223BB620023D2
:1032D000FB6200233B630B237B6307F12403194646
:1032E000084805F033FB00BF3837BD4680BD00BF3E
:1032F00000800240004402580008025800000258B2
:10330000000402580018025880B5BCB000AF7860C5
:1033100007F1DC0300221A605A609A60DA601A61D1
:1033200007F11803C0220021184611F036FB7B6814
:103330001B684D4A934247D14FF008024FF00003FB
:10334000C7E906230023C7F89C3007F11803184685
:1033500007F040FF0346002B01D0FFF7D7FC434B9B
:10336000D3F8E030414A43F00203C2F8E0303F4B6B
:10337000D3F8E03003F002037B617B694FF44073C4
:10338000C7F8DC301223C7F8E0300023C7F8E43078
:103390000023C7F8E8300423C7F8EC3007F1DC035A
:1033A0001946334805F0D2FA304BD3F8E8302F4AAB
:1033B00043F40013C2F8E8302C4BD3F8E83003F4A0
:1033C00000133B613B694BE07B681B68294A9342D1
:1033D00046D14FF008024FF00003C7E9062300234F
:1033E000C7F89C3007F11803184607F0F3FE0346B0
:1033F000002B01D0FFF78AFC1C4BD3F8E0301B4AAE
:1034000043F00203C2F8E030184BD3F8E03003F089
:103410000203FB60FB684FF44063C7F8DC30122303
:10342000C7F8E0300023C7F8E4300023C7F8E830DD
:103430000423C7F8EC3007F1DC0319460C4805F00B
:1034400085FA0A4BD3F8E830084A43F48003C2F8FF
:10345000E830064BD3F8E83003F48003BB60BB6868
:1034600000BFF037BD4680BD005400400044025804
:10347000000402580058004080B586B000AF786064
:103480007B681B68B3F1804F0FD1224BD3F8E83033
:10349000204A43F00103C2F8E8301E4BD3F8E8306D
:1034A00003F001037B617B6930E07B681B681A4A8B
:1034B00093420FD1174BD3F8E830164A43F002037A
:1034C000C2F8E830134BD3F8E83003F002033B6155
:1034D0003B691BE07B681B68104A934216D10D4B79
:1034E000D3F8E8300B4A43F00803C2F8E830094B40
:1034F000D3F8E83003F00803FB60FB6800220621E4
:10350000322001F086FF322001F09DFF00BF183706
:10351000BD4680BD0044025800040040000C00403D
:1035200080B58AB000AF786007F1140300221A60FA
:103530005A609A60DA601A617B681B68224A93427B
:103540003DD1224BD3F8E030204A43F00403C2F8C7
:10355000E0301E4BD3F8E03003F004033B613B69DD
:103560001A4BD3F8E030194A43F00203C2F8E030B6
:10357000164BD3F8E03003F00203FB60FB688023B6
:103580007B610223BB610023FB6100233B620223BA
:103590007B6207F1140319460D4805F0D7F9102393
:1035A0007B610223BB610023FB6100233B6202239A
:1035B0007B6207F114031946064805F0C7F900BFFE
:1035C0002837BD4680BD00BF0004004000440258BB
:1035D000000802580004025880B5BAB000AF786005
:1035E00007F1D40300221A605A609A60DA601A6107
:1035F00007F11003C0220021184611F0CEF97B68B4
:103600001B68424A93427DD14FF002024FF0000303
:10361000C7E904230023C7F8883007F110031846D0
:1036200007F0D8FD0346002B01D0FFF76FFB384BA6
:10363000D3F8E830364A43F48023C2F8E830344BFC
:10364000D3F8E83003F48023FB60FB68304BD3F8F9
:10365000E0302F4A43F00803C2F8E0302C4BD3F897
:10366000E03003F00803BB60BB684FF44073C7F859
:10367000D4300223C7F8D8300023C7F8DC30002349
:10368000C7F8E0300723C7F8E43007F1D403194640
:10369000204805F05BF9204B204A1A601E4B2D2272
:1036A0005A601D4B00229A601B4B0022DA601A4BB5
:1036B0004FF480621A61184B00225A61164B0022A7
:1036C0009A61154B4FF48072DA61134B00221A6233
:1036D000114B00225A62104801F0C8FE0346002B2D
:1036E00001D0FFF713FB7B680B4AC3F880200A4A1E
:1036F0007B68936300220521272001F08AFE2720A2
:1037000001F0A1FE00BFE837BD4680BD0048004083
:1037100000440258000C02588C060024100002409D
:1037200080B5BAB000AF786007F1D40300221A6008
:103730005A609A60DA601A6107F11003C022002112
:10374000184611F02AF97B681B68384A934269D100
:103750004FF480224FF00003C7E904230123BB6329
:103760001223FB6302233B6403237B640223BB64B9
:103770004FF44063FB644FF4C0537B654FF4001378
:10378000C7F8983007F11003184607F023FD0346E9
:10379000002B01D0FFF7BAFA06F0E4FC244BD3F873
:1037A000E030234A43F00103C2F8E030204BD3F865
:1037B000E03003F00103FB60FB684FF4C853C7F827
:1037C000D4300223C7F8D8300023C7F8DC300023F8
:1037D000C7F8E0300A23C7F8E43007F1D4031946EC
:1037E000144805F0B3F84FF40073C7F8D430002341
:1037F000C7F8D8300023C7F8DC3007F1D4031946E6
:103800000C4805F0A3F80A4BD3F8D830084A43F027
:103810000063C2F8D830064BD3F8D83003F0006309
:10382000BB60BB6800BFE837BD4680BD00000840F4
:10383000004402580000025880B58EB000AF786096
:103840007B680F2B44D800227968192001F0E1FD34
:10385000192001F0F8FD244A7B681360234BD3F84C
:10386000F030224A43F00103C2F8F0301F4BD3F886
:10387000F03003F00103BB60BB6807F10C0207F1F5
:1038800010031146184607F063FC07F04BFC034693
:103890005B007B637B6B164AA2FB03239B0C013B03
:1038A0003B63144B144A1A60124B40F2E732DA6061
:1038B000104A3B6B53600F4B00221A610D4B0022E4
:1038C0009A600C480AF084F90346002B07D101E006
:1038D000012305E007480AF0D3F9034600E001237D
:1038E00018463837BD4680BD0C00002400440258FD
:1038F00083DE1B43180C00240000014080B400AF9D
:10390000FEE780B400AFFEE780B400AFFEE780B40E
:1039100000AFFEE780B400AFFEE780B400AF00BFA9
:10392000BD465DF8047B704780B500AF024803F0E8
:10393000C7F800BF80BD00BF8C06002480B500AF73
:10394000024803F0BDF800BF80BD00BF340300246F
:1039500080B500AF02480AF07BFB00BF80BD00BF0E
:10396000180C002480B500AF094B1B68DB6903F01D
:103970001003102B07D1064B1B6810221A62054B4F
:10398000012283F8082102480BF068FC00BF80BDCB
:10399000F80500247801002480B500AF02480AF041
:1039A00057FB00BF80BD00BFAC05002480B586B0CA
:1039B00000AFF860B9607A6000237B610AE0AFF382
:1039C00000800146BB685A1CBA60CAB21A707B6993
:1039D00001337B617A697B689A42F0DB7B68184629
:1039E0001837BD4680BD80B586B000AFF860B960BD
:1039F0007A6000237B6109E0BB685A1CBA601B78BF
:103A00001846AFF300807B6901337B617A697B687C
:103A10009A42F1DB7B6818461837BD4680BD80B4FA
:103A200083B000AF78604FF0FF3318460C37BD46C7
:103A30005DF8047B704780B483B000AF7860396074
:103A40003B684FF400525A60002318460C37BD46BD
:103A50005DF8047B704780B483B000AF78600123C9
:103A600018460C37BD465DF8047B704780B485B0BE
:103A700000AFF860B9607A60002318461437BD467D
:103A80005DF8047B7047000080B586B000AF7860B9
:103A9000144A154BD31A7B617B693B61134B1B683E
:103AA000002B02D1114B124A1A60104B1A687B6826
:103AB00013443A699A4207D211F014F803460C22D3
:103AC0001A604FF0FF3309E0084B1B68FB60074B9F
:103AD0001A687B681344054A1360FB681846183758
:103AE000BD4680BD0000082400040000640C0024D2
:103AF000A01B0124DFF834D0FCF7C8FD0C480D49A9
:103B00000D4A002302E0D458C4500433C4188C4238
:103B1000F9D30A4A0A4C002301E013600432A2429E
:103B2000FBD310F0E5FFFEF789FA70470000082488
:103B30000000002474000024A86301084001002450
:103B4000A01B0124FEE7000080B582B000AF032077
:103B500001F054FC07F026F90246154B9B691B0A3D
:103B600003F00F031349CB5C03F01F0322FA03F3A6
:103B70007B600F4B9B6903F00F030E4AD35C03F08D
:103B80001F037A6822FA03F30B4A13600B4A7B681F
:103B900013600F20FFF750FE0346002B01D00123D6
:103BA00002E0FFF71DFA002318460837BD4680BD26
:103BB00000440258AC610108040000240000002405
:103BC00080B400AF064B1B781A46064B1B681344A3
:103BD000044A136000BFBD465DF8047B704700BF18
:103BE00010000024680C002480B400AF034B1B6855
:103BF0001846BD465DF8047B704700BF680C002482
:103C000080B584B000AF7860FFF7EEFFB8607B68E6
:103C1000FB60FB68B3F1FF3F05D00A4B1B781A46E7
:103C2000FB681344FB6000BFFFF7DEFF0246BB6882
:103C3000D31AFA689A42F7D800BF00BF1037BD46C2
:103C400080BD00BF1000002480B400AF034B1B6890
:103C50001B0C1846BD465DF8047B70470010005CE5
:103C600080B483B000AF7860064B5B6823F46002D9
:103C700004497B6813434B6000BF0C37BD465DF8B9
:103C8000047B70470004005880B483B000AF7860B4
:103C900039607B689B6823F47C123B681A437B681D
:103CA0009A6000BF0C37BD465DF8047B704780B456
:103CB00083B000AF786039607B689B6823F0E07266
:103CC0003B681A437B689A6000BF0C37BD465DF8BD
:103CD000047B704780B483B000AF78607B689B68DA
:103CE00003F0E07318460C37BD465DF8047B70475F
:103CF00080B487B000AFF860B9607A603B60FB6861
:103D000060331A46BB689B0013447B617B691B6868
:103D100003F000427B6803F0F8413B680B431A4311
:103D20007B691A6000BF1C37BD465DF8047B704795
:103D300080B485B000AFF860B9607A60FB681B6939
:103D400023F4F042BB6803F01F03796801FA03F320
:103D50001A43FB681A6100BF1437BD465DF8047B47
:103D6000704780B487B000AFF860B9607A60FB68D4
:103D700060331A46BB689B0013447B617B691B68F8
:103D800023F000427B681A437B691A6000BF1C372E
:103D9000BD465DF8047B704780B483B000AF7860A7
:103DA0007B68DB6803F44063002B01D1012300E052
:103DB000002318460C37BD465DF8047B704780B47D
:103DC00087B000AFF860B9607A60FB6830331A469C
:103DD000BB681B0A9B0003F00C0313447B617B69E7
:103DE0001A68BB6803F01F031F2101FA03F3DB43CA
:103DF0001A407B689B0E03F01F01BB6803F01F0392
:103E000001FA03F31A437B691A6000BF1C37BD46F1
:103E10005DF8047B704780B483B000AF7860396090
:103E20007B68DB6823F003023B681A437B68DA6037
:103E300000BF0C37BD465DF8047B704780B487B087
:103E400000AFF860B9607A60FB6814331A46BB684B
:103E50005B0E9B0003F0040313447B617B691A68CB
:103E6000BB681B0D03F01F03072101FA03F3DB43BB
:103E70001A40BB681B0D03F01F03796801FA03F3B6
:103E80001A437B691A6000BF1C37BD465DF8047B8E
:103E90007047000080B485B000AFF860B9607A6008
:103EA000FB68D3F8C020BB68C3F31303DB431A409D
:103EB0007B6803F018030849D940BB680B40C3F383
:103EC00013031A43FB68C3F8C02000BF1437BD4674
:103ED0005DF8047B704700BFFFFF0F0080B483B024
:103EE00000AF78607B689B6803F01F0318460C37AF
:103EF000BD465DF8047B704780B483B000AF786046
:103F00007B689A68044B13407A68936000BF0C3753
:103F1000BD465DF8047B7047C0FFFF5F80B483B08F
:103F200000AF78607B689B6803F00053B3F1005FDB
:103F300001D1012300E0002318460C37BD465DF88F
:103F4000047B704780B483B000AF78607B689A6868
:103F5000054B134043F080527B689A6000BF0C37DA
:103F6000BD465DF8047B7047C0FFFF6F80B483B02F
:103F700000AF78607B689B6803F08053B3F1805F8B
:103F800001D1012300E0002318460C37BD465DF83F
:103F9000047B704780B483B000AF78607B689A6818
:103FA000054B134043F001027B689A6000BF0C3759
:103FB000BD465DF8047B7047C0FFFF7F80B483B0CF
:103FC00000AF78607B689B6803F00103012B01D18F
:103FD000012300E0002318460C37BD465DF8047B42
:103FE0007047000080B483B000AF78607B689A6847
:103FF000054B134043F004027B689A6000BF0C3706
:10400000BD465DF8047B7047C0FFFF7F80B483B07E
:1040100000AF78607B689B6803F00403042B01D138
:10402000012300E0002318460C37BD465DF8047BF1
:10403000704780B483B000AF78607B689B6803F002
:104040000803082B01D1012300E0002318460C3798
:10405000BD465DF8047B704790B589B000AF7860CD
:104060000023FB770023BB607B68002B01D1012379
:104070008FE17B68DB68002B7B685B6D002B09D1CF
:104080007868FEF7CBFF7B6800229A657B68002288
:1040900083F850207B681B681846FFF73FFF0346F4
:1040A000002B04D07B681B681846FFF725FF7B6850
:1040B0001B681846FFF75AFF0346002B14D17B6894
:1040C0001B681846FFF73EFF874B1B689B09874A12
:1040D000A2FB03239B090133BB6002E0BB68013BE9
:1040E000BB60BB68002BF9D17B681B681846FFF7E3
:1040F0003DFF0346002B0DD17B685B6D43F0100242
:104100007B685A657B689B6D43F001027B689A650A
:104110000123FB777B681B681846FFF777FF786100
:104120007B685B6D03F01003002B40F029817B69F5
:10413000002B40F025817B685B6D23F4817343F095
:1041400002027B685A657B681B681846FFF736FFDA
:104150000346002B36D17B681B68654A934204D026
:104160007B681B68634A93420ED16148FFF726FFC4
:1041700004466048FFF722FF03462343002B0CBF91
:1041800001230023DBB208E05B48FFF717FF03467B
:10419000002B0CBF01230023DBB2002B12D07B6865
:1041A0001B68534A934204D07B681B68514A934270
:1041B00001D1524A00E0524A7B685B6819461046BA
:1041C000FFF762FDFFF740FD034641F20302934211
:1041D00014D97B689B68102B10D17B685B7D5A03D8
:1041E0007B681B6B1A437B689B681A437B681B7F49
:1041F0001B04134343F00C03BB610DE07B685B7D44
:104200005A037B681B6B1A437B689B681A437B6865
:104210001B7F1B041343BB617B681B7F012B06D1F3
:104220007B681B6A013B5B04BA691343BB617B6813
:104230005B6A002B09D07B685B6A03F478727B6849
:104240009B6A1343BA691343BB617B681B68DA68D6
:104250002C4B13407A681268B9690B43D3607B68B2
:104260001B681846FFF7D2FE38617B681B6818464A
:10427000FFF7DFFEF8603B69002B5FD1FB68002B86
:104280005CD17B681B7D9A037B68DB6A1343BB614F
:104290007B681B68DA681C4B13407A681268B9693E
:1042A0000B43D3607B6893F83830012B30D17B68A7
:1042B0005B6A002B7B681B681A69144B13407A6891
:1042C000D26B013A11047A68126C11437A68526C0D
:1042D00011437A68926C0A431A437B681B6842F068
:1042E00001021A611CE000BF00000024632D3E059E
:1042F00000200240002102400060025800230240DA
:104300000063025803C0F0FFFCBFFFFF1EF800FC73
:104310007B681B681A697B681B6822F001021A61BE
:104320007B681B681B6923F070417B685A6B7B6854
:104330001B680A431A61786800F08CFD7B68DB68B3
:10434000012B0CD17B681B681B6B23F00F017B6872
:104350009B695A1E7B681B680A431A6307E07B68E7
:104360001B681A6B7B681B6822F00F021A637B685C
:104370005B6D23F0030343F001027B685A6507E09D
:104380007B685B6D43F010027B685A650123FB7705
:10439000FB7F18462437BD4690BD00BF80B586B070
:1043A00000AFF860B9607A60FB681B68554A9342B9
:1043B00004D0FB681B68544A934201D1534B00E080
:1043C000534B1846FFF78AFD3861FB681B68184697
:1043D000FFF71CFE0346002B40F08C80FB6893F82F
:1043E0005030012B01D1022387E0FB68012283F8C2
:1043F00050203B69002B05D03B69052B02D03B695F
:10440000092B70D1F86800F007FC0346FB75FB7DB3
:10441000002B63D1FB685A6D3E4B134043F480720E
:10442000FB685A65FB681B68374A934202D0FB68F9
:104430001B6800E0334BFA681268934202D03B6974
:10444000002B05D1FB685B6D23F48012FB685A6575
:10445000FB685B6D03F48053002B06D0FB689B6DFB
:1044600023F00602FB689A6502E0FB6800229A6569
:10447000FB68DB6C284ADA63FB68DB6C274A1A644A
:10448000FB68DB6C264ADA64FB681B681C221A6036
:10449000FB68002283F85020FB681B685A68FB68A1
:1044A0001B6842F010025A60FB681A68FB68DB6AFE
:1044B00019461046FFF7AFFCFB68D86CFB681B6819
:1044C00040331946BA687B6801F02CFB0346FB7544
:1044D000FB681B681846FFF785FD0DE0FB680022AE
:1044E00083F8502008E00123FB75FB68002283F865
:1044F000502001E00223FB75FB7D18461837BD46AE
:1045000080BD00BF00200240002102400023024085
:1045100000630258FEF0FFFF2D4D0008054E000815
:10452000214E000880B483B000AF786000BF0C3724
:10453000BD465DF8047B704780B483B000AF7860FF
:1045400000BF0C37BD465DF8047B704780B483B074
:1045500000AF786000BF0C37BD465DF8047B704744
:1045600090B5A1B000AF78603960002387F87F3044
:104570000023BB603B68DB68654A93427B6893F825
:104580005030012B01D102232EE37B68012283F8F6
:1045900050207B681B681846FFF738FD0346002B48
:1045A00040F013833B681B68002B2CDB3B681B68C7
:1045B000C3F31303002B08D13B681B689B0E03F069
:1045C0001F03012202FA03F316E03B681B687B66B7
:1045D0007B6E93FAA3F33B663B6EBB66BB6E002B10
:1045E00001D1202303E0BB6EB3FA83F3DBB203F007
:1045F0001F03012202FA03F37A681268D1697A680C
:1046000012680B43D3617B6818683B6859683B6844
:104610001B681A46FFF7D3FB7B681B681846FFF739
:10462000F5FCB8677B681B681846FFF702FD7867E2
:10463000BB6F002B40F0B8807B6F002B40F0B48044
:104640007B6818683B6819683B689B681A46FFF7E7
:10465000F5FB304B1B6803F07043B3F1805F0BD167
:104660003B685A697B681B68DB689B0803F007039B
:104670005B0002FA03F31DE07B681B68DB6803F054
:104680001003002B0BD13B685A697B681B68DB6801
:104690009B0803F007035B0002FA03F30AE03B68A0
:1046A0005A697B681B68DB689B0803F004035B00A6
:1046B00002FA03F33B673B681B69042B2CD07B6831
:1046C00018683B6819693B681A683B6FFFF710FB75
:1046D0007B6818683B6819693B685B7E012B02D1D7
:1046E0004FF0004300E000231A46FFF73AFB7B68D7
:1046F00018683B6819693B681B7E012B02D14FF497
:10470000006300E000231A46FFF712FB4CE000BFF5
:104710000000FF470010005C7B681B681B6E03F005
:10472000F8423B681B689B069A4207D17B681B686E
:104730001A6E7B681B6822F000421A667B681B6851
:104740005B6E03F0F8423B681B689B069A4207D1F8
:104750007B681B685A6E7B681B6822F000425A66B1
:104760007B681B689B6E03F0F8423B681B689B06E6
:104770009A4207D17B681B689A6E7B681B6822F09F
:1047800000429A667B681B68DB6E03F0F8423B6868
:104790001B689B069A4207D17B681B68DA6E7B68B0
:1047A0001B6822F00042DA667B681B681846FFF738
:1047B00005FC0346002B40F011827B6818683B68BB
:1047C00019683B68DB681A46FFF764FB3B68DB68E7
:1047D000A14A934240F02E817B6818683B681B68B1
:1047E000C3F31303002B0BD13B681B689B0E0133F3
:1047F00003F01F03092B94BF01230023DBB219E050
:104800003B681B68BB65BB6D93FAA3F37B657B6D4F
:10481000FB65FB6D002B01D1202303E0FB6DB3FA98
:1048200083F3DBB2013303F01F03092B94BF012391
:104830000023DBB2002B79D03B681B68C3F3130362
:10484000002B07D13B681B689B0E01339B0603F0CE
:10485000F84215E03B681B68FB64FB6C93FAA3F31A
:10486000BB64BB6C3B653B6D002B01D1202303E097
:104870003B6DB3FA83F3DBB201339B0603F0F842DE
:104880003B681B68C3F31303002B09D13B681B680B
:104890009B0E013303F01F03012101FA03F317E01C
:1048A0003B681B683B643B6C93FAA3F3FB63FB6BB5
:1048B0007B647B6C002B01D1202303E07B6CB3FA7B
:1048C00083F3DBB2013303F01F03012101FA03F389
:1048D00042EA03013B681B68C3F31303002B0AD1B0
:1048E0003B681B689B0E013303F01F0213465B00FD
:1048F00013441B0518E03B681B687B637B6B93FAD2
:10490000A3F33B633B6BBB63BB6B002B01D1202349
:1049100003E0BB6BB3FA83F3DBB2013303F01F0296
:1049200013465B0013441B050B437EE03B681B688A
:10493000C3F31303002B07D13B681B689B0E0133A5
:104940009B0603F0F84215E03B681B68BB62BB6A3C
:1049500093FAA3F37B627B6AFB62FB6A002B01D1B3
:10496000202303E0FB6AB3FA83F3DBB201339B0637
:1049700003F0F8423B681B68C3F31303002B09D113
:104980003B681B689B0E013303F01F03012101FAF2
:1049900003F317E03B681B68FB61FB6993FAA3F321
:1049A000BB61BB693B623B6A002B01D1202303E062
:1049B0003B6AB3FA83F3DBB2013303F01F03012137
:1049C00001FA03F342EA03013B681B68C3F31303D4
:1049D000002B0DD13B681B689B0E013303F01F02B7
:1049E00013465B0013441E3B1B0543F000731BE0A2
:1049F0003B681B683B613B6993FAA3F3FB60FB6870
:104A00007B617B69002B01D1202303E07B69B3FA32
:104A100083F3DBB2013303F01F0213465B00134440
:104A20001E3B1B0543F000730B433A68926819461E
:104A3000FFF704FA3B681B68002B80F2CF807B688D
:104A40001B68064A934204D07B681B68044A934261
:104A50000AD1044B09E000BF0000FF4700200240DC
:104A60000021024000230240614B1846FFF732F953
:104A7000F8667B681B685F4A934204D07B681B68BA
:104A80005D4A93420ED15B48FFF798FA04465A48B4
:104A9000FFF794FA03462343002B0CBF01230023A6
:104AA000DBB208E05548FFF789FA0346002B0CBF3C
:104AB00001230023DBB2002B7DD03B681B68504AEA
:104AC000934230D1FB6E03F40003002B2BD17B68A3
:104AD0001B684A4A934240F081807B681B68454AC4
:104AE000934204D07B681B68434A934201D1454AF4
:104AF00000E03F4AFB6E43F4000319461046FFF7FF
:104B0000D6F8414B1B689B09404AA2FB03239B0933
:104B100001335B00BB6002E0BB68013BBB60BB686C
:104B2000002BF9D15AE03B681B68394A93421ED1E9
:104B3000FB6E03F08073002B19D17B681B682F4A32
:104B400093424BD17B681B682A4A934204D07B680E
:104B50001B68294A934201D12A4A00E0244AFB6E8D
:104B600043F0807319461046FFF7A1F836E03B6822
:104B70001B68284A934231D1FB6E03F48003002B5B
:104B80002CD17B681B681D4A934227D17B681B6828
:104B9000184A934204D07B681B68174A934201D19C
:104BA000184A00E0124AFB6E43F48003194610468F
:104BB000FFF77DF812E07B685B6D43F020027B68B5
:104BC0005A65012387F87F3008E07B685B6D43F00E
:104BD00020027B685A65012387F87F307B680022BA
:104BE00083F8502097F87F3018468437BD4690BD33
:104BF0000063025800200240002102400060025879
:104C0000000084CB0023024000000024632D3E05F9
:104C1000000052C70000B8CF80B584B000AF786004
:104C20007B681B681846FFF7C9F90346002B6ED155
:104C30007B681B689A68384B1340002B0DD07B684B
:104C40005B6D43F010027B685A657B689B6D43F097
:104C500001027B689A6501235AE07B681B6818464D
:104C6000FFF798F9FEF7C0FFF8607B681B682B4AD6
:104C7000934204D07B681B68294A934201D1294B97
:104C800000E0294B1846FFF729F9B8607B681B68DC
:104C9000234A934202D07B681B6800E01F4B7A686E
:104CA000126893422CD0BB68002B30D128E07B687F
:104CB0001B681846FFF782F90346002B04D17B6876
:104CC0001B681846FFF766F9FEF78EFF0246FB6881
:104CD000D31A022B14D97B681B681B6803F00103ED
:104CE000012B0DD07B685B6D43F010027B685A6529
:104CF0007B689B6D43F001027B689A65012307E0A6
:104D00007B681B681B6803F00103012BCFD10023D4
:104D100018461037BD4680BD3F000080002002408D
:104D200000210240002302400063025880B584B095
:104D300000AF78607B689B6BFB60FB685B6D03F08A
:104D40005003002B4BD1FB685B6D43F40072FB6892
:104D50005A65FB681B681B6803F00803002B21D011
:104D6000FB681B681846FFF717F80346002B32D084
:104D7000FB681B68DB6803F40053002B2BD1FB6836
:104D80005B6D23F48072FB685A65FB685B6D03F40E
:104D90008053002B1FD1FB685B6D43F00102FB6861
:104DA0005A6518E0FB681B68DB6803F00303002BFF
:104DB00011D1FB685B6D23F48072FB685A65FB6858
:104DC0005B6D03F48053002B05D1FB685B6D43F0F2
:104DD0000102FB685A65F868FFF7A4FB0EE0FB6868
:104DE0005B6D03F01003002B03D0F868FFF7AEFBF8
:104DF00004E0FB68DB6CDB6C7868984700BF103719
:104E0000BD4680BD80B584B000AF78607B689B6B89
:104E1000FB60F868FFF790FB00BF1037BD4680BD10
:104E200080B584B000AF78607B689B6BFB60FB68EB
:104E30005B6D43F04002FB685A65FB689B6D43F075
:104E40000402FB689A65F868FFF780FB00BF103723
:104E5000BD4680BD80B584B000AF78607B681B68BC
:104E60007A4A934204D07B681B68794A934209D1FD
:104E7000784B9B6803F44033002B14BF01230023BD
:104E8000DBB208E0744B9B6803F44033002B14BF83
:104E900001230023DBB2002B1CD006F0FDF8F860E4
:104EA0007B685B68B3F5403F10D0B3F5403F73D8E3
:104EB000B3F5803F02D0B3F5003F6DD17B685B68EE
:104EC0001B0CFA68B2FBF3F3FB6068E0FB689B081D
:104ED000FB6064E04FF400204FF0000107F084FB1A
:104EE000F8607B685B68B3F5301F51D0B3F5301FB5
:104EF00054D8B3F5201F47D0B3F5201F4ED8B3F5D3
:104F0000101F3DD0B3F5101F48D8B3F5001F33D0A4
:104F1000B3F5001F42D8B3F5E01F29D0B3F5E01F69
:104F20003CD8B3F5C01F1AD0B3F5C01F36D8B3F5BF
:104F3000A01F14D0B3F5A01F30D8B3F5801F0ED03A
:104F4000B3F5801F2AD8B3F5402F08D0B3F5402F12
:104F500024D8B3F5802F02D0B3F5002F1ED17B6883
:104F60005B689B0C5B00FA68B2FBF3F3FB6016E036
:104F7000FB681B09FB6012E0FB685B09FB600EE04D
:104F8000FB689B09FB600AE0FB68DB09FB6006E04D
:104F9000FB681B0AFB6002E000BF00E000BFFEF7F9
:104FA00053FE034641F20302934215D8FB682B4A95
:104FB000934208D97B681B689A687B681B6842F437
:104FC00080729A603EE07B681B689A687B681B6809
:104FD00022F480729A6035E0FB685B08FB60FB6836
:104FE0001F4A934208D87B681B689A687B681B68D5
:104FF00022F440729A6025E0FB681A4A93420AD86C
:105000007B681B689B6823F440727B681B6842F4D2
:1050100080729A6016E0FB68134A93420AD87B6854
:105020001B689B6823F440727B681B6842F4007223
:105030009A6007E07B681B689A687B681B6842F48B
:1050400040729A6000BF1037BD4680BD002002400C
:10505000002102400023024000630258002D31016C
:10506000105E5F0020BCBE0040787D0180B483B03C
:1050700000AF78607B689B6803F00103012B01D1CE
:10508000012300E0002318460C37BD465DF8047B81
:10509000704780B483B000AF78607B689B6803F092
:1050A0000403042B01D1012300E0002318460C3730
:1050B000BD465DF8047B704790B59FB000AF786047
:1050C0003960002387F877307B6893F85030012BE4
:1050D00001D10223BEE07B68012283F85020002327
:1050E000FB6500233B667B681B685C4A934202D1E8
:1050F0005B4BBB6001E00023BB60BB68002B0BD1A6
:105100007B685B6D43F020027B685A657B680022F8
:1051100083F8502001239DE0BB681846FFF7B9FFD4
:1051200038677B681B681846FFF7B3FF0346002B00
:105130007FD13B6F002B7CD17B681B68474A934231
:1051400004D07B681B68464A934201D1454B00E07E
:10515000454BFB663B681B68002B39D0FB6E9B6898
:1051600023F440423B685B681A43FB6E9A607B689D
:105170001B683A4A934204D07B681B68384A9342C2
:105180000ED13648FFF772FF04463548FFF76EFF31
:1051900003462343002B0CBF01230023DBB208E0AE
:1051A0003248FFF763FF0346002B0CBF01230023A7
:1051B000DBB2002B47D0FB6E9A682D4B13403A6848
:1051C00011683A6892680A431A43FB6E9A603AE0A3
:1051D000FB6E9B6823F44042FB6E9A607B681B6801
:1051E0001E4A934204D07B681B681D4A93420ED12D
:1051F0001A48FFF73BFF04461948FFF737FF0346FD
:105200002343002B0CBF01230023DBB208E0174827
:10521000FFF72CFF0346002B0CBF01230023DBB25A
:10522000002B10D0FB6E9A68114B1340FA6E9360FE
:1052300009E07B685B6D43F020027B685A650123BF
:1052400087F8773000E000BF7B68002283F85020A9
:1052500097F8773018467C37BD4690BD0020024055
:1052600000210240002302400063025800600258FF
:10527000E0F0FFFF80B485B000AF78607B6803F09A
:105280000703FB600B4BDB68BB60BA684FF6FF039C
:105290001340BB60FB681A02BB681A43064B1343FA
:1052A000BB60044ABB68D36000BF1437BD465DF8DD
:1052B000047B704700ED00E00000FA0580B400AF09
:1052C000044BDB681B0A03F007031846BD465DF874
:1052D000047B704700ED00E080B483B000AF03466C
:1052E000FB80B7F90630002B0BDBFB8803F01F02B5
:1052F0000749B7F906305B09012000FA02F241F8CC
:10530000232000BF0C37BD465DF8047B704700BF0B
:1053100000E100E080B483B000AF03463960FB8059
:10532000B7F90630002B0ADB3B68DAB20C49B7F953
:1053300006301201D2B20B4483F800230AE03B6826
:10534000DAB20849FB8803F00F03043B1201D2B222
:105350000B441A7600BF0C37BD465DF8047B7047DE
:1053600000E100E000ED00E080B489B000AFF8603B
:10537000B9607A60FB6803F00703FB61FB69C3F166
:105380000703042B28BF0423BB61FB690433062BEE
:1053900002D9FB69033B00E000237B614FF0FF3241
:1053A000BB6902FA03F3DA43BB681A407B699A408F
:1053B0004FF0FF317B6901FA03F3D9437B680B405F
:1053C000134318462437BD465DF8047B7047000040
:1053D00080B400AFBFF34F8F00BF064BDB6803F410
:1053E000E0620449044B1343CB60BFF34F8F00BF0F
:1053F00000BFFDE700ED00E00400FA0580B582B0D3
:1054000000AF78607868FFF735FF00BF0837BD460A
:1054100080BD80B586B000AF0346B9607A60FB817D
:10542000FFF74CFF78617A68B9687869FFF79CFFED
:105430000246B7F90E3011461846FFF76BFF00BF62
:105440001837BD4680BD80B582B000AF0346FB80F3
:10545000B7F906301846FFF73FFF00BF0837BD46D3
:1054600080BD80B500AFFFF7B3FF000080B586B008
:1054700000AF7860FEF7B8FB38617B68002B01D184
:10548000012316E37B681B68664A93424AD07B6817
:105490001B68654A934245D07B681B68634A934208
:1054A00040D07B681B68624A93423BD07B681B6894
:1054B000604A934236D07B681B685F4A934231D082
:1054C0007B681B685D4A93422CD07B681B685C4AF2
:1054D000934227D07B681B685A4A934222D07B684C
:1054E0001B68594A93421DD07B681B68574A9342F8
:1054F00018D07B681B68564A934213D07B681B68A0
:10550000544A93420ED07B681B68534A934209D099
:105510007B681B68514A934204D07B681B68504AE1
:10552000934201D1012300E00023002B00F03B81D6
:105530007B68022283F835207B68002283F83420C0
:105540007B681B68374A93424AD07B681B68364A9F
:10555000934245D07B681B68344A934240D07B68B5
:105560001B68334A93423BD07B681B68314A9342A5
:1055700036D07B681B68304A934231D07B681B6809
:105580002E4A93422CD07B681B682D4A934227D029
:105590007B681B682B4A934222D07B681B682A4A8F
:1055A00093421DD07B681B68284A934218D07B68C1
:1055B0001B68274A934213D07B681B68254A934295
:1055C0000ED07B681B68244A934209D07B681B6815
:1055D000224A934204D07B681B68214A934208D137
:1055E0007B681B681A687B681B6822F001021A60DE
:1055F00007E07B681B681A687B681B6822F0010261
:105600001A602FE0FEF7F0FA02463B69D31A052B29
:1056100028D97B6820225A657B68032283F83520CD
:10562000012346E2100002402800024040000240F0
:10563000580002407000024088000240A000024072
:10564000B800024010040240280402404004024016
:10565000580402407004024088040240A004024042
:10566000B80402407B681B681B6803F00103002B31
:10567000C8D17B681B681B687B617A69834B1340C8
:105680007B617B689A687B68DB681A437B681B696F
:105690001A437B685B691A437B689B691A437B6882
:1056A000DB691A437B681B6A13437A6913437B6186
:1056B0007B685B6A042B07D17B68DA6A7B681B6BAB
:1056C00013437A6913437B61714B1A68714B134022
:1056D000B3F1005F28D37B685B68282B03D97B6814
:1056E0005B682E2B17D97B685B683E2B03D97B68E0
:1056F0005B68422B0FD97B685B68462B03D97B68BC
:105700005B68482B07D97B685B684E2B05D97B68A3
:105710005B68522B01D8012300E00023002B03D04B
:105720007B6943F480137B617B681B687A691A602C
:105730007B681B685B697B617B6923F007037B6186
:105740007B685B6A7A6913437B617B685B6A042BC5
:1057500017D17B689B6A7A6913437B617B68DB6A3C
:10576000002B0ED0786802F033FB0346002B08D0E4
:105770007B6840225A657B68012283F8352001232B
:1057800097E17B681B687A695A61786802F06EFA63
:105790000346BB607B68DB6D03F01F033F229A402A
:1057A000BB689A60CDE07B681B683B4A934222D07D
:1057B0007B681B68394A93421DD07B681B68384A56
:1057C000934218D07B681B68364A934213D07B689B
:1057D0001B68354A93420ED07B681B68334A93425C
:1057E00009D07B681B68324A934204D07B681B68EF
:1057F000304A934201D1012300E00023002B00F046
:1058000097807B681B68244A934221D07B681B6881
:10581000224A93421CD07B681B68214A934217D0CE
:105820007B681B681F4A934212D07B681B681E4A24
:1058300093420DD07B681B681C4A934208D07B685A
:105840001B681B4A934203D07B681B68194A93422A
:105850007B68022283F835207B68002283F834209D
:105860007B681B681B687B617A69134B13407B6103
:105870007B689B68402B21D07B689B68802B02D182
:105880004FF480431BE0002319E000BF3F8010FE6F
:105890000010005C0000FFFF085402581C5402581E
:1058A0003054025844540258585402586C54025808
:1058B00080540258945402580F00FEFF10237A6857
:1058C000D268D2081A437B681B69DB081A437B68DD
:1058D0005B69DB081A437B689B69DB081A437B68BA
:1058E000DB69DB081A437B681B6A1B0913437A696F
:1058F00013437B617B681B687A691A607B681B684D
:105900001A466E4B13446E4AA2FB03231B099A00EE
:105910007B68DA65786802F0A9F90346FB607B686A
:10592000DB6D03F01F0301229A40FB685A6008E018
:105930007B6840225A657B68032283F83520012367
:10594000B7E07B681B685F4A934272D07B681B6834
:105950005D4A93426DD07B681B685C4A934268D075
:105960007B681B685A4A934263D07B681B68594A1C
:1059700093425ED07B681B68574A934259D07B683C
:105980001B68564A934254D07B681B68544A934222
:105990004FD07B681B68534A93424AD07B681B6890
:1059A000514A934245D07B681B68504A934240D08D
:1059B0007B681B684E4A93423BD07B681B684D4A0C
:1059C000934236D07B681B684B4A934231D07B6848
:1059D0001B684A4A93422CD07B681B68484A934212
:1059E00027D07B681B68474A934222D07B681B689C
:1059F000454A93421DD07B681B68444A934218D0A5
:105A00007B681B68424A934213D07B681B68414AFB
:105A100093420ED07B681B683F4A934209D07B6853
:105A20001B683E4A934204D07B681B683C4A934201
:105A300001D1012300E00023002B32D0786802F06E
:105A400043FA7B689B68802B02D17B6800225A60F6
:105A50007B685A687B681B6ED2B21A607B685B6E8B
:105A60007A68926E5A607B685B68002B10D07B6806
:105A70005B68082B0CD8786802F0C0FA7B68DB6E94
:105A800000221A607B681B6F7A68526F5A6008E0C8
:105A90007B680022DA667B6800221A677B68002236
:105AA0005A677B6800225A657B68012283F835209B
:105AB000002318461837BD4680BD00BFF8ABFDA7D0
:105AC000CDCCCCCC10000240280002404000024067
:105AD000580002407000024088000240A0000240CE
