:020000040800F2
:1000000000000824991C0008D91B0008DF1B000809
:10001000E51B0008EB1B0008F11B000800000000B6
:1000200000000000000000000000000031CA0008CD
:10003000F71B00080000000081CC0008559E000856
:10004000E91C0008E91C0008E91C0008E91C00087C
:10005000E91C0008E91C0008E91C0008E91C00086C
:10006000E91C0008E91C0008E91C0008E91C00085C
:10007000E91C0008E91C0008E91C0008E91C00084C
:10008000E91C0008E91C0008E91C0008E91C00083C
:10009000E91C0008E91C0008E91C0008E91C00082C
:1000A000E91C0008051C0008E91C0008E91C000800
:1000B000E91C0008E91C0008E91C0008E91C00080C
:1000C000E91C0008E91C0008E91C0008E91C0008FC
:1000D000E91C0008E91C0008E91C0008191C0008BC
:1000E000E91C0008E91C000800000000E91C0008E9
:1000F000E91C0008E91C0008E91C0008E91C0008CC
:10010000E91C0008E91C0008E91C0008E91C0008BB
:10011000E91C0008E91C0008E91C0008E91C0008AB
:10012000E91C0008E91C0008E91C0008E91C00089B
:10013000E91C0008E91C0008E91C0008E91C00088B
:10014000E91C0008E91C0008000000000000000095
:10015000E91C0008E91C0008E91C0008E91C00086B
:10016000E91C0008E91C0008E91C0008E91C00085B
:10017000E91C0008E91C0008E91C00080000000058
:10018000E91C0008E91C0008E91C0008E91C00083B
:10019000E91C0008E91C0008E91C0008E91C00082B
:1001A000E91C0008E91C0008E91C0008E91C00081B
:1001B000E91C0008E91C0008E91C0008E91C00080B
:1001C000E91C0008E91C0008E91C0008E91C0008FB
:1001D000E91C0008E91C0008E91C0008E91C0008EB
:1001E000E91C0008E91C0008E91C0008E91C0008DB
:1001F000E91C0008E91C0008E91C0008E91C0008CB
:10020000E91C0008E91C0008E91C0008E91C0008BA
:10021000E91C0008E91C0008E91C0008E91C0008AA
:10022000E91C0008E91C0008E91C000800000000A7
:10023000E91C0008E91C0008E91C0008E91C00088A
:10024000E91C0008E91C0008E91C0008E91C00087A
:10025000E91C0008E91C0008E91C0008E91C00086A
:10026000E91C0008E91C0008E91C0008E91C00085A
:10027000E91C0008E91C0008E91C0008E91C00084A
:10028000E91C0008E91C0008E91C00080000000047
:08029000E91C0008E91C00084C
:1002A00010B5054C237833B9044B13B10448AFF3B0
:1002B00000800123237010BD2401002400000000F1
:1002C00014DC000808B5034B1BB103490348AFF326
:1002D000008008BD000000002801002414DC000894
:1002E000034613F8012B002AFBD1181A0138704776
:1002F00001F0FF01102A2BDB10F0070F08D010F8D7
:10030000013B013A8B422DD010F0070F42B3F6D1DA
:10031000F0B441EA012141EA014122F007047FF0F3
:1003200000070023F0E80256083C85EA010586EA4A
:10033000010685FA47F5A3FA87F586FA47F6A5FA86
:1003400087F68EB9EED1F0BC01F0FF0102F0070292
:1003500032B110F8013B013A83EA010313B1F8D13D
:100360000020704701387047002D06BF354603381E
:10037000073815F0010F07D1013015F4807F02BF57
:10038000013015F4C03F0130F0BC0138704700BFA8
:1003900053B94AB9002908BF00281CBF4FF0FF31EC
:1003A0004FF0FF3000F070B9ADF1080C6DE904CEEC
:1003B00000F006F8DDF804E0DDE9022304B0704740
:1003C0002DE9F047089E0D4604460F46002B4AD102
:1003D0008A42944665D9B2FA82F343B102FA03FC29
:1003E000C3F120029F4020FA02F217439C404FEADB
:1003F0001C4E1FFA8CF5B7FBFEF1220C0EFB117799
:1004000042EA074201FB05F090420AD91CEB0202C6
:1004100001F1FF3780F01C81904240F219810239CE
:100420006244121AA4B2B2FBFEF00EFB102244EAA0
:10043000024400FB05F5A5420AD91CEB040400F1B7
:10044000FF3280F00781A54240F204816444023803
:1004500040EA0140641B00211EB1DC400023C6E9D4
:100460000043BDE8F0878B4208D9002E00F0ED80F4
:100470000021C6E900050846BDE8F087B3FA83F11C
:10048000002949D1AB4202D3824200F2F880841A9B
:1004900065EB030201201746002EE2D0C6E90047B3
:1004A000DFE702B9FFDEB2FA82F3002B40F0908062
:1004B0008A1A4FEA1C471FFA8CFE0121B2FBF7F59E
:1004C00007FB1520220C42EA00420EFB05F0904289
:1004D00008D91CEB020205F1FF3802D2904200F26B
:1004E000CB804546121AA4B2B2FBF7F007FB1022EC
:1004F00044EA02440EFB00FEA64508D91CEB0404A6
:1005000000F1FF3202D2A64500F2BB801046A4EBF8
:100510000E0440EA05409FE7C1F120078B4022FA14
:1005200007FC4CEA030C05FA01F420FA07F3FD403E
:100530004FEA1C492343B5FBF9F81FFA8CFE09FB6F
:1005400018551C0C44EA054408FB0EF5A54202FAB6
:1005500001F200FA01F00BD91CEB040408F1FF3A98
:1005600080F08880A54240F28580A8F102086444AA
:10057000641B9DB2B4FBF9F309FB134445EA044440
:1005800003FB0EFEA64508D91CEB040403F1FF355E
:100590006CD2A6456AD9023B644443EA0843A3FBF4
:1005A0000295A4EB0E04AC42C846AE4656D353D0D7
:1005B00056B1B0EB080264EB0E0404FA07F7CA4028
:1005C000CC401743C6E9007418460021BDE8F08707
:1005D000C3F1200102FA03FC20FA01F225FA01F12D
:1005E0009D402A434FEA1C471FFA8CFEB1FBF7F0EF
:1005F00007FB1015110C41EA054100FB0EF58D4279
:1006000004FA03F408D91CEB010100F1FF382FD2E2
:100610008D422DD902386144491B92B2B1FBF7F5E6
:1006200007FB151142EA014205FB0EF1914208D980
:100630001CEB020205F1FF3816D2914214D9023D9B
:100640006244521A45EA004138E73146304608E72D
:100650003946E6E61046FBE64845A9D2B9EB020862
:1006600065EB0C0E013BA3E74546EAE72B4694E712
:100670004046D1E7D0467BE7023D624432E7084678
:100680000AE76444023842E7704700BF80B400AF15
:100690003D4BD3F888303C4A43F47003C2F88830AD
:1006A000394B1B69384A43F010031361374B1B6801
:1006B00003F00F03062B07D8344B1B6823F00F03FE
:1006C000324A43F007031360314B1B68304A43F052
:1006D000010313602E4B00221A612D4B1A682C491E
:1006E0002C4B13400B60294B1B6803F00803002BB5
:1006F00007D0264B1B6823F00F03244A43F007035F
:100700001360234B00229A61214B0022DA61204BB7
:1007100000221A621E4B204A9A621D4B1F4ADA625F
:100720001B4B1F4A1A631A4B00225A63184B1C4A70
:100730009A63174B0022DA63154B194A1A64144B5B
:1007400000225A64124B1B68114A23F48023136061
:100750000F4B00221A66134B5B6A124A43F4804324
:100760005362114B1A68114B1340B3F1005F02D270
:100770000F4B01221A600F4B43F2D2021A6000BFE6
:10078000BD465DF8047B704700ED00E0002000529C
:10079000004402587FEDF6EA000202020000FF0169
:1007A00080020101C00000580010005C0000FFFF43
:1007B000088100510040005280B582B000AF7860DF
:1007C0007868FFF78DFD03469AB264237968034881
:1007D00007F0BCFA00BF0837BD4680BD08030024FF
:1007E00080B592B000AF3B48FFF7E6FF002387F8E3
:1007F0004730002387F846300123A7F8443024E02F
:10080000B7F844305B0099B20A230322324803F060
:100810004BFB034687F8413097F84130002B0FD14E
:10082000B7F844203B462D4918460CF0D7FC3B4610
:100830001846FFF7C1FF97F84730013387F8473074
:10084000B7F844300133A7F84430B7F844307F2B71
:10085000D6D90123A7F8423024E0B7F842305B0034
:1008600099B20A2303221E4803F01EFB034687F8B1
:10087000413097F84130002B0FD1B7F842203B466A
:10088000184918460CF0AAFC3B461846FFF794FF9F
:1008900097F84630013387F84630B7F842300133D5
:1008A000A7F84230B7F842307F2BD6D997F84730B7
:1008B000002B07D197F84630002B03D10A48FFF7E9
:1008C0007BFF03E00948FFF777FF00BF00BF483711
:1008D000BD4680BD2CDC00086002002460DC0008FE
:1008E000B40200248CDC0008B8DC0008F0DC00084E
:1008F00080B500AF962001F055FA0E48FFF75CFF77
:100900000D48FFF759FF0D48FFF756FF0C48FFF75A
:1009100053FF0C48FFF750FFFFF762FF0A490B48EF
:1009200000F0F2FC00F0C2F80948FFF745FF00BFF5
:1009300080BD00BF20DD000850DD000880DD00081C
:10094000B0DD0008E0DD000840010024B40200240E
:1009500018DE000880B58AB002AF03463960FB712B
:10096000FB7923F00F03FB77FB791B01BB773B6817
:100970005AB297F91F3013435BB243F00C035BB2DA
:10098000DBB27B7707F11D020A23009301234E217E
:10099000374802F043FF0023BB6102E0BB6901332B
:1009A000BB61BB6942F20F729342F7DD3B685AB2FA
:1009B00097F91F3013435BB243F008035BB2DBB21D
:1009C0007B7707F11D020A23009301234E2128485B
:1009D00002F024FF00237B6102E07B6901337B612D
:1009E0007B6942F20F729342F7DD3B685AB297F986
:1009F0001E3013435BB243F00C035BB2DBB27B7778
:100A000007F11D020A23009301234E21184802F02A
:100A100005FF00233B6102E03B6901333B613B6919
:100A200042F20F729342F7DD3B685AB297F91E30DB
:100A300013435BB243F008035BB2DBB27B7707F191
:100A40001D020A23009301234E21094802F0E6FE0D
:100A50000023FB6002E0FB680133FB60FB6842F2AD
:100A60000F729342F7DD00BF00BF2037BD4680BD47
:100A70006002002480B582B000AF0346FB71FB79B1
:100A800000211846FFF766FF00BF0837BD4680BD4E
:100A900080B582B000AF0346FB71FB790121184697
:100AA000FFF758FF00BF0837BD4680BD80B500AFD7
:100AB000642001F077F93320FFF7DCFF052001F017
:100AC00071F93220FFF7D6FF052001F06BF92820DD
:100AD000FFF7D0FF052001F065F90C20FFF7CAFFF2
:100AE000052001F05FF90620FFF7C4FF052001F0A3
:100AF00059F900F051F80A2001F054F900210020C2
:100B000000F02BF8074800F013F80021012000F056
:100B100024F8054800F00CF80448FFF74DFE00BF2C
:100B200080BD00BF44DE000854DE000860DE00081F
:100B300080B582B000AF786006E07B685A1C7A60AE
:100B40001B781846FFF7A4FF7B681B78002BF4D1B5
:100B500000BF00BF0837BD4680BD80B582B000AF82
:100B6000786039607B68002B03D07B68012B05D04F
:100B700009E03B6843F080033B6004E03B6843F0DE
:100B8000C0033B6000BF3B68DBB21846FFF772FF53
:100B900000BF0837BD4680BD80B500AF0120FFF71C
:100BA00069FF022001F0FEF800BF80BD80B582B071
:100BB00000AF7860134B93F82430002B1ED0124BFB
:100BC0001B684FF0FF31184609F0DBFA0346002B93
:100BD00014D10C490D4800F051FC0346002B05D000
:100BE000084B1B6B0133074A136302E0054B0022DD
:100BF0001A63054B1B68184609F00EFB142009F018
:100C00001FFAD7E7400100248C080024B402002416
:100C100080B588B000AF78600023FB833A4B93F82F
:100C20002430002B6CD0384B1B68BB61364B5B68A3
:100C30007B61354B9B683B61D7ED067A27EEA77A3F
:100C4000D7ED057A67EEA77A37EE277AD7ED047AE3
:100C500067EEA77A77EE277AB0EE670A0CF0B8FF56
:100C600087ED030AD7ED037AB7EE087AF4EEC77A78
:100C7000F1EE10FA08DCD7ED037AB6EE007AF4EE66
:100C8000C77AF1EE10FA13D51F4B012283F82D20FD
:100C900001224FF480411D4802F0F0FC282009F0A9
:100CA000CFF900224FF48041184802F0E7FC03E03E
:100CB000154B002283F82D20D7ED047A9FED147A8E
:100CC000F4EEC77AF1EE10FA0FD5FB8B0133FB83FC
:100CD000FB8B0A2B14D90C4B012283F82C20012208
:100CE00001210A4802F0CAFC0AE00023FB83064BFC
:100CF000002283F82C2000220121044802F0BEFCCF
:100D0000322009F09DF989E74001002400040258CF
:100D10006666263F80B582B000AF7860064B93F8D8
:100D20002430002B03D00221044802F0C0FC4FF411
:100D3000FA7009F085F9F1E740010024001002582B
:100D400080B500AF00F0D2FF00F048F800F00EFAD6
:100D500000F0C2F800F08CF900F0D6F900F008F9C4
:100D600000F046F9FFF7C4FD09F08EF8104809F0CD
:100D700082F903460F4A13600F4A00210F4809F019
:100D8000CDF803460E4A13600E4A00210E4809F0C2
:100D9000C5F803460D4A13600D4A00210D4809F0BD
:100DA000BDF803460C4A136009F092F8FEE700BF55
:100DB000B4DF00088C08002448DF0008AD0B0008F1
:100DC000800800246CDF0008110C0008840800244F
:100DD00090DF0008150D00088808002480B59CB03D
:100DE00000AF07F124034C22002118460CF016FA3C
:100DF0003B1D2022002118460CF010FA042003F0BD
:100E0000C9FD00233B60324BDB6A314A23F001030A
:100E1000D3622F4BDB6A03F001033B602D4B9B69D0
:100E200023F440432B4A43F480439361294B9B694D
:100E300003F440433B603B6800BF264B9B6903F4CF
:100E40000053B3F5005FF8D101237B624FF4A02378
:100E5000BB620223BB640223FB6401233B651223B4
:100E60007B650223BB650223FB6502233B660C23E3
:100E70007B660223BB664FF4C053FB6607F1240375
:100E8000184603F0F1FD0346002B01D000F036FABE
:100E90003F237B600323BB600023FB6000233B6197
:100EA00040237B614023BB614FF48063FB6140239F
:100EB0003B623B1D0121184604F030FA0346002B2B
:100EC00001D000F01BFA00BF7037BD4680BD00BFE7
:100ED000000400580048025880B500AF1E4B1F4A5E
:100EE0001A601F4B00221A701D4B80225A701C4B37
:100EF000E1229A701A4B0022DA70194B00221A7103
:100F0000174B00225A71144B154A5A60124B01229A
:100F10001A72114B134ADA600F4B134A1A610E4BC7
:100F200040F2F4525A610C4801F0C4FD0346002B14
:100F300001D000F0E3F9382200210C480CF06EF9E2
:100F40000A4B21221A60094B4FF440325A61074B79
:100F500000221A6100BF80BDB00100240080024061
:100F600090080024C40000246400002478010024B8
:100F700080B500AF1B4B1C4A1A601A4B1B4A5A60C3
:100F8000184B00229A60174B0122DA60154B0022A1
:100F90001A61144B00225A61124B00229A61114BC4
:100FA0000022DA610F4B00221A620E4802F09AFB0F
:100FB0000346002B01D000F0A1F90021094803F0FD
:100FC00021FB0346002B01D000F098F900210548D1
:100FD00003F063FB0346002B01D000F08FF900BF44
:100FE00080BD00BF6002002400540040CE9F9000EE
:100FF00080B500AF1B4B1C4A1A601A4B1B4A5A6043
:10100000184B00229A60174B0122DA60154B002220
:101010001A61144B00225A61124B00229A61114B43
:101020000022DA610F4B00221A620E4802F05AFBCE
:101030000346002B01D000F061F90021094803F0BC
:10104000E1FA0346002B01D000F058F900210548D1
:1010500003F023FB0346002B01D000F04FF900BF43
:1010600080BD00BFB402002400580040CE9F900015
:1010700080B500AF224B234A1A60214B4FF4E13276
:101080005A601F4B00229A601D4B0022DA601C4BF5
:1010900000221A611A4B0C225A61194B00229A61E4
:1010A000174B0022DA61164B00221A62144B002201
:1010B0005A62134B00229A62114806F0F7FD03466C
:1010C000002B01D000F01AF900210D4808F0C6FAF3
:1010D0000346002B01D000F011F90021084808F068
:1010E000FBFA0346002B01D000F008F9044808F091
:1010F0007CFA0346002B01D000F000F900BF80BD50
:10110000080300240048004080B500AF154B164A84
:101110001A60144B09221A71124B0222DA71114B18
:1011200000229A710F4B02225A720E4B00229A72C1
:101130000C4B0022DA720B4B00221A73094B01226E
:101140005A73084B01229A73064B0022DA73054842
:1011500003F0EFFA0346002B01D000F0CFF800BFF8
:1011600080BD00BF9C0300240000084080B58CB007
:1011700000AF07F11C0300221A605A609A60DA601F
:101180001A61514BD3F8E0304F4A43F00403C2F8E0
:10119000E0304D4BD3F8E03003F00403BB61BB6992
:1011A000494BD3F8E030484A43F08003C2F8E030BE
:1011B000454BD3F8E03003F080037B617B69424B01
:1011C000D3F8E030404A43F00103C2F8E0303E4B30
:1011D000D3F8E03003F001033B613B693A4BD3F8AD
:1011E000E030394A43F00203C2F8E030364BD3F81E
:1011F000E03003F00203FB60FB68334BD3F8E030D0
:10120000314A43F00803C2F8E0302F4BD3F8E03006
:1012100003F00803BB60BB682B4BD3F8E0302A4ACD
:1012200043F04003C2F8E030274BD3F8E03003F03E
:1012300040037B607B68244BD3F8E030224A43F0C4
:101240001003C2F8E030204BD3F8E03003F0100375
:101250003B603B68002244F201011C4802F00EFA98
:10126000002202211A4802F009FA4FF40053FB61F0
:1012700000233B6200237B6207F11C0319461548DB
:1012800002F04CF844F20103FB6101233B620023AE
:101290007B620023BB6207F11C0319460B4802F076
:1012A0003DF80223FB6101233B6200237B620023A4
:1012B000BB6207F11C031946054802F02FF800BF76
:1012C0003037BD4680BD00BF0044025800040258BC
:1012D000001002580008025880B582B000AF786054
:1012E0007B681B68044A934201D100F03BFD00BFBC
:1012F0000837BD4680BD00BF0000014080B400AF8C
:1013000072B600BFFEE7000080B582B000AF786023
:1013100039603B68002B01D1012329E01648FFF713
:101320004BFA786800F030F80346002B0DD13B688B
:10133000012283F824201148FFF73EFA01220121FF
:101340000F4802F09BF9002312E03B68002283F86B
:1013500024203B689B6A5A1C3B689A620948FFF745
:101360002BFA01224FF48041054802F087F901234E
:1013700018460837BD4680BDC4DE0008ECDE000814
:101380000004025808DF000880B588B004AF786018
:10139000642302930123019307F10E0300930123B9
:1013A0007522D021786802F065FC0346FB73FB7B55
:1013B000002B01D001235CE0BB7B682B02D0BB7B00
:1013C000702B55D100237B73642302930123019377
:1013D00007F10D03009301236B22D021786802F0FE
:1013E00035FB0346FB73FB7B002B01D0012340E060
:1013F0000A2000F0D7FC03237B73642302930123AC
:10140000019307F10D03009301231A22D02178687C
:1014100002F01CFB00237B736423029301230193DE
:1014200007F10D03009301231C22D021786802F0FC
:101430000DFB0346FB73FB7B002B01D0012318E05F
:1014400000237B73642302930123019307F10D03AF
:10145000009301231B22D021786802F0F7FA03469B
:10146000FB73FB7B002B01D0012302E0002300E093
:10147000012318461037BD4680BD000080B58AB0F4
:1014800004AF78603960642302930E23019307F15F
:101490000803009301233B22D021786802F0EAFB85
:1014A0000346002B40F086803B7A1B021AB27B7AFF
:1014B0001BB213431BB207EE903AB8EEE77ADFEDAA
:1014C000406AC7EE267A3B68C3ED007ABB7A1B02FE
:1014D0001AB2FB7A1BB213431BB207EE903AB8EE76
:1014E000E77ADFED376AC7EE267A3B68C3ED017A0B
:1014F0003B7B1B021AB27B7B1BB213431BB207EE72
:10150000903AB8EEE77ADFED2E6AC7EE267A3B68AE
:10151000C3ED027ABB7B1B021AB2FB7B1BB21343E7
:10152000FB82B7F9163007EE903AB8EEE77ADFEDB6
:10153000256AC7EE267A9FED247A77EE877A3B6894
:10154000C3ED067A3B7C1B021AB27B7C1BB21343B1
:101550001BB207EE903AB8EEE77ADFED1C6AC7EEF1
:10156000267A3B68C3ED037ABB7C1B021AB2FB7C74
:101570001BB213431BB207EE903AB8EEE77ADFEDE9
:10158000136AC7EE267A3B68C3ED047A3B7D1B02E3
:101590001AB27B7D1BB213431BB207EE903AB8EE32
:1015A000E77ADFED0A6AC7EE267A3B68C3ED057A73
:1015B000002300E0012318461837BD4680BD00BF58
:1015C000000080460000AA43B81E124200000343F8
:1015D00080B582B000AF0C4BD3F8F4300A4A43F028
:1015E0000203C2F8F430084BD3F8F43003F00203DE
:1015F0007B607B6800220F216FF0010000F0CEFCC1
:1016000000BF0837BD4680BD0044025880B58EB08B
:1016100000AF786007F1240300221A605A609A60D4
:10162000DA601A617B681B68594A934240F0AB80CC
:10163000584BD3F8D830574A43F40043C2F8D83057
:10164000544BD3F8D83003F400433B623B6A514B10
:10165000D3F8D8304F4A43F48033C2F8D8304D4BDA
:10166000D3F8D83003F48033FB61FB69494BD3F8DE
:10167000D830484A43F40033C2F8D830454BD3F849
:10168000D83003F40033BB61BB69424BD3F8E03080
:10169000404A43F00403C2F8E0303E4BD3F8E03058
:1016A00003F004037B617B693A4BD3F8E030394A9D
:1016B00043F00103C2F8E030364BD3F8E03003F0DA
:1016C00001033B613B69334BD3F8E030314A43F0CF
:1016D0000203C2F8E0302F4BD3F8E03003F00203EE
:1016E000FB60FB682B4BD3F8E0302A4A43F0400301
:1016F000C2F8E030274BD3F8E03003F04003BB6082
:10170000BB6832237B620223BB620023FB6200239F
:101710003B630B237B6307F1240319461E4801F04A
:10172000FDFD86237B620223BB620023FB62002354
:101730003B630B237B6307F124031946174801F031
:10174000EDFD4FF400537B620223BB620023FB627A
:1017500000233B630B237B6307F1240319461048E6
:1017600001F0DCFD4FF420537B620223BB620023B7
:10177000FB6200233B630B237B6307F124031946C1
:10178000084801F0CBFD00BF3837BD4680BD00BF23
:10179000008002400044025800080258000002582D
:1017A000000402580018025880B5BCB000AF786041
:1017B00007F1DC0300221A605A609A60DA601A614D
:1017C00007F11803C022002118460BF027FD7B68A3
:1017D0001B684D4A934247D14FF008024FF0000377
:1017E000C7E906230023C7F89C3007F11803184601
:1017F00004F062F90346002B01D0FFF77FFD434B55
:10180000D3F8E030414A43F00203C2F8E0303F4BE6
:10181000D3F8E03003F002037B617B694FF440733F
:10182000C7F8DC301223C7F8E0300023C7F8E430F3
:101830000023C7F8E8300423C7F8EC3007F1DC03D5
:101840001946334801F06AFD304BD3F8E8302F4A8F
:1018500043F40013C2F8E8302C4BD3F8E83003F41B
:1018600000133B613B694BE07B681B68294A93424C
:1018700046D14FF008024FF00003C7E906230023CA
:10188000C7F89C3007F11803184604F015F9034611
:10189000002B01D0FFF732FD1C4BD3F8E0301B4A80
:1018A00043F00203C2F8E030184BD3F8E03003F005
:1018B0000203FB60FB684FF44063C7F8DC3012237F
:1018C000C7F8E0300023C7F8E4300023C7F8E83059
:1018D0000423C7F8EC3007F1DC0319460C4801F08B
:1018E0001DFD0A4BD3F8E830084A43F48003C2F8E0
:1018F000E830064BD3F8E83003F48003BB60BB68E4
:1019000000BFF037BD4680BD00540040004402587F
:10191000000402580058004080B5BAB000AF7860AB
:1019200007F1D40300221A605A609A60DA601A61E3
:1019300007F11003C022002118460BF06FFC7B68F2
:101940001B682B4A93424ED14FF002024FF0000326
:10195000C7E904230023C7F8883007F110031846AD
:1019600004F0AAF80346002B01D0FFF7C7FC214B77
:10197000D3F8E8301F4A43F48023C2F8E8301D4B07
:10198000D3F8E83003F48023FB60FB68194BD3F8ED
:10199000E030184A43F00803C2F8E030154BD3F8A2
:1019A000E03003F00803BB60BB684FF44073C7F836
:1019B000D4300223C7F8D8300023C7F8DC30002326
:1019C000C7F8E0300723C7F8E43007F1D40319461D
:1019D000094801F0A3FC00220521272000F0DEFACF
:1019E000272000F0F5FA00BFE837BD4680BD00BFF4
:1019F0000048004000440258000C025880B5BAB0BC
:101A000000AF786007F1D40300221A605A609A6030
:101A1000DA601A6107F11003C022002118460BF0AA
:101A2000FDFB7B681B68384A934269D14FF48022E2
:101A30004FF00003C7E904230123BB631223FB63B8
:101A400002233B6403237B640223BB644FF44063A3
:101A5000FB644FF4C0537B654FF40013C7F8983014
:101A600007F11003184604F027F80346002B01D0B5
:101A7000FFF744FC02F0E8FF244BD3F8E030234AA0
:101A800043F00103C2F8E030204BD3F8E03003F01C
:101A90000103FB60FB684FF4C853C7F8D43002233E
:101AA000C7F8D8300023C7F8DC300023C7F8E0308F
:101AB0000A23C7F8E43007F1D4031946144801F0AB
:101AC0002DFC4FF40073C7F8D4300023C7F8D8308A
:101AD0000023C7F8DC3007F1D40319460C4801F0A5
:101AE0001DFC0A4BD3F8D830084A43F00063C2F813
:101AF000D830064BD3F8D83003F00063BB60BB6826
:101B000000BFE837BD4680BD0000084000440258D1
:101B10000000025880B58EB000AF78607B680F2B54
:101B200044D800227968192000F038FA192000F012
:101B30004FFA244A7B681360234BD3F8F030224AD3
:101B400043F00103C2F8F0301F4BD3F8F03003F03C
:101B50000103BB60BB6807F10C0207F110031146DB
:101B6000184603F067FF03F04FFF03465B007B63FB
:101B70007B6B164AA2FB03239B0C013B3B63144B7C
:101B8000144A1A60124B40F2E732DA60104A3B6B9B
:101B900053600F4B00221A610D4B00229A600C48D3
:101BA00005F0B6FD0346002B07D101E0012305E057
:101BB000074805F00FFE034600E0012318463837BA
:101BC000BD4680BD080000240044025883DE1B434C
:101BD000980800240000014080B400AFFEE780B404
:101BE00000AFFEE780B400AFFEE780B400AFFEE7D1
:101BF00080B400AFFEE780B400AF00BFBD465DF823
:101C0000047B704780B500AF024805F05BFE00BF63
:101C100080BD00BF9808002480B500AF024806F0E0
:101C200023F900BF80BD00BF0803002480B586B043
:101C300000AF7860144A154BD31A7B617B693B6116
:101C4000134B1B68002B02D1114B124A1A60104B28
:101C50001A687B6813443A699A4207D20BF03CFB3E
:101C600003460C221A604FF0FF3309E0084B1B6853
:101C7000FB60074B1A687B681344054A1360FB68D6
:101C800018461837BD4680BD000008240004000037
:101C9000E408002420540024DFF834D0FEF7F6FCDA
:101CA0000C480D490D4A002302E0D458C4500433B7
:101CB000C4188C42F9D30A4A0A4C002301E013608D
:101CC0000432A242FBD30BF00DFBFFF739F870474B
:101CD00000000824000000246400002430E0000814
:101CE000240100241C540024FEE7000080B582B0CB
:101CF00000AF032000F047F903F0C6FC0246154B85
:101D00009B691B0A03F00F031349CB5C03F01F030D
:101D100022FA03F37B600F4B9B6903F00F030E4A1B
:101D2000D35C03F01F037A6822FA03F30B4A1360B3
:101D30000B4A7B6813600F20FFF7ECFE0346002B75
:101D400001D0012302E0FFF743FC002318460837C7
:101D5000BD4680BD0044025838DF0008040000245E
:101D60000000002480B400AF064B1B781A46064BD7
:101D70001B681344044A136000BFBD465DF8047B32
:101D8000704700BF0C000024E808002480B400AFB6
:101D9000034B1B681846BD465DF8047B704700BFC7
:101DA000E808002480B584B000AF7860FFF7EEFF4C
:101DB000B8607B68FB60FB68B3F1FF3F05D00A4B5E
:101DC0001B781A46FB681344FB6000BFFFF7DEFF79
:101DD0000246BB68D31AFA689A42F7D800BF00BF20
:101DE0001037BD4680BD00BF0C00002480B400AF9A
:101DF000034B1B681B0C1846BD465DF8047B7047FF
:101E00000010005C80B483B000AF7860064B5B6864
:101E100023F4600204497B6813434B6000BF0C3716
:101E2000BD465DF8047B70470004005880B485B05F
:101E300000AF78607B6803F00703FB600B4BDB6847
:101E4000BB60BA684FF6FF031340BB60FB681A0221
:101E5000BB681A43064B1343BB60044ABB68D3609C
:101E600000BF1437BD465DF8047B704700ED00E00D
:101E70000000FA0580B400AF044BDB681B0A03F0D6
:101E800007031846BD465DF8047B704700ED00E08F
:101E900080B483B000AF0346FB80B7F90630002B57
:101EA0000BDBFB8803F01F020749B7F906305B091B
:101EB000012000FA02F241F8232000BF0C37BD4692
:101EC0005DF8047B704700BF00E100E080B483B0A0
:101ED00000AF03463960FB80B7F90630002B0ADB00
:101EE0003B68DAB20C49B7F906301201D2B20B44A2
:101EF00083F800230AE03B68DAB20849FB8803F064
:101F00000F03043B1201D2B20B441A7600BF0C3708
:101F1000BD465DF8047B704700E100E000ED00E0A5
:101F200080B489B000AFF860B9607A60FB6803F0F4
:101F30000703FB61FB69C3F10703042B28BF0423DC
:101F4000BB61FB690433062B02D9FB69033B00E04C
:101F500000237B614FF0FF32BB6902FA03F3DA43DF
:101F6000BB681A407B699A404FF0FF317B6901FAE8
:101F700003F3D9437B680B40134318462437BD460F
:101F80005DF8047B704780B582B000AF78607868F8
:101F9000FFF74CFF00BF0837BD4680BD80B586B057
:101FA00000AF0346B9607A60FB81FFF763FF786199
:101FB0007A68B9687869FFF7B3FF0246B7F90E305F
:101FC00011461846FFF782FF00BF1837BD4680BD97
:101FD00080B582B000AF0346FB80B7F906301846E3
:101FE000FFF756FF00BF0837BD4680BD80B586B0FD
:101FF00000AF7860FFF7CAFE38617B68002B01D123
:102000000123DCE27B6893F83530DBB2022B08D089
:102010007B6880225A657B68002283F83420012384
:10202000CDE27B681B68764A93424AD07B681B6886
:10203000744A934245D07B681B68734A934240D0F0
:102040007B681B68714A93423BD07B681B68704A6F
:10205000934236D07B681B686E4A934231D07B68CE
:102060001B686D4A93422CD07B681B686B4A934275
:1020700027D07B681B686A4A934222D07B681B6822
:10208000684A93421DD07B681B68674A934218D008
:102090007B681B68654A934213D07B681B68644A5F
:1020A00093420ED07B681B68624A934209D07B68DA
:1020B0001B68614A934204D07B681B685F4A934265
:1020C00001D1012300E00023002B13D07B681B68A3
:1020D0001A687B681B6822F01E021A607B681B6806
:1020E0005A697B681B6822F080025A617B681B6812
:1020F0007B610AE07B681B681A687B681B6822F0BA
:102100000E021A607B681B687B617B681B683C4A17
:10211000934272D07B681B683A4A93426DD07B68C9
:102120001B68394A934268D07B681B68374A9342E0
:1021300063D07B681B68364A93425ED07B681B681D
:10214000344A934259D07B681B68334A934254D037
:102150007B681B68314A93424FD07B681B68304ACA
:1021600093424AD07B681B682E4A934245D07B68D5
:102170001B682D4A934240D07B681B682B4A9342D0
:102180003BD07B681B682A4A934236D07B681B6829
:10219000284A934231D07B681B68274A93422CD04F
:1021A0007B681B68254A934227D07B681B68244ABA
:1021B000934222D07B681B68224A93421DD07B68E1
:1021C0001B68214A934218D07B681B681F4A9342C0
:1021D00013D07B681B681E4A93420ED07B681B6835
:1021E0001C4A934209D07B681B681B4A934204D067
:1021F0007B681B68194A934232D1012331E000BF4A
:1022000010000240280002404000024058000240F6
:102210007000024088000240A0000240B800024066
:1022200010040240280402404004024058040240C6
:102230007004024088040240A0040240B804024036
:10224000085402581C54025830540258445402583E
:10225000585402586C5402588054025894540258EE
:102260000023002B07D07B681B6E1A687B681B6EEF
:1022700022F480721A607B681B686D4A93424AD0D0
:102280007B681B686B4A934245D07B681B686A4A2F
:10229000934240D07B681B68684A93423BD07B687E
:1022A0001B68674A934236D07B681B68654A934235
:1022B00031D07B681B68644A93422CD07B681B68D2
:1022C000624A934227D07B681B68614A934222D0BE
:1022D0007B681B685F4A93421DD07B681B685E4A1F
:1022E000934218D07B681B685C4A934213D07B688A
:1022F0001B685B4A93420ED07B681B68594A934225
:1023000009D07B681B68584A934204D07B681B68DD
:10231000564A934208D17B681B681A687B681B6821
:1023200022F001021A6007E07B681B681A687B686C
:102330001B6822F001021A6013E0FFF727FD024636
:102340003B69D31A052B0CD97B6820225A657B6820
:10235000032283F835207B68002283F83420012390
:102360002DE17B691B6803F00103002BE5D17B683D
:102370001B682F4A93424AD07B681B682D4A9342C0
:1023800045D07B681B682C4A934240D07B681B6811
:102390002A4A93423BD07B681B68294A934236D035
:1023A0007B681B68274A934231D07B681B68264AAA
:1023B00093422CD07B681B68244A934227D07B68C9
:1023C0001B68234A934222D07B681B68214A9342B0
:1023D0001DD07B681B68204A934218D07B681B681D
:1023E0001E4A934213D07B681B681D4A93420ED04D
:1023F0007B681B681B4A934209D07B681B681A4A9A
:10240000934204D07B681B68184A934201D1012390
:1024100000E00023002B2BD07B689B6DBB607B68AA
:10242000DB6D03F01F033F229A40BB689A602AE0ED
:1024300010000240280002404000024058000240C4
:102440007000024088000240A0000240B800024034
:102450001004024028040240400402405804024094
:102460007004024088040240A0040240B804024004
:102470007B689B6DFB607B68DB6D03F01F030122B3
:102480009A40FB685A607B681B684F4A934272D03F
:102490007B681B684D4A93426DD07B681B684C4A31
:1024A000934268D07B681B684A4A934263D07B683A
:1024B0001B68494A93425ED07B681B68474A934237
:1024C00059D07B681B68464A934254D07B681B688E
:1024D000444A93424FD07B681B68434A93424AD098
:1024E0007B681B68414A934245D07B681B68404A21
:1024F000934240D07B681B683E4A93423BD07B6846
:102500001B683D4A934236D07B681B683B4A934226
:1025100031D07B681B683A4A93422CD07B681B6899
:10252000384A934227D07B681B68374A934222D0AF
:102530007B681B68354A93421DD07B681B68344A10
:10254000934218D07B681B68324A934213D07B6851
:102550001B68314A93420ED07B681B682F4A934216
:1025600009D07B681B682E4A934204D07B681B68A5
:102570002C4A934201D1012300E00023002B15D007
:102580007B685B6E7A68926E5A607B68DB6E002BAC
:102590000CD07B68DB6E1A687B68DB6E22F480727D
:1025A0001A607B681B6F7A68526F5A607B680122E1
:1025B00083F835207B68002283F8342000231846F6
:1025C0001837BD4680BD00BF100002402800024001
:1025D0004000024058000240700002408800024063
:1025E000A0000240B800024010040240280402404B
:1025F0004004024058040240700402408804024033
:10260000A0040240B8040240085402581C54025866
:102610003054025844540258585402586C540258CA
:10262000805402589454025880B584B000AF78604A
:102630007B68002B01D1012337E27B6893F83530AA
:10264000DBB2022B04D07B6880225A6501232CE286
:102650007B681B685C4A93424AD07B681B685B4A74
:10266000934245D07B681B68594A934240D07B68AF
:102670001B68584A93423BD07B681B68564A93427A
:1026800036D07B681B68554A934231D07B681B6803
:10269000534A93422CD07B681B68524A934227D0FE
:1026A0007B681B68504A934222D07B681B684F4A64
:1026B00093421DD07B681B684D4A934218D07B68BB
:1026C0001B684C4A934213D07B681B684A4A93426A
:1026D0000ED07B681B68494A934209D07B681B680F
:1026E000474A934204D07B681B68464A934201D113
:1026F000012300E00023002B00F086807B68042289
:1027000083F835207B681B682F4A93424AD07B6848
:102710001B682E4A934245D07B681B682C4A934223
:1027200040D07B681B682B4A93423BD07B681B6878
:10273000294A934236D07B681B68284A934231D09D
:102740007B681B68264A93422CD07B681B68254A0D
:10275000934227D07B681B68234A934222D07B6830
:102760001B68224A93421DD07B681B68204A934213
:1027700018D07B681B681F4A934213D07B681B6884
:102780001D4A93420ED07B681B681C4A934209D0B5
:102790007B681B681A4A934204D07B681B68194AFD
:1027A000934208D17B681B681A687B681B6822F01B
:1027B00001021A6078E17B681B681A687B681B68F5
:1027C00022F001021A606FE110000240280002406E
:1027D0004000024058000240700002408800024061
:1027E000A0000240B8000240100402402804024049
:1027F0004004024058040240700402408804024031
:10280000A0040240B80402407B681B681A687B6819
:102810001B6822F00E021A607B681B686C4A9342A8
:102820004AD07B681B686B4A934245D07B681B6823
:10283000694A934240D07B681B68684A93423BD008
:102840007B681B68664A934236D07B681B68654A82
:10285000934231D07B681B68634A93422CD07B68DB
:102860001B68624A934227D07B681B68604A934288
:1028700022D07B681B685F4A93421DD07B681B682F
:102880005D4A934218D07B681B685C4A934213D020
:102890007B681B685A4A93420ED07B681B68594A72
:1028A000934209D07B681B68574A934204D07B68E7
:1028B0001B68564A934208D17B681B681A687B687C
:1028C0001B6822F001021A6007E07B681B681A6827
:1028D0007B681B6822F001021A607B681B683C4A17
:1028E000934272D07B681B683A4A93426DD07B68F2
:1028F0001B68394A934268D07B681B68374A934209
:1029000063D07B681B68364A93425ED07B681B6845
:10291000344A934259D07B681B68334A934254D05F
:102920007B681B68314A93424FD07B681B68304AF2
:1029300093424AD07B681B682E4A934245D07B68FD
:102940001B682D4A934240D07B681B682B4A9342F8
:102950003BD07B681B682A4A934236D07B681B6851
:10296000284A934231D07B681B68274A93422CD077
:102970007B681B68254A934227D07B681B68244AE2
:10298000934222D07B681B68224A93421DD07B6809
:102990001B68214A934218D07B681B681F4A9342E8
:1029A00013D07B681B681E4A93420ED07B681B685D
:1029B0001C4A934209D07B681B681B4A934204D08F
:1029C0007B681B68194A934232D1012331E000BF72
:1029D000100002402800024040000240580002401F
:1029E0007000024088000240A0000240B80002408F
:1029F00010040240280402404004024058040240EF
:102A00007004024088040240A0040240B80402405E
:102A1000085402581C540258305402584454025866
:102A2000585402586C540258805402589454025816
:102A30000023002B28D07B681B6E1A687B681B6EF6
:102A400022F480721A607B689B6DFB607B68DB6D93
:102A500003F01F0301229A40FB685A607B685B6E9B
:102A60007A68926E5A607B68DB6E002B0CD07B68B4
:102A7000DB6E1A687B68DB6E22F480721A607B68FA
:102A80001B6F7A68526F5A607B68012283F8352089
:102A90007B68002283F834207B681B6D002B03D0F9
:102AA0007B681B6D78689847002318461037BD4631
:102AB00080BD00BF80B584B000AF78607B68002B1C
:102AC00001D10123E3E07B68D3F88430002B06D1E9
:102AD0007B682322C3F884207868FEF797FD6E4B4D
:102AE000D3F8F4306C4A43F00203C2F8F4306A4B76
:102AF000D3F8F43003F00203BB60BB687B681B7A39
:102B0000002B03D10020FFF77DF903E04FF4000014
:102B1000FFF778F9614B5B687B681B6803F58053AE
:102B20001B687A68126843F0010302F58052136053
:102B3000FFF72CF9F86011E0FFF728F90246FB686F
:102B4000D31AB3F5FA7F09D97B680422C3F8882029
:102B50007B68E022C3F88420012398E07B681B682F
:102B600003F580531B6803F00103002BE4D1786860
:102B700000F09EF802F002FF0346494AA2FB03233D
:102B80009A0C7B681B68013AC3F8DC20786800F077
:102B900081FA7B681B6803F58053D3F8003123F476
:102BA000E0137A68126843F4002302F58052C2F8F9
:102BB00000317B685B6903F00303002B09D07B685D
:102BC0000122C3F888207B68E022C3F88420012317
:102BD0005DE07B681B6803F58053D3F80821314B17
:102BE00013407A68526951007A6812680B4302F503
:102BF0008052C2F80831786800F0E9FA786800F08D
:102C00002FFB7B685B6805331B781A027B685B6867
:102C100004331B7819467B681B680A43C3F80023FA
:102C20007B685B6803331B781A067B685B6802333A
:102C30001B781B041A437B685B6801331B781B02FB
:102C40001A437B685B681B7819467B681B680A43DC
:102C5000C3F804237B681B68D3F80C177B681A68D9
:102C6000114B0B43C2F80C377B681B68D3F8101765
:102C70007B681A680D4B0B43C2F810377B68002243
:102C8000C3F888207B681022C3F8842000231846EC
:102C90001037BD4680BD00BF0044025800040058F4
:102CA00083DE1B430180FFFF6000020C00C0200C8C
:102CB00080B584B000AF78607B681B68D3F80032C1
:102CC000FB60FB6823F47063FB6002F057FEB860A2
:102CD000BB681A4A934204D8FB6843F40073FB6054
:102CE00022E0BB68164A934204D2FB6843F4407367
:102CF000FB6019E0BB68134A934215D9BB68124ABE
:102D0000934204D8FB6843F48073FB600CE0BB681B
:102D10000E4A934204D8FB6843F48063FB6003E0EF
:102D2000FB6843F4A063FB607B681B68FA68C3F828
:102D3000002200BF1037BD4680BD00BFBF0E160287
:102D400000879303FFE0F5057FD1F0087FB2E60E20
:102D500080B485B000AF786039603B689A683B68A2
:102D60001B681A433B681B79DB061A433B681B7BD5
:102D7000DB051A433B685B7B9B051A433B689B7BE7
:102D80005B051A433B68DB7B1B0513433A68127CE7
:102D9000002A02D14FF4002200E0002213433A68D7
:102DA000527C002A02D14FF4003200E000221A4384
:102DB0003B689B7C1B041A433B685B691A433B6876
:102DC0009B691A433B681B7F1B031A433B685B7F6D
:102DD000DB0213433A68927F002A02D14FF48062EB
:102DE00000E000221A433B68DB7F5B0213433A6832
:102DF00092F82020002A02D14FF4807200E00022D5
:102E00001A433B685B6A1A433B6893F828301B01FE
:102E10001A433B68DB6A1343FB607B681B681A68D4
:102E2000564B13407A681268F9680B4313603B688D
:102E3000DB6B5A063B6893F838301B061A433B6835
:102E400093F830309B041A433B6893F831305B04AD
:102E500013433A6892F83220002A02D14FF48032AC
:102E600000E000221A433B685B6B1343FB607B6806
:102E70001B685A68424B13407A681268F9680B4322
:102E800053603B6893F840301A023B685B6C134315
:102E9000FB607B681B68DA683A4B13407A681268FB
:102EA000F9680B43D3603B6893F854305A003B6891
:102EB0001B6D13433A6892F84C20002A01D18022FE
:102EC00000E000221A433B689B6C1B041343FB6029
:102ED0007B681B681A6F4FF60D7313407A6812688F
:102EE000F9680B4313673B6893F856301A463B6802
:102EF00093F855305B001343FB607B681B68D3F885
:102F0000903023F003017B681B68FA680A43C3F81A
:102F100090207B681B68D3F8003D23F072013B686A
:102F20009A6D7B681B680A43C3F8002D3B68DB6D14
:102F30003A6892F86020002A01D1402200E0002285
:102F40001A433B6893F861301B011A433B6893F8BE
:102F50006230DB001343FB607B681B68D3F8303DB5
:102F600023F07B017B681B68FA680A43C3F8302DA5
:102F700000BF1437BD465DF8047B704783800400B2
:102F80000080F8C0F0FEFFFF80B485B000AF78602D
:102F900039607B681B6803F580531A68384B13400F
:102FA0003A6811687A6812680B4302F58052136020
:102FB0003B681B791A033B689B681A433B681B7B81
:102FC000DB031343FB607B681B6803F580535A687F
:102FD0002C4B13407A681268F9680B4302F5805253
:102FE00053603B685B7B1A043B681B6A1343FB60BE
:102FF0007B681B6803F58053D3F80021224B1340F4
:103000007A681268F9680B4302F58052C2F8003101
:103010003B681A693B681B7D1B011A433B685B7F59
:103020001B031343FB607B681B6803F58053D3F8D5
:103030000421164B13407A681268F9680B4302F5B5
:103040008052C2F804313B681B7FDA073B689B69FA
:103050001343FB607B681B6803F58053D3F808219A
:103060000B4B13407A681268F9680B4302F58052E3
:10307000C2F8083100BF1437BD465DF8047B7047C5
:10308000FD87FFFFFE2FFFFF00C0FEFFEFEFC0FF39
:10309000FFFFC07F80B5A4B000AF7860012387F840
:1030A0003B3000233B65002387F84930002387F835
:1030B0004B30012387F83030012387F85E3001233D
:1030C00087F83A30002387F85430012387F88C3092
:1030D0004FF400537B64002387F864300023BB6601
:1030E000002387F88D30002387F88E304FF4C363B8
:1030F0003B66002387F8383000237B63012387F881
:103100003D30002387F83E30002387F84830002305
:10311000FB6700237B670023BB65002387F86C30C7
:10312000002387F88230012387F84A302023C7F82C
:103130008830012387F84C30002387F85D304FF04A
:103140004053FB624FF480433B64002387F83930DF
:103150000223C7F88430002387F88030002387F8E3
:103160008130002387F85C30012387F83C3000234E
:103170003B67012387F8783007F12C0319467868FC
:10318000FFF7E6FD01233B7301233B610023BB6096
:10319000002387F8243000237B7500233B754FF410
:1031A00000133B6200233B774FF40013BB61002305
:1031B00087F825304FF40673BB6207F10803194600
:1031C0007868FFF7E1FE00BF9037BD4680BD80B450
:1031D00085B000AF78600023FB601DE07B68D96894
:1031E000FA6813465B001344DB000B44BB60BB680A
:1031F00000221A60BB6800225A60BB6800229A60F5
:10320000BB680022DA60B9687B68FA68063243F866
:103210002210FB680133FB60FB68032BDED97B685F
:1032200000229A627B681B6803F580531A460323C9
:10323000C2F82C317B68DA687B681B6803F5805321
:10324000C3F814217B68DA687B681B6803F5805338
:10325000C3F8202100BF1437BD465DF8047B7047DA
:1032600080B485B000AF78600023FB6023E07B680A
:103270001969FA6813465B001344DB000B44BB601A
:10328000BB6800221A60BB6800225A60BB6800223B
:103290009A60BB680022DA60BB6800221A61BB68D2
:1032A00000225A61B9687B68FA68123243F822102A
:1032B000FB680133FB60FB68032BD8D97B680022D5
:1032C000DA657B6800221A667B6800229A667B6852
:1032D0000022DA667B6800229A657B681B6803F52A
:1032E00080531A460323C2F830317B681A697B6821
:1032F0001B6803F58053C3F81C217B681B6903F12D
:1033000048027B681B6803F58053C3F8282100BF7F
:103310001437BD465DF8047B7047000080B489B067
:1033200000AF786039600023FB61894B7B6194E1D9
:103330003B681A680121FB6901FA03F313403B6102
:103340003B69002B00F086813B685B6803F0030358
:10335000012B05D03B685B6803F00303022B30D1DF
:103360007B689B68BB61FB695B00032202FA03F385
:10337000DB43BA691340BB613B68DA68FB695B00F9
:1033800002FA03F3BA691343BB617B68BA699A60B6
:103390007B685B68BB610122FB6902FA03F3DB43D4
:1033A000BA691340BB613B685B681B0903F001020B
:1033B000FB6902FA03F3BA691343BB617B68BA691C
:1033C0005A603B685B6803F00303032B17D07B68EC
:1033D000DB68BB61FB695B00032202FA03F3DB439A
:1033E000BA691340BB613B689A68FB695B0002FAEB
:1033F00003F3BA691343BB617B68BA69DA603B685F
:103400005B6803F00303022B23D1FB69DA087B68B6
:10341000083253F82230BB61FB6903F007039B00BD
:103420000F2202FA03F3DB43BA691340BB613B6826
:103430001A69FB6903F007039B0002FA03F3BA69F8
:103440001343BB61FB69DA087B680832B96943F84A
:1034500022107B681B68BB61FB695B00032202FAD8
:1034600003F3DB43BA691340BB613B685B6803F05D
:103470000302FB695B0002FA03F3BA691343BB6101
:103480007B68BA691A603B685B6803F44033002BC1
:1034900000F0E0802F4BD3F8F4302E4A43F00203C3
:1034A000C2F8F4302B4BD3F8F43003F00203FB6086
:1034B000FB68294AFB699B08023352F82330BB6141
:1034C000FB6903F003039B000F2202FA03F3DB43C3
:1034D000BA691340BB617B68204A934252D07B6833
:1034E0001F4A934231D07B681E4A93422BD07B689F
:1034F0001D4A934225D07B681C4A93421FD07B68AB
:103500001B4A934219D07B681A4A934213D07B68B6
:10351000194A93420DD07B68184A934207D07B68C2
:10352000174A934201D109232DE00A232BE00823F7
:1035300029E0072327E0062325E0052323E00423D1
:1035400021E003231FE002231DE001231BE000BF55
:10355000800000580044025800040058000002583F
:103560000004025800080258000C025800100258CB
:103570000014025800180258001C0258002002587B
:10358000002402580023FA6902F0030292009340DB
:10359000BA691343BB613849FB699B080233BA69B6
:1035A00041F823204FF0B0431B68BB613B69DB430C
:1035B000BA691340BB613B685B6803F48013002B5E
:1035C00003D0BA693B691343BB614FF0B042BB699A
:1035D00013604FF0B0435B68BB613B69DB43BA6982
:1035E0001340BB613B685B6803F40013002B03D0FE
:1035F000BA693B691343BB614FF0B042BB6953608A
:103600007B695B68BB613B69DB43BA691340BB61A3
:103610003B685B6803F40033002B03D0BA693B6955
:103620001343BB617B69BA695A607B691B68BB61E4
:103630003B69DB43BA691340BB613B685B6803F4D9
:103640008033002B03D0BA693B691343BB617B69AC
:10365000BA691A60FB690133FB613B681A68FB6950
:1036600022FA03F3002B7FF463AE00BF00BF2437C0
:10367000BD465DF8047B70470004005880B483B0F9
:1036800000AF78600B467B8013467B707B78002B05
:1036900003D07A887B689A6103E07B881A047B6890
:1036A0009A6100BF0C37BD465DF8047B704780B45B
:1036B00085B000AF78600B467B807B685B69FB6000
:1036C0007A88FB6813401A04FB68D9437B880B4057
:1036D0001A437B689A6100BF1437BD465DF8047BCE
:1036E0007047000080B582B000AF78607B68002B27
:1036F00001D101238BE07B6893F84130DBB2002BD2
:1037000006D17B68002283F840207868FEF74CF8E9
:103710007B68242283F841207B681B681A687B68D9
:103720001B6822F001021A607B685A687B681B687C
:1037300022F070621A617B681B689A687B681B685C
:1037400022F400429A607B68DB68012B07D17B681A
:103750009A687B681B6842F400429A6006E07B68C6
:103760009A687B681B6842F404429A607B68DB6855
:10377000022B08D17B681B685A687B681B6842F47F
:1037800000625A6007E07B681B685A687B681B68A8
:1037900022F400625A607B681B6859687B681A686B
:1037A0001D4B0B4353607B681B68DA687B681B68A2
:1037B00022F40042DA607B681A697B685B6942EA3E
:1037C00003017B689B691A027B681B680A43DA6005
:1037D0007B68D9697B681A6A7B681B680A431A6030
:1037E0007B681B681A687B681B6842F001021A60DC
:1037F0007B6800225A647B68202283F841207B6822
:1038000000221A637B68002283F8422000231846B6
:103810000837BD4680BD00BF0080000280B588B07B
:1038200002AFF8607A601A460B467B8113463B81F3
:10383000FB6893F84130DBB2202B40F0FD80FB6841
:1038400093F84030012B01D10223F6E0FB680122FE
:1038500083F84020FEF79AFA38613B6900931923F8
:1038600001224FF40041F86800F0D6FC0346002B1B
:1038700001D00123E1E0FB68212283F84120FB68AD
:10388000102283F84220FB6800225A64FB687A68A1
:103890005A62FB683A895A85FB6800225A63FB68C2
:1038A0005B8D9BB2FF2B06D9FB68FF221A854FF078
:1038B00080737B6107E0FB685B8D9AB2FB681A85B9
:1038C0004FF000737B61FB681B8D002B24D0FB68DD
:1038D0005B6A1A78FB681B689A62FB685B6A5A1C11
:1038E000FB685A62FB685B8D9BB2013B9AB2FB6836
:1038F0005A85FB681B8D013B9AB2FB681A85FB68F1
:103900001B8DDBB20133DAB279894E4B00937B69B0
:10391000F86800F045FE66E0FB681B8DDAB2798935
:10392000484B00937B69F86800F03AFE5BE03A6927
:10393000396AF86800F0C9FC0346002B01D0012366
:103940007BE0FB685B6A1A78FB681B689A62FB681D
:103950005B6A5A1CFB685A62FB685B8D9BB2013B39
:103960009AB2FB685A85FB681B8D013B9AB2FB68D3
:103970001A85FB685B8D9BB2002B34D0FB681B8DD6
:10398000002B30D13B6900933B6A00228021F8680C
:1039900000F042FC0346002B01D001234DE0FB6800
:1039A0005B8D9BB2FF2B0ED9FB68FF221A85FB684B
:1039B0001B8DDAB27989002300934FF08073F86889
:1039C00000F0EEFD0FE0FB685B8D9AB2FB681A8594
:1039D000FB681B8DDAB27989002300934FF00073E6
:1039E000F86800F0DDFDFB685B8D9BB2002B9ED17B
:1039F0003A69396AF86800F0AFFC0346002B01D041
:103A000001231AE0FB681B682022DA61FB681B684F
:103A10005968FB681A680C4B0B405360FB68202206
:103A200083F84120FB68002283F84220FB680022D3
:103A300083F84020002300E0022318461837BD46D3
:103A400080BD00BF0020008000E800FE80B588B087
:103A500002AFF860084611461A4603467B810B46C2
:103A60003B811346FB80FB6893F84130DBB2202B8F
:103A700040F0F9803B6A002B02D0BB8C002B05D1B3
:103A8000FB684FF400725A640123EDE0FB6893F881
:103A90004030012B01D10223E6E0FB68012283F8CC
:103AA0004020FEF773F978617B69009319230122A6
:103AB0004FF40041F86800F0AFFB0346002B01D043
:103AC0000123D1E0FB68212283F84120FB684022DA
:103AD00083F84220FB6800225A64FB683A6A5A6203
:103AE000FB68BA8C5A85FB6800225A63F8883A89C9
:103AF00079897B690193BB6A00930346F86800F0FB
:103B0000BFFA0346002B05D0FB68002283F8402053
:103B10000123A9E0FB685B8D9BB2FF2B0ED9FB68EC
:103B2000FF221A85FB681B8DDAB279890023009386
:103B30004FF08073F86800F033FD0FE0FB685B8D99
:103B40009AB2FB681A85FB681B8DDAB2798900236B
:103B500000934FF00073F86800F022FD7A69B96AAB
:103B6000F86800F0B2FB0346002B01D001237BE094
:103B7000FB685B6A1A78FB681B689A62FB685B6A81
:103B80005A1CFB685A62FB685B8D9BB2013B9AB280
:103B9000FB685A85FB681B8D013B9AB2FB681A854E
:103BA000FB685B8D9BB2002B34D0FB681B8D002B18
:103BB00030D17B690093BB6A00228021F86800F055
:103BC0002BFB0346002B01D001234DE0FB685B8DEE
:103BD0009BB2FF2B0ED9FB68FF221A85FB681B8D59
:103BE000DAB27989002300934FF08073F86800F00F
:103BF000D7FC0FE0FB685B8D9AB2FB681A85FB6807
:103C00001B8DDAB27989002300934FF00073F868B6
:103C100000F0C6FCFB685B8D9BB2002B9ED17A69DD
:103C2000B96AF86800F098FB0346002B01D0012325
:103C30001AE0FB681B682022DA61FB681B68596880
:103C4000FB681A680A4B0B405360FB68202283F81C
:103C50004120FB68002283F84220FB68002283F8A1
:103C60004020002300E0022318461837BD4680BDDF
:103C700000E800FE80B588B002AFF8600846114643
:103C80001A4603467B810B463B811346FB80FB684B
:103C900093F84130DBB2202B40F0FD803B6A002BD3
:103CA00002D0BB8C002B05D1FB684FF400725A6424
:103CB0000123F1E0FB6893F84030012B01D102238E
:103CC000EAE0FB68012283F84020FEF75FF87861A4
:103CD0007B690093192301224FF40041F86800F03A
:103CE0009BFA0346002B01D00123D5E0FB6822227A
:103CF00083F84120FB68402283F84220FB680022C1
:103D00005A64FB683A6A5A62FB68BA8C5A85FB6847
:103D100000225A63F8883A8979897B690193BB6AE2
:103D200000930346F86800F0FFF90346002B05D026
:103D3000FB68002283F840200123ADE0FB685B8D27
:103D40009BB2FF2B0ED9FB68FF221A85FB681B8DE7
:103D5000DAB27989524B00934FF08073F86800F023
:103D60001FFC0FE0FB685B8D9AB2FB681A85FB684D
:103D70001B8DDAB279894A4B00934FF00073F868D3
:103D800000F00EFC7B690093BB6A00220421F868F6
:103D900000F042FA0346002B01D001237CE0FB68CF
:103DA0001B685A6AFB685B6AD2B21A70FB685B6A6E
:103DB0005A1CFB685A62FB681B8D013B9AB2FB6878
:103DC0001A85FB685B8D9BB2013B9AB2FB685A85F2
:103DD000FB685B8D9BB2002B34D0FB681B8D002BE6
:103DE00030D17B690093BB6A00228021F86800F023
:103DF00013FA0346002B01D001234DE0FB685B8DD5
:103E00009BB2FF2B0ED9FB68FF221A85FB681B8D26
:103E1000DAB27989002300934FF08073F86800F0DC
:103E2000BFFB0FE0FB685B8D9AB2FB681A85FB68ED
:103E30001B8DDAB27989002300934FF00073F86884
:103E400000F0AEFBFB685B8D9BB2002B9AD17A69C8
:103E5000B96AF86800F080FA0346002B01D001230C
:103E60001AE0FB681B682022DA61FB681B6859684E
:103E7000FB681A680B4B0B405360FB68202283F8E9
:103E80004120FB68002283F84220FB68002283F86F
:103E90004020002300E0022318461837BD4680BDAD
:103EA0000024008000E800FE80B58AB002AFF86010
:103EB0007A603B600B467B8100237B61FB6893F853
:103EC0004130DBB2202B40F0D280FB681B689B693D
:103ED00003F40043B3F5004F01D10223C8E0FB68AF
:103EE00093F84030012B01D10223C1E0FB6801228D
:103EF00083F84020FB68242283F84120FB680022DD
:103F00005A64FB68DB68012B05D17B89C3F3090286
:103F1000594B134304E07B89C3F30902574B134306
:103F2000FA6812685360FDF731FFB861FB681B68DF
:103F30009B6903F02003202B0CBF01230023DBB27D
:103F4000FB77FB681B689B6903F01003102B0CBF09
:103F500001230023DBB2BB7734E03B68B3F1FF3FC2
:103F60001AD0FDF713FF0246BB69D31A3A689A428A
:103F700002D33B68002B0FD1FB68202283F841203D
:103F8000FB685B6C43F02002FB685A64FB6800220C
:103F900083F8402001236BE0FB681B689B6903F0FA
:103FA0002003202B0CBF01230023DBB2FB77FB682F
:103FB0001B689B6903F01003102B0CBF0123002327
:103FC000DBB2BB77FB7F002B02D1BB7F002BC4D0C1
:103FD000FB681B689B6903F01003102B1AD0BB69A8
:103FE00000933B6800222021F86800F015F9034691
:103FF000002B01D001233BE0FB681B682022DA6123
:10400000FB68202283F84120FB68002283F84020CF
:1040100000232DE0BB6900933B6800222021F86853
:1040200000F0FAF80346002B01D0012320E0FB68E2
:104030001B681022DA61FB681B682022DA617B6949
:1040400001337B617B697A689A423FF65AAFFB681D
:10405000202283F84120FB685B6C43F02002FB6860
:104060005A64FB68002283F84020012300E0022309
:1040700018462037BD4680BD0020000200280002FF
:1040800080B586B002AFF860084611461A4603466E
:104090007B810B463B811346FB80FB88DAB2798932
:1040A000204B00934FF08073F86800F079FAFA69BA
:1040B000B969F86800F009F90346002B01D0012323
:1040C0002CE0FB88012B05D13B89DAB2FB681B6829
:1040D0009A6215E03B891B0A9BB2DAB2FB681B6847
:1040E0009A62FA69B969F86800F0EFF80346002BA4
:1040F00001D0012312E03B89DAB2FB681B689A62A7
:10410000FB690093BB6900228021F86800F084F805
:104110000346002B01D0012300E00023184610378E
:10412000BD4680BD0020008080B586B002AFF8603B
:10413000084611461A4603467B810B463B811346CF
:10414000FB80FB88DAB27989204B00930023F86862
:1041500000F026FAFA69B969F86800F0B6F8034683
:10416000002B01D001232CE0FB88012B05D13B89DA
:10417000DAB2FB681B689A6215E03B891B0A9BB2A6
:10418000DAB2FB681B689A62FA69B969F86800F0EC
:104190009CF80346002B01D0012312E03B89DAB2E0
:1041A000FB681B689A62FB690093BB69002240218F
:1041B000F86800F031F80346002B01D0012300E03D
:1041C000002318461037BD4680BD00BF0020008088
:1041D00080B483B000AF78607B681B689B6903F094
:1041E0000203022B03D17B681B6800229A627B6862
:1041F0001B689B6903F00103012B07D07B681B68D8
:104200009A697B681B6842F001029A6100BF0C3713
:10421000BD465DF8047B704780B584B000AFF860A0
:10422000B9603B601346FB713BE0BA693968F868D6
:1042300000F0D6F80346002B01D0012341E03B6893
:10424000B3F1FF3F2DD0FDF7A1FD0246BB69D31AA4
:104250003A689A4202D33B68002B22D1FB681B6864
:104260009A69BB681340BA689A420CBF01230023C5
:10427000DBB21A46FB799A4213D1FB685B6C43F0C0
:104280002002FB685A64FB68202283F84120FB6807
:10429000002283F84220FB68002283F8402001239B
:1042A0000FE0FB681B689A69BB681340BA689A42C2
:1042B0000CBF01230023DBB21A46FB799A42B4D02B
:1042C000002318461037BD4680BD80B584B000AFCE
:1042D000F860B9607A6033E07A68B968F86800F02D
:1042E0007FF80346002B01D0012331E0BB68B3F116
:1042F000FF3F25D0FDF74AFD02467B68D31ABA6816
:104300009A4202D3BB68002B1AD1FB681B689B69D9
:1043100003F00203022B13D0FB685B6C43F0200216
:10432000FB685A64FB68202283F84120FB68002266
:1043300083F84220FB68002283F84020012307E035
:10434000FB681B689B6903F00203022BC4D10023A6
:1043500018461037BD4680BD80B584B000AFF86008
:10436000B9607A602FE07A68B968F86800F038F8C8
:104370000346002B01D001232DE0FDF707FD024687
:104380007B68D31ABA689A4202D3BB68002B1AD151
:10439000FB681B689B6903F02003202B13D0FB688C
:1043A0005B6C43F02002FB685A64FB68202283F8B0
:1043B0004120FB68002283F84220FB68002283F83A
:1043C0004020012307E0FB681B689B6903F0200382
:1043D000202BC8D1002318461037BD4680BD0000F1
:1043E00080B58AB000AFF860B9607A60002387F8C2
:1043F0002730FB681B689B69BB6100233B627B68BD
:10440000FB61BB6903F01003002B68D0FB681B68DD
:104410001022DA6149E0BB68B3F1FF3F45D0FDF7F8
:10442000B5FC0246FB69D31ABA689A4202D3BB684C
:10443000002B3AD1FB681B685B6803F480437B6107
:10444000FB6893F84230FB74FB681B689B6903F4BC
:104450000043B3F5004F21D17B69B3F5804F1DD0E8
:10446000FB7C202B1AD0FB681B685A68FB681B6812
:1044700042F480425A60FDF789FCF8610EE0FDF7D6
:1044800085FC0246FB69D31A192B07D93B6A43F016
:1044900020033B62012387F8273006E0FB681B6896
:1044A0009B6903F02003202BE9D1FB681B689B6903
:1044B00003F02003202B03D097F82730002BAAD03D
:1044C00097F82730002B03D1FB681B682022DA61A4
:1044D0003B6A43F004033B62012387F82730FB6803
:1044E0001B689B69BB61BB6903F48073002B0BD015
:1044F0003B6A43F001033B62FB681B684FF4807228
:10450000DA61012387F82730BB6903F48063002B4D
:104510000BD03B6A43F008033B62FB681B684FF417
:104520008062DA61012387F82730BB6903F40073E6
:10453000002B0BD03B6A43F002033B62FB681B6815
:104540004FF40072DA61012387F8273097F827309B
:10455000002B1CD0F868FFF73BFEFB681B6859680E
:10456000FB681A680D4B0B405360FB685A6C3B6A42
:104570001A43FB685A64FB68202283F84120FB68D9
:10458000002283F84220FB68002283F8402097F83D
:10459000273018462837BD4680BD00BF00E800FE22
:1045A00080B487B000AFF8607B600B467B81134618
:1045B0007B727B89C3F309027B7A1B0403F47F03BC
:1045C0001A437B681A433B6A134323F000437B6121
:1045D000FB681B685A683B6A5B0D03F48061084BFB
:1045E0000B43DB4302EA0301FB681B687A690A4359
:1045F0005A6000BF1C37BD465DF8047B704700BFA2
:10460000FF63FF0380B483B000AF786039607B68DC
:1046100093F84130DBB2202B38D17B6893F84030DF
:10462000012B01D1022332E07B68012283F8402074
:104630007B68242283F841207B681B681A687B68AA
:104640001B6822F001021A607B681B681A687B688D
:104650001B6822F480521A607B681B6819687B68AB
:104660001B683A680A431A607B681B681A687B6893
:104670001B6842F001021A607B68202283F8412007
:104680007B68002283F84020002300E002231846C4
:104690000C37BD465DF8047B704780B485B000AF31
:1046A000786039607B6893F84130DBB2202B39D1D8
:1046B0007B6893F84030012B01D1022333E07B6803
:1046C000012283F840207B68242283F841207B6804
:1046D0001B681A687B681B6822F001021A607B68FD
:1046E0001B681B68FB60FB6823F47063FB603B681E
:1046F0001B02FA681343FB607B681B68FA681A6048
:104700007B681B681A687B681B6842F001021A60AC
:104710007B68202283F841207B68002283F84020B8
:10472000002300E0022318461437BD465DF8047BE1
:10473000704780B586B002AF78607B68002B01D1EE
:104740000123FEE07B6893F89534DBB2002B06D1A1
:104750007B68002283F894247868FDF74FF97B6822
:10476000032283F895247B681B68184605F0B2F88D
:104770007B6818687B681A7C8DF8002004330ECBA8
:1047800005F036F80346002B05D07B68022283F83B
:1047900095240123D5E07B681B680021184605F0AD
:1047A000AAF80346002B05D07B68022283F89524E3
:1047B0000123C6E00023FB734AE0FA7B79681346C5
:1047C000DB0013449B000B44153301221A70FA7B63
:1047D00079681346DB0013449B000B441433FA7BC7
:1047E0001A70FA7BFB7B98B279681346DB0013449E
:1047F0009B000B442E3302461A80FA7B79681346DD
:10480000DB0013449B000B44183300221A70FA7B20
:1048100079681346DB0013449B000B441C330022D1
:104820001A60FA7B79681346DB0013449B000B4443
:10483000203300221A60FA7B79681346DB001344A8
:104840009B000B44243300221A60FB7B0133FB7373
:104850007B681B79FA7B9A42AFD30023FB7344E059
:10486000FA7B79681346DB0013449B000B4403F288
:10487000552300221A70FA7B79681346DB00134433
:104880009B000B4403F51573FA7B1A70FA7B796869
:104890001346DB0013449B000B4403F51673002200
:1048A0001A70FA7B79681346DB0013449B000B44B3
:1048B00003F5177300221A60FA7B79681346DB0050
:1048C00013449B000B4403F5187300221A60FA7B13
:1048D00079681346DB0013449B000B4403F51973FE
:1048E00000221A60FB7B0133FB737B681B79FA7B28
:1048F0009A42B5D37B6818687B681A7C8DF80020D3
:1049000004330ECB05F044F80346002B05D07B683A
:10491000022283F89524012313E07B6800225A7455
:104920007B68012283F895247B681B7B012B02D1D5
:10493000786800F00BF87B681B68184605F0FFF9F3
:10494000002318461037BD4680BD000080B485B0F6
:1049500000AF78607B681B68FB607B680122C3F84E
:10496000D8247B68002283F8CC24FB689B6943F041
:104970000062FB689A61FB685A6D054B1343FA6845
:104980005365002318461437BD465DF8047B704715
:104990000300001080B584B000AF7860294BDB685D
:1049A00003F00703062B0AD0264BDB6803F03F0316
:1049B0007A689A4201D0012340E000233EE0214B77
:1049C000DB6823F03F021F497B681343CB60FDF790
:1049D000DDF9F86009E0FDF7D9F90246FB68D31A62
:1049E000B3F57A7F01D9012328E0164B5B6803F405
:1049F0000053B3F5005FEED17B681E2B08D07B68B7
:104A00002E2B05D07B681D2B02D07B682D2B14D15B
:104A1000FDF7BCF9F86009E0FDF7B8F90246FB685C
:104A2000D31AB3F57A7F01D9012307E0054BDB6880
:104A300003F48033B3F5803FEED1002318461037DE
:104A4000BD4680BD0048025880B400AF054BDB680E
:104A5000044A43F08073D36000BFBD465DF8047B19
:104A6000704700BF0048025880B58CB000AF786036
:104A70007B68002B02D1012300F048BC7B681B68D7
:104A800003F00103002B00F08880994B1B6903F0B1
:104A90003803FB62964B9B6ABB62FB6A102B07D004
:104AA000FB6A182B11D1BB6A03F00303022B0CD154
:104AB0008F4B1B6803F40033002B6DD07B685B6861
:104AC000002B69D1012300F021BC7B685B68B3F542
:104AD000803F06D1864B1B68854A43F480331360C0
:104AE0002EE07B685B68002B0CD1814B1B68804AF1
:104AF00023F4803313607E4B1B687D4A23F48023AC
:104B000013601DE07B685B68B3F5A02F0CD1784B78
:104B10001B68774A43F480231360754B1B68744A03
:104B200043F4803313600BE0714B1B68704A23F42D
:104B3000803313606E4B1B686D4A23F4802313602F
:104B40007B685B68002B13D0FDF720F9786208E0E2
:104B5000FDF71CF902467B6AD31A642B01D90323A3
:104B6000D4E3634B1B6803F40033002BF0D014E054
:104B7000FDF70CF9786208E0FDF708F902467B6A58
:104B8000D31A642B01D90323C0E3594B1B6803F4E8
:104B90000033002BF0D100E000BF7B681B6803F0FE
:104BA0000203002B00F0CA80514B1B6903F038034D
:104BB0003B624F4B9B6AFB613B6A002B07D03B6A11
:104BC000182B56D1FB6903F00303002B51D1484B3E
:104BD0001B6803F00403002B05D07B68DB68002B07
:104BE00001D1012392E3424B1B6823F019027B6839
:104BF000DB683F4913430B60FDF7C8F8786208E0B3
:104C0000FDF7C4F802467B6AD31A022B01D90323AD
:104C10007CE3374B1B6803F00403002BF0D0FDF757
:104C2000E5F8034641F20302934217D87B681B69FB
:104C3000402B08D12E4B5B6823F47C332C4A43F481
:104C4000003353607AE02A4B5B6823F47C327B6844
:104C50001B691B03264913434B606FE0244B5B68C1
:104C600023F0FE427B681B691B06214913434B60FE
:104C700064E07B68DB68002B47D01D4B1B6823F08A
:104C800019027B68DB681A4913430B60FDF77EF855
:104C9000786208E0FDF77AF802467B6AD31A022BA5
:104CA00001D9032332E3124B1B6803F00403002BEA
:104CB000F0D0FDF79BF8034641F20302934219D866
:104CC0007B681B69402B08D1094B5B6823F47C335C
:104CD000074A43F40033536030E0054B5B6823F42C
:104CE0007C327B681B691B03014913434B6025E041
:104CF000004402589A4B5B6823F0FE427B681B69B4
:104D00001B06974913434B6018E0954B1B68944A68
:104D100023F001031360FDF739F8786208E0FDF72E
:104D200035F802467B6AD31A022B01D90323EDE240
:104D30008B4B1B6803F00403002BF0D17B681B68CE
:104D400003F01003002B00F0A980854B1B6903F0D2
:104D50003803BB61824B9B6A7B61BB69082B07D020
:104D6000BB69182B3AD17B6903F00303012B35D1C2
:104D70007B4B1B6803F48073002B05D07B68DB69D9
:104D8000802B01D00123C1E2FDF730F8034641F248
:104D90000302934217D87B681B6A202B08D1704B03
:104DA0005B6823F0F8436E4A43F08043536075E03C
:104DB0006B4B5B6823F0F8427B681B6A9B06684973
:104DC00013434B606AE0664BDB6823F07C527B68E0
:104DD0001B6A1B0662491343CB605FE07B68DB699B
:104DE000002B42D05E4B1B685D4A43F0800313608A
:104DF000FCF7CCFF786208E0FCF7C8FF02467B6A4C
:104E0000D31A022B01D9032380E2554B1B6803F40C
:104E10008073002BF0D0FCF7E9FF034641F2030258
:104E2000934217D87B681B6A202B08D14C4B5B68D8
:104E300023F0F8434A4A43F0804353602EE0484B46
:104E40005B6823F0F8427B681B6A9B064449134366
:104E50004B6023E0424BDB6823F07C527B681B6A8B
:104E60001B063F491343CB6018E03D4B1B683C4A8F
:104E700023F080031360FCF789FF786208E0FCF7F9
:104E800085FF02467B6AD31A022B01D903233DE238
:104E9000334B1B6803F48073002BF0D17B681B68D5
:104EA00003F00803002B36D07B685B69002B19D018
:104EB0002B4B5B6F2A4A43F001035367FCF766FFF5
:104EC000786208E0FCF762FF02467B6AD31A022B85
:104ED00001D903231AE2224B5B6F03F00203002B7C
:104EE000F0D018E01E4B5B6F1D4A23F0010353679F
:104EF000FCF74CFF786208E0FCF748FF02467B6A4B
:104F0000D31A022B01D9032300E2154B5B6F03F088
:104F10000203002BF0D17B681B6803F02003002BF9
:104F200039D07B689B69002B1CD00D4B1B680C4A49
:104F300043F480531360FCF729FF786208E0FCF724
:104F400025FF02467B6AD31A022B01D90323DDE138
:104F5000034B1B6803F40053002BF0D01BE000BF91
:104F6000004402589B4B1B689A4A23F480531360F9
:104F7000FCF70CFF786208E0FCF708FF02467B6A4A
:104F8000D31A022B01D90323C0E1924B1B6803F40F
:104F90000053002BF0D17B681B6803F00403002B47
:104FA00000F081808C4B1B688B4A43F48073136044
:104FB000FCF7ECFE786208E0FCF7E8FE02467B6A4C
:104FC000D31A642B01D90323A0E1834B1B6803F49C
:104FD0008073002BF0D07B689B68012B06D17D4B42
:104FE0001B6F7C4A43F0010313672DE07B689B68CD
:104FF000002B0CD1774B1B6F764A23F0010313670C
:10500000744B1B6F734A23F0040313671CE07B6827
:105010009B68052B0CD16F4B1B6F6E4A43F004034A
:1050200013676C4B1B6F6B4A43F0010313670BE074
:10503000684B1B6F674A23F001031367654B1B6FB7
:10504000644A23F0040313677B689B68002B15D028
:10505000FCF79CFE78620AE0FCF798FE02467B6A49
:10506000D31A41F28832934201D903234EE1594BBE
:105070001B6F03F00203002BEED014E0FCF786FE5A
:1050800078620AE0FCF782FE02467B6AD31A41F29C
:105090008832934201D9032338E14E4B1B6F03F052
:1050A0000203002BEED17B685B6A002B00F02D81A0
:1050B000484B1B6903F03803182B00F0BD807B6858
:1050C0005B6A022B40F09E80424B1B68414A23F0F2
:1050D00080731360FCF75AFE786208E0FCF756FE16
:1050E00002467B6AD31A022B01D903230EE1394B06
:1050F0001B6803F00073002BF0D1364B9A6A374BD4
:1051000013407A68916A7A68D26A12010A43314977
:1051100013438B627B681B6B013BC3F308027B6804
:105120005B6B013B5B029BB21A437B689B6B013B51
:105130001B0403F4FE031A437B68DB6B013B1B0675
:1051400003F0FE43234913430B63224BDB6A214ADE
:1051500023F00103D3621F4B5A6B214B13407A6833
:10516000926CD2001B4913434B631A4BDB6A23F04A
:105170000C027B681B6C17491343CB62154BDB6A2F
:1051800023F002027B685B6C12491343CB62114B24
:10519000DB6A104A43F48033D3620E4BDB6A0D4A5C
:1051A00043F40033D3620B4BDB6A0A4A43F4802397
:1051B000D362084BDB6A074A43F00103D362054B15
:1051C0001B68044A43F080731360FCF7DFFD7862CC
:1051D00011E000BF00440258004802580CFCFFFFD9
:1051E0000700FFFFFCF7D2FD02467B6AD31A022BB1
:1051F00001D903238AE0474B1B6803F00073002B9F
:10520000F0D082E0434B1B68424A23F08073136066
:10521000FCF7BCFD786208E0FCF7B8FD02467B6A4B
:10522000D31A022B01D9032370E03A4B1B6803F019
:105230000073002BF0D168E0364B9B6A3B61354B25
:105240001B6BFB607B685B6A012B31D03B6903F011
:1052500003027B689B6A9A422AD13B691B0903F0CF
:105260003F027B68DB6A9A4222D1FB68C3F30802E3
:105270007B681B6B013B9A421AD1FB685B0A03F007
:105280007F027B685B6B013B9A4211D1FB681B0C70
:1052900003F07F027B689B6B013B9A4208D1FB685D
:1052A0001B0E03F07F027B68DB6B013B9A4201D04F
:1052B00001232BE0174B5B6BDB08C3F30C033B6153
:1052C0007B689B6C3A699A421FD0124BDB6A114A89
:1052D00023F00103D362FCF759FD786200BFFCF7AD
:1052E00055FD02467B6A9342F9D00A4B5A6B0A4B32
:1052F00013407A68926CD200064913434B63054B06
:10530000DB6A044A43F00103D362002318463037B6
:10531000BD4680BD004402580700FFFF80B586B03F
:1053200000AF786039607B68002B01D101239CE1DC
:105330008A4B1B6803F00F033A689A4210D9874BD7
:105340001B6823F00F0285493B6813430B60834BB6
:105350001B6803F00F033A689A4201D0012384E1ED
:105360007B681B6803F00403002B10D07B681A696C
:105370007B4B9B6903F070039A4208D9784B9B6979
:1053800023F070027B681B69754913438B617B684E
:105390001B6803F00803002B10D07B685A69704B20
:1053A000DB6903F070039A4208D96D4BDB6923F087
:1053B00070027B685B696A491343CB617B681B6839
:1053C00003F01003002B10D07B689A69644BDB69F3
:1053D00003F4E0639A4208D9614BDB6923F4E0628D
:1053E0007B689B695E491343CB617B681B6803F054
:1053F0002003002B10D07B68DA69594B1B6A03F03D
:1054000070039A4208D9564B1B6A23F070027B68DE
:10541000DB69534913430B627B681B6803F002038B
:10542000002B10D07B68DA684D4B9B6903F00F03AB
:105430009A4208D94A4B9B6923F00F027B68DB68CC
:10544000474913438B617B681B6803F00103002B02
:1054500055D0434B9B6923F470627B689B6840493D
:1054600013438B617B685B68022B07D13C4B1B6845
:1054700003F40033002B21D10123F6E07B685B6845
:10548000032B07D1364B1B6803F00073002B15D19B
:105490000123EAE07B685B68012B07D1304B1B6876
:1054A00003F48073002B09D10123DEE02C4B1B6831
:1054B00003F00403002B01D10123D6E0284B1B6924
:1054C00023F007027B685B68254913430B61FCF7F7
:1054D0005DFC78610AE0FCF759FC02467B69D31A4F
:1054E00041F28832934201D90323BEE01C4B1B6971
:1054F00003F038027B685B68DB009A42EBD17B6883
:105500001B6803F00203002B10D07B68DA68144B91
:105510009B6903F00F039A4208D2114B9B6923F059
:105520000F027B68DB680E4913438B610B4B1B68D2
:1055300003F00F033A689A4214D2084B1B6823F019
:105540000F0206493B6813430B60044B1B6803F0D2
:105550000F033A689A4205D0012386E000200052EA
:10556000004402587B681B6803F00403002B10D032
:105570007B681A693F4B9B6903F070039A4208D21B
:105580003C4B9B6923F070027B681B6939491343CC
:105590008B617B681B6803F00803002B10D07B68CD
:1055A0005A69344BDB6903F070039A4208D2314BDD
:1055B000DB6923F070027B685B692E491343CB6182
:1055C0007B681B6803F01003002B10D07B689A697E
:1055D000284BDB6903F4E0639A4208D2254BDB6970
:1055E00023F4E0627B689B6922491343CB617B68AB
:1055F0001B6803F02003002B10D07B68DA691D4B79
:105600001B6A03F070039A4208D21A4B1B6A23F0FC
:1056100070027B68DB69174913430B6200F034F8B2
:105620000246144B9B691B0A03F00F031249CB5C23
:1056300003F01F0322FA03F33B610E4B9B6903F057
:105640000F030D4AD35C03F01F033A6922FA03F3F8
:105650000A4A13600A4A3B6913600A4B1B681846E2
:10566000FCF758FA0346FB73FB7B18461837BD4618
:1056700080BD00BF0044025838DF00080400002449
:10568000000000240800002480B489B000AFB34BB0
:105690001B6903F03803182B00F2558101A252F860
:1056A00023F000BF09570008475900084759000870
:1056B000475900084759000847590008475900084A
:1056C000475900082F570008475900084759000854
:1056D000475900084759000847590008475900082A
:1056E000475900083557000847590008475900082E
:1056F000475900084759000847590008475900080A
:10570000475900083B570008944B1B6803F02003DF
:10571000002B09D0914B1B68DB0803F00303904A70
:1057200022FA03F3BB6111E18D4BBB610EE18D4B9E
:10573000BB610BE18C4BBB6108E1884B9B6A03F0BA
:1057400003037B61854B9B6A1B0903F03F033B61AD
:10575000824BDB6A03F00103FB60804B5B6BDB0871
:10576000C3F30C03FA6802FB03F307EE903AF8EE7A
:10577000677AC7ED027A3B69002B00F0E1807B6914
:10578000022B00F083807B69022B00F2A1807B69F1
:10579000002B03D07B69012B56D099E06F4B1B681F
:1057A00003F02003002B2DD06C4B1B68DB0803F0AB
:1057B00003036B4A22FA03F37B607B6807EE903A9F
:1057C000F8EE676A3B6907EE903AF8EE677A86EE84
:1057D000A77A624B1B6BC3F3080307EE903AF8EE0F
:1057E000676A97ED026ADFED615AC6EE257A76EEBA
:1057F000A77AF7EE006A77EEA67A67EE277AC7ED0A
:10580000077A87E03B6907EE903AF8EE677ADFEDBA
:10581000586A86EEA77A514B1B6BC3F3080307EE59
:10582000903AF8EE676A97ED026ADFED505AC6EEDD
:10583000257A76EEA77AF7EE006A77EEA67A67EE1B
:10584000277AC7ED077A65E03B6907EE903AF8EEF4
:10585000677ADFED486A86EEA77A404B1B6BC3F38D
:10586000080307EE903AF8EE676A97ED026ADFEDFB
:105870003F5AC6EE257A76EEA77AF7EE006A77EE03
:10588000A67A67EE277AC7ED077A43E03B6907EE11
:10589000903AF8EE677ADFED386A86EEA77A2F4BFA
:1058A0001B6BC3F3080307EE903AF8EE676A97EDB7
:1058B000026ADFED2E5AC6EE257A76EEA77AF7EE6B
:1058C000006A77EEA67A67EE277AC7ED077A21E0BD
:1058D0003B6907EE903AF8EE677ADFED266A86EECE
:1058E000A77A1E4B1B6BC3F3080307EE903AF8EE42
:1058F000676A97ED026ADFED1D5AC6EE257A76EEED
:10590000A77AF7EE006A77EEA67A67EE277AC7EDF8
:10591000077A00BF114B1B6B5B0A03F07F03013357
:105920003B603B6807EE903AB8EE677AD7ED076ABE
:10593000C6EE877AFCEEE77A17EE903ABB6105E097
:105940000023BB6102E0074BBB6100BFBB69184687
:105950002437BD465DF8047B704700BF0044025801
:105960000090D00300093D0000127A0000000046BC
:105970000024744C0024744A0024F44A80B582B098
:1059800000AFFFF781FE0246104B9B691B0A03F034
:105990000F030F49CB5C03F01F0322FA03F37B6074
:1059A0000A4B9B6903F00F03094AD35C03F01F0302
:1059B0007A6822FA03F3074A1360074A7B68136088
:1059C000044B1B6818460837BD4680BD004402588A
:1059D00038DF0008040000240000002480B500AF78
:1059E000FFF7CCFF0246064BDB691B0903F00703F8
:1059F0000449CB5C03F01F0322FA03F3184680BD71
:105A00000044025838DF000880B500AFFFF7B6FF4A
:105A10000246064BDB691B0A03F007030449CB5C13
:105A200003F01F0322FA03F3184680BD0044025816
:105A300038DF000880B483B000AF786039607B68DD
:105A40003F221A601A4B1B6903F007027B685A60F9
:105A5000174B9B6903F470627B689A60144B9B69D7
:105A600003F00F027B68DA60114B9B6903F0700250
:105A70007B681A610E4BDB6903F070027B685A6128
:105A80000B4BDB6903F4E0627B689A61084B1B6A8D
:105A900003F070027B68DA61064B1B6803F00F02AB
:105AA0003B681A6000BF0C37BD465DF8047B704749
:105AB00000440258002000522DE9B04FCAB000AF98
:105AC000C7F81401002387F82731002387F826310F
:105AD000D7F81431D3E9002302F00064002554EA1A
