:020000040800F2
:10000000000008244D2800087D26000883260008EB
:10001000892600088F2600089526000800000000A9
:10002000000000000000000000000000810B01083B
:100030009B26000800000000D10D01089DDF00088C
:100040009D2800089D2800089D2800089D2800087C
:100050009D2800089D2800089D2800089D2800086C
:100060009D2800089D2800089D280008A926000852
:100070009D2800089D2800089D2800089D2800084C
:100080009D2800089D2800089D2800089D2800083C
:100090009D2800089D2800089D2800089D2800082C
:1000A0009D280008BD2600089D2800089D280008FE
:1000B0009D2800089D2800089D2800089D2800080C
:1000C0009D2800089D2800089D2800089D280008FC
:1000D0009D2800089D2800089D280008D1260008BA
:1000E0009D2800089D280008000000009D280008A9
:1000F0009D2800089D2800089D2800089D280008CC
:100100009D2800089D2800089D2800089D280008BB
:100110009D2800089D2800089D2800089D280008AB
:100120009D2800089D2800089D2800089D2800089B
:100130009D2800089D2800089D2800089D2800088B
:100140009D2800089D280008000000000000000015
:100150009D2800089D2800089D2800089D2800086B
:100160009D2800089D2800089D2800089D2800085B
:100170009D2800089D2800089D2800080000000018
:100180009D2800089D2800089D2800089D2800083B
:100190009D2800089D2800089D2800089D2800082B
:1001A0009D2800089D2800089D2800089D2800081B
:1001B0009D2800089D2800089D2800089D2800080B
:1001C0009D2800089D2800089D2800089D280008FB
:1001D0009D2800089D2800089D2800089D280008EB
:1001E0009D2800089D2800089D2800089D280008DB
:1001F0009D2800089D2800089D2800089D280008CB
:100200009D2800089D2800089D2800089D280008BA
:100210009D2800089D2800089D2800089D280008AA
:100220009D2800089D2800089D2800080000000067
:100230009D2800089D2800089D2800089D2800088A
:100240009D2800089D2800089D2800089D2800087A
:100250009D2800089D2800089D2800089D2800086A
:100260009D2800089D2800089D2800089D2800085A
:100270009D2800089D2800089D2800089D2800084A
:100280009D2800089D2800089D2800080000000007
:080290009D2800089D280008CC
:1002A00010B5054C237833B9044B13B10448AFF3B0
:1002B00000800123237010BD3001002400000000E5
:1002C000F026010808B5034B1BB103490348AFF3FF
:1002D000008008BD0000000034010024F026010861
:1002E000034613F8012B002AFBD1181A0138704776
:1002F00001F0FF01102A2BDB10F0070F08D010F8D7
:10030000013B013A8B422DD010F0070F42B3F6D1DA
:10031000F0B441EA012141EA014122F007047FF0F3
:1003200000070023F0E80256083C85EA010586EA4A
:10033000010685FA47F5A3FA87F586FA47F6A5FA86
:1003400087F68EB9EED1F0BC01F0FF0102F0070292
:1003500032B110F8013B013A83EA010313B1F8D13D
:100360000020704701387047002D06BF354603381E
:10037000073815F0010F07D1013015F4807F02BF57
:10038000013015F4C03F0130F0BC0138704700BFA8
:1003900053B94AB9002908BF00281CBF4FF0FF31EC
:1003A0004FF0FF3000F070B9ADF1080C6DE904CEEC
:1003B00000F006F8DDF804E0DDE9022304B0704740
:1003C0002DE9F047089E0D4604460F46002B4AD102
:1003D0008A42944665D9B2FA82F343B102FA03FC29
:1003E000C3F120029F4020FA02F217439C404FEADB
:1003F0001C4E1FFA8CF5B7FBFEF1220C0EFB117799
:1004000042EA074201FB05F090420AD91CEB0202C6
:1004100001F1FF3780F01C81904240F219810239CE
:100420006244121AA4B2B2FBFEF00EFB102244EAA0
:10043000024400FB05F5A5420AD91CEB040400F1B7
:10044000FF3280F00781A54240F204816444023803
:1004500040EA0140641B00211EB1DC400023C6E9D4
:100460000043BDE8F0878B4208D9002E00F0ED80F4
:100470000021C6E900050846BDE8F087B3FA83F11C
:10048000002949D1AB4202D3824200F2F880841A9B
:1004900065EB030201201746002EE2D0C6E90047B3
:1004A000DFE702B9FFDEB2FA82F3002B40F0908062
:1004B0008A1A4FEA1C471FFA8CFE0121B2FBF7F59E
:1004C00007FB1520220C42EA00420EFB05F0904289
:1004D00008D91CEB020205F1FF3802D2904200F26B
:1004E000CB804546121AA4B2B2FBF7F007FB1022EC
:1004F00044EA02440EFB00FEA64508D91CEB0404A6
:1005000000F1FF3202D2A64500F2BB801046A4EBF8
:100510000E0440EA05409FE7C1F120078B4022FA14
:1005200007FC4CEA030C05FA01F420FA07F3FD403E
:100530004FEA1C492343B5FBF9F81FFA8CFE09FB6F
:1005400018551C0C44EA054408FB0EF5A54202FAB6
:1005500001F200FA01F00BD91CEB040408F1FF3A98
:1005600080F08880A54240F28580A8F102086444AA
:10057000641B9DB2B4FBF9F309FB134445EA044440
:1005800003FB0EFEA64508D91CEB040403F1FF355E
:100590006CD2A6456AD9023B644443EA0843A3FBF4
:1005A0000295A4EB0E04AC42C846AE4656D353D0D7
:1005B00056B1B0EB080264EB0E0404FA07F7CA4028
:1005C000CC401743C6E9007418460021BDE8F08707
:1005D000C3F1200102FA03FC20FA01F225FA01F12D
:1005E0009D402A434FEA1C471FFA8CFEB1FBF7F0EF
:1005F00007FB1015110C41EA054100FB0EF58D4279
:1006000004FA03F408D91CEB010100F1FF382FD2E2
:100610008D422DD902386144491B92B2B1FBF7F5E6
:1006200007FB151142EA014205FB0EF1914208D980
:100630001CEB020205F1FF3816D2914214D9023D9B
:100640006244521A45EA004138E73146304608E72D
:100650003946E6E61046FBE64845A9D2B9EB020862
:1006600065EB0C0E013BA3E74546EAE72B4694E712
:100670004046D1E7D0467BE7023D624432E7084678
:100680000AE76444023842E7704700BF80B400AF15
:100690003D4BD3F888303C4A43F47003C2F88830AD
:1006A000394B1B69384A43F010031361374B1B6801
:1006B00003F00F03062B07D8344B1B6823F00F03FE
:1006C000324A43F007031360314B1B68304A43F052
:1006D000010313602E4B00221A612D4B1A682C491E
:1006E0002C4B13400B60294B1B6803F00803002BB5
:1006F00007D0264B1B6823F00F03244A43F007035F
:100700001360234B00229A61214B0022DA61204BB7
:1007100000221A621E4B204A9A621D4B1F4ADA625F
:100720001B4B1F4A1A631A4B00225A63184B1C4A70
:100730009A63174B0022DA63154B194A1A64144B5B
:1007400000225A64124B1B68114A23F48023136061
:100750000F4B00221A66134B5B6A124A43F4804324
:100760005362114B1A68114B1340B3F1005F02D270
:100770000F4B01221A600F4B43F2D2021A6000BFE6
:10078000BD465DF8047B704700ED00E0002000529C
:10079000004402587FEDF6EA000202020000FF0169
:1007A00080020101C00000580010005C0000FFFF43
:1007B000088100510040005280B582B000AF7860DF
:1007C0007868FFF78DFD03469AB264237968034881
:1007D0000BF024F900BF0837BD4680BDC4030024D8
:1007E00080B592B000AF3B48FFF7E6FF002387F8E3
:1007F0004730002387F846300123A7F8443024E02F
:10080000B7F844305B0099B20A230322324806F05D
:1008100019FA034687F8413097F84130002B0FD181
:10082000B7F844203B462D49184610F0AFFE3B4632
:100830001846FFF7C1FF97F84730013387F8473074
:10084000B7F844300133A7F84430B7F844307F2B71
:10085000D6D90123A7F8423024E0B7F842305B0034
:1008600099B20A2303221E4806F0ECF9034687F8E2
:10087000413097F84130002B0FD1B7F842203B466A
:100880001849184610F082FE3B461846FFF794FFC1
:1008900097F84630013387F84630B7F842300133D5
:1008A000A7F84230B7F842307F2BD6D997F84730B7
:1008B000002B07D197F84630002B03D10A48FFF7E9
:1008C0007BFF03E00948FFF777FF00BF00BF483711
:1008D000BD4680BD08270108D00200243C2701083E
:1008E000240300246827010894270108CC27010865
:1008F00080B584B000AF03460A46FB711346BB7156
:100900000323BB730023FB731AE0FA7B10491346E1
:100910005B0013449B000B441B78FA799A420CD17C
:10092000FA7B0B4913465B0013449B000B440433D2
:100930001B68BA791046984706E0FB7B0133FB73CE
:10094000FA7BBB7B9A42E0D31037BD4680BD00BF27
:10095000902D010880B58EB000AF78607B68002BC9
:1009600000F0C1807B681B68002B00F0BC807B68B6
:100970001B687B63002387F83330002387F832300D
:10098000002387F831307B6B1B78992B40F0A380D4
:100990007B6B01331B78AA2B40F09D807B6B9B788F
:1009A00087F833307B6BDB7887F832307B6B1B79D1
:1009B00087F8313097F8332097F832301344DBB2A0
:1009C00097F831209A4277D101F0BAFF0346484A9E
:1009D000C2F89030464B012283F8942007F11C03A3
:1009E00014220021184610F0C9FE07F10803142252
:1009F0000021184610F0C2FE97F8332007F11C03BF
:100A00003C49184610F0C2FD97F83330032B18D03C
:100A1000032B1FDC012B02D0022B09D01AE097F820
:100A2000322007F108033449184610F0AFFD1AE0F0
:100A300097F8322007F108033049184610F0A6FD58
:100A400011E097F8322007F108032D49184610F0FD
:100A50009DFD08E097F8322007F108032949184660
:100A600010F094FD00BF00F067FB0021002000F0B3
:100A70002FFB07F11C03184600F014FB0021012096
:100A800000F026FB07F10803184600F00BFB1E4898
:100A900010F074FD07F10803083397F83220194667
:100AA0001A4810F005FD97F8322097F833301146B8
:100AB0001846FFF71DFF0EE097F83330194614482B
:100AC00010F0F6FC7B685B68002B04D07B685B68E9
:100AD0001A6801321A607B681B68052200211846DB
:100AE00010F04CFE00E000BF3837BD4680BD00BFAF
:100AF00050010024FC2701081028010824280108BF
:100B0000382801084C2801086028010888280108B5
:100B1000AC28010880B582B000AF7860134A7B68CA
:100B200013601348FFF748FE104B1B68002118465E
:100B300009F0EEFD0346002B0FD10C4B1B6804217E
:100B4000184609F0E5FD0346002B06D10948FFF7DA
:100B500033FE0948FFF730FE03E00848FFF72CFE9C
:100B600000BF00BF0837BD4680BD00BF4C01002458
:100B700020290108582901088C290108C0290108E9
:100B800080B487B000AF0346FB710B46BB711346C0
:100B90007B717B79814A12681268D26A02FB03F387
:100BA0007F4AA2FB03235B097B61FB79002B01D108
:100BB000002300E008233B61FB79002B01D10423D3
:100BC00000E00C23FB60BB79012B02D0022B65D027
:100BD000C9E03B69002B05D1704B1B681B687A6923
:100BE0005A6328E03B69042B05D16C4B1B681A68DB
:100BF0007B6993631FE03B69082B05D1674B1B683A
:100C00001A687B69D36316E03B690C2B05D1634BF3
:100C10001B681A687B6913640DE03B69102B05D1D2
:100C20005E4B1B681A687B69936504E05B4B1B682D
:100C30001A687B69D365FB68002B05D1574B1B688D
:100C40001B6800225A63F7E0FB68042B05D1534B65
:100C50001B681A6800239363EEE0FB68082B05D13C
:100C60004E4B1B681A680023D363E5E0FB680C2B2E
:100C700005D14A4B1B681A6800231364DCE0FB684B
:100C8000102B05D1454B1B681A6800239365D3E0F0
:100C9000424B1B681A680023D365CDE03B69002BEB
:100CA00005D13E4B1B681B6800225A6328E03B6954
:100CB000042B05D1394B1B681A68002393631FE08E
:100CC0003B69082B05D1354B1B681A680023D36399
:100CD00016E03B690C2B05D1304B1B681A680023CA
:100CE00013640DE03B69102B05D12C4B1B681A686F
:100CF0000023936504E0294B1B681A680023D36521
:100D0000FB68002B05D1254B1B681B687A695A6369
:100D100092E0FB68042B05D1204B1B681A687B69A5
:100D2000936389E0FB68082B05D11C4B1B681A688C
:100D30007B69D36380E0FB680C2B05D1174B1B68E4
:100D40001A687B69136477E0FB68102B05D1134B9D
:100D50001B681A687B6993656EE0104B1B681A6804
:100D60007B69D36568E03B69002B05D10B4B1B68A1
:100D70001B6800225A632CE03B69042B05D1074B0A
:100D80001B681A680023936323E03B69082B09D191
:100D9000024B1B681A680023D3631AE04C0100243D
:100DA0001F85EB513B690C2B05D1264B1B681A683C
:100DB000002313640DE03B69102B05D1214B1B6808
:100DC0001A680023936504E01E4B1B681A68002311
:100DD000D365FB68002B05D11A4B1B681B680022EA
:100DE0005A6328E0FB68042B05D1164B1B681A6870
:100DF000002393631FE0FB68082B05D1114B1B6890
:100E00001A680023D36316E0FB680C2B05D10D4B49
:100E10001B681A68002313640DE0FB68102B05D1D2
:100E2000084B1B681A680023936504E0054B1B6898
:100E30001A680023D36500BF00BF1C37BD465DF8AC
:100E4000047B70474C01002480B500AF962001F070
:100E500083FD1348FFF7B0FC1248FFF7ADFC1248C2
:100E6000FFF7AAFC1148FFF7A7FC1148FFF7A4FC05
:100E7000FFF7B6FC0F49104800F0E8FE00F0D0F88C
:100E80000E48FFF747FE0E4B1B681A680C4B1B6899
:100E900042F010021A600B48FFF78EFC00BF80BDC5
:100EA000F0290108202A0108502A0108802A010897
:100EB000B02A0108500100242403002478030024F0
:100EC000C4030024E82A010880B58AB002AF0346B3
:100ED0003960FB71FB7923F00F03FB77FB791B0172
:100EE000BB773B685AB297F91F3013435BB243F0AC
:100EF0000C035BB2DBB27B7707F11D020A23009380
:100F000001234E21374805F057FB0023BB6102E067
:100F1000BB690133BB61BB6942F20F729342F7DDDB
:100F20003B685AB297F91F3013435BB243F0080392
:100F30005BB2DBB27B7707F11D020A23009301232A
:100F40004E21284805F038FB00237B6102E07B69D5
:100F500001337B617B6942F20F729342F7DD3B689C
:100F60005AB297F91E3013435BB243F00C035BB2E5
:100F7000DBB27B7707F11D020A23009301234E2188
:100F8000184805F019FB00233B6102E03B6901337F
:100F90003B613B6942F20F729342F7DD3B685AB204
:100FA00097F91E3013435BB243F008035BB2DBB228
:100FB0007B7707F11D020A23009301234E21094884
:100FC00005F0FAFA0023FB6002E0FB680133FB60E6
:100FD000FB6842F20F729342F7DD00BF00BF20377B
:100FE000BD4680BDD002002480B582B000AF03466C
:100FF000FB71FB7900211846FFF766FF00BF083739
:10100000BD4680BD80B582B000AF0346FB71FB7961
:1010100001211846FFF758FF00BF0837BD4680BDC5
:1010200080B500AF642001F097FC3320FFF7DCFFB0
:10103000052001F091FC3220FFF7D6FF052001F0DA
:101040008BFC2820FFF7D0FF052001F085FC0C2049
:10105000FFF7CAFF052001F07FFC0620FFF7C4FF61
:10106000052001F079FC00F067F80A2001F074FC1B
:101070000021002000F02CF8074800F013F80021B0
:10108000012000F025F8054800F00CF80448FFF7AF
:1010900093FB00BF80BD00BF142B0108242B010867
:1010A000302B010880B582B000AF786006E07B6825
:1010B0005A1C7A601B781846FFF7A4FF7B681B78E0
:1010C000002BF4D100BF00BF0837BD4680BD000033
:1010D00080B584B000AF786039607B68032B1FD87F
:1010E00001A252F823F000BFF91000080311000814
:1010F0000D110008171100083B68DBB2803BFB7341
:1011000011E03B68DBB2403BFB730CE03B68DBB2B9
:101110006C3BFB7307E03B68DBB22C3BFB7302E0EC
:101120008023FB7300BFFB7B1846FFF75DFF00BF0A
:101130001037BD4680BD00BF80B500AF0120FFF76E
:1011400053FF022001F008FC00BF80BD80B582B0D3
:1011500000AF7860134B93F82430002B1ED0124B55
:101160001B684FF0FF3118460DF0AFF80346002B17
:1011700014D10C490D4800F023FE0346002B05D086
:10118000084B1B6B0133074A136302E0054B002237
:101190001A63054B1B6818460DF0E2F814200CF09A
:1011A000F3FFD7E750010024C809002424030024DA
:1011B00080B588B000AF78600023FB833A4B93F88A
:1011C0002430002B6CD0384B1B68BB61364B5B68FE
:1011D0007B61354B9B683B61D7ED067A27EEA77A9A
:1011E000D7ED057A67EEA77A37EE277AD7ED047A3E
:1011F00067EEA77A77EE277AB0EE670A11F056FA13
:1012000087ED030AD7ED037AB7EE087AF4EEC77AD2
:10121000F1EE10FA08DCD7ED037AB6EE007AF4EEC0
:10122000C77AF1EE10FA13D51F4B012283F82D2057
:1012300001224FF480411D4805F0EEF80A200CF021
:10124000A3FF00224FF48041184805F0E5F803E0C1
:10125000154B002283F82D20D7ED047A9FED147AE8
:10126000F4EEC77AF1EE10FA0FD5FB8B0133FB8356
:10127000FB8B052B14D90C4B012283F82C20012267
:1012800001210A4805F0C8F80AE00023FB83064B59
:10129000002283F82C2000220121044805F0BCF82C
:1012A00014200CF071FF89E750010024000402585B
:1012B0006666263F80B582B000AF7860064B93F833
:1012C0002430002B03D00221044805F0BEF84FF46F
:1012D000FA700CF059FFF1E7500100240010025899
:1012E00080B590B002AF786000237B6300233B633E
:1012F0000023FB624A4A07F1080392E8030083E8EF
:1013000003000522474948480AF016FCFFF714FF7E
:1013100064200CF039FF01F013FBB862BB6A434A4A
:10132000A2FB03239A09424BA3FB021359090B4664
:101330001B015B1A9B00D31A7B63BB6A3D4AA2FB6D
:1013400003239A0B3A4BA3FB021359090B461B01CB
:101350005B1A9B00D31A3B63BB6A374AA2FB032389
:101360005B0DFB6207F110007B6B00933B6BFA6A2D
:10137000324910F00BF900210020FFF7A9FE07F118
:1013800010031846FFF78EFE2D4B93F88830012B83
:1013900008D107F108031846FFF7DCFA284B0022B2
:1013A00083F8882000210120FFF792FE244B93F858
:1013B0009430012B03D12348FFF774FE02E022484A
:1013C000FFF770FE00210220FFF782FE1C4B93F80E
:1013D0002C30002B03D01D48FFF764FE0BE0184BA8
:1013E00093F82D30002B03D01948FFF75BFE02E085
:1013F0001848FFF757FE00210320FFF769FE104B46
:1014000093F82C30002B03D01348FFF74BFE02E07B
:101410001248FFF747FEFA200CF0B6FE7BE700BF4C
:10142000242C010888010024C4030024D34D621039
:101430008988888873B2E745B17C21955C2B0108C7
:10144000500100247C2B0108942B0108AC2B0108CF
:10145000C42B0108DC2B0108F42B01080C2C01081B
:1014600080B582B000AF7860094B93F82C30002B28
:1014700005D0002200210020FFF782FB04E0322289
:1014800001210020FFF77CFB32200CF07DFEEBE712
:101490005001002480B500AF01F002FA00F068F8B6
:1014A00000F0D0FA00F0AEFA00F02EFA00F078FA70
:1014B00000F028F900F066F900F0D8F800F0A2F981
:1014C000FFF7C2FC0CF084FD18480CF078FE0346D0
:1014D000174A1360174A002117480CF0C3FD034652
:1014E000164A1360164A002116480CF0BBFD03464D
:1014F000154A1360154A002115480CF0B3FD034648
:10150000144A1360144A002114480CF0ABFD034642
:10151000134A1360134A002113480CF0A3FD03463D
:10152000124A13600CF078FDFEE700BF682E010838
:10153000C8090024B42D01084D110008B409002485
:10154000D82D0108B1110008B8090024FC2D0108AC
:10155000B5120008BC090024202E0108E112000881
:10156000C0090024442E010861140008C4090024A5
:1015700080B59CB000AF07F124034C22002118462F
:1015800010F0FCF83B1D20220021184610F0F6F860
:10159000042006F0CDF800233B60324BDB6A314A71
:1015A00023F00103D3622F4BDB6A03F001033B609E
:1015B0002D4B9B6923F440432B4A43F480439361B2
:1015C000294B9B6903F440433B603B6800BF264BBB
:1015D0009B6903F40053B3F5005FF8D101237B62EC
:1015E0004FF4A023BB620223BB640223FB640123EC
:1015F0003B6512237B650223BB650223FB65022347
:101600003B660C237B660223BB664FF4C053FB662C
:1016100007F12403184606F0F5F80346002B01D025
:1016200000F00EFB3F237B600323BB600023FB60C5
:1016300000233B6140237B614023BB614FF4806307
:10164000FB6140233B623B1D0121184606F034FD3F
:101650000346002B01D000F0F3FA00BF7037BD46FF
:1016600080BD00BF000400580048025880B500AF9C
:101670001E4B1F4A1A601F4B00221A701D4B8022FE
:101680005A701C4BE1229A701A4B0022DA70194BE7
:1016900000221A71174B00225A71144B154A5A60D6
:1016A000124B01221A72114B134ADA600F4B134A84
:1016B0001A610E4B40F2F4525A610C4804F0C8F81B
:1016C0000346002B01D000F0BBFA382200210C4861
:1016D00010F054F80A4B21221A60094B4FF44032A3
:1016E0005A61074B00221A6100BF80BD200200240E
:1016F00000800240CC090024D000002470000024A7
:10170000E801002480B500AF1B4B1C4A1A601A4B3D
:101710001B4A5A60184B00229A60174B0122DA606C
:10172000154B00221A61144B00225A61124B002201
:101730009A61114B0022DA610F4B00221A620E48A7
:1017400004F09EFE0346002B01D000F079FA002140
:10175000094805F025FE0346002B01D000F070FA81
:101760000021054805F067FE0346002B01D000F07C
:1017700067FA00BF80BD00BFD002002400540040C3
:10178000CE9F900080B500AF1B4B1C4A1A601A4BCD
:101790001B4A5A60184B00229A60174B0122DA60EC
:1017A000154B00221A61144B00225A61124B002281
:1017B0009A61114B0022DA610F4B00221A620E4827
:1017C00004F05EFE0346002B01D000F039FA002140
:1017D000094805F0E5FD0346002B01D000F030FA82
:1017E0000021054805F027FE0346002B01D000F03C
:1017F00027FA00BF80BD00BF24030024005800402A
:10180000CE9F900080B58EB000AF07F12803002274
:101810001A605A609A60DA6007F11C0300221A60AD
:101820005A609A603B4600221A605A609A60DA60F9
:101830001A615A619A61324B324A1A60304B002267
:101840005A602F4B00229A602D4B4FF6FF72DA60E0
:101850002B4B00221A612A4B00229A61284808F07B
:1018600025FE0346002B01D000F0EAF94FF4805327
:10187000BB6207F128031946214809F073FA0346B1
:10188000002B01D000F0DCF91D4808F0DFFE034614
:10189000002B01D000F0D4F90023FB6100237B6210
:1018A00007F11C031946164809F0BCFF0346002B3C
:1018B00001D000F0C5F960233B6000237B6000236A
:1018C000BB6000233B613B46002219460C4809F0EF
:1018D00035F90346002B01D000F0B2F93B46042253
:1018E0001946074809F02AF90346002B01D000F0F9
:1018F000A7F9034800F0D4FC00BF3837BD4680BDCF
:10190000780300240004004080B500AF224B234A36
:101910001A60214B4FF4E1325A601F4B00229A604B
:101920001D4B0022DA601C4B00221A611A4B0C225C
:101930005A61194B00229A61174B0022DA61164B4B
:1019400000221A62144B00225A62134B00229A6240
:1019500011480AF013F80346002B01D000F070F98B
:1019600000210D480BF01DFF0346002B01D000F0B5
:1019700067F9002108480BF052FF0346002B01D005
:1019800000F05EF904480BF0D3FE0346002B01D0B3
:1019900000F056F900BF80BDC40300240048004099
:1019A00080B500AF154B164A1A60144B09221A7104
:1019B000124B0222DA71114B00229A710F4B022254
:1019C0005A720E4B00229A720C4B0022DA720B4BA9
:1019D00000221A73094B01225A73084B01229A7391
:1019E000064B0022DA73054805F071FD0346002B13
:1019F00001D000F025F900BF80BD00BFD004002455
:101A00000000084080B582B000AF0D4BD3F8D8304D
:101A10000B4A43F00103C2F8D830094BD3F8D83051
:101A200003F001037B607B68002205210B2001F09D
:101A3000A6F80B2001F0BDF800BF0837BD4680BDF9
:101A40000044025880B58CB000AF07F11C0300229F
:101A50001A605A609A60DA601A61514BD3F8E0302C
:101A60004F4A43F00403C2F8E0304D4BD3F8E03066
:101A700003F00403BB61BB69494BD3F8E030484A2B
:101A800043F08003C2F8E030454BD3F8E03003F078
:101A900080037B617B69424BD3F8E030404A43F0DE
:101AA0000103C2F8E0303E4BD3F8E03003F001030D
:101AB0003B613B693A4BD3F8E030394A43F00203CB
:101AC000C2F8E030364BD3F8E03003F00203FB609D
:101AD000FB68334BD3F8E030314A43F00803C2F8D7
:101AE000E0302F4BD3F8E03003F00803BB60BB6855
:101AF0002B4BD3F8E0302A4A43F04003C2F8E030E1
:101B0000274BD3F8E03003F040037B607B68244B25
:101B1000D3F8E030224A43F01003C2F8E030204B03
:101B2000D3F8E03003F010033B603B68002244F23E
:101B300001011C4804F070FC002202211A4804F044
:101B40006BFC4FF40053FB6100233B6200237B627C
:101B500007F11C031946154804F0AEFA44F20103DC
:101B6000FB6101233B6200237B620023BB6207F120
:101B70001C0319460B4804F09FFA0223FB61012362
:101B80003B6200237B620023BB6207F11C03194602
:101B9000054804F091FA00BF3037BD4680BD00BF54
:101BA000004402580004025800100258000802586D
:101BB00080B582B000AF0346FB71FB791946064839
:101BC0000FF076FCFB79012B01D101F000F800BF8A
:101BD0000837BD4680BD00BF802C010880B582B0AB
:101BE00000AF0346FB71FB79194603480FF060FC18
:101BF00000BF0837BD4680BDB42C010880B582B057
:101C000000AF0346FB71FB79194603480FF050FC07
:101C100000BF0837BD4680BDE02C010880B582B00A
:101C200000AF78607B681B68044A934201D100F0E2
:101C300073FE00BF0837BD4680BD00BF00000140F5
:101C400080B400AF72B600BFFEE7000080B582B07E
:101C500000AF786039603B68002B01D1012329E097
:101C60001648FEF7A9FD786800F030F80346002B0F
:101C70000DD13B68012283F824201148FEF79CFD1A
:101C8000012201210F4804F0C7FB002312E03B684A
:101C9000002283F824203B689B6A5A1C3B689A62A6
:101CA0000948FEF789FD01224FF48041054804F000
:101CB000B3FB012318460837BD4680BD0C2D010833
:101CC000342D010800040258502D010880B588B059
:101CD00004AF7860642302930123019307F10E039C
:101CE000009301237522D021786804F091FE034609
:101CF000FB73FB7B002B01D001235CE0BB7B682BDB
:101D000002D0BB7B702B55D100237B7364230293DD
:101D10000123019307F10D03009301236B22D021CE
:101D2000786804F061FD0346FB73FB7B002B01D058
:101D3000012340E00A2000F00FFE03237B7364239D
:101D400002930123019307F10D03009301231A224B
:101D5000D021786804F048FD00237B73642302934C
:101D60000123019307F10D03009301231C22D021CD
:101D7000786804F039FD0346FB73FB7B002B01D030
:101D8000012318E000237B73642302930123019352
:101D900007F10D03009301231B22D021786804F082
:101DA00023FD0346FB73FB7B002B01D0012302E0E4
:101DB000002300E0012318461037BD4680BD000017
:101DC00080B58AB004AF78603960642302930E2333
:101DD000019307F10803009301233B22D021786887
:101DE00004F016FE0346002B40F086803B7A1B026F
:101DF0001AB27B7A1BB213431BB207EE903AB8EECD
:101E0000E77ADFED406AC7EE267A3B68C3ED007AD9
:101E1000BB7A1B021AB2FB7A1BB213431BB207EE4A
:101E2000903AB8EEE77ADFED376AC7EE267A3B687C
:101E3000C3ED017A3B7B1B021AB27B7B1BB21343BF
:101E40001BB207EE903AB8EEE77ADFED2E6AC7EEE6
:101E5000267A3B68C3ED027ABB7B1B021AB2FB7B7E
:101E60001BB21343FB82B7F9163007EE903AB8EE77
:101E7000E77ADFED256AC7EE267A9FED247A77EEC2
:101E8000877A3B68C3ED067A3B7C1B021AB27B7CE7
:101E90001BB213431BB207EE903AB8EEE77ADFEDC0
:101EA0001C6AC7EE267A3B68C3ED037ABB7C1B0233
:101EB0001AB2FB7C1BB213431BB207EE903AB8EE8A
:101EC000E77ADFED136AC7EE267A3B68C3ED047A42
:101ED0003B7D1B021AB27B7D1BB213431BB207EE84
:101EE000903AB8EEE77ADFED0A6AC7EE267A3B68E9
:101EF000C3ED057A002300E0012318461837BD46DC
:101F000080BD00BF000080460000AA43B81E1242F8
:101F10000000034380B582B000AF0C4BD3F8F4301F
:101F20000A4A43F00203C2F8F430084BD3F8F43005
:101F300003F002037B607B6800220F216FF0010039
:101F400000F01DFE00BF0837BD4680BD00440258AA
:101F500080B58EB000AF786007F1240300221A60CC
:101F60005A609A60DA601A617B681B68594A93422A
:101F700040F0AB80584BD3F8D830574A43F4004375
:101F8000C2F8D830544BD3F8D83003F400433B6246
:101F90003B6A514BD3F8D8304F4A43F48033C2F8F0
:101FA000D8304D4BD3F8D83003F48033FB61FB6954
:101FB000494BD3F8D830484A43F40033C2F8D830FC
:101FC000454BD3F8D83003F40033BB61BB69424BB7
:101FD000D3F8E030404A43F00403C2F8E0303E4B0F
:101FE000D3F8E03003F004037B617B693A4BD3F80C
:101FF000E030394A43F00103C2F8E030364BD3F801
:10200000E03003F001033B613B69334BD3F8E03030
:10201000314A43F00203C2F8E0302F4BD3F8E030EE
:1020200003F00203FB60FB682B4BD3F8E0302A4A35
:1020300043F04003C2F8E030274BD3F8E03003F020
:102040004003BB60BB6832237B620223BB62002378
:10205000FB6200233B630B237B6307F124031946D8
:102060001E4804F029F886237B620223BB6200230A
:10207000FB6200233B630B237B6307F124031946B8
:10208000174804F019F84FF400537B620223BB6237
:102090000023FB6200233B630B237B6307F12403D4
:1020A0001946104804F008F84FF420537B620223CD
:1020B000BB620023FB6200233B630B237B6307F1BE
:1020C00024031946084803F0F7FF00BF3837BD4620
:1020D00080BD00BF00800240004402580008025842
:1020E00000000258000402580018025880B5BCB025
:1020F00000AF786007F1DC0300221A605A609A6032
:10210000DA601A6107F11803C022002118460FF0A7
:1021100035FB7B681B684D4A934247D14FF008025C
:102120004FF00003C7E906230023C7F89C3007F1EE
:102130001803184606F08EFB0346002B01D0FFF76C
:102140007FFD434BD3F8E030414A43F00203C2F82D
:10215000E0303F4BD3F8E03003F002037B617B6952
:102160004FF44073C7F8DC301223C7F8E030002387
:10217000C7F8E4300023C7F8E8300423C7F8EC3090
:1021800007F1DC031946334803F096FF304BD3F8D0
:10219000E8302F4A43F40013C2F8E8302C4BD3F850
:1021A000E83003F400133B613B694BE07B681B683C
:1021B000294A934246D14FF008024FF00003C7E985
:1021C00006230023C7F89C3007F11803184606F0D1
:1021D00041FB0346002B01D0FFF732FD1C4BD3F827
:1021E000E0301B4A43F00203C2F8E030184BD3F84A
:1021F000E03003F00203FB60FB684FF44063C7F874
:10220000DC301223C7F8E0300023C7F8E4300023A5
:10221000C7F8E8300423C7F8EC3007F1DC031946AF
:102220000C4803F049FF0A4BD3F8E830084A43F45E
:102230008003C2F8E830064BD3F8E83003F480039B
:10224000BB60BB6800BFF037BD4680BD0054004096
:1022500000440258000402580058004080B485B081
:1022600000AF78607B681B680B4A93420ED10B4B22
:10227000D3F8E830094A43F00203C2F8E830074BCC
:10228000D3F8E83003F00203FB60FB6800BF1437AB
:10229000BD465DF8047B70470004004000440258CE
:1022A00080B58AB000AF786007F1140300221A608D
:1022B0005A609A60DA601A617B681B68224A93420E
:1022C0003DD1224BD3F8E030204A43F00403C2F85A
:1022D000E0301E4BD3F8E03003F004033B613B6970
:1022E0001A4BD3F8E030194A43F00203C2F8E03049
:1022F000164BD3F8E03003F00203FB60FB68802349
:102300007B610223BB610023FB6100233B6202234C
:102310007B6207F1140319460D4803F0CDFE10232C
:102320007B610223BB610023FB6100233B6202232C
:102330007B6207F114031946064803F0BDFE00BF97
:102340002837BD4680BD00BF00040040004402584D
:10235000000802580004025880B5BAB000AF786097
:1023600007F1D40300221A605A609A60DA601A6199
:1023700007F11003C022002118460FF0FFF97B6817
:102380001B68424A93427DD14FF002024FF0000396
:10239000C7E904230023C7F8883007F11003184663
:1023A00006F058FA0346002B01D0FFF749FC384BE2
:1023B000D3F8E830364A43F48023C2F8E830344B8F
:1023C000D3F8E83003F48023FB60FB68304BD3F88C
:1023D000E0302F4A43F00803C2F8E0302C4BD3F82A
:1023E000E03003F00803BB60BB684FF44073C7F8EC
:1023F000D4300223C7F8D8300023C7F8DC300023DC
:10240000C7F8E0300723C7F8E43007F1D4031946D2
:10241000204803F051FE204B204A1A601E4B2D220B
:102420005A601D4B00229A601B4B0022DA601A4B47
:102430004FF480621A61184B00225A61164B002239
:102440009A61154B4FF48072DA61134B00221A62C5
:10245000114B00225A62104800F0BEFB0346002BCD
:1024600001D0FFF7EDFB7B680B4AC3F880200A4AD6
:102470007B68936300220521272000F080FB272042
:1024800000F097FB00BFE837BD4680BD0048004024
:1024900000440258000C0258580400241000024066
:1024A00080B5BAB000AF786007F1D40300221A609B
:1024B0005A609A60DA601A6107F11003C0220021A5
:1024C00018460FF05BF97B681B68384A934269D164
:1024D0004FF480224FF00003C7E904230123BB63BC
:1024E0001223FB6302233B6403237B640223BB644C
:1024F0004FF44063FB644FF4C0537B654FF400130B
:10250000C7F8983007F11003184606F0A3F9034600
:10251000002B01D0FFF794FB05F064F9244BD3F8AE
:10252000E030234A43F00103C2F8E030204BD3F8F7
:10253000E03003F00103FB60FB684FF4C853C7F8B9
:10254000D4300223C7F8D8300023C7F8DC3000238A
:10255000C7F8E0300A23C7F8E43007F1D40319467E
:10256000144803F0A9FD4FF40073C7F8D4300023DA
:10257000C7F8D8300023C7F8DC3007F1D403194678
:102580000C4803F099FD0A4BD3F8D830084A43F0C1
:102590000063C2F8D830064BD3F8D83003F000639C
:1025A000BB60BB6800BFE837BD4680BD0000084087
:1025B000004402580000025880B58EB000AF786029
:1025C0007B680F2B44D800227968192000F0D7FAD5
:1025D000192000F0EEFA244A7B681360234BD3F8ED
:1025E000F030224A43F00103C2F8F0301F4BD3F819
:1025F000F03003F00103BB60BB6807F10C0207F188
:1026000010031146184606F0E3F806F0CBF803462F
:102610005B007B637B6B164AA2FB03239B0C013B95
:102620003B63144B144A1A60124B40F2E732DA60F3
:10263000104A3B6B53600F4B00221A610D4B002276
:102640009A600C4807F032FF0346002B07D101E0E7
:10265000012305E0074807F081FF034600E001235E
:1026600018463837BD4680BD080000240044025893
:1026700083DE1B43D40900240000014080B400AF76
:10268000FEE780B400AFFEE780B400AFFEE780B4A1
:1026900000AFFEE780B400AFFEE780B400AF00BF3C
:1026A000BD465DF8047B704780B500AF024801F07D
:1026B000BDFD00BF80BD00BF5804002480B500AF41
:1026C000024808F033F900BF80BD00BFD4090024E0
:1026D00080B500AF094B1B68DB6903F01003102BBA
:1026E00007D1064B1B6810221A62054B012283F8A2
:1026F0008820024809F06CFA00BF80BDC4030024A2
:102700005001002480B586B000AFF860B9607A60EF
:1027100000237B610AE0AFF300800146BB685A1CCE
:10272000BA60CAB21A707B6901337B617A697B68CF
:102730009A42F0DB7B6818461837BD4680BD80B5ED
:1027400086B000AFF860B9607A6000237B6109E071
:10275000BB685A1CBA601B781846AFF300807B69CF
:1027600001337B617A697B689A42F1DB7B681846AA
:102770001837BD4680BD80B483B000AF78604FF09D
:10278000FF3318460C37BD465DF8047B704780B4B4
:1027900083B000AF786039603B684FF400525A60F4
:1027A000002318460C37BD465DF8047B704780B4A3
:1027B00083B000AF7860012318460C37BD465DF842
:1027C000047B704780B485B000AFF860B9607A6070
:1027D000002318461437BD465DF8047B704700009F
:1027E00080B586B000AF7860144A154BD31A7B6170
:1027F0007B693B61134B1B68002B02D1114B124AC2
:102800001A60104B1A687B6813443A699A4207D2DF
:102810000FF058F803460C221A604FF0FF3309E01E
:10282000084B1B68FB60074B1A687B681344054A1A
:102830001360FB6818461837BD4680BD00000824A9
:1028400000040000200A002460550024DFF834D082
:10285000FDF71CFF0C480D490D4A002302E0D45837
:10286000C4500433C4188C42F9D30A4A0A4C0023DA
:1028700001E013600432A242FBD30FF029F8FEF707
:1028800009FE7047000008240000002470000024A6
:10289000EC2E0108300100245C550024FEE7000006
:1028A00080B582B000AF032000F05EF905F0BAFDFC
:1028B0000246154B9B691B0A03F00F031349CB5CBF
:1028C00003F01F0322FA03F37B600F4B9B6903F0B5
:1028D0000F030E4AD35C03F01F037A6822FA03F356
:1028E0000B4A13600B4A7B6813600F20FFF764FEEE
:1028F0000346002B01D0012302E0FFF70BFB00236E
:1029000018460837BD4680BD00440258802D010896
:10291000040000240000002480B400AF064B1B78A4
:102920001A46064B1B681344044A136000BFBD4699
:102930005DF8047B704700BF0C000024240A0024CB
:1029400080B400AF034B1B681846BD465DF8047B9E
:10295000704700BF240A002480B584B000AF7860BF
:10296000FFF7EEFFB8607B68FB60FB68B3F1FF3FE9
:1029700005D00A4B1B781A46FB681344FB6000BF66
:10298000FFF7DEFF0246BB68D31AFA689A42F7D80F
:1029900000BF00BF1037BD4680BD00BF0C00002443
:1029A00080B400AF034B1B681B0C1846BD465DF896
:1029B000047B70470010005C80B483B000AF786087
:1029C000064B5B6823F4600204497B6813434B6049
:1029D00000BF0C37BD465DF8047B7047000400580B
:1029E00080B485B000AF78607B6803F00703FB60BC
:1029F0000B4BDB68BB60BA684FF6FF031340BB604C
:102A0000FB681A02BB681A43064B1343BB60044AB7
:102A1000BB68D36000BF1437BD465DF8047B7047C8
:102A200000ED00E00000FA0580B400AF044BDB6865
:102A30001B0A03F007031846BD465DF8047B704788
:102A400000ED00E080B483B000AF0346FB80B7F92F
:102A50000630002B0BDBFB8803F01F020749B7F998
:102A600006305B09012000FA02F241F8232000BF82
:102A70000C37BD465DF8047B704700BF00E100E005
:102A800080B483B000AF03463960FB80B7F90630ED
:102A9000002B0ADB3B68DAB20C49B7F906301201A9
:102AA000D2B20B4483F800230AE03B68DAB208494B
:102AB000FB8803F00F03043B1201D2B20B441A76D9
:102AC00000BF0C37BD465DF8047B704700E100E0B5
:102AD00000ED00E080B489B000AFF860B9607A60C2
:102AE000FB6803F00703FB61FB69C3F10703042BD9
:102AF00028BF0423BB61FB690433062B02D9FB69A1
:102B0000033B00E000237B614FF0FF32BB6902FA18
:102B100003F3DA43BB681A407B699A404FF0FF31F8
:102B20007B6901FA03F3D9437B680B4013431846D2
:102B30002437BD465DF8047B7047000080B400AFC9
:102B4000BFF34F8F00BF064BDB6803F4E06204491C
:102B5000044B1343CB60BFF34F8F00BF00BFFDE7B3
:102B600000ED00E00400FA0580B582B000AF7860A7
:102B70007868FFF735FF00BF0837BD4680BD80B5D8
:102B800086B000AF0346B9607A60FB81FFF74CFF67
:102B900078617A68B9687869FFF79CFF0246B7F9EF
:102BA0000E3011461846FFF76BFF00BF1837BD46C1
:102BB00080BD80B582B000AF0346FB80B7F9063018
:102BC0001846FFF73FFF00BF0837BD4680BD80B500
:102BD00000AFFFF7B3FF000080B586B000AF7860AC
:102BE000FFF7AEFE38617B68002B01D1012316E3AD
:102BF0007B681B68664A93424AD07B681B68654ABB
:102C0000934245D07B681B68634A934240D07B68FF
:102C10001B68624A93423BD07B681B68604A9342C0
:102C200036D07B681B685F4A934231D07B681B6853
:102C30005D4A93422CD07B681B685C4A934227D044
:102C40007B681B685A4A934222D07B681B68594AAA
:102C500093421DD07B681B68574A934218D07B680B
:102C60001B68564A934213D07B681B68544A9342B0
:102C70000ED07B681B68534A934209D07B681B685F
:102C8000514A934204D07B681B68504A934201D159
:102C9000012300E00023002B00F03B817B6802222F
:102CA00083F835207B68002283F834207B681B681A
:102CB000374A93424AD07B681B68364A934245D0D4
:102CC0007B681B68344A934240D07B681B68334A58
:102CD00093423BD07B681B68314A934236D07B6875
:102CE0001B68304A934231D07B681B682E4A93425E
:102CF0002CD07B681B682D4A934227D07B681B68C9
:102D00002B4A934222D07B681B682A4A93421DD0EB
:102D10007B681B68284A934218D07B681B68274A47
:102D2000934213D07B681B68254A93420ED07B6880
:102D30001B68244A934209D07B681B68224A93424D
:102D400004D07B681B68214A934208D17B681B68CA
:102D50001A687B681B6822F001021A6007E07B6832
:102D60001B681A687B681B6822F001021A602FE05A
:102D7000FFF7E6FD02463B69D31A052B28D97B688D
:102D800020225A657B68032283F83520012346E21E
:102D9000100002402800024040000240580002405B
:102DA0007000024088000240A0000240B8000240CB
:102DB000100402402804024040040240580402402B
:102DC0007004024088040240A0040240B80402409B
:102DD0007B681B681B6803F00103002BC8D17B686C
:102DE0001B681B687B617A69834B13407B617B683E
:102DF0009A687B68DB681A437B681B691A437B68A7
:102E00005B691A437B689B691A437B68DB691A43D9
:102E10007B681B6A13437A6913437B617B685B6A37
:102E2000042B07D17B68DA6A7B681B6B13437A69D2
:102E300013437B61714B1A68714B1340B3F1005F10
:102E400028D37B685B68282B03D97B685B682E2BB3
:102E500017D97B685B683E2B03D97B685B68422B84
:102E60000FD97B685B68462B03D97B685B68482B6E
:102E700007D97B685B684E2B05D97B685B68522B52
:102E800001D8012300E00023002B03D07B6943F429
:102E900080137B617B681B687A691A607B681B689A
:102EA0005B697B617B6923F007037B617B685B6AFD
:102EB0007A6913437B617B685B6A042B17D17B685B
:102EC0009B6A7A6913437B617B68DB6A002B0ED0B7
:102ED000786802F033FB0346002B08D07B68402261
:102EE0005A657B68012283F83520012397E17B68CE
:102EF0001B687A695A61786802F06EFA0346BB6013
:102F00007B68DB6D03F01F033F229A40BB689A6029
:102F1000CDE07B681B683B4A934222D07B681B68EC
:102F2000394A93421DD07B681B68384A934218D0B7
:102F30007B681B68364A934213D07B681B68354A0E
:102F400093420ED07B681B68334A934209D07B685A
:102F50001B68324A934204D07B681B68304A934214
:102F600001D1012300E00023002B00F097807B6853
:102F70001B68244A934221D07B681B68224A9342F3
:102F80001CD07B681B68214A934217D07B681B6862
:102F90001F4A934212D07B681B681E4A93420DD091
:102FA0007B681B681C4A934208D07B681B681B4ADD
:102FB000934203D07B681B68194A93427B680222C4
:102FC00083F835207B68002283F834207B681B68F7
:102FD0001B687B617A69134B13407B617B689B683C
:102FE000402B21D07B689B68802B02D14FF480431B
:102FF0001BE0002319E000BF3F8010FE0010005CC2
:103000000000FFFF085402581C5402583054025864
:1030100044540258585402586C5402588054025870
:10302000945402580F00FEFF10237A68D268D20829
:103030001A437B681B69DB081A437B685B69DB0802
:103040001A437B689B69DB081A437B68DB69DB08F2
:103050001A437B681B6A1B0913437A6913437B611C
:103060007B681B687A691A607B681B681A466E4B1E
:1030700013446E4AA2FB03231B099A007B68DA659E
:10308000786802F0A9F90346FB607B68DB6D03F00A
:103090001F0301229A40FB685A6008E07B684022C7
:1030A0005A657B68032283F835200123B7E07B68EB
:1030B0001B685F4A934272D07B681B685D4A9342EB
:1030C0006DD07B681B685C4A934268D07B681B6844
:1030D0005A4A934263D07B681B68594A93425ED038
:1030E0007B681B68574A934259D07B681B68564AD5
:1030F000934254D07B681B68544A93424FD07B68FC
:103100001B68534A93424AD07B681B68514A9342DA
:1031100045D07B681B68504A934240D07B681B684F
:103120004E4A93423BD07B681B684D4A934236D04F
:103130007B681B684B4A934231D07B681B684A4AC4
:1031400093422CD07B681B68484A934227D07B6807
:103150001B68474A934222D07B681B68454A9342CA
:103160001DD07B681B68444A934218D07B681B685B
:10317000424A934213D07B681B68414A93420ED067
:103180007B681B683F4A934209D07B681B683E4AB4
:10319000934204D07B681B683C4A934201D10123CF
:1031A00000E00023002B32D0786802F043FA7B68FD
:1031B0009B68802B02D17B6800225A607B685A682A
:1031C0007B681B6ED2B21A607B685B6E7A68926E07
:1031D0005A607B685B68002B10D07B685B68082BAB
:1031E0000CD8786802F0C0FA7B68DB6E00221A60A7
:1031F0007B681B6F7A68526F5A6008E07B68002218
:10320000DA667B6800221A677B6800225A677B684F
:1032100000225A657B68012283F835200023184676
:103220001837BD4680BD00BFF8ABFDA7CDCCCCCCD8
:1032300010000240280002404000024058000240B6
:103240007000024088000240A0000240B800024026
:103250001004024028040240400402405804024086
:103260007004024088040240A0040240B8040240F6
:10327000085402581C5402583054025844540258FE
:10328000585402586C5402588054025894540258AE
:1032900080B586B000AFF860B9607A603B6000230B
:1032A000FB75FB68002B01D1012326E2FB6893F834
:1032B0003430012B01D102231FE2FB68012283F885
:1032C0003420FB6893F83530DBB2012B40F00A82E2
:1032D000FB68022283F83520FB6800225A65FB68F0
:1032E0001B68684A93424AD0FB681B68664A93424F
:1032F00045D0FB681B68654A934240D0FB681B6859
:10330000634A93423BD0FB681B68624A934236D0C3
:10331000FB681B68604A934231D0FB681B685F4AB8
:1033200093422CD0FB681B685D4A934227D0FB6810
:103330001B685C4A934222D0FB681B685A4A93423E
:103340001DD0FB681B68594A934218D0FB681B6864
:10335000574A934213D0FB681B68564A93420ED0DB
:10336000FB681B68544A934209D0FB681B68534AA8
:10337000934204D0FB681B68514A934208D1FB6812
:103380001B681A68FB681B6822F001021A6007E0DC
:10339000FB681B681A68FB681B6822F001021A6050
:1033A0003B687A68B968F86801F06AFEFB681B68D8
:1033B000344A93424AD0FB681B68334A934245D053
:1033C000FB681B68314A934240D0FB681B68304A57
:1033D00093423BD0FB681B682E4A934236D0FB6871
:1033E0001B682D4A934231D0FB681B682B4A9342DD
:1033F0002CD0FB681B682A4A934227D0FB681B68C5
:10340000284A934222D0FB681B68274A93421DD06A
:10341000FB681B68254A934218D0FB681B68244A46
:10342000934213D0FB681B68224A93420ED0FB687C
:103430001B68214A934209D0FB681B681F4A9342CC
:1034400004D0FB681B681E4A934201D1012300E0AF
:103450000023002B36D0FB681B681B6823F01E027C
:10346000FB681B6842F016021A60FB681B6C002B9D
:103470003ED0FB681B681A68FB681B6842F00802B4
:103480001A6035E01000024028000240400002406F
:10349000580002407000024088000240A000024034
:1034A000B8000240100402402804024040040240D8
:1034B000580402407004024088040240A004024004
:1034C000B8040240FB681B681B6823F00E02FB680F
:1034D0001B6842F00A021A60FB681B6C002B07D0C5
:1034E000FB681B681A68FB681B6842F004021A60DC
:1034F000FB681B68834A934272D0FB681B68824A50
:1035000093426DD0FB681B68804A934268D0FB6889
:103510001B687F4A934263D0FB681B687D4A9342D5
:103520005ED0FB681B687C4A934259D0FB681B68DD
:103530007A4A934254D0FB681B68794A93424FD031
:10354000FB681B68774A93424AD0FB681B68764A3F
:10355000934245D0FB681B68744A934240D0FB6895
:103560001B68734A93423BD0FB681B68714A9342C5
:1035700036D0FB681B68704A934231D0FB681B68E9
:103580006E4A93422CD0FB681B686D4A934227D049
:10359000FB681B686B4A934222D0FB681B686A4A2F
:1035A00093421DD0FB681B68684A934218D0FB68A1
:1035B0001B68674A934213D0FB681B68654A9342B5
:1035C0000ED0FB681B68644A934209D0FB681B68F5
:1035D000624A934204D0FB681B68614A934201D15E
:1035E000012300E00023002B1AD0FB681B6E1B6830
:1035F00003F48033002B07D0FB681B6E1A68FB684E
:103600001B6E42F480721A60FB68DB6E002B07D0E1
:10361000FB68DB6E1A68FB68DB6E42F480721A602E
:10362000FB681B68374A93424AD0FB681B68364ADE
:10363000934245D0FB681B68344A934240D0FB68F4
:103640001B68334A93423BD0FB681B68314A934264
:1036500036D0FB681B68304A934231D0FB681B6848
:103660002E4A93422CD0FB681B682D4A934227D0E8
:10367000FB681B682B4A934222D0FB681B682A4ACE
:1036800093421DD0FB681B68284A934218D0FB6800
:103690001B68274A934213D0FB681B68254A934254
:1036A0000ED0FB681B68244A934209D0FB681B6854
:1036B000224A934204D0FB681B68214A934208D1F6
:1036C000FB681B681A68FB681B6842F001021A60FD
:1036D00012E0FB681B681A68FB681B6842F0010275
:1036E0001A6009E0FB684FF400625A65FB6800222B
:1036F00083F834200123FB75FB7D18461837BD463F
:1037000080BD00BF1000024028000240400002407F
:10371000580002407000024088000240A0000240B1
:10372000B800024010040240280402404004024055
:10373000580402407004024088040240A004024081
:10374000B8040240085402581C540258305402581D
:1037500044540258585402586C5402588054025829
:103760009454025880B586B000AF7860FFF7E8F84F
:1037700038617B68002B01D10123DCE27B6893F880
:103780003530DBB2022B08D07B6880225A657B681B
:10379000002283F834200123CDE27B681B68764A3F
:1037A00093424AD07B681B68744A934245D07B6839
:1037B0001B68734A934240D07B681B68714A9342EE
:1037C0003BD07B681B68704A934236D07B681B688D
:1037D0006E4A934231D07B681B686D4A93422CD06D
:1037E0007B681B686B4A934227D07B681B686A4AD8
:1037F000934222D07B681B68684A93421DD07B6845
:103800001B68674A934218D07B681B68654A9342DD
:1038100013D07B681B68644A93420ED07B681B6898
:10382000624A934209D07B681B68614A934204D084
:103830007B681B685F4A934201D1012300E00023AB
:10384000002B13D07B681B681A687B681B6822F00A
:103850001E021A607B681B685A697B681B6822F02D
:1038600080025A617B681B687B610AE07B681B6889
:103870001A687B681B6822F00E021A607B681B685E
:103880007B617B681B683C4A934272D07B681B68F3
:103890003A4A93426DD07B681B68394A934268D09C
:1038A0007B681B68374A934263D07B681B68364A43
:1038B00093425ED07B681B68344A934259D07B6840
:1038C0001B68334A934254D07B681B68314A934249
:1038D0004FD07B681B68304A93424AD07B681B6894
:1038E0002E4A934245D07B681B682D4A934240D0B4
:1038F0007B681B682B4A93423BD07B681B682A4A33
:10390000934236D07B681B68284A934231D07B684B
:103910001B68274A93422CD07B681B68254A934238
:1039200027D07B681B68244A934222D07B681B689F
:10393000224A93421DD07B681B68214A934218D0CB
:103940007B681B681F4A934213D07B681B681E4A22
:1039500093420ED07B681B681C4A934209D07B6857
:103960001B681B4A934204D07B681B68194A934228
:1039700032D1012331E000BF100002402800024094
:10398000400002405800024070000240880002409F
:10399000A0000240B8000240100402402804024087
:1039A000400402405804024070040240880402406F
:1039B000A0040240B8040240085402581C540258A3
:1039C0003054025844540258585402586C54025807
:1039D00080540258945402580023002B07D07B686F
:1039E0001B6E1A687B681B6E22F480721A607B68FB
:1039F0001B686D4A93424AD07B681B686B4A9342AE
:103A000045D07B681B686A4A934240D07B681B683C
:103A1000684A93423BD07B681B68674A934236D022
:103A20007B681B68654A934231D07B681B68644A97
:103A300093422CD07B681B68624A934227D07B68F4
:103A40001B68614A934222D07B681B685F4A93429D
:103A50001DD07B681B685E4A934218D07B681B6848
:103A60005C4A934213D07B681B685B4A93420ED03A
:103A70007B681B68594A934209D07B681B68584A87
:103A8000934204D07B681B68564A934208D17B68F6
:103A90001B681A687B681B6822F001021A6007E045
:103AA0007B681B681A687B681B6822F001021A6039
:103AB00013E0FEF745FF02463B69D31A052B0CD9EC
:103AC0007B6820225A657B68032283F835207B6857
:103AD000002283F8342001232DE17B691B6803F069
:103AE0000103002BE5D17B681B682F4A93424AD023
:103AF0007B681B682D4A934245D07B681B682C4A23
:103B0000934240D07B681B682A4A93423BD07B6833
:103B10001B68294A934236D07B681B68274A934228
:103B200031D07B681B68264A93422CD07B681B6887
:103B3000244A934227D07B681B68234A934222D0B1
:103B40007B681B68214A93421DD07B681B68204A12
:103B5000934218D07B681B681E4A934213D07B683F
:103B60001B681D4A93420ED07B681B681B4A934218
:103B700009D07B681B681A4A934204D07B681B6893
:103B8000184A934201D1012300E00023002B2BD0DF
:103B90007B689B6DBB607B68DB6D03F01F033F227E
:103BA0009A40BB689A602AE0100002402800024058
:103BB000400002405800024070000240880002406D
:103BC000A0000240B8000240100402402804024055
:103BD000400402405804024070040240880402403D
:103BE000A0040240B80402407B689B6DFB607B68C8
:103BF000DB6D03F01F0301229A40FB685A607B686B
:103C00001B684F4A934272D07B681B684D4A9342AF
:103C10006DD07B681B684C4A934268D07B681B68F8
:103C20004A4A934263D07B681B68494A93425ED0FC
:103C30007B681B68474A934259D07B681B68464A99
:103C4000934254D07B681B68444A93424FD07B68B0
:103C50001B68434A93424AD07B681B68414A93429F
:103C600045D07B681B68404A934240D07B681B6804
:103C70003E4A93423BD07B681B683D4A934236D014
:103C80007B681B683B4A934231D07B681B683A4A89
:103C900093422CD07B681B68384A934227D07B68BC
:103CA0001B68374A934222D07B681B68354A93428F
:103CB0001DD07B681B68344A934218D07B681B6810
:103CC000324A934213D07B681B68314A93420ED02C
:103CD0007B681B682F4A934209D07B681B682E4A79
:103CE000934204D07B681B682C4A934201D1012384
:103CF00000E00023002B15D07B685B6E7A68926E23
:103D00005A607B68DB6E002B0CD07B68DB6E1A6818
:103D10007B68DB6E22F480721A607B681B6F7A68A6
:103D2000526F5A607B68012283F835207B6800223D
:103D300083F83420002318461837BD4680BD00BFE5
:103D4000100002402800024040000240580002409B
:103D50007000024088000240A0000240B80002400B
:103D6000100402402804024040040240580402406B
:103D70007004024088040240A0040240B8040240DB
:103D8000085402581C5402583054025844540258E3
:103D9000585402586C540258805402589454025893
:103DA00080B584B000AF78607B68002B01D101231F
:103DB00037E27B6893F83530DBB2022B04D07B68A6
:103DC00080225A6501232CE27B681B685C4A93427F
:103DD0004AD07B681B685B4A934245D07B681B686E
:103DE000594A934240D07B681B68584A93423BD063
:103DF0007B681B68564A934236D07B681B68554ADD
:103E0000934231D07B681B68534A93422CD07B6825
:103E10001B68524A934227D07B681B68504A9342E2
:103E200022D07B681B684F4A93421DD07B681B6879
:103E30004D4A934218D07B681B684C4A934213D07A
:103E40007B681B684A4A93420ED07B681B68494ACC
:103E5000934209D07B681B68474A934204D07B6831
:103E60001B68464A934201D1012300E00023002B46
:103E700000F086807B68042283F835207B681B680D
:103E80002F4A93424AD07B681B682E4A934245D002
:103E90007B681B682C4A934240D07B681B682B4A86
:103EA00093423BD07B681B68294A934236D07B689B
:103EB0001B68284A934231D07B681B68264A93428C
:103EC0002CD07B681B68254A934227D07B681B68EF
:103ED000234A934222D07B681B68224A93421DD01A
:103EE0007B681B68204A934218D07B681B681F4A76
:103EF000934213D07B681B681D4A93420ED07B68A7
:103F00001B681C4A934209D07B681B681A4A93427B
:103F100004D07B681B68194A934208D17B681B68F0
:103F20001A687B681B6822F001021A6078E17B68DE
:103F30001B681A687B681B6822F001021A606FE137
:103F40001000024028000240400002405800024099
:103F50007000024088000240A0000240B800024009
:103F60001004024028040240400402405804024069
:103F70007004024088040240A0040240B8040240D9
:103F80007B681B681A687B681B6822F00E021A6047
:103F90007B681B686C4A93424AD07B681B686B4AFB
:103FA000934245D07B681B68694A934240D07B6846
:103FB0001B68684A93423BD07B681B68664A934201
:103FC00036D07B681B68654A934231D07B681B689A
:103FD000634A93422CD07B681B68624A934227D085
:103FE0007B681B68604A934222D07B681B685F4AEB
:103FF00093421DD07B681B685D4A934218D07B6852
:104000001B685C4A934213D07B681B685A4A9342F0
:104010000ED07B681B68594A934209D07B681B68A5
:10402000574A934204D07B681B68564A934208D192
:104030007B681B681A687B681B6822F001021A60A3
:1040400007E07B681B681A687B681B6822F0010226
:104050001A607B681B683C4A934272D07B681B687D
:104060003A4A93426DD07B681B68394A934268D0C4
:104070007B681B68374A934263D07B681B68364A6B
:1040800093425ED07B681B68344A934259D07B6868
:104090001B68334A934254D07B681B68314A934271
:1040A0004FD07B681B68304A93424AD07B681B68BC
:1040B0002E4A934245D07B681B682D4A934240D0DC
:1040C0007B681B682B4A93423BD07B681B682A4A5B
:1040D000934236D07B681B68284A934231D07B6874
:1040E0001B68274A93422CD07B681B68254A934261
:1040F00027D07B681B68244A934222D07B681B68C8
:10410000224A93421DD07B681B68214A934218D0F3
:104110007B681B681F4A934213D07B681B681E4A4A
:1041200093420ED07B681B681C4A934209D07B687F
:104130001B681B4A934204D07B681B68194A934250
:1041400032D1012331E000BF1000024028000240BC
:1041500040000240580002407000024088000240C7
:10416000A0000240B80002401004024028040240AF
:104170004004024058040240700402408804024097
:10418000A0040240B8040240085402581C540258CB
:104190003054025844540258585402586C5402582F
:1041A00080540258945402580023002B28D07B6876
:1041B0001B6E1A687B681B6E22F480721A607B6823
:1041C0009B6DFB607B68DB6D03F01F0301229A404F
:1041D000FB685A607B685B6E7A68926E5A607B6897
:1041E000DB6E002B0CD07B68DB6E1A687B68DB6EA5
:1041F00022F480721A607B681B6F7A68526F5A6073
:104200007B68012283F835207B68002283F8342004
:104210007B681B6D002B03D07B681B6D786898470B
:10422000002318461037BD4680BD00BF80B58AB058
:1042300000AF78600023FB60674B1B68674AA2FBF6
:1042400003239B0A7B627B689B6D3B627B689B6D53
:10425000FB613B6A1B68BB61FB691B687B617B6818
:104260001B685F4A93424AD07B681B685D4A934251
:1042700045D07B681B685C4A934240D07B681B68D2
:104280005A4A93423BD07B681B68594A934236D0C6
:104290007B681B68574A934231D07B681B68564A3B
:1042A00093422CD07B681B68544A934227D07B688A
:1042B0001B68534A934222D07B681B68514A934241
:1042C0001DD07B681B68504A934218D07B681B68DE
:1042D0004E4A934213D07B681B684D4A93420ED0DE
:1042E0007B681B684B4A934209D07B681B684A4A2B
:1042F000934204D07B681B68484A934201D1012352
:1043000000E00023002B00F02B847B68DB6D03F0C2
:104310001F0308229A40BB691340002B00F0A280C3
:104320007B681B682E4A93424AD07B681B682D4AE3
:10433000934245D07B681B682B4A934240D07B68F0
:104340001B682A4A93423BD07B681B68284A9342E9
:1043500036D07B681B68274A934231D07B681B6844
:10436000254A93422CD07B681B68244A934227D06D
:104370007B681B68224A934222D07B681B68214AD3
:1043800093421DD07B681B681F4A934218D07B68FC
:104390001B681E4A934213D07B681B681C4A9342D9
:1043A0000ED07B681B681B4A934209D07B681B6850
:1043B000194A934204D07B681B68184A93422FD154
:1043C0007B681B681B6803F00403002B14BF0123E8
:1043D0000023DBB22EE000BF00000024B5814E1B9D
:1043E00010000240280002404000024058000240F5
:1043F0007000024088000240A0000240B800024065
:1044000010040240280402404004024058040240C4
:104410007004024088040240A0040240B804024034
:104420007B681B681B6803F00803002B14BF012383
:104430000023DBB2002B15D07B681B681A687B68F1
:104440001B6822F004021A607B68DB6D03F01F0317
:1044500008229A403B6A9A607B685B6D43F00102D8
:104460007B685A657B68DB6D03F01F03BA6922FA2B
:1044700003F303F00103002B6ED07B681B68694ACD
:1044800093424AD07B681B68674A934245D07B6859
:104490001B68664A934240D07B681B68644A93421B
:1044A0003BD07B681B68634A934236D07B681B68AD
:1044B000614A934231D07B681B68604A93422CD09A
:1044C0007B681B685E4A934227D07B681B685D4A05
:1044D000934222D07B681B685B4A93421DD07B6865
:1044E0001B685A4A934218D07B681B68584A93420B
:1044F00013D07B681B68574A93420ED07B681B68B9
:10450000554A934209D07B681B68544A934204D0B1
:104510007B681B68524A93420AD17B681B685B69BF
:1045200003F08003002B14BF01230023DBB203E060
:104530007B681B681B680023002B0DD07B68DB6D3C
:1045400003F01F0301229A403B6A9A607B685B6D0F
:1045500043F002027B685A657B68DB6D03F01F0342
:1045600004229A40BB691340002B00F08F807B68C7
:104570001B682C4A93424AD07B681B682A4A9342A4
:1045800045D07B681B68294A934240D07B681B68F2
:10459000274A93423BD07B681B68264A934236D019
:1045A0007B681B68244A934231D07B681B68234A8E
:1045B00093422CD07B681B68214A934227D07B68AA
:1045C0001B68204A934222D07B681B681E4A934294
:1045D0001DD07B681B681D4A934218D07B681B68FE
:1045E0001B4A934213D07B681B681A4A93420ED031
:1045F0007B681B68184A934209D07B681B68174A7E
:10460000934204D07B681B68154A93422AD17B6889
:104610001B681B6803F00203002B14BF0123002357
:10462000DBB223E0100002402800024040000240BC
:10463000580002407000024088000240A000024082
:10464000B800024010040240280402404004024026
:10465000580402407004024088040240A004024052
:10466000B80402407B681B681B680023002B0DD038
:104670007B68DB6D03F01F0304229A403B6A9A605B
:104680007B685B6D43F004027B685A657B68DB6D79
:1046900003F01F0310229A40BB691340002B00F067
:1046A000A6807B681B68854A93424AD07B681B685A
:1046B000834A934245D07B681B68824A934240D02C
:1046C0007B681B68804A93423BD07B681B687F4AAB
:1046D000934236D07B681B687D4A934231D07B6819
:1046E0001B687C4A93422CD07B681B687A4A9342B1
:1046F00027D07B681B68794A934222D07B681B686D
:10470000774A93421DD07B681B68764A934218D043
:104710007B681B68744A934213D07B681B68734A9A
:1047200093420ED07B681B68714A934209D07B6824
:104730001B68704A934204D07B681B686E4A9342A0
:104740000AD17B681B681B6803F00803002B14BFA9
:1047500001230023DBB209E07B681B681B6803F0C0
:104760000403002B14BF01230023DBB2002B3ED037
:104770007B68DB6D03F01F0310229A403B6A9A604E
:104780007B681B681B6803F48023002B18D07B68B0
:104790001B681B6803F40023002B08D17B681B6C8B
:1047A000002B24D07B681B6C786898471FE07B68DF
:1047B0009B6C002B1BD07B689B6C7868984716E03D
:1047C0007B681B681B6803F48073002B07D17B6830
:1047D0001B681A687B681B6822F008021A607B68F5
:1047E0001B6C002B03D07B681B6C786898477B6838
:1047F000DB6D03F01F0320229A40BB691340002B9E
:1048000000F010817B681B682C4A93424AD07B6879
:104810001B682B4A934245D07B681B68294A934208
:1048200040D07B681B68284A93423BD07B681B685A
:10483000264A934236D07B681B68254A934231D082
:104840007B681B68234A93422CD07B681B68224AF2
:10485000934227D07B681B68204A934222D07B6812
:104860001B681F4A93421DD07B681B681D4A9342F8
:1048700018D07B681B681C4A934213D07B681B6866
:104880001A4A93420ED07B681B68194A934209D09A
:104890007B681B68174A934204D07B681B68164AE2
:1048A00093422BD17B681B681B6803F01003002B1D
:1048B00014BF01230023DBB22AE000BF1000024036
:1048C00028000240400002405800024070000240B0
:1048D00088000240A0000240B800024010040240DC
:1048E0002804024040040240580402407004024080
:1048F00088040240A0040240B80402407B681B68A0
:104900001B6803F00203002B14BF01230023DBB25A
:10491000002B00F087807B68DB6D03F01F032022F3
:104920009A403B6A9A607B6893F83530DBB2042B7F
:1049300039D17B681B681A687B681B6822F01602F5
:104940001A607B681B685A697B681B6822F08002CA
:104950005A617B681B6C002B03D17B689B6C002B1E
:1049600007D07B681B681A687B681B6822F0080206
:104970001A607B68DB6D03F01F033F229A403B6A9D
:104980009A607B68012283F835207B68002283F8D7
:1049900034207B681B6D002B00F04A837B681B6D05
:1049A0007868984744E37B681B681B6803F480239E
:1049B000002B18D07B681B681B6803F40023002BB6
:1049C00008D17B685B6C002B2CD07B685B6C7868B3
:1049D000984727E07B68DB6B002B23D07B68DB6B81
:1049E000786898471EE07B681B681B6803F4807337
:1049F000002B0FD17B681B681A687B681B6822F04C
:104A000010021A607B68012283F835207B6800223F
:104A100083F834207B68DB6B002B03D07B68DB6B77
:104A2000786898477B685B6D002B00F006837B6895
:104A30005B6D03F00103002B00F088807B6804228B
:104A400083F835207B681B687A4A93424AD07B689A
:104A50001B68794A934245D07B681B68774A93422A
:104A600040D07B681B68764A93423BD07B681B68CA
:104A7000744A934236D07B681B68734A934231D0A4
:104A80007B681B68714A93422CD07B681B68704A14
:104A9000934227D07B681B686E4A934222D07B6882
:104AA0001B686D4A93421DD07B681B686B4A93421A
:104AB00018D07B681B686A4A934213D07B681B68D6
:104AC000684A93420ED07B681B68674A934209D0BC
:104AD0007B681B68654A934204D07B681B68644A04
:104AE000934208D17B681B681A687B681B6822F0B8
:104AF00001021A6007E07B681B681A687B681B6804
:104B000022F001021A60FB680133FB607A6A9A4264
:104B100007D37B681B681B6803F00103002BF2D1ED
:104B200000E000BF7B681B681B6803F00103002BDB
:104B300004D07B68032283F8352003E07B680122E0
:104B400083F835207B68002283F834207B68DB6C97
:104B5000002B00F072827B68DB6C786898476CE20F
:104B60007B681B68434A934222D07B681B68424A99
:104B700093421DD07B681B68404A934218D07B68E3
:104B80001B683F4A934213D07B681B683D4A93429F
:104B90000ED07B681B683C4A934209D07B681B6837
:104BA0003A4A934204D07B681B68394A934201D148
:104BB000012300E00023002B00F03F827B681B688C
:104BC0001B683B617B68DB6D03F01F0304229A4086
:104BD0007B691340002B00F0CD803B6903F0040398
:104BE000002B00F0C7807B68DB6D03F01F030422FD
:104BF0009A40FB695A603B6903F40043002B49D09B
:104C00003B6903F48033002B09D17B689B6C002B3C
:104C100000F010827B689B6C786898470AE27B689A
:104C20001B6C002B00F006827B681B6C7868984731
:104C300000E200BF10000240280002404000024095
:104C4000580002407000024088000240A00002406C
:104C5000B800024010040240280402404004024010
:104C6000580402407004024088040240A00402403C
:104C7000B8040240085402581C54025830540258D8
:104C800044540258585402586C54025880540258E4
:104C9000945402583B6903F02003002B60D17B68D9
:104CA0001B687F4A93424AD07B681B687D4A9342C7
:104CB00045D07B681B687C4A934240D07B681B6868
:104CC0007A4A93423BD07B681B68794A934236D03C
:104CD0007B681B68774A934231D07B681B68764AB1
:104CE00093422CD07B681B68744A934227D07B6820
:104CF0001B68734A934222D07B681B68714A9342B7
:104D00001DD07B681B68704A934218D07B681B6873
:104D10006E4A934213D07B681B686D4A93420ED053
:104D20007B681B686B4A934209D07B681B686A4AA0
:104D3000934204D07B681B68684A934208D17B6821
:104D40001B681A687B681B6822F008021A6007E07B
:104D50007B681B681A687B681B6822F004021A6073
:104D60007B681B6C002B00F065817B681B6C78688E
:104D700098475FE17B68DB6D03F01F0302229A40D6
:104D80007B691340002B00F0C5803B6903F00203F0
:104D9000002B00F0BF807B68DB6D03F01F03022255
:104DA0009A40FB695A603B6903F40043002B18D01A
:104DB0003B6903F48033002B09D17B685B6C002BCB
:104DC00000F03A817B685B6C7868984734E17B68D7
:104DD000DB6B002B00F030817B68DB6B78689847D9
:104DE0002AE13B6903F02003002B40F089807B68B7
:104DF0001B682B4A93424AD07B681B68294A93421E
:104E000045D07B681B68284A934240D07B681B686A
:104E1000264A93423BD07B681B68254A934236D092
:104E20007B681B68234A934231D07B681B68224A07
:104E300093422CD07B681B68204A934227D07B6822
:104E40001B681F4A934222D07B681B681D4A93420D
:104E50001DD07B681B681C4A934218D07B681B6876
:104E60001A4A934213D07B681B68194A93420ED0AA
:104E70007B681B68174A934209D07B681B68164AF7
:104E8000934204D07B681B68144A934228D17B6804
:104E90001B681A687B681B6822F014021A6027E0FE
:104EA000100002402800024040000240580002402A
:104EB0007000024088000240A0000240B80002409A
:104EC00010040240280402404004024058040240FA
:104ED0007004024088040240A0040240B80402406A
:104EE0007B681B681A687B681B6822F00A021A60DC
:104EF0007B68012283F835207B68002283F8342008
:104F00007B68DB6B002B00F097807B68DB6B78683D
:104F1000984791E07B68DB6D03F01F0308229A40FD
:104F20007B691340002B00F088803B6903F0080385
:104F3000002B00F082807B681B68414A93424AD074
:104F40007B681B683F4A934245D07B681B683E4A9A
:104F5000934240D07B681B683C4A93423BD07B68BD
:104F60001B683B4A934236D07B681B68394A9342A0
:104F700031D07B681B68384A93422CD07B681B6811
:104F8000364A934227D07B681B68354A934222D029
:104F90007B681B68334A93421DD07B681B68324A8A
:104FA000934218D07B681B68304A934213D07B68C9
:104FB0001B682F4A93420ED07B681B682D4A934290
:104FC00009D07B681B682C4A934204D07B681B681D
:104FD0002A4A934208D17B681B681A687B681B6861
:104FE00022F01C021A6007E07B681B681A687B6865
:104FF0001B6822F00E021A607B68DB6D03F01F0352
:1050000001229A40FB695A607B6801225A657B68DD
:10501000012283F835207B68002283F834207B68E6
:10502000DB6C002B09D07B68DB6C7868984704E068
:1050300000BF02E000BF00E000BF2837BD4680BDD2
:105040001000024028000240400002405800024088
:105050007000024088000240A0000240B8000240F8
:105060001004024028040240400402405804024058
:105070007004024088040240A0040240B8040240C8
:1050800080B487B000AFF860B9607A603B60FB68BD
:105090009B6D7B61FB689B6D3B61FB681B687F4A76
:1050A000934272D0FB681B687D4A93426DD0FB68C7
:1050B0001B687C4A934268D0FB681B687A4A93421B
:1050C00063D0FB681B68794A93425ED0FB681B681B
:1050D000774A934259D0FB681B68764A934254D072
:1050E000FB681B68744A93424FD0FB681B68734A85
:1050F00093424AD0FB681B68714A934245D0FB68D3
:105100001B68704A934240D0FB681B686E4A93420A
:105110003BD0FB681B686D4A934236D0FB681B6826
:105120006B4A934231D0FB681B686A4A93422CD089
:10513000FB681B68684A934227D0FB681B68674A74
:10514000934222D0FB681B68654A93421DD0FB68DE
:105150001B68644A934218D0FB681B68624A9342FA
:1051600013D0FB681B68614A93420ED0FB681B6832
:105170005F4A934209D0FB681B685E4A934204D0A1
:10518000FB681B685C4A934201D1012300E00023C5
:10519000002B0DD0FB685B6EFA68926E5A60FB685C
:1051A000DB6E002B04D0FB681B6FFA68526F5A60ED
:1051B000FB681B68394A93424AD0FB681B68384A2F
:1051C000934245D0FB681B68364A934240D0FB6847
:1051D0001B68354A93423BD0FB681B68334A9342B5
:1051E00036D0FB681B68324A934231D0FB681B689B
:1051F000304A93422CD0FB681B682F4A934227D039
:10520000FB681B682D4A934222D0FB681B682C4A1E
:1052100093421DD0FB681B682A4A934218D0FB6852
:105220001B68294A934213D0FB681B68274A9342A4
:105230000ED0FB681B68264A934209D0FB681B68A6
:10524000244A934204D0FB681B68234A934201D14D
:10525000012300E00023002B59D0FB68DB6D03F035
:105260001F033F229A407B699A60FB681B681A689B
:10527000FB681B6822F480221A60FB681B683A688E
:105280005A60FB689B68402B38D1FB681B687A68C2
:105290009A60FB681B68BA68DA6086E0100002401A
:1052A00028000240400002405800024070000240C6
:1052B00088000240A0000240B800024010040240F2
:1052C0002804024040040240580402407004024096
:1052D00088040240A0040240B80402400854025866
:1052E0001C5402583054025844540258585402581E
:1052F0006C5402588054025894540258FB681B683E
:10530000BA689A60FB681B687A68DA604DE0FB68EF
:105310001B68294A934222D0FB681B68274A9342A4
:105320001DD0FB681B68264A934218D0FB681B6897
:10533000244A934213D0FB681B68234A93420ED041
:10534000FB681B68214A934209D0FB681B68204A0E
:10535000934204D0FB681B681E4A934201D101238B
:1053600000E00023002B20D0FB68DB6D03F01F035F
:1053700001229A403B695A60FB681B683A685A6090
:10538000FB689B68402B08D1FB681B687A689A60B1
:10539000FB681B68BA68DA6007E0FB681B68BA68DC
:1053A0009A60FB681B687A68DA6000BF1C37BD46EC
:1053B0005DF8047B704700BF085402581C54025823
:1053C0003054025844540258585402586C540258ED
:1053D000805402589454025880B485B000AF78606D
:1053E0007B681B68424A93424AD07B681B68414AEB
:1053F000934245D07B681B683F4A934240D07B680C
:105400001B683E4A93423BD07B681B683C4A9342F0
:1054100036D07B681B683B4A934231D07B681B685F
:10542000394A93422CD07B681B68384A934227D074
:105430007B681B68364A934222D07B681B68354ADA
:1054400093421DD07B681B68334A934218D07B6817
:105450001B68324A934213D07B681B68304A9342E0
:105460000ED07B681B682F4A934209D07B681B686B
:105470002D4A934204D07B681B682C4A934201D189
:10548000012300E00023002B24D07B681B68DBB2E3
:10549000103B274AA2FB03231B09FB60FB6803F0B8
:1054A0000703244AD35C1A467B68DA65FB68032B42
:1054B00008D97B681B681A461F4B13401A1D7B686E
:1054C0009A650DE07B681B681A461B4B13407A688F
:1054D000936505E07B681B6823F0FF027B689A6593
:1054E0007B689B6D18461437BD465DF8047B70479A
:1054F00010000240280002404000024058000240D4
:105500007000024088000240A0000240B800024043
:1055100010040240280402404004024058040240A3
:105520007004024088040240A0040240B804024013
:10553000ABAAAAAA782E010800FCFFFF80B485B0B0
:1055400000AF78600023FB737B689B69002B20D140
:105550007B689B6A032B58D801A252F823F000BF46
:105560007155000883550008715500080B56000856
:105570007B68DB6A03F08073002B48D00123FB7348
:1055800045E07B68DB6AB3F1C07F42D10123FB7346
:105590003FE07B689B69B3F5005F23D17B689B6A22
:1055A000032B38D801A252F823F000BFBD550008E4
:1055B000C3550008BD550008D55500080123FB73ED
:1055C00030E07B68DB6A03F08073002B25D0012379
:1055D000FB7322E07B68DB6AB3F1C07F1FD101233C
:1055E000FB731CE07B689B6A022B02D9032B03D060
:1055F00018E00123FB7315E07B68DB6A03F080731E
:10560000002B0ED00123FB730BE000BF0AE000BFAC
:1056100008E000BF06E000BF04E000BF02E000BFFA
:1056200000E000BFFB7B18461437BD465DF8047BE5
:10563000704700BF80B485B000AF78607B681B689E
:10564000BB607B681B68384A934222D07B681B682A
:10565000364A93421DD07B681B68354A934218D066
:105660007B681B68334A934213D07B681B68324ABD
:1056700093420ED07B681B68304A934209D07B6806
:105680001B682F4A934204D07B681B682D4A9342C3
:1056900001D1012300E00023002B1AD07B681B6896
:1056A000DBB2083B284AA2FB03231B09FB60FA6814
:1056B000264B13449B001A467B681A667B68244A73
:1056C0005A66FB6803F01F0301229A407B689A66C2
:1056D00024E07B681B68DBB2103B1E4AA2FB03235D
:1056E0001B09FB60BB681C4A934206D8BB681B4A77
:1056F000934202D9FB680833FB60FA68184B1344E5
:105700009B001A467B681A667B68164A5A66FB68D5
:1057100003F01F0301229A407B689A6600BF14378A
:10572000BD465DF8047B7047085402581C5402586B
:105730003054025844540258585402586C54025879
:105740008054025894540258CDCCCCCC009600160C
:1057500080580258ABAAAAAAB80402400F0402401B
:10576000008200108008024080B485B000AF7860ED
:105770007B685B68DBB2FB60FB68002B4AD0FB6890
:10578000082B47D87B681B68254A934222D07B6848
:105790001B68244A93421DD07B681B68224A9342AF
:1057A00018D07B681B68214A934213D07B681B6822
:1057B0001F4A93420ED07B681B681E4A934209D051
:1057C0007B681B681C4A934204D07B681B681B4A99
:1057D000934201D1012300E00023002B0AD0FA6894
:1057E000174B13449B001A467B68DA667B68154AA0
:1057F0001A6709E0FA68144B13449B001A467B6849
:10580000DA667B68114A1A67FB68013B01229A40FD
:105810007B685A6700BF1437BD465DF8047B70474C
:10582000085402581C540258305402584454025828
:10583000585402586C5402588054025894540258D8
:105840003F960016405902583F820010400902401E
:1058500080B584B000AF78607B68002B01D1012354
:10586000E3E07B68D3F88430002B06D17B682322E9
:10587000C3F884207868FCF76BFB6E4BD3F8F430E8
:105880006C4A43F00203C2F8F4306A4BD3F8F430A8
:1058900003F00203BB60BB687B681B7A002B03D15B
:1058A0000020FDF789F803E04FF40000FDF784F8CD
:1058B000614B5B687B681B6803F580531B687A68E3
:1058C000126843F0010302F580521360FDF738F8C7
:1058D000F86011E0FDF734F80246FB68D31AB3F51F
:1058E000FA7F09D97B680422C3F888207B68E0220C
:1058F000C3F88420012398E07B681B6803F580537C
:105900001B6803F00103002BE4D1786800F09EF8D7
:1059100002F002FF0346494AA2FB03239A0C7B686C
:105920001B68013AC3F8DC20786800F081FA7B68D4
:105930001B6803F58053D3F8003123F4E0137A6831
:10594000126843F4002302F58052C2F800317B68EC
:105950005B6903F00303002B09D07B680122C3F8C5
:1059600088207B68E022C3F8842001235DE07B6807
:105970001B6803F58053D3F80821314B13407A6834
:10598000526951007A6812680B4302F58052C2F8DE
:105990000831786800F0E9FA786800F02FFB7B683E
:1059A0005B6805331B781A027B685B6804331B78DD
:1059B00019467B681B680A43C3F800237B685B6851
:1059C00003331B781A067B685B6802331B781B0461
:1059D0001A437B685B6801331B781B021A437B68A0
:1059E0005B681B7819467B681B680A43C3F804236D
:1059F0007B681B68D3F80C177B681A68114B0B4344
:105A0000C2F80C377B681B68D3F810177B681A68DC
:105A10000D4B0B43C2F810377B680022C3F8882077
:105A20007B681022C3F88420002318461037BD4637
:105A300080BD00BF004402580004005883DE1B43B1
:105A40000180FFFF6000020C00C0200C80B584B014
:105A500000AF78607B681B68D3F80032FB60FB689E
:105A600023F47063FB6002F057FEB860BB681A4A0B
:105A7000934204D8FB6843F40073FB6022E0BB68E8
:105A8000164A934204D2FB6843F44073FB6019E06A
:105A9000BB68134A934215D9BB68124A934204D893
:105AA000FB6843F48073FB600CE0BB680E4A9342D2
:105AB00004D8FB6843F48063FB6003E0FB6843F4B5
:105AC000A063FB607B681B68FA68C3F8002200BF14
:105AD0001037BD4680BD00BFBF0E1602008793037E
