:020000040810E2
:100000000080041045041008F1031008F7031008DD
:10001000FD03100803041008090410080000000084
:100020000000000000000000000000000F041008A5
:100030001D041008000000002B04100839041008EB
:1000400095041008950410089504100895041008EC
:1000500095041008950410089504100895041008DC
:1000600095041008950410089504100895041008CC
:1000700095041008950410089504100895041008BC
:1000800095041008950410089504100895041008AC
:10009000950410089504100895041008950410089C
:1000A000950410089504100895041008950410088C
:1000B000950410089504100895041008950410087C
:1000C000950410089504100895041008950410086C
:1000D000950410089504100895041008950410085C
:1000E00095041008950410080000000095041008FD
:1000F000950410089504100895041008950410083C
:10010000950410089504100895041008950410082B
:10011000950410089504100895041008950410081B
:10012000950410089504100895041008950410080B
:1001300095041008950410089504100895041008FB
:10014000950410089504100800000000000000004D
:1001500095041008950410089504100895041008DB
:1001600095041008950410089504100895041008CB
:10017000950410089504100895041008000000006C
:1001800095041008950410089504100895041008AB
:10019000950410089504100895041008950410089B
:1001A000950410089504100895041008950410088B
:1001B000950410089504100895041008950410087B
:1001C000950410089504100895041008950410086B
:1001D000950410089504100895041008950410085B
:1001E000950410089504100895041008950410084B
:1001F000950410089504100895041008950410083B
:10020000950410089504100895041008950410082A
:10021000950410089504100895041008950410081A
:1002200095041008950410089504100800000000BB
:1002300095041008950410089504100895041008FA
:1002400095041008950410089504100895041008EA
:1002500095041008950410089504100895041008DA
:1002600095041008950410089504100895041008CA
:1002700095041008950410089504100895041008BA
:10028000950410089504100895041008000000005B
:08029000950410089504100804
:1002980010B5054C237833B9044B13B10448AFF3B8
:1002A80000800123237010BD100000100000000022
:1002B800480C100808B5034B1BB103490348AFF3BA
:1002C800008008BD0000000014000010480C100851
:1002D80080B400AF094BD3F88830084A43F4700360
:1002E800C2F88830054B1B69044A43F010031361B8
:1002F80000BFBD465DF8047B704700BF00ED00E01D
:1003080080B582B000AF1B4BD3F8E030194A43F0F8
:100318000073C2F8E030174BD3F8E03003F00073F5
:100328007B607B68012000F053FA00F0DDFA0122BF
:100338000221002000F05EFA0F4B1B681B0903F036
:100348000F03072B08D10D4BD3F804310B4A43F0A8
:100358000103C2F8043107E0084BD3F81431074A07
:1003680043F00103C2F8143100F092F800F008F8E5
:10037800FEE700BF0044025800ED00E000640258A8
:1003880080B483B000AF0A4BD3F8D830084A43F0A2
:100398000103C2F8D830064BD3F8D83003F0010374
:1003A8007B607B6800BF0C37BD465DF8047B7047F7
:1003B8000044025880B483B000AF0A4BD3F8F4303D
:1003C800084A43F00203C2F8F430064BD3F8F4307D
:1003D80003F002037B607B6800BF0C37BD465DF805
:1003E800047B70470044025880B400AFFEE780B435
:1003F80000AFFEE780B400AFFEE780B400AFFEE7D1
:1004080080B400AFFEE780B400AF00BFBD465DF822
:10041800047B704780B400AF00BFBD465DF8047B25
:10042800704780B400AF00BFBD465DF8047B7047DD
:1004380080B500AF00F0C0F800BF80BDDFF834D051
:10044800FFF746FF0C480D490D4A002302E0D45837
:10045800C4500433C4188C42F9D30A4A0A4C002306
:1004680001E013600432A242FBD300F0C5FBFFF7A2
:1004780047FF7047008004100000001010000010B3
:10048800780C10081000001030000010FEE7000083
:1004980080B582B000AF284BD3F8D830264A43F451
:1004A8008043C2F8D830244BD3F8D83003F48043C3
:1004B8003B603B68214B1B6823F47F2323F4706364
:1004C8001E4A43F4014313601C4B1B681B4A43F04C
:1004D80001031360032000F035F900F013FA024617
:1004E800154B9B691B0A03F00F031549CB5C03F0FE
:1004F8001F0322FA03F37B600F4B9B6903F00F0382
:100508000F4AD35C03F01F037A6822FA03F30D4AFB
:1005180013600C4B1B680C4A1360002000F016F89F
:100528000346002B01D0012302E0FFF743FF00231D
:1005380018460837BD4680BD0044025800440240B2
:10054800600C1008040000100000001080B582B094
:1005580000AF7860154B1B78002B01D1012321E0F7
:10056800134B1A68114B1B7819464FF47A73B3FB77
:10057800F1F3B2FBF3F3184600F009F90346002B38
:1005880001D001230EE07B680F2B0AD8002279687E
:100598004FF0FF3000F0E1F8064A7B681360002353
:1005A80000E0012318460837BD4680BD0C00001046
:1005B800000000100800001080B400AF064B1B7844
:1005C8001A46064B1B681344044A136000BFBD4615
:1005D8005DF8047B704700BF0C0000102C00001071
:1005E80080B485B000AF78607B6803F00703FB60D8
:1005F8000C4BDB68BB60BA684FF6FF031340BB6067
:10060800FB681A02BB68134343F0BF6343F400332B
:10061800BB60044ABB68D36000BF1437BD465DF8B1
:10062800047B704700ED00E080B400AF044BDB684A
:100638001B0A03F007031846BD465DF8047B7047A4
:1006480000ED00E080B483B000AF03463960FB8062
:10065800B7F90630002B0ADB3B68DAB20C49B7F968
:1006680006301201D2B20B4483F800230AE03B683B
:10067800DAB20849FB8803F00F03043B1201D2B237
:100688000B441A7600BF0C37BD465DF8047B7047F3
:1006980000E100E000ED00E080B489B000AFF86050
:1006A800B9607A60FB6803F00703FB61FB69C3F17B
:1006B8000703042B28BF0423BB61FB690433062B03
:1006C80002D9FB69033B00E000237B614FF0FF3256
:1006D800BB6902FA03F3DA43BB681A407B699A40A4
:1006E8004FF0FF317B6901FA03F3D9437B680B4074
:1006F800134318462437BD465DF8047B7047000055
:1007080080B582B000AF78607B68013BB3F1807F31
:1007180001D301230FE00A4A7B68013B53600F2194
:100728004FF0FF30FFF78EFF054B00229A60044B15
:1007380007221A60002318460837BD4680BD00BF4F
:1007480010E000E080B582B000AF78607868FFF70D
:1007580047FF00BF0837BD4680BD80B586B000AFF3
:100768000346B9607A60FB81FFF75EFF78617A68BB
:10077800B9687869FFF790FF0246B7F90E3011465D
:100788001846FFF75FFF00BF1837BD4680BD80B52C
:1007980082B000AF78607868FFF7B2FF034618466A
:1007A8000837BD4680BD000080B400AF074B1B680A
:1007B8001B0903F00F03072B01D1032300E00123DA
:1007C8001846BD465DF8047B704700BF00ED00E0A9
:1007D80080B483B000AF7860054B1A6804497B6821
:1007E80013430B6000BF0C37BD465DF8047B7047B0
:1007F8001065025880B584B000AFF8600B467A6087
:10080800FB72374B1B6823F001023549FB68134321
:100818000B607B68002B23D1FFF7C6FF0346032B31
:1008280058D12F4B1B692E4A23F0010313612D4B1E
:100838001B692C4A43F004031361BFF34F8F00BFB9
:10084800BFF36F8F00BFFB7A012B01D130BF00E0EF
:1008580020BF244B1B69234A23F0040313613CE0A7
:100868007B68012B23D1FFF79FFF0346012B33D170
:100878001B4B5B691A4A23F002035361194B1B692E
:10088800184A43F004031361BFF34F8F00BFBFF34F
:100898006F8F00BFFB7A012B01D130BF00E020BF72
:1008A800104B1B690F4A23F00403136115E0FFF78F
:1008B8007BFF0346032B06D1094B1B69084A23F02B
:1008C8000403136109E0064B5B69054A23F004033E
:1008D800536102E000BF00E000BF1037BD4680BD95
:1008E8000048025800ED00E080B500AFFFF75CFF5C
:1008F8000346032B01D120BF01E040BF20BF00BF4A
:1009080080BD000080B489B000AFB34B1B6903F011
:100918003803182B00F2558101A252F823F000BFCA
:100928008D091008CB0B1008CB0B1008CB0B100847
:10093800CB0B1008CB0B1008CB0B1008CB0B1008F7
:10094800B3091008CB0B1008CB0B1008CB0B100801
:10095800CB0B1008CB0B1008CB0B1008CB0B1008D7
:10096800B9091008CB0B1008CB0B1008CB0B1008DB
:10097800CB0B1008CB0B1008CB0B1008CB0B1008B7
:10098800BF091008944B1B6803F02003002B09D003
:10099800914B1B68DB0803F00303904A22FA03F328
:1009A800BB6111E18D4BBB610EE18D4BBB610BE16E
:1009B8008C4BBB6108E1884B9B6A03F003037B61A6
:1009C800854B9B6A1B0903F03F033B61824BDB6A43
:1009D80003F00103FB60804B5B6BDB08C3F30C0384
:1009E800FA6802FB03F307EE903AF8EE677AC7ED70
:1009F800027A3B69002B00F0E1807B69022B00F052
:100A080083807B69022B00F2A1807B69002B03D0D5
:100A18007B69012B56D099E06F4B1B6803F02003CC
:100A2800002B2DD06C4B1B68DB0803F003036B4ACB
:100A380022FA03F37B607B6807EE903AF8EE676A68
:100A48003B6907EE903AF8EE677A86EEA77A624B32
:100A58001B6BC3F3080307EE903AF8EE676A97ED4D
:100A6800026ADFED615AC6EE257A76EEA77AF7EECE
:100A7800006A77EEA67A67EE277AC7ED077A87E0ED
:100A88003B6907EE903AF8EE677ADFED586A86EE32
:100A9800A77A514B1B6BC3F3080307EE903AF8EEA5
:100AA800676A97ED026ADFED505AC6EE257A76EE50
:100AB800A77AF7EE006A77EEA67A67EE277AC7ED8F
:100AC800077A65E03B6907EE903AF8EE677ADFED62
:100AD800486A86EEA77A404B1B6BC3F3080307EE00
:100AE800903AF8EE676A97ED026ADFED3F5AC6EE74
:100AF800257A76EEA77AF7EE006A77EEA67A67EEA1
:100B0800277AC7ED077A43E03B6907EE903AF8EE9B
:100B1800677ADFED386A86EEA77A2F4B1B6BC3F333
:100B2800080307EE903AF8EE676A97ED026ADFED80
:100B38002E5AC6EE257A76EEA77AF7EE006A77EE99
:100B4800A67A67EE277AC7ED077A21E03B6907EEB8
:100B5800903AF8EE677ADFED266A86EEA77A1E4BA2
:100B68001B6BC3F3080307EE903AF8EE676A97ED3C
:100B7800026ADFED1D5AC6EE257A76EEA77AF7EE01
:100B8800006A77EEA67A67EE277AC7ED077A00BF84
:100B9800114B1B6B5B0A03F07F0301333B603B681F
:100BA80007EE903AB8EE677AD7ED076AC6EE877A0D
:100BB800FCEEE77A17EE903ABB6105E00023BB61D3
:100BC80002E0074BBB6100BFBB6918462437BD462E
:100BD8005DF8047B704700BF004402580090D003C2
:100BE80000093D0000127A00000000460024744C01
:100BF8000024744A0024F44A70B50D4D0D4C641B52
:100C0800A4100026A64209D10B4D0C4C00F018F890
:100C1800641BA4100026A64205D170BD55F8043BFC
:100C280098470136EEE755F8043B98470136F2E756
:100C3800700C1008700C1008700C1008740C100858
:100C4800F8B500BFF8BC08BC9E467047F8B500BFB1
:080C5800F8BC08BC9E46704781
:100C60000000000001020304010203040607080952
:040C7000BD021008A9
:040C740099021008C9
:100C78000090D0030090D003100000000100000095
:040000050810044596
:00000001FF
